:020000040800F2
:10000000D8100020650300081D5C0008CB430008E1
:10001000195C00089D0600084982000800000000E5
:10002000000000000000000000000000A502000821
:100030005D0A00080000000001030008897A00083A
:100040007F0300087F0300087F0300087F03000888
:100050007F0300087F0300087F0300087F03000878
:100060007F0300087F0300087F0300087F03000868
:100070007F0300087F0300087F0300087F03000858
:100080007F0300087F0300087F0300087F03000848
:10009000A1060008B10600087F0300087F030008DE
:1000A0007F0300088D7B00087F0300087F030008A2
:1000B0007F0300087F0300087F030008E143000876
:1000C000D14300087F0300087F0300087F03000876
:1000D0007F0300087F0300087F0300087F030008F8
:1000E0007F0300087F0300087F0300087F030008E8
:1000F0007F0300089D7B00087F0300087F03000842
:100100007F0300087F0300087F0300087F030008C7
:100110008D7D00089D7D00087F0300087F03000897
:100120007F0300087F0300087F0300087F030008A7
:100130007F03000800000000000000007F030008AB
:10014000C1060008D10600087F0300087F030008ED
:100150007F0300087F0300087F0300087F03000877
:100160007F0300087F0300087F0300087F03000867
:100170007F0300087F0300087F03000800000000E1
:10018000000000007F0300080000000000000000E5
:100190007F03000800000000000000007F0300084B
:1001A0000000000000000000000000007F030008C5
:1001B0007F0300087F0300087F0300087F03000817
:1001C0007F03000800F002F800F05CF80AA090E855
:1001D000000C82448344AAF10107DA4501D100F002
:1001E00051F8AFF2090EBAE80F0013F0010F18BF73
:1001F000FB1A43F001031847A0A80000C0A80000A4
:100200000A444FF0000C10F8013B13F0070408BF3C
:1002100010F8014B1D1108BF10F8015B641E05D0DA
:1002200010F8016B641E01F8016BF9D113F0080F8F
:100230001EBF10F8014BAD1C0C1B09D16D1E58BF21
:1002400001F801CBFAD505E014F8016B01F8016B58
:100250006D1EF9D59142D6D37047000000230024CB
:1002600000250026103A28BF78C1FBD8520728BFC6
:1002700030C148BF0B6070471FB50AF0CAFA1FBDF6
:1002800010B510BD00F0BAF91146FFF7F5FF09F0FF
:1002900049FB00F0D8F903B4FFF7F2FF03BC00F00C
:1002A000DBF900002C4B19680868B0E8F04F80F3C8
:1002B0000988BFF36F8F4FF0000080F311887047FB
:1002C0000000000008480068006880F308884FF0CC
:1002D000000080F3148862B661B6BFF34F8FBFF39E
:1002E0006F8F00DF00BF00BF08ED00E0DFF80C00FB
:1002F000016841F470010160704700BF88ED00E0C3
:10030000EFF30980BFF36F8F134B1A681EF0100FC5
:1003100008BF20ED108A20E9F04F106009B44FF0BB
:10032000500080F31188BFF34F8FBFF36F8F09F038
:10033000CFFB4FF0000080F3118809BC19680868F2
:10034000B0E8F04F1EF0100F08BFB0EC108A80F339
:100350000988BFF36F8F7047FC030020EFF305801F
:10036000704700000948804709480047FEE7FEE75C
:10037000FEE7FEE7FEE7FEE7FEE7FEE7FEE7FEE755
:1003800004480549054A064B70470000797B000880
:10039000C5010008D80A0020D8100020D80C002081
:1003A000D80C002053EA020C00F069802DE9F04BD4
:1003B0004FF00006002B1FBFB3FA83F503FA05F4D4
:1003C00024FA05F65E4012BF1643B2FA82F502FA2D
:1003D00005F4C5F120051EBF22FA05FC44EA0C0411
:1003E000203556EA044C4FEA144418BF641C4FF001
:1003F00000084FF00009904271EB030C39D300293B
:1004000019BFB1FA81F701FA07F6B0FA80F700FADE
:1004100007F6C7F120071EBF20FA07FC46EA0C06C4
:100420002037B6FBF4FCA7EB0507103F07F01F0BC6
:10043000CBF120060CFA0BFB2CFA06F644BFB346B0
:100440000026202FA4BF5E464FF0000B5BEA060C8F
:1004500008BF4FF0010B19EB0B09ABFB027C48EB1B
:100460000608C01B06FB02CC0BFB03CC71EB0C0196
:10047000C1E70B46024641464846BDE8F08B13B53E
:100480004FF000004FF00001AFF30080BDE81C40CA
:100490007047032A40F2308010F0030C00F0158002
:1004A00011F8013BBCF1020F624498BF11F801CB77
:1004B00000F8013B38BF11F8013BA2F1040298BFDC
:1004C00000F801CB38BF00F8013B11F0030300F046
:1004D0005A80083AC0F0088051F8043B083A51F8B5
:1004E00004CBA0E80810F5E7121D5CBF51F8043BEF
:1004F00040F8043BAFF30080D20724BF11F8013B62
:1005000011F801CB48BF11F8012B24BF00F8013BC3
:1005100000F801CB48BF00F8012B70474FF00002F4
:1005200000B5134694469646203922BFA0E80C50E9
:10053000A0E80C50B1F12001BFF4F7AF090728BFC4
:10054000A0E80C5048BF0CC05DF804EB890028BF40
:1005500040F8042B08BF704748BF20F8022B11F069
:10056000804F18BF00F8012B7047704770477047E5
:1005700010B500F03BF8006810BD10B5044600F05F
:1005800035F8046010BD10B5203AC0F00B80B1E81A
:100590001850203AA0E81850B1E81850A0E81850B8
:1005A000BFF4F5AF5FEA027C24BFB1E81850A0E8C1
:1005B000185044BF18C918C0BDE810405FEA827CDB
:1005C00024BF51F8043B40F8043B08BF7047D207F2
:1005D00028BF31F8023B48BF11F8012B28BF20F893
:1005E000023B48BF00F8012B7047000000487047ED
:1005F000740A002000487047740A00207546FFF70F
:10060000F9FFAE4605006946534620F007008546CF
:1006100018B020B5FFF7B4FEBDE820404FF000064B
:100620004FF000074FF000084FF0000B21F00701DA
:10063000AC46ACE8C009ACE8C009ACE8C009ACE81D
:10064000C0098D46704710B50446AFF300802046C0
:10065000BDE81040FFF71FBE01491820ABBEFEE702
:100660002600020070470000094901EB8001094A99
:1006700012680A60064901EB800191ED000ABDEEA7
:10068000C00A10EE101A09B2034A22F8101070477F
:100690005407002037000020A407002000BFFEE719
:1006A00010B5024801F0A1F910BD00003804002087
:1006B00010B5024801F099F910BD0000380400207F
:1006C00010B5024801F091F910BD0000600400204F
:1006D00010B5024801F089F910BD00006004002047
:1006E00008B5014661B9002004E00E4A125C0E4BC9
:1006F0001A54401C0328F8DD0B48006800900EE0F7
:1007000001290CD1002005E0064B021D9A5C064B26
:100710001A54401C0328F7DD0348006800909DED43
:10072000000A08BD37000020150000200146002007
:1007300008784A7842EA0020704700002DE9FF411E
:100740002DED020B04460D4617461E460020584963
:1007500048600875886008460761012E01D10220B3
:1007600004E0022E01D1002000E002205049C860C0
:10077000182D7AD2DFE805F00C222D3D434F555B52
:10078000724966177979797979797979797979738B
:100790003A4669464748FFF77CFE0D2040EA441080
:1007A0004349086062E03A4669464248FFF771FEF5
:1007B0000C2040EA44103E49086057E03A4669463A
:1007C0003C48FFF766FE0E2040EA441038490860B6
:1007D0004CE08C20374988714220C8710846009946
:1007E00001600820324908610F2040EA4410086087
:1007F0003CE0032000EB44102D49086036E0042063
:1008000000EB44102A49086030E0052000EB44105A
:10081000274908602AE0142040EA4410244908606F
:1008200024E0092040EA4410214908601EE03A46CD
:1008300069462048FFF72DFE1C2040EA44101C4961
:10084000086013E03A4669461A48FFF722FE152071
:1008500040EA44101649086008E006E006E0172068
:1008600040EA44101249086000E000BF00BF4FF0AA
:1008700000080EE0104B0F4A0D49104800F0B3FE7F
:100880000F480068401C0E49086008F1010000F0A4
:10089000FF08B8F1050FEDDB002004E00021054A58
:1008A0001154411CC8B20828F8DB06B0BDE8F0813D
:1008B000B40500201F00002050000020600400202C
:1008C0005400002070B52DED0A8BB0EE408A04462E
:1008D0000D46544890ED000A38EE400A524880ED2B
:1008E000000A006809F024FF41EC1A0B4F4890ED14
:1008F000000B53EC102B51EC1A0B09F0C5FA41EC2C
:10090000190B09F0DBF94A4908604748006809F00B
:100910000FFF41EC1C0B454890ED000B53EC102BE6
:1009200051EC1C0B09F0DAFC41EC1A0B4148006851
:1009300009F0FEFE41EC1B0B53EC1A2B09F0F0F909
:1009400041EC190B09F0BAF93A4908603A4890EDC0
:10095000000A20EE080ABDEEC00A384880ED000A01
:10096000374890ED000A0846D0ED000A20EE200A34
:10097000BDEEC00A334880ED000A0068022801DDA0
:10098000022009E02F48006810F1020F02DA6FF030
:10099000010001E02B4800682A4908602A4890EDD0
:1009A000000A2348D0ED000A20EE200ABDEEC00A5E
:1009B000264880ED000A2148006809680844234958
:1009C0000968084400EE100AB8EEC00A204880ED1D
:1009D000000A90ED000ADFED1F0AB4EEE00AF1EE26
:1009E00010FA02DD9FED1B0A0FE0194890ED000A96
:1009F000DFED190AB4EEE00AF1EE10FA02D29FED33
:100A0000160A02E0124890ED000A114880ED000A33
:100A1000044880ED008A0E4890ED000ABDEC0A8B78
:100A200070BD0000640200205802002080020020F7
:100A30005C02002060020020680200207402002096
:100A40006C02002078020020700200207C0200204E
:100A50005402002000008C4200008CC2704700004D
:100A600000B52DED108B81B0B0EE408AF0EE608ABB
:100A70009FED310BB0EE409AF0EE609A9FED300A98
:100A80008DED000A9FED2F0B53EC102B51EC180B42
:100A900009F0FAF941EC1B0B9FED2C0B53EC102BDA
:100AA00009F01CFC41EC1A0BB0EE4A0AF0EE6A0A9F
:100AB00008F00EF9B0EE409AF0EE609A25490988E8
:100AC000480009F0A4FB41EC1E0B53EC192B9FEDE1
:100AD000220B51EC100B09F0D7F941EC1F0B53EC32
:100AE0001E2B09F01DF941EC1D0B53EC1D2B9FED46
:100AF0001A0B51EC100B09F0C7F941EC1C0BB0EECE
:100B00004C0AF0EE6C0A07F023FDB0EE40BAF0EEAE
:100B100060BA9FED130B53EC102B51EC1B0B09F03B
:100B2000DDFB41EC1A0B09F0C9F800909DED000ABD
:100B300001B0BDEC108B00BD000000000000000003
:100B40000000000000000000008066401F85EB519F
:100B5000B81E0940A60000200000000000208C40C4
:100B6000E79AD56194A94C4010B52DED028B9FED0D
:100B7000BE0AB0EE408ABD48007800284AD1BC4881
:100B80000078042846DBBA480078042819D1B9480F
:100B90000078B0B1B8480078012805D1B1EE480A14
:100BA000B64880ED000A0CE0B3480078022803D173
:100BB000B24880ED008A04E09FEDB10AAF4880EDB5
:100BC000000AAB48007805281AD1AA480078B8B1C5
:100BD000A9480078012803D1A84880ED008A1EE0CA
:100BE000A5480078022805D1B1EE480AA34880ED57
:100BF000000A14E09FEDA20AA04880ED000A0EE072
:100C00009B48007804280ADA9FED9D0A9B4880EDF6
:100C1000000A04E09FED9A0A984880ED000A944883
:100C20000078042804DA9FED960A944880ED000AC3
:100C3000924890ED000A934880ED000A924880EDBA
:100C4000000A90ED000AB5EEC00AF1EE10FA08D2E3
:100C50008E48B0F900008E49884202DCBAEE040AE0
:100C600013E0894890ED000AB5EEC00AF1EE10FAE3
:100C700008DD8648B0F9000010F1320F02DBB2EE59
:100C8000040A02E0804890ED000A7F4880ED000AE7
:100C900090ED000AB5EEC00AF1EE10FA19D27B48C9
:100CA000B0F900006FF41771884206DB7748B0F99D
:100CB000000077492D39884205DD7448B0F90000FD
:100CC00010F5177F05DA9FED6E0A6F4880ED000A78
:100CD0001CE06D4890ED000AB5EEC00AF1EE10FA86
:100CE00014DD6A48B0F9000010F1050F04DB674815
:100CF000B0F90000052804DD6448B0F900000528BB
:100D000004DB9FED5F0A604880ED000A5D4890EDCE
:100D1000000AB5EEC00AF1EE10FA08D25D48B0F94B
:100D200000005B49884202DCBAEE040A13E0554831
:100D300090ED000AB5EEC00AF1EE10FA08DD554854
:100D4000B0F9000010F1320F02DBB2EE040A02E04B
:100D50004C4890ED000A4B4880ED000A90ED000AE7
:100D6000B5EEC00AF1EE10FA19D24A48B0F9000007
:100D70006FF41771884206DB4648B0F90000444919
:100D80002D39884205DD4348B0F9000010F5177F82
:100D900005DA9FED3B0A3B4880ED000A1CE039482C
:100DA00090ED000AB5EEC00AF1EE10FA14DD3948F4
:100DB000B0F9000010F1050F04DB3648B0F900006F
:100DC000052804DD3348B0F90000052804DB9FED59
:100DD0002C0A2C4880ED000A284890ED000A2E4885
:100DE000D0ED000AB4EE600AF1EE10FA15D12648F3
:100DF00090ED000A2948D0ED000AB4EE600AF1EE49
:100E000010FA0AD11F4890ED000A2548D0ED000ADB
:100E1000B4EE600AF1EE10FA23D000240DE01A4877
:100E200090ED000A0F2005F062FC164890ED000AD4
:100E3000102005F05CFC601CC4B2042CEFDB0F48F2
:100E400090ED000A144880ED000A0F4890ED000A6A
:100E5000124880ED000A0B4890ED000A104880ED22
:100E6000000ABDEC028B10BD000092410001002081
:100E7000AC01002024010020AB0100209C020020D6
:100E800000000000A8020020A4020020B4020020FC
:100E9000DAFDFFFFB6020020A0020020AC02002015
:100EA000B00200202DE9F04F2DED068B87B00446EF
:100EB0000F4690461D469FED2C0B07F0C1FCB0EE8F
:100EC000409AF0EE609A9FED2A0B07F0B9FCB0EE65
:100ED00040AAF0EE60AA53EC192B51EC1A0B08F063
:100EE000D3FF41EC180B09F063F906902646E81988
:100EF000C11700EBD16104EB611189B2059105982E
:100F0000801B401C80B204904FF00009CB4623E0C8
:100F1000069806FA00F0384380B203903946284616
:100F200008F0EAFC82464FF47A7108EB09000223CC
:100F3000CDE901A10090AE210F48039A01F060FEB7
:100F4000701C86B20027A5EB0A0085B209EB0A00E7
:100F50001FFA80F90BF1010B04988345D8DB07B029
:100F6000BDEC068BBDE8F08F0000000000000040E3
:100F700000000000000040408804002010B54A48EE
:100F8000C08B4A490988084400B24949088046484C
:100F9000008C48490988084400B2474908804748FE
:100FA00047490988018046490988A0F8401040490E
:100FB000098801874049098801813B48B0F9180038
:100FC00000EE100AB8EEC00A3E48D0ED000A30EE3E
:100FD000200A3D4880ED000A3348B0F91A0000EEBF
:100FE000100AB8EEC00A3948D0ED000A30EE200AE7
:100FF000374880ED000A2C48B0F91C0000EE100ABA
:10100000B8EEC00A3348D0ED000A30EE200A32486C
:1010100080ED000A29482C49096801612C490968BA
:1010200081612D49096801621F4880892B4909881F
:10103000084400B22A4908801B48C0892949098808
:10104000084400B2284908801C48254909880185C0
:10105000254909880186002016E0244931F910103D
:10106000164A32F91020914209D00121204A11700C
:10107000124931F810101D4A22F8101002E0002128
:101080001B4A1170411CC8B22328E6DD18480078BD
:1010900040B14823094A0021192000F02BF80A200A
:1010A00001F04CFA10BD0000A4070020B802002097
:1010B000B4020020BA020020B6020020140800206A
:1010C000C602002060010020540100205C010020C5
:1010D000580100206801002064010020C0020020A7
:1010E000BC020020C2020020BE0200205C080020DA
:1010F000CA0200202DE9F04F2DED068B87B0044683
:101100000F4690461D469FED2E0B07F099FBB0EE63
:10111000409AF0EE609A9FED2C0B07F091FBB0EE39
:1011200040AAF0EE60AA53EC192B51EC1A0B08F010
:10113000ABFE41EC180B09F03BF806902646E81987
:10114000C11700EBD16104EB611189B205910598DB
:10115000801B401C80B204904FF00009CB4626E073
:10116000069806FA00F0384380B2039039462846C4
:1011700008F0C2FB82464FF47A7108EB09000223A3
:10118000CDE901A10090AE211148039A01F0BCFE07
:10119000701C86B20027A5EB0A0085B209EB0A0095
:1011A0001FFA80F9052001F0C9F90BF1010B049831
:1011B0008345D5DB07B0BDEC068BBDE8F08F0000A2
:1011C000000000000000004000000000000040405F
:1011D0008804002010B5002202215C4801F0BCFA0E
:1011E00000220421594801F0B7FA59480078C0B1EB
:1011F000012406E09FED570A204605F05BFA601CCB
:10120000C4B2052CF6DB062406E09FED520A204608
:1012100005F06DFA601CC4B2112CF6DB00204C49BD
:10122000087001F09FFA00214B4B14CB831A61EB3D
:10123000040040F2DC529A1A884170D34748007883
:1012400028B947480078012801D144490870454829
:10125000007800BB012419E0052C15D0112C13D007
:10126000122C11D0132C0FD0142C0DD0062C0BD017
:1012700006E0204605F038F94FF4FA6001F05EF917
:101280003948005D0828F4D1601CC4B2112CE3DB9E
:101290000120344908703548007858BB01201EE011
:1012A00005281AD0112818D0122816D0132814D0C7
:1012B000142812D0062810D02D49095C2D4A32F886
:1012C0001020914204D12C490968491C2A4A116016
:1012D0002749095C274A22F81010411CC8B21B2874
:1012E000DEDB2548006810B9012020490870002085
:1012F0002149086019480078012811D1194800785F
:1013000001280DD119480078012809D11B4800781F
:10131000012805D11A480078012801D101E014E024
:101320000020184908700846007848B101220221BF
:10133000064801F011FA01220421044801F00CFAD8
:1013400001F010FA0021044A03C210BD000402405B
:10135000C903002000000000D8030020C4030020BF
:101360001D000020C503002062060020C6030020E7
:101370001C06002000090020E00300200D020020D0
:101380000C020020C803002072B600BFFEE7000078
:1013900010B57348007858B99FED720A724880ED15
:1013A000000A724880ED000A714880ED000AD6E01C
:1013B0006B4800780028FAD06E4890ED000A6E481D
:1013C000D0ED000A30EE600A6C4880ED000A002083
:1013D00001466A4A92ED000A05F0A0F8634880EDE4
:1013E000000A90ED000AF0EE000AB4EEE00AF1EE19
:1013F00010FA0BD890ED000AF8EE000AB4EEE00AFD
:10140000F1EE10FA02DB9FED570A02E0574890ED2B
:10141000000A564880ED000A90ED000AB5EEC00AB9
:10142000F1EE10FA01D0012000E0002054490870CC
:10143000544890ED000A5448D0ED000A30EE600A9E
:10144000524880ED000A00200146504A92ED000A01
:10145000FFF738FA444880ED000A90ED000AF0EEFC
:10146000000AB4EEE00AF1EE10FA0BD890ED000A93
:10147000F8EE000AB4EEE00AF1EE10FA02DB9FED9E
:10148000390A02E0384890ED000A374880ED000A3A
:1014900090ED000AB5EEC00AF1EE10FA01D001207D
:1014A00000E000203A4908703A48007828B93448EA
:1014B000007810B90846007808B1012000E000204B
:1014C00035490870354890ED000A2948D0ED000AEA
:1014D000B4EE600AF1EE10FA04D090ED000A2F4845
:1014E00080ED000A2E4890ED000A2048D0ED000A59
:1014F000B4EE600AF1EE10FA0DD090ED000AB1EEF4
:10150000400A2848007805F0F2F8184890ED000AE3
:10151000234880ED000A244890ED000A1248D0EDDF
:10152000000AB4EE600AF1EE10FA0BD090ED000A5A
:101530001E48007805F0DBF80B4890ED000A1A48C9
:1015400080ED000A1A480078012803D01948007875
:10155000012801D1012000E000201749087010BDCA
:10156000A40000200000000000020020F401002080
:10157000F00100209400002088000020BC01002021
:10158000090200209000002084000020C0010020FB
:101590000A020020080200200B020020F8010020AF
:1015A000FC0100206B000020040200206C000020E1
:1015B000C4020020C5020020CC02002010B5024663
:1015C00092F82030012B01D0022B06D1106840691F
:1015D000084314686061002010BD506A40F4802008
:1015E00050620120F8E7F0B504460D461E4694F817
:1015F000207020688368A86800B900E000BF012F50
:1016000001D0022F7DD103F0806030B903F000607B
:1016100018B903F0805000287ED0C3F30161012087
:1016200088403060A86860B9B5F800C0E86840EA52
:101630004C5C206800F5C07000EB0110C0F800C0E1
:101640000FE0D5E901C040EACC00D5F80CC040EA73
:101650000C00D4F800C00CF5C07C0CEB011CCCF8DD
:101660000000D5F810C0206800F5C07000EB011034
:10167000C0F804C0287D01280ED1206800F5C07094
:1016800000EB0110406840F4807C206800F5C070D9
:1016900000EB0110C0F804C0D079000692F806C033
:1016A00040EA0C4092F805C040EA0C2092F804C0D1
:1016B00040EA0C00D4F800C00CF5C07C0CEB011C17
:1016C000CCF80C00D078000692F802C040EA0C403A
:1016D00092F801C040EA0C2092F800C040EA0C00E9
:1016E000D4F800C00CF5C07C0CEB011CCCF8080051
:1016F000206800F5C07000EB0110006840F0010C9C
:1017000001E00FE008E0206800F5C07000EB011078
:10171000C0F800C00020F0BD606A40F400106062B4
:101720000120F8E7606A40F4802060620120F2E75F
:10173000F0B504460A46216894F82050012D01D0E6
:10174000022D7ED1424901F50071086840F0010088
:101750000860086820F47C5008600868566A40EA0F
:1017600006200860107D00F01F06012000FA06F335
:10177000C8699843C861A1F50071D069C8B9D1F8AA
:101780000C029843C1F80C02908880B2968940EA16
:10179000064601F51070576940F83760108880B22E
:1017A000168940EA064601F51070576900EBC7003C
:1017B0004660D069012819D1D1F80C021843C1F84C
:1017C0000C02908880B2168840EA064601F5107037
:1017D000576940F83760908980B2168940EA06461A
:1017E00001F51070576900EBC7004660906928B991
:1017F000D1F804029843C1F8040204E0D1F80402CD
:101800001843C1F80402106928B9D1F814029843AA
:10181000C1F8140204E0D1F814021843C1F814020C
:10182000106A012804D1D1F81C021843C1F81C0227
:10183000D1F8000220F00100C1F800020020F0BD44
:10184000FFE7606A40F4802060620120F7E7000053
:1018500000640040704770B5044694F82050012D94
:1018600001D0022D7DD151B92068C06800F003007D
:1018700080B9606A40F400106062012070BD206889
:10188000006900F0030028B9606A40F4001060624B
:101890000120F3E7206800F5D87000EB0110006824
:1018A00000F004009060906840B9206800F5D8709E
:1018B00000EB01100068400D106007E0206800F5A3
:1018C000D87000EB01100068C0085060206800F577
:1018D000D87000EB0110006800F00200D0602068B2
:1018E00000F5D87000EB0110406800F00F000828E8
:1018F00002D30820106108E0206800F5D87000EBE2
:101900000110406800F00F001061206800F5D870E9
:1019100000EB0110406800F47F40000A90612068ED
:1019200000F5D87000EB01104068000C5061206891
:1019300000F5D87000EB011080681870206800F581
:10194000D87000EB0110806800F47F40000A5870E6
:10195000206800F5D87000EB0110806800F47F006B
:1019600000E03CE0000C9870206800F5D87000EBB7
:1019700001108068000ED870206800F5D87000EB68
:101980000110C0681871206800F5D87000EB0110D4
:10199000C06800F47F40000A5871206800F5D870D4
:1019A00000EB0110C06800F47F00000C9871206803
:1019B00000F5D87000EB0110C068000ED87131B985
:1019C0002068C06840F020002668F06005E02068CC
:1019D000006940F020002668306100204EE7606A10
:1019E00040F480206062012048E72DE9F05F044662
:1019F0000025206846692068D0F804902068876830
:101A00002068D0F80CA02068D0F810B02068D0F87A
:101A1000188006F00100002855D007F00100C0B181
:101A200001202168886007F0020018B1204600F00C
:101A300010FD0EE007F0040010B145F4006508E069
:101A400007F0080010B145F4805502E0204600F090
:101A5000FFFC07F48070C8B14FF480702168886083
:101A600007F4007018B1204600F0F5FC0EE007F412
:101A7000806010B145F4005508E007F4006010B133
:101A800045F4804502E0204600F0E4FC07F4803095
:101A9000C8B14FF480302168886007F4003018B175
:101AA000204600F0DAFC0EE007F4802010B145F487
:101AB000004508E007F4002010B145F4803502E04D
:101AC000204600F0C9FC06F0080038B10AF010000A
:101AD00020B145F4007510202168C86006F00400AC
:101AE00040B10AF0080028B108202168C8602046EB
:101AF00000F01CFA06F0020038B12068C06800F05F
:101B0000030010B1204600F013FA06F0400038B18F
:101B10000BF0100020B145F48065102021680861A9
:101B200006F0200040B10BF0080028B10820216821
:101B30000861204600F0B8FB06F0100038B12068BC
:101B4000006900F0030010B1204600F0AFFB06F47E
:101B5000003040B109F0100028B110202168486021
:101B6000204600F045FC06F4803040B109F0080042
:101B700028B1082021684860204600F06FFC06F478
:101B8000004088B309F0040078B306F4807020B1F7
:101B900008F0010008B145F0010506F4007020B11D
:101BA00008F0020008B145F0020506F4806020B19B
:101BB00008F0040008B145F0040506F40060A0B187
:101BC00008F0700088B108F07000402817D006DCDB
:101BD00010280BD020280CD0302819D10CE0502828
:101BE00010D0602814D110E01DE019E045F0080580
:101BF0000FE045F010050CE045F0200509E045F048
:101C0000400506E045F0800503E045F4807500E0FE
:101C100000BF00BF2068806920F0700021688861E3
:101C20000420216848602DB1606A28436062204624
:101C3000FFF710FEBDE8F09F70B504460CB9012017
:101C400070BD94F8200010B9204600F0AFF820686D
:101C5000006840F001002168086000F083FD05463F
:101C60000DE000F07FFD401B0A2808D9606A40F4AF
:101C700000306062052084F820000120E0E7206841
:101C8000406800F001000028EBD02068006820F0D8
:101C900002002168086000F065FD05460DE000F0D7
:101CA00061FD401B0A2808D9606A40F40030606278
:101CB000052084F820000120C2E72068406800F079
:101CC00002000028EBD1207E012806D120680068A0
:101CD00040F080002168086005E02068006820F07E
:101CE000800021680860607E012806D120680068B5
:101CF00040F040002168086005E02068006820F09E
:101D0000400021680860A07E012806D12068006894
:101D100040F020002168086005E02068006820F09D
:101D2000200021680860E07E012806D12068006854
:101D300020F010002168086005E02068006840F08D
:101D4000100021680860207F012806D12068006803
:101D500040F008002168086005E02068006820F075
:101D6000080021680860607F012806D120680068AB
:101D700040F004002168086005E02068006820F059
:101D8000040021680860D4E902010843216908437E
:101D9000616908436168491E08432168C8610020E1
:101DA0006062012084F82000002049E710B586B069
:101DB0000446142101A8FEF7B1FB57492068884268
:101DC0004AD156480068401C5449086008460068DB
:101DD00001280FD100BF002000905148006840F05A
:101DE00000704F4908600846006800F000700090DD
:101DF00000BF00BF00BF00200090494810380068B5
:101E000040F002004649103908600846006800F0BA
:101E10000200009000BF00BF4FF44070019002200C
:101E2000029000200390032004900920059001A94E
:101E30003C4800F097FB00220521142001F024FA11
:101E4000142001F00DFA00220521152001F01CFAE2
:101E5000152001F005FA5DE033492068884259D128
:101E600000BF002000902E48006840F080602C49A0
:101E700008600846006800F08060009000BF00BF66
:101E800026480068401C254908600846006801286B
:101E90000FD100BF002000902148006840F0007082
:101EA0001F4908600846006800F00070009000BFFD
:101EB00000BF00BF0020009019481038006840F0B3
:101EC00002001749103908600846006800F0020057
:101ED000009000BF00BF4FF44050019002200290DC
:101EE00000200390032004900920059001A90D48CB
:101EF00000F038FB00220521402001F0C5F9402008
:101F000001F0AEF900220521412001F0BDF9412088
:101F100001F0A6F906B010BD00640040E8030020FF
:101F20004038024000040240006800407047000052
:101F300010B52DED048B0446C34BC44A0021204646
:101F4000FFF789FCC148006812287DD006DC08280C
:101F50000BD0092842D0102877D17DE0132875D006
:101F6000142874D01728F7D11AE1B7490978B64A6E
:101F7000527841EA022108B208F049F941EC190B04
:101F80009FEDB30B53EC102B07F07EFF41EC180BC9
:101F900007F094FEB0490860AB498978AA4AD27824
:101FA00041EA022108B208F032F941EC190B9FED29
:101FB000A80B53EC102B07F067FF41EC180B07F050
:101FC0007DFEA6490860A6484078401CA449487098
:101FD000A448407D401CA34948752EE19A490978E0
:101FE000994A527841EA022108B208F010F941EC0E
:101FF000190B9FED970B53EC102B07F045FF41ECAD
:10200000180B07F05BFE984908608F4989788E4A63
:10201000D27841EA022108B208F0F9F841EC190B34
:102020009FED8B0B53EC102B07F02EFF41EC180BA0
:1020300007F044FE8D49086089488078401C884933
:1020400088708848807D03E058E0F5E07FE02CE070
:10205000401C84498875F0E07B48FEF767FB8449A3
:1020600048808448006808F063FB41EC180B804905
:10207000488808F0E3F841EC190BB0EE481AF0EE8E
:10208000681AB0EE490AF0EE690A04F04FF87A488F
:1020900080ED000A7248C078401C7149C8707148D0
:1020A000C07D401C6F49C875C7E06748FEF73EFB1E
:1020B0006F4988807148006808F03AFB41EC180BC2
:1020C0006B49888808F0BAF841EC190BB0EE481A51
:1020D000F0EE681AB0EE490AF0EE690A04F026F84C
:1020E000674880ED000A5E480079401C5C49087131
:1020F0005C48007E401C5B4908769EE05248FEF733
:1021000015FB5B49C8805F48006808F011FB41EC93
:10211000180B5749C88808F091F841EC190BB0EE3C
:10212000481AF0EE681AB0EE490AF0EE690A03F0B8
:10213000FDFF554880ED000A49484079401C484958
:1021400048714848407E401C4649487675E03E4804
:10215000FEF7ECFA464908814C48006808F0E8FAB6
:1021600041EC180B4249088908F068F841EC190B5A
:10217000B0EE481AF0EE681AB0EE490AF0EE690ABD
:1021800003F0D4FF424880ED000A35488079401CB6
:10219000334988713348807E401C324988764CE050
:1021A0002948FEF7C3FA00EE100AB8EE400A394893
:1021B00080ED000A3848008808F040F841EC180B20
:1021C0003448006808F0B4FA41EC190BB0EE481A34
:1021D000F0EE681AB0EE490AF0EE690A03F0A6FFC5
:1021E0002E4880ED000A014691ED000ADFED2C0A31
:1021F00030EE600ABDEEC00A10EE100A002801DBC6
:10220000014600E0414200EE101AB8EEC00A234930
:1022100081ED000A084690ED000ABDEEC00A10EEFE
:10222000100A02B20A211F4805F0F4FF0C48C079D9
:10223000401C0B49C87100E000BF00BF00200349EB
:102240000860BDEC048B10BD27000020CC050020E9
:1022500000000000000030407C00002080000020D2
:10226000580600201C060020840000208800002062
:1022700048070020C0000020B0000020C40000205B
:10228000B4000020C8000020B8000020CC000020CE
:10229000BC000020280100204C0100203801002053
:1022A00000005442EC0800207047000010B50446BE
:1022B000444B454A01212046FFF7CDFA42480088A9
:1022C000C0F34710414908703F48007800F01F00F4
:1022D0003F49087008460078092820D008DC01280A
:1022E0000DD0032835D004283FD0052866D148E01A
:1022F000142853D0152821D017285FD159E035482C
:1023000032490978405C401C3249304A127888547E
:102310002C48007930492D4A127888544FE001202A
:10232000FEF7DEF92D482949097800EB810080EDA0
:10233000000A26480078FEF797F940E00120FEF7F2
:10234000CFF926482149097800EB810080ED000A89
:1023500035E00120FEF7C4F9BCEEC00A10EE100A09
:102360001F491A4A1278885429E00120FEF7B8F96B
:10237000BCEEC00A10EE100A1A49144A12788854AA
:102380001DE00020FEF7ACF9BCEEC00A10EE100A0A
:10239000C1B214480D4A1278815410E00120FEF7B2
:1023A0009FF911480949097800EB810080ED000A86
:1023B00005E00E4803490968016000E000BF00BF66
:1023C00010BD00003700002000060020580000204B
:1023D000590000201C060020620600208006002014
:1023E0002007002034070020D00600205C000020D9
:1023F000704770B5044694F82000012822D10220CD
:1024000084F820002068006820F00100216808603E
:1024100000F0A8F905460DE000F0A4F9401B0A28D9
:1024200008D9606A40F400306062052084F820001A
:10243000012070BD2068406800F001000028EBD149
:102440006062F6E7606A40F4002060620120F0E715
:10245000704770477047704770477047704770B556
:102460000446A56D00F07EF9064694F83500022872
:1024700008D08020606500BF002084F8340000BFD1
:10248000012070BD2068006820F0160021680860F7
:102490002068406920F0800021684861206C08B9FC
:1024A000A06C28B12068006820F00800216808604E
:1024B0002068006820F001002168086010E000F04A
:1024C00051F9801B05280BD920206065032084F872
:1024D000350000BF002084F8340000BF0320D0E79F
:1024E0002068006800F001000028E8D194F85C1032
:1024F0003F208840A860012084F8350000BF0020FC
:1025000084F8340000BF00BFBBE7014691F83500F6
:10251000022803D08020486501207047052081F8FB
:1025200035000868006820F001000A68106000208B
:10253000F3E7014691F835007047000070B5044696
:1025400000F010F906462546681C10B104480078D2
:10255000054400BF00F006F9801BA842FAD370BD05
:10256000F4030020F8B502460B46002500240020A5
:102570000021D1E0012606FA01F51E6806EA0504ED
:10258000AC4274D11E7906F00306012E04D01E79E8
:1025900006F00306022E13D190684F000326BE40BA
:1025A000B0434F00DE68BE40304390605068012663
:1025B0008E40B0431E79C6F300168E403043506003
:1025C0001E7906F00306032E09D0D0684F000326BB
:1025D000BE40B0434F009E68BE403043D0601E797D
:1025E00006F00306022E13D1CF0802F1200656F89A
:1025F00027004E07F70E0F26BE40B0434F07FF0ED1
:102600001E69BE403043CF0802F1200646F827007D
:1026100010684F000326BE40B0431E7906F0030643
:102620004F00BE40304310605E6806F44036002E16
:1026300071D000BF00260096394E366846F48046B9
:10264000374F3E603E46366806F48046009600BF2F
:1026500000BF344E8F0856F827008E07370F0F261D
:10266000BE40B043304EB24202D100261FE052E0DD
:102670002E4EB24201D1012619E02D4EB24201D1B7
:10268000022614E02B4EB24201D103260FE02A4E5F
:10269000B24201D104260AE0284EB24201D10526F9
:1026A00005E0274EB24201D1062600E007268F073B
:1026B0003F0FBE4030431B4E8F0846F82700214E87
:1026C0003068A0435E6806F4801606B120431D4EB4
:1026D0003060361D3068A0435E6806F4001606B10F
:1026E0002043184E361D3060164E361F3068A0430A
:1026F0005E6806F4003606B12043124E361F306085
:10270000361F3068A0435E6806F4803606B1204369
:102710000C4E083E3060491C1029FFF42BAFF8BD69
:1027200044380240083801400000024000040240E2
:1027300000080240000C0240001002400014024059
:1027400000180240083C0140024613690B400BB1DF
:10275000012000E0002070470AB1816101E00B0414
:10276000836170470148006870470000EC03002057
:10277000704770472DE9F84F044620684769206884
:10278000D0F80480002594F83E90C7F3002040B1B3
:10279000C8F3002028B145F001056FF4807021686E
:1027A0004861C7F3402040B1C8F3002028B145F08C
:1027B00002056FF4007021684861C7F3802070B390
:1027C000C8F3002058B3CA46B4F82AB094F83D6064
:1027D000206B0090BAF1200F0FD1BBF1000F0CD18C
:1027E000212E06D0292E04D0282E06D1009821288B
:1027F00003D1204602F010FD11E06FF480602168E3
:10280000486145F00405B9F1100F02D0B9F1400F4D
:1028100005D12068006840F4007021680860C7F3A3
:10282000C02040B1C8F3002028B145F008056FF47E
:102830000060216848612DB1206C28432064204647
:1028400001F06AFEBDE8F88F2DE9F04705464FF02C
:10285000000928684668D5F82CA095F83E7095F8D0
:102860003D80102F01D0402F75D12868D0F81890E6
:102870002868446904F0010060B9BAF52A0F02D053
:10288000BAF12A4F01D1012000E00020012801D136
:10289000BDE8F08704F0010048B1C6F3402030B134
:1028A000284601F0A5FD284602F04CFAB7E0C4F333
:1028B000C00030B1C6F3402018B1284602F0F9F844
:1028C000ADE0C4F3400030B1C6F3402018B1284653
:1028D00002F004F9A3E0C9F3800040B3286840681F
:1028E00000F40060B0F5006FE0D0C4F3C01048B150
:1028F000C6F3802030B1C4F3800018B9284602F036
:102900006CF88CE0C4F380000028CFD0C6F34020E0
:102910000028CBD0B8F1210F03D1284602F00DF8E2
:102920007DE0402F7BD1284602F05BFA77E02868F3
:10293000406800F40060B0F5006F70D0C4F3801000
:1029400050B1C6F3802038B1C4F3800020B92846C6
:1029500001F071FF63E00BE0C4F3800000285ED05B
:10296000C6F3402000285AD0284601F0CAFE56E09F
:10297000286C10B12868446904E02868D0F81890E1
:1029800028684469C4F3400060B1C6F3402048B1F0
:10299000286C10B12868D0F818904946284602F0F3
:1029A00003FC3CE0C4F3001030B1C6F3402018B182
:1029B000284602F085FC32E0B8F1210F02D0B8F1D0
:1029C000290F16D1C4F3C01048B1C6F3802030B12E
:1029D000C4F3800018B9284602F0C3FB1FE0C4F31B
:1029E0008000E0B1C6F34020C8B1284602F0ACFB3D
:1029F00015E0C4F3801048B1C6F3802030B1C4F3B1
:102A0000800018B9284602F07CFB08E0C4F380007F
:102A100028B1C6F3402010B1284602F065FB00BF84
:102A200036E7704770B504460CB9012070BD94F8C4
:102A30003D0028B9002084F83C00204600F016FB39
:102A4000242084F83D002068006820F001002168FF
:102A500008602068006840F4004021680860206831
:102A6000006820F400402168086000F08FFD0546F2
:102A70005C496068884206D85B48854201D20120E3
:102A800007E0002005E05948854201D2012000E01E
:102A90000020012800D1C9E75548B5FBF0F62068B1
:102AA000406820F03F003043216848604D4960682D
:102AB000884201D8701C07E04FF4967070434FF4C1
:102AC0007A71B0FBF1F0401C2168096A21F03F01E6
:102AD00008432168086243496068884214D8681E28
:102AE00061684900B0FBF1F0401CC0F30B00042802
:102AF00001D204203DE0681E61684900B0FBF1F09E
:102B0000401CC0F30B0034E0A06838B9681E61684F
:102B100001EB4101B0FBF1F0401C0AE0681E616866
:102B200001EBC10202EB0111B0FBF1F0401C40F4DB
:102B30008040C0F30B0008B901201AE0A06848B932
:102B4000681E616801EB4101B0FBF1F0401CC0F36D
:102B50000B000CE0681E616801EBC10202EB011181
:102B6000B0FBF1F0401CC0F30B0040F4804040F497
:102B700000402168C9694CF6FF72914308432168FF
:102B8000C861D4E9070108432168096821F0C00140
:102B9000084321680860D4E9031008432168896864
:102BA00048F2FF329143084321688860D4E9050167
:102BB00008432168C96821F0FF0108432168C86003
:102BC0002068006840F0010021680860002020644F
:102BD000202084F83D000020206384F83E0000BFE0
:102BE00024E70000A086010080841E0000093D004B
:102BF00040420F00704770477047704770470000B1
:102C00002DE9FC5F04460F4690469946DDE90CAB82
:102C10000E9EFFF7A7FD054694F83D00202870D1D1
:102C200019230122B5492046009502F042FC10B15B
:102C30000220BDE8FC9F00BF94F83C00012801D1B0
:102C40000220F6E7012084F83C0000BF20680068FD
:102C500000F0010028B92068006840F001002168F8
:102C600008602068006820F4006021680860222065
:102C700084F83D00402084F83E0000202064C4F821
:102C800024A0A4F82AB0608D20859D48E0624B46C0
:102C9000424639462046CDE9006502F005F908B103
:102CA0000120C6E7208D88B900BF00200190206870
:102CB0004069019020688069019000BF00BF2068D2
:102CC000006840F400702168086040E0208D012811
:102CD00018D12068006820F480602168086000BF77
:102CE000002001902068406901902068806901906F
:102CF00000BF00BF2068006840F4007021680860D1
:102D000025E0F8E0208D022816D12068006820F424
:102D10008060216808602068006840F400602168D5
:102D2000086000BF00200190206840690190206881
:102D30008069019000BF0AE000BF00200190206878
:102D40004069019020688069019000BF00BFC3E026
:102D5000208D03287ED8208D012815D12A463146A2
:102D6000204602F082FC08B1012062E72068006979
:102D7000616A0870606A401C6062208D401E208578
:102D8000608D401E6085A7E0208D02282AD1334641
:102D900000225C492046009502F08BFB08B101201F
:102DA00047E72068006840F40070216808602068E8
:102DB0000069616A0870606A401C6062208D401E74
:102DC0002085608D401E608520680069616A0870FA
:102DD000606A401C6062208D401E2085608D401E10
:102DE000608579E03346002246492046009502F08E
:102DF00060FB08B101201CE72068006820F48060B7
:102E00002168086020680069616A0870606A401C77
:102E10006062208D401E2085608D401E6085334697
:102E2000002238492046009502F043FB08B10120FA
:102E3000FFE62068006840F40070216808602068A0
:102E40000069616A0870606A401C6062208D401EE3
:102E5000208500E010E0608D401E608520680069DC
:102E6000616A0870606A401C6062208D401E208587
:102E7000608D401E60852FE02A463146204602F0D4
:102E8000F4FB08B10120D4E620680069616A08708B
:102E9000606A401C6062208D401E2085608D401E4F
:102EA000608520684069C0F38000A8B1208D0328A8
:102EB00005D12068006820F48060216808602068DF
:102EC0000069616A0870606A401C6062208D401E63
:102ED0002085608D401E6085208D00287FF438AFEE
:102EE000202084F83D00002084F83E0000BF84F8D4
:102EF0003C0000BF9DE602209BE60000020010009F
:102F00000000FFFF040001002DE9FC5F04460F46AE
:102F100090469946DDE90CAB0E9EFFF723FC054673
:102F200094F83D0020287DD1192301224D492046E7
:102F3000009502F0BEFA10B10220BDE8FC9F00BF70
:102F400094F83C00012801D10220F6E7012084F822
:102F50003C0000BF2068006800F0010028B920682C
:102F6000006840F00100216808602068006820F4D3
:102F7000006021680860212084F83D00402084F82A
:102F80003E0000202064C4F824A0A4F82AB0608D7C
:102F900020853548E0624B46424639462046CDE919
:102FA000006502F031F808B10120C6E731E02A4699
:102FB0003146204602F0C6FB50B1206C042805D1F2
:102FC0002068006840F40070216808600120B4E7C0
:102FD000606A007821680861606A401C6062208D28
:102FE000401E2085608D401E608520684069C0F3CA
:102FF000800070B1208D60B1606A0078216808613E
:10300000606A401C6062208D401E2085608D401EDD
:103010006085208D0028CAD12A463146204602F01C
:1030200015FA00E01CE050B1206C042805D120689E
:10303000006840F400702168086001207DE7206886
:10304000006840F4007021680860202084F83D008A
:10305000002084F83E0000BF84F83C0000BF6CE70D
:1030600002206AE7020010000000FFFF10B586B0E2
:103070000446142101A8FDF751FA2349206888422B
:103080003FD100BF002000902048006840F00200BF
:103090001E4908600846006800F00200009000BF6A
:1030A00000BFC02001901220029000200390032056
:1030B00004900420059001A91548FFF753FA00BFBA
:1030C0000020009011481030006840F400100F49B3
:1030D000103108600846006800F40010009000BF3E
:1030E00000BF002205211F2000F0CEF81F2000F0B5
:1030F000B7F800220521202000F0C6F8202000F0BB
:10310000AFF806B010BD0000005400403038024057
:10311000000402407047704703480068034909787B
:103120000844014908607047EC030020F4030020C4
:1031300010B50D48006840F400700B49086008465F
:10314000006840F4806008600846006840F48070C1
:103150000860032000F0D6F80F2000F007F800F018
:1031600055F8002010BD0000003C0240F0B587B0CB
:1031700004460026002700BF002000901E4800687B
:1031800040F001001C4908600846006800F001009A
:10319000009000BF00BF01A902A800F0CFF900F025
:1031A00005FA46001548B6FBF0F0471E14481549CD
:1031B000086040F2E7311348C160476000210161B7
:1031C0008160816100F004FD054695B90D4800F06D
:1031D00057FD05466DB9192000F042F8102C07D2B2
:1031E00000222146192000F04FF80748046000E053
:1031F0000125284607B0F0BD4438024040420F0088
:10320000000001403C090020F003002008B500BF89
:10321000002000901148006840F480400F49086089
:103220000846006800F48040009000BF00BF00BF67
:1032300000200090081F006840F08050091F0860BF
:103240000846006800F08050009000BF00BF0022D8
:103250000F21901E00F018F808BD0000443802400D
:103260000146084600280DDB00BF00BF00F01F0329
:1032700001229A4043099B0003F1E023C3F8002197
:1032800000BF00BF00BF70472DE9F05F80460D46CC
:103290001646002705F03EF9074639462A463346CA
:1032A00001F00700C0F1070ABAF1040F02D94FF08C
:1032B000040A01E0C0F1070AD14600F1040ABAF19C
:1032C000070F02D24FF0000A01E0A0F1030AD44632
:1032D0004FF0010A0AFA09FAAAF1010A0AEA020AF7
:1032E0000AFA0CFA4FF0010B0BFA0CFBABF1010BD5
:1032F0000BEA030B4AEA0B042146404605F012F99B
:10330000BDE8F09F00BF00F00702064B19684FF6BA
:10331000FF031940044B0B4343EA0221014B1960A0
:1033200000BF70470CED00E00000FA0538B500243E
:1033300000BF002000901D48006840F080501B49ED
:1033400008600846006800F08050009000BF00BF91
:10335000012017490864FFF705FA044607E0FFF764
:1033600001FA001BB0F57A7F01D9032038BD11485E
:10337000406800F48030B0F5803FF0D101200C4966
:103380004864FFF7EFF9044607E0FFF7EBF9001B8D
:10339000B0F57A7F01D90320E8E70648406800F4D9
:1033A0000030B0F5003FF0D10020DFE740380240A8
:1033B00000000E420070004070B504460D460CB986
:1033C000012070BD5848006800F00F00A84209D2E3
:1033D00055490D700846006800F00F00A84201D062
:1033E0000120EEE7207800F0020002281DD12078AD
:1033F00000F00400042805D14C48006840F4E05077
:103400004A490860207800F00800082805D147489C
:10341000006840F46040454908604448006820F076
:10342000F000A168084341490860207800F00100DD
:10343000A8B36068012807D13C4808380068C0F389
:103440004040B8B90120BCE76068022802D060683B
:10345000032807D1354808380068C0F3406048B9F0
:103460000120AEE7314808380068C0F3400008B9D1
:103470000120A6E72D48006820F00300616808439A
:103480002A490860FFF76EF9064609E0FFF76AF976
:10349000801B41F28831884202D9032091E707E07E
:1034A0002248006800F00C006168B0EB810FEDD19C
:1034B0001D48006800F00F00A84209D91A490D7094
:1034C0000846006800F00F00A84201D0012078E70C
:1034D000207800F00400042807D11448006820F484
:1034E000E050E168084311490860207800F00800C6
:1034F000082808D10D48006820F46040216940EA9E
:10350000C1000A49086000F061F808490968C1F380
:103510000311074A515CC840064908600648006824
:10352000FFF724FE00204CE7003C02400838024030
:1035300026A80008F8030020F00300200F220260F4
:103540000D4A126802F0030242600B4A126802F050
:10355000F0028260084A126802F4E052C260064A31
:10356000126802F46042D2080261044A126802F052
:103570000F020A607047000008380240003C024019
:103580000148006870470000F803002000B5FFF70D
:10359000F7FF04490968C1F38221034A515CC8401E
:1035A00000BD00000838024036A8000800B5FFF74B
:1035B000E7FF04490968C1F34231034A515CC8403E
:1035C00000BD00000838024036A800082DE9F04789
:1035D000002400250026A146A2463F48006800F0CE
:1035E0000C0030B1042807D0082808D00C286BD173
:1035F00038E0DFF8E8A06AE0DFF8E4A067E03648EA
:10360000001F006800F03F043348001F006800F40A
:10361000800078B132483049091F0968C1F3881128
:10362000A0FB01700146224600233846FCF7BAFE93
:1036300005460DE029482849091F0968C1F388118A
:10364000A0FB0171224600233846FCF7ABFE05467D
:103650002148001F0068C0F30140401C4600B5FB34
:10366000F6FA34E01C48001F006800F03F041A48D6
:10367000001F006800F4800078B119481649091F3E
:103680000968C1F38811A0FB01700146224600239E
:103690003846FCF787FE05460EE010480E49091F24
:1036A0000968C1F38811A0FB01700146224600237E
:1036B0003846FCF777FE05460748001F0068C0F350
:1036C0000279B5FBF9FA02E0DFF810A000BF00BFF5
:1036D0005046BDE8F0870000083802400024F4009E
:1036E00000127A00F8B504460CB90120F8BD207824
:1036F00000F0010000286FD0FE48006800F00C00C8
:1037000004281BD0FB48006800F00C00082807D1F3
:10371000F848001F006800F48000B0F5800F0DD05D
:10372000F448006800F00C000C2813D1F148001F89
:10373000006800F48000B0F5800F0BD1ED48083828
:103740000068C0F34040002859D06068002856D176
:103750000120CBE700BF6068B0F5803F08D1E548A5
:103760000838006840F48030E249083908601EE0FB
:103770006068B0F5A02F0DD1DE480838006840F42D
:103780008020DC49083908600846006840F4803031
:1037900008600CE0D7480838006820F48030D5492C
:1037A000083908600846006820F48020086000BFDF
:1037B000606890B1FEF7D6FF054606E0FEF7D2FF3F
:1037C000401B642801D9032090E7CA4808380068E4
:1037D000C0F340400028F1D011E0FEF7C3FF0546DA
:1037E00006E0FEF7BFFF401B642801D903207DE7F8
:1037F000C04808380068C0F340400028F1D1207864
:1038000000F0020002286BD1BA48006800F00C00FA
:10381000B8B1B848006800F00C00082805D1B548D8
:10382000001F006800F4800058B1B248006800F042
:103830000C000C281CD1AF48001F006800F4800069
:10384000B0B9AC4808380068C0F3400020B1E06867
:10385000012801D0012049E7A6480838006820F077
:10386000F800216940EAC100A2490839086037E040
:10387000E06800B30120A0490860FEF773FF054629
:1038800006E0FEF76FFF401B022801D903202DE759
:10389000984808380068C0F340000028F1D09548E7
:1038A0000838006820F0F800216940EAC100914919
:1038B0000839086014E000208F490860FEF752FFC5
:1038C000054606E0FEF74EFF401B022801D9032003
:1038D0000CE7884808380068C0F340000028F1D1A0
:1038E000207800F0080008282CD16069A8B10120D8
:1038F00082490860FEF736FF054606E0FEF732FF14
:10390000401B022801D90320F0E67A486C30006899
:10391000C0F340000028F1D014E00020774908608F
:10392000FEF720FF054606E0FEF71CFF401B0228BD
:1039300001D90320DAE66F486C300068C0F340001C
:103940000028F1D1207800F00400042870D100276D
:1039500068483830006800F0805090B900BF0020FF
:10396000009064483830006840F080506149383138
:1039700008600846006800F08050009000BF00BF5B
:1039800001275F48006800F48070B0B95C480068A7
:1039900040F480705A490860FEF7E4FE054606E0F0
:1039A000FEF7E0FE401B022801D903209EE65448A2
:1039B000006800F480700028F2D000BFA0680128E1
:1039C00008D14C486830006840F00100494968312E
:1039D00008601DE0A06805280DD1464868300068E1
:1039E00040F004004349683108600846006840F030
:1039F000010008600CE03F486830006820F00100DA
:103A00003C49683108600846006820F004000860FE
:103A100000BFA068A8B1FEF7A5FE054609E0FEF7C5
:103A2000A1FE401B41F28831884202D903205DE6A5
:103A300026E0304868300068C0F340000028EED02F
:103A400013E0FEF78FFE054608E0FEF78BFE401BF5
:103A500041F28831884201D9032047E62548683081
:103A60000068C0F340000028EFD1012F07D12148A2
:103A70003830006820F080501E493831086000BF9F
:103A8000A069002851D01B48006800F00C000828ED
:103A900061D0A069022849D1002017490866FEF7C5
:103AA00061FE054606E0FEF75DFE401B022801D9D7
:103AB00003201BE60F4808380068C0F34060002868
:103AC000F1D1D4E907010843616A40EA811101227A
:103AD000A06AC2EB500041EA00412C20005D41EA9F
:103AE00000613020005D41EA00700249091F086052
:103AF000012007E00838024000004742800E47429C
:103B0000007000402F490866FEF72CFE054606E0CF
:103B1000FEF728FE401B022801D90320E6E52A48CB
:103B20000068C0F340600028F2D048E0002025493A
:103B30000866FEF717FE054606E0FEF713FE401B7B
:103B4000022801D90320D1E51F480068C0F3406076
:103B50000028F2D133E0A069012800D1C6E51A4857
:103B6000001D0668A069012827D006F48001E069DD
:103B7000814222D106F03F01206A81421DD147F6E1
:103B8000C0703040616AB0EB811F16D106F440313D
:103B90000122A06AC2EB5000B1EB004F0DD106F03C
:103BA00070612C20005DB1EB006F06D106F0E041A2
:103BB0003020005DB1EB007F01D0012096E50020B0
:103BC00094E500000000474200380240704770470B
:103BD00010B504460CB9012010BD94F83D0028B979
:103BE000002084F83C00204600F026F8022084F8EB
:103BF0003D00211D206803F0D9FF012084F8460014
:103C000000BF84F83E0001213F20015540200155AE
:103C10004120015500BF00BF012084F8420043202D
:103C20000155442001554520015500BF012084F86D
:103C30003D000020D0E7000038B504460E4920685A
:103C4000884217D100BF002000900C48006840F463
:103C500080700A4908600846006800F4807000908F
:103C600000BF00BF002205212D20FFF70DFB2D20F6
:103C7000FFF7F6FA38BD000000200040403802404F
:103C8000014691F83D00012801D001207047022033
:103C900081F83D000868C06840F001000B68D860FA
:103CA0001A4B086898421BD00868B0F1804F17D0B3
:103CB000174B0868984213D0164B086898420FD0EB
:103CC000154B086898420BD0144B0868984207D0EF
:103CD000134B0868984203D0124B086898420CD1E5
:103CE0000868806800F00702062A0CD0086800689F
:103CF00040F001000B68186005E00868006840F0BB
:103D000001000B6818600020C0E7000000000140BF
:103D10000004004000080040000C00400004014086
:103D20000040014000180040704770B5044620680C
:103D3000C5682068066906F00200022819D105F05E
:103D40000200022815D1401F216808610120207758
:103D50002068806900F0030018B12046FFF7E4FFF7
:103D600005E0204600F097F8204600F095F8002086
:103D7000207706F00400042819D105F00400042877
:103D800015D1C0432168086102202077206880692E
:103D900000F4407018B12046FFF7C6FF05E020464A
:103DA00000F079F8204600F077F80020207706F040
:103DB0000800082819D105F00800082815D1C043CB
:103DC00021680861042020772068C06900F00300A2
:103DD00018B12046FFF7A8FF05E0204600F05BF889
:103DE000204600F059F80020207706F01000102837
:103DF00019D105F01000102815D1C04321680861C1
:103E0000082020772068C06900F4407018B120466F
:103E1000FFF78AFF05E0204600F03DF8204600F05D
:103E20003BF80020207706F0010048B105F00100C2
:103E300030B16FF0010021680861204600F02EF8D3
:103E400006F08000802809D105F08000802805D187
:103E5000C043216808612046FFF7B8FE06F0400025
:103E6000402809D105F04000402805D1C043216811
:103E70000861204600F01EF806F02000202809D135
:103E800005F02000202805D1C043216808612046A4
:103E9000FFF79DFE70BD70477047000010B50446E7
:103EA00003492068884201D1FFF736F910BD0000B0
:103EB0000000014070477047704700002DE9F84F3F
:103EC0000446206805682068C668206847694FF086
:103ED0000009CA4605F00F09B9F1000F0AD105F033
:103EE000200038B106F0200020B1204603F0AEFFDC
:103EF000BDE8F88FB9F1000F7CD007F0010018B9C8
:103F000006F49070002875D005F0010030B106F479
:103F1000807018B1606C40F00100606405F004002E
:103F200030B107F0010018B1606C40F0020060642D
:103F300005F0020030B107F0010018B1606C40F0EC
:103F40000400606405F0080048B106F0200010B9D4
:103F500007F0010018B1606C40F008006064606C0C
:103F6000002846D005F0200028B106F0200010B14E
:103F7000204603F06BFF20684069C0F3801A606C34
:103F800000F0080010B9BAF1000F2DD0204603F060
:103F900017FF2068406900F04000402820D100BF92
:103FA00000BF2168143151E8001F21F04000216852
:103FB000143141E80002002AF3D100BFE06B50B198
:103FC0007748E16B0865E06BFEF79FFA88B1E06B1C
:103FD000016D88470DE02046FFF76EFF09E009E01C
:103FE0002046FFF769FF04E02046FFF765FF002049
:103FF00060647DE7206B012878D105F0100000286F
:1040000074D006F010000028FAD000BF0020009005
:1040100020680068009020684068009000BF00BFE2
:104020002068406900F04000402860D1E06B0068E3
:1040300040681FFA80F8B8F1000F56D0A08D4045B7
:1040400053DDA4F82E80E06BC069B0F5807F43D0CB
:1040500000BF00BF21680C3151E8001F21F48070BF
:1040600021680C3141E80002002AF3D100BF00BFF3
:1040700000BF2168143151E8001F21F001002168C0
:10408000143141E80002002AF3D100BF00BF00BF95
:104090002168143151E8001F21F0400021681431DB
:1040A00041E80002002AF3D100BF202084F842003A
:1040B0000020206300BF00BF21680C3151E8001FC1
:1040C00021F0100021680C3141E80002002AF3D1F0
:1040D00000BFE06BFEF7C3F902206063A08DE28DA4
:1040E000801A81B22046FFF7E6FE01E742E0A08D8C
:1040F000E18D401A1FFA80F8E08DD0B3B8F1000FBF
:1041000037D000BF00BF21680C3151E8001F21F4F7
:10411000907021680C3141E80002002AF3D100BF01
:1041200000BF00BF2168143151E8001F21F00100D9
:104130002168143141E80002002AF3D100BF202099
:1041400084F842000020206300BF00BF21680C31CA
:1041500051E8001F21F0100021680C3141E80002F5
:10416000002AF3D100BF0220606341462046FFF7DA
:10417000A2FEBDE605F0800030B106F0800018B167
:10418000204604F017F8B3E605F0400030B106F021
:10419000400018B1204603F049FEA9E600BFA7E69B
:1041A000AD7D000810B504460CB9012010BDA06912
:1041B00000B100E000BF94F8410028B9002084F865
:1041C0004000204600F02AF8242084F841002068AE
:1041D000C06820F400502168C860204603F0B4FE97
:1041E0002068006920F490402168086120684069D7
:1041F00020F02A00216848612068C06840F400501F
:104200002168C86000206064202084F8410084F8A0
:1042100042000020606300BFC8E7000010B586B010
:104220000446142101A8FCF779F94C49206888421A
:1042300038D100BF002000904948006840F40020B9
:10424000474908600846006800F40020009000BF5D
:1042500000BF00BF0020009041481038006840F0C7
:1042600001003F49103908600846006800F001006D
:10427000009000BF00BF03200190022002900020A8
:104280000390032004900820059001A93548FEF70B
:1042900069F9002205213420FEF7F6FF3420FEF7ED
:1042A000DFFF58E030492068884254D100BF002029
:1042B00000902B48006840F48010294908600846A7
:1042C000006800F48010009000BF00BF00BF002015
:1042D000009023481038006840F00400204910394D
:1042E00008600846006800F00400009000BF00BFAE
:1042F00000BF002000900846006840F008000860F9
:104300000846006800F00800009000BF00BF881455
:1043100001900220029000200390032004900820C6
:10432000059001A91148FEF71DF904200190022013
:10433000029000200390032004900820059001A91A
:104340000B48FEF70FF9002205213520FEF79CFFF0
:104350003520FEF785FF06B010BD0000004C004080
:104360004038024000000240005000400008024077
:10437000000C024070B504460D46164694F8420003
:1043800020280BD105B10EB9012070BD002020639B
:1043900032462946204603F0EDFEF6E70220F4E718
:1043A00010B50446082205490548FFF7E3FF054814
:1043B0000078401C0349087010BD00000C0000206C
:1043C0006C05002014000020704700BFFEE70000CD
:1043D00010B50248FEF7CEF910BD00008804002099
:1043E00010B50248FEF730FA10BD00008804002026
:1043F000C16AB1F52A0F02D10121C16205E0C16A8B
:10440000B1F12A4F01D10821C1627047F8B50546C4
:1044100000200090AC6B94F83D6039480068192189
:10442000B0FBF1F04FF47A71B0FBF1F0C0EBC000DB
:1044300000EB8000009000BF009820B9206C40F095
:104440002000206409E00098401E00902068006869
:1044500000F40070B0F5007FEED000BF606B10B1CB
:104460000020616BC863A06B10B10020A16BC86312
:104470002068006820F48060216808600020608562
:10448000606B10B10020616B0865A06B10B100205B
:10449000A16B08652068006820F0010021680860B1
:1044A00094F83D0060280AD1202084F83D000020C7
:1044B00084F83E0020642046FEF75AF91EE006F01C
:1044C0002800282811D12068006840F001002168E8
:1044D00008602068006840F480602168086000205F
:1044E0002063282084F83D0005E0202084F83D006A
:1044F000002084F83E002046FEF793FAF8BD000045
:10450000F803002001684969C1F3C01111B100210D
:1045100002681161704700002DE9F041044694F8EB
:104520003D6094F83E70102F01D0402F07D1222E0D
:1045300005D12068006820F400602168086006F05A
:104540002800282805D100202063282084F83D0079
:1045500010E02068406800F40060B0F5006F07D0FC
:10456000602E05D0202084F83D00002084F83E0015
:10457000002020632068406800F40060B0F5006F00
:1045800040D12068406820F4006021684860606B7A
:1045900090F83500012814D04848616B0865606BBD
:1045A000FDF7B3FF00285BD02068006820F0010011
:1045B00021680860202084F83D00606B016D884709
:1045C0004EE03E48A16B0865A06BFDF79EFF0028FA
:1045D00046D020684069C0F3801030B1206800697F
:1045E000616A0870606A401C60622068006820F0A0
:1045F000010021680860202084F83D00A06B016D57
:1046000088472DE094F83D0060281AD1202084F8D6
:104610003D000020206420684069C0F3801030B164
:1046200020680069616A0870606A401C60622068E6
:10463000006820F00100216808602046FEF798F825
:104640000EE020684069C0F3801030B12068006936
:10465000616A0870606A401C60622046FEF7E1F9FA
:10466000256C05F0010058B905F00200022807D0BA
:1046700005F00400042803D005F00800082805D13F
:104680002068406820F4E0602168486094F83D604C
:10469000206C00F0040004280ED1282E0CD108480C
:1046A000E06200202063202084F83D00002084F890
:1046B0003E002046FEF79EFABDE8F0810D4400085A
:1046C0000000FFFF014608684069C0F38020B0B1D8
:1046D0006FF480600A68506100200863202081F830
:1046E0003D00002081F83E00086C40F004000864A2
:1046F00000BF002081F83C0000BF0120704700206F
:10470000FCE770B50446E56A608D042810D1206886
:10471000406820F480602168486020680069616A10
:104720000870606A401C6062608D401E608581E098
:10473000608D03281AD12068406820F480602168C9
:104740004860042D07D0022D05D02068006820F4B1
:1047500080602168086020680069616A0870606A8A
:10476000401C6062608D401E608563E0608D0228A1
:1047700056D1012D01D0102D06D12068006820F4FB
:1047800080602168086012E0042D01D0022D06D15E
:104790002068006840F480602168086007E0102D00
:1047A00005D02068006840F4007021680860206827
:1047B0000069616A0870606A401C6062608D401E1A
:1047C000608520680069616A0870606A401C6062E8
:1047D000608D401E60852068406820F4407021682C
:1047E0004860202084F83D0094F83E00402807D11E
:1047F000002084F83E0020632046FEF7FEF919E011
:10480000002084F83E00082D01D0202D02D1002088
:10481000206301E0122020632046FEF7ECF909E056
:1048200020680069616A0870606A401C6062608D7F
:10483000401E608570BD70B5044694F83D00222886
:104840007AD1E66A658D032D13D920680069616A03
:104850000870606A401C6062608D401E6085608DDB
:10486000032868D12068406820F48060216848608F
:1048700061E0E06A022858D0012D01D0002D54D10A
:10488000204600F037FFA0BB2068006820F480605D
:10489000216808602068406820F4E0602168486072
:1048A00020680069616A0870606A401C6062608DFF
:1048B000401E6085202084F83D0094F83E0040288A
:1048C00007D1002084F83E0020632046FEF795F9CA
:1048D00031E0002084F83E00082E01D0202E02D1C5
:1048E0000020206301E0122020632046FEF783F9B8
:1048F00021E0FFE72068406820F4E060216848601C
:1049000020680069616A0870606A401C6062608D9E
:10491000401E6085202084F83D00002084F83E0081
:104920002046FEF77EF806E006E02068406820F4A6
:1049300080602168486000BF70BD70B50446E56ABC
:1049400094F83D00212847D1608D50B1606A00780D
:1049500021680861606A401C6062608D401E60854D
:104960003AE0082D16D0202D14D015F5803F11D037
:104970002068406820F4E0602168486011202063CE
:10498000002084F83E00202084F83D002046FEF7F9
:1049900033F921E02068406820F4E0602168486035
:1049A0002068006840F400702168086000202063DF
:1049B000202084F83D0094F83E00402806D10020D5
:1049C00084F83E002046FEF719F905E0002084F83F
:1049D0003E002046FEF710F970BD2DE9F041044677
:1049E00094F83D5094F83E70E66A208DB0BB212DBE
:1049F0003CD1082E16D0202E14D016F5803F11D0B1
:104A00002068406820F4E06021684860112020633D
:104A1000002084F83E00202084F83D002046FEF768
:104A2000EBF844E02068406820F4E06021684860CA
:104A30002068006840F4007021680860002020634E
:104A4000202084F83D0094F83E00402807D1002043
:104A500084F83E002046FEF7D1F828E006E000206A
:104A600084F83E002046FEF7C7F820E0212D03D051
:104A7000402F1CD1222D1AD1608D30B9206840689A
:104A800020F480602168486011E094F83E004028DE
:104A900003D1204600F0A5F909E0606A007821689A
:104AA0000861606A401C6062608D401E6085BDE8E0
:104AB000F081416CC9B202681161416B11B1416B67
:104AC000C96B21B9816B41B1816BC96B29B1016897
:104AD000496841F4006102685160704738B590F848
:104AE0003E20C16A036B90F83D40222C73D1046DC7
:104AF00064B9402A0AD100BF0024009404686469A4
:104B000000940468A469009400BF1AE1046DC4B95C
:104B10000469B4F5404F14D100BF00240094046828
:104B2000646900940468A469009400BF00BF04682D
:104B3000246844F4807405682C60046D641C04656A
:104B4000FFE0448D8CB900BF0024009404686469C0
:104B500000940468A469009400BF00BF046824683E
:104B600044F4007405682C60DDE0448D012C72D1A2
:104B700011F5803F30D10468246824F4806405680E
:104B80002C600468646804F40064B4F5006F10D10C
:104B90000468246824F4806405682C6000BF002445
:104BA00000940468646900940468A469009400BFD8
:104BB000B9E000BF002400940468646900940468AC
:104BC000A469009400BF00BF0468246844F4007422
:104BD00005682C60A7E0A9E0082923D0202921D06E
:104BE000122B01D101291DD104290AD0022908D094
:104BF000102906D00468246824F4806405682C60B9
:104C000005E00468246844F4806405682C6000BFF3
:104C1000002400940468646900940468A469009402
:104C200000BF80E00468246824F4806405682C6078
:104C300000BF002400940468646900940468A469B7
:104C4000009400BF00BF0468246844F40074056841
:104C50002C6068E0FFE7448D022C3BD1042910D082
:104C600002290ED010290CD00468246824F4806432
:104C700005682C600468246844F4006405682C60AE
:104C800005E00468246844F4806405682C600468C6
:104C9000646804F40064B4F5006F10D111F5803F2E
:104CA00007D0012905D0082903D0102901D02029D7
:104CB00005D10468646844F4805405686C6000BFE2
:104CC000002400940468646900940468A469009452
:104CD00000BF28E00468246844F4806405682C6000
:104CE0000468646804F40064B4F5006F10D111F531
:104CF000803F07D0012905D0082903D0102901D011
:104D0000202905D10468646844F4805405686C6007
:104D100000BF002400940468646900940468A469D6
:104D2000009400BF00BF002404650AE000BF002417
:104D300000940468646900940468A469009400BF46
:104D400000BF38BD90F83E1040290ED1016D29B941
:104D5000416C01F0FE010268116141E0416CC9B291
:104D600041F00101026811613AE00169B1F5804F3B
:104D700020D190F83D10212905D1416C01F0FE01B0
:104D80000268116105E0416CC9B241F0010102689D
:104D90001161416B11B1416BC96B21B9816BF9B1E3
:104DA000816BC96BE1B10168496841F40061026837
:104DB000516015E0016D41B9416C01F44071F02280
:104DC00042EAE111026811610AE0016D012907D18F
:104DD000416C01F44071F12242EAE1110268116173
:104DE000704770B5044694F83D50206D98B9E06C5A
:104DF000012807D1A06CC0B221680861206D801C19
:104E0000206550E0A06CC0F3072021680861206D88
:104E1000401C206547E0206D012807D1A06CC0B27E
:104E200021680861206D401C20653CE0206D02284F
:104E300036D1222D09D12068006840F480702168A5
:104E40000860206D401C20652DE0608D60B1212D33
:104E50000AD1606A007821680861606A401C60625B
:104E6000608D401E60851EE0608DE0B9212D1AD155
:104E70002068406820F4E06021684860206800688D
:104E800040F400702168086000202063202084F82E
:104E90003D00002084F83E002046FDF7AFFE02E012
:104EA0002046FFF72FFB70BD2DE9F84304460F465F
:104EB00015469946DDE908862068006840F4806060
:104EC000216808602068006840F4807021680860EC
:104ED000434600224FF001112046009600F0E9FA07
:104EE00060B12068006800F48070B0F5807F02D166
:104EF0004FF4007020640320BDE8F88307F0FE0043
:104F000021680861334642463E49204600F030FBA6
:104F100008B10120F0E700BF002000902068406940
:104F2000009020688069009000BF00BF3246414673
:104F3000204600F007FC50B1206C042805D1206801
:104F4000006840F40070216808600120D4E7B9F1DE
:104F5000010F03D1E8B22168086117E0C5F307200B
:104F60002168086132464146204600F0EBFB50B113
:104F7000206C042805D12068006840F40070216886
:104F800008600120B8E7E8B221680861324641466E
:104F9000204600F0D7FB50B1206C042805D12068D2
:104FA000006840F40070216808600120A4E72068D0
:104FB000006840F4807021680860434600224FF08A
:104FC00001112046009600F074FA58B1206800687C
:104FD00000F48070B0F5807F02D14FF4007020643F
:104FE000032089E7F8B240F00100216808613346E8
:104FF00042460449204600F0BBFA08B101207BE795
:10500000002079E7020001002DE9F84304468846B4
:1050100015469946DDE908672068006840F480700D
:1050200021680860334600224FF0011120460097A6
:1050300000F03FFA60B12068006800F48070B0F5BD
:10504000807F02D14FF4007020640320BDE8F88314
:1050500008F0FE00216808613B463246214920469F
:1050600000F086FA08B10120F0E700BF00200090B0
:1050700020684069009020688069009000BF00BFF0
:105080003A463146204600F05DFB50B1206C0428C2
:1050900005D12068006840F4007021680860012094
:1050A000D4E7B9F1010F03D1E8B22168086117E034
:1050B000C5F30720216808613A463146204600F0D2
:1050C00041FB50B1206C042805D12068006840F4F1
:1050D0000070216808600120B8E7E8B22168086123
:1050E0000020B3E702000100418D49B10168096960
:1050F000426A1170416A491C4162418D491E4185D5
:10510000704770B5044694F83D50608DD8B1206862
:105110000069616A0870606A401C6062608D401EB0
:105120006085608D78B92A2D0DD12068406820F403
:1051300080602168486022202063282084F83D0098
:105140002046FDF7E7FF70BD418D49B1416A0978FE
:1051500002681161416A491C4162418D491E4185C5
:10516000704770B5044694F83D50608DD8B1606AC0
:10517000007821680861606A401C6062608D401E92
:105180006085608D78B9292D0DD12068406820F4A4
:1051900080602168486021202063282084F83D0039
:1051A0002046FDF7B8FF70BDF8B504460D46002750
:1051B00094F83D0000F0280028281CD120684068A1
:1051C00020F4806021684860C5F3800000B90127A1
:1051D000C5F3C01010B9A08986B201E0208B86B259
:1051E00000BF002084F83C0000BF3246394620460C
:1051F000FDF7BFFA0FE000BF002000902068406973
:10520000009020688069009000BF00BF00BF0020B0
:1052100084F83C0000BFF8BD70B5044694F83D50DA
:10522000E66A082E01D0202E1FD1282D1DD123483B
:10523000E0622068406820F4E060216848606FF414
:105240008060216848612068006820F480602168DF
:10525000086000202063202084F83D00002084F8AE
:105260003E002046FDF7C6FC26E0212D20D1134844
:10527000E06221202063202084F83D00002084F893
:105280003E002068406820F4E060216848606FF4C8
:105290008060216848612068006820F4806021688F
:1052A00008602046FFF72EF92046FDF734FF03E0A3
:1052B0006FF480602168486170BD00000000FFFF4E
:1052C00038B5044694F83D502068406820F4E0600A
:1052D0002168486000BF002000902068406900906D
:1052E0002068006840F001002168086000BF00BF2E
:1052F0002068006820F480602168086020684068A9
:1053000000F40060B0F5006F42D1222D01D02A2DAB
:105310001FD1A06B006840686085608D18B1206C5B
:1053200040F0040020642068406820F40060216898
:105330004860A06BFDF7FDF8012829D04148A16B1A
:105340000865A06BFDF7E1F810B3A06B016D88470D
:105350001EE0606B006840686085608D18B1206C4D
:1053600040F0040020642068406820F40060216858
:105370004860606BFDF7DDF8012809D03148616BAA
:105380000865606BFDF7C1F810B1606B016D88476F
:10539000608D18B320684069C0F3800048B1206870
:1053A0000069616A0870606A401C6062608D401E1E
:1053B000608520684069C0F3801048B120680069AA
:1053C000616A0870606A401C6062608D401E608582
:1053D000608D18B1206C40F004002064206C18B17E
:1053E0002046FFF799F82BE02A2D07D100202063F3
:1053F000282084F83D002046FDF78CFE94F83D00FF
:1054000028280DD11048E06200202063202084F875
:105410003D00002084F83E002046FDF7EBFB0FE046
:10542000206B222801D0222D0AD1002020632020C9
:1054300084F83D00002084F83E002046FDF76AFE17
:1054400038BD00000D4400080000FFFF70B50446A1
:105450000D46164625E02046FFF734F908B1012035
:1054600070BD681CE8B1FDF77DF9801BA84200D82B
:10547000BDB920684069C0F3800090B90020206366
:10548000202084F83D00002084F83E00206C40F08D
:105490002000206400BF002084F83C0000BF0120F1
:1054A000DEE720684069C0F380000028D3D00020E8
:1054B000D6E72DE9F04104460D4617461E46DDF8B5
:1054C000188038E0701CA8B3FDF74CF9A0EB080079
:1054D000B04200D876BBC5F3074001280AD1206846
:1054E0004069A9B20840A9B2884201D101200BE06D
:1054F000002009E020688069A9B20840A9B288426A
:1055000001D1012000E00020B84214D10020206326
:10551000202084F83D00002084F83E00206C40F0FC
:105520002000206400BF002084F83C0000BF012060
:10553000BDE8F081FFE7C5F3074001280AD12068E4
:105540004069A9B20840A9B2884201D101200BE00C
:10555000002009E020688069A9B20840A9B2884209
:1055600001D1012000E00020B842ABD00020DFE7ED
:105570002DE9F04104460D4616461F4658E02068C6
:105580004069C0F38020E8B12068006840F40070F2
:10559000216808606FF48060216848610020206302
:1055A000202084F83D00002084F83E00206C40F06C
:1055B0000400206400BF002084F83C0000BF0120EC
:1055C000BDE8F081701C90B3FDF7CCF8C01BB04271
:1055D00000D866BBC5F3074001280AD1206840699E
:1055E000A9B20840A9B2884201D101200BE00020F5
:1055F00009E020688069A9B20840A9B2884201D1B7
:10560000012000E0002090B900202063202084F8D1
:105610003D00002084F83E00206C40F02000206413
:1056200000BF002084F83C0000BF0120C8E7FFE76E
:10563000C5F3074001280AD120684069A9B2084093
:10564000A9B2884201D101200BE0002009E02068C6
:105650008069A9B20840A9B2884201D1012000E0C6
:10566000002000288BD00020AAE770B504460D4624
:10567000164637E020684069C0F30010A0B16FF013
:1056800010002168486100202063202084F83D003C
:10569000002084F83E00206C206400BF002084F8C5
:1056A0003C0000BF012070BDFDF75CF8801BA842E4
:1056B00000D8BDB920684069C0F3801090B90020BF
:1056C0002063202084F83D00002084F83E00206CF8
:1056D00040F02000206400BF002084F83C0000BFA0
:1056E0000120E0E720684069C0F380100028C1D0A5
:1056F0000020D8E708B50146002000901048006857
:105700001922B0FBF2F04FF47A72B0FBF2F000EB2A
:105710008000009000BF0098401E0090009828B9BB
:10572000086C40F020000864012008BD086800688B
:1057300000F40070B0F5007FEDD00020F5E7000028
:10574000F803002070B504460D46164625E02046B5
:10575000FEF7B8FF08B1012070BD681CE8B1FDF785
:1057600001F8801BA84200D8BDB920684069C0F389
:10577000C01090B900202063202084F83D00002054
:1057800084F83E00206C40F02000206400BF002020
:1057900084F83C0000BF0120DEE720684069C0F3C8
:1057A000C0100028D3D00020D6E7000021480078A0
:1057B000AA283ED11F48C079FF283AD11D48407819
:1057C0001D4908701B48807810B11A48807801E0A4
:1057D0001A480078194908701648C07818490870A6
:1057E0001448007917490870124840791649087022
:1057F00010488079154908701148007810B90120C7
:105800000F4908700B48C07811490978884210D0B8
:10581000104800780A490978884206D001200E49CC
:105820000870074800780B4908700248C07808499A
:10583000087070470C000020A8010020AA01002079
:10584000AC010020B0010020AB010020AD01002020
:10585000B4010020B301002000010020F0EE400A56
:10586000DFED0E1AB0EE610ADFED0D1AB0EE611A2F
:105870009FED0C2AC1EE021A80EEA12ADFED091A73
:1058800022EE212ADFED082AC2EE221A9FED072A16
:1058900061EE821AB0EE610A70470000000000005D
:1058A000AAE5A64400007A440000614500001643C2
:1058B000174890ED000A1748D0ED000A30EE600A54
:1058C000BDEEC00A144880ED000A006802280ADB19
:1058D00012480078022801D10F2001E06FF00E007D
:1058E0000F49086012E00C48006810F1020F0ADC52
:1058F0000A480078022802D16FF00E0000E00F2065
:105900000749086002E00020054908607047000070
:10591000980000208000002088020020AB010020B9
:105920007803002000B58BB01748184908600C2098
:105930004860002115488160C1604FF43021016149
:105940004FF4801141610021017641768176C17664
:1059500001774177FCF770F908B1FBF715FD0120DD
:105960000990002006900590019002900390049009
:105970000790012008900E200A9001A90348FBF728
:10598000D7FE0BB000BD00000064004038040020CA
:1059900000B58BB01848194908600C2048600021F8
:1059A00016488160C1604FF4202101614FF400115D
:1059B00041610021017641768176C1760177417798
:1059C000FCF73AF908B1FBF7DFFC012009900E2043
:1059D0000690012005900020019002900390049011
:1059E0000790012008900E200A9001A90348FBF7B8
:1059F0009FFE0BB000BD0000006800406004002066
:105A000000B587B0142102A8FAF788FD00BF002076
:105A100001904548006840F004004349086008468A
:105A2000006800F00400019000BF00BF00BF00202C
:105A300001900846006840F0800008600846006851
:105A400000F08000019000BF00BF00BF0020019067
:105A50000846006840F0010008600846006800F051
:105A60000100019000BF00BF00BF00200190084668
:105A7000006840F0020008600846006800F002007C
:105A8000019000BF00BF00BF0020019008460068E1
:105A900040F0080008600846006800F00800019027
:105AA00000BF00BF00220C212048FCF755FE002259
:105AB00006211F48FCF750FE0420029001200390AD
:105AC000002004900120059002A91848FCF74AFD27
:105AD000082002900120039000200490059002A964
