:020000040800F2
:1000000060100020A5020008393A00082F370008C8
:10001000353A0008D1040008014200080000000041
:100020000000000000000000000000000F3B00087E
:100030006F050008000000000D3B0008113B0008A0
:10004000BF020008BF020008BF020008BF0200088C
:10005000BF020008BF020008BF020008BF0200087C
:10006000BF020008BF020008BF020008BF0200086C
:10007000BF020008BF020008BF020008BF0200085C
:10008000BF020008BF020008BF020008BF0200084C
:10009000D5040008E5040008BF020008BF020008FC
:1000A000BF020008BF020008BF020008BF0200082C
:1000B000BF020008BF020008BF020008BF0200081C
:1000C000BF020008BF020008BF020008BF0200080C
:1000D000BF020008BF020008BF020008BF020008FC
:1000E000BF020008BF020008BF020008BF020008EC
:1000F000BF020008E93B0008BF020008BF02000879
:10010000BF020008BF020008BF020008BF020008CB
:100110003D3D00084D3D0008BF020008BF02000839
:10012000BF020008BF020008BF020008BF020008AB
:10013000BF0200080000000000000000BF0200082D
:10014000F504000805050008BF020008BF0200080A
:10015000BF020008BF020008BF020008BF0200087B
:10016000BF020008BF020008BF020008BF0200086B
:10017000BF020008BF020008BF0200080000000024
:1001800000000000BF0200080000000000000000A6
:10019000BF0200080000000000000000BF020008CD
:1001A000000000000000000000000000BF02000886
:1001B000BF020008BF020008BF020008890500084E
:1001C0007905000800F002F800F05CF80AA090E859
:1001D000000C82448344AAF10107DA4501D100F002
:1001E00051F8AFF2090EBAE80F0013F0010F18BF73
:1001F000FB1A43F001031847804A0000A04A0000A0
:100200000A444FF0000C10F8013B13F0070408BF3C
:1002100010F8014B1D1108BF10F8015B641E05D0DA
:1002200010F8016B641E01F8016BF9D113F0080F8F
:100230001EBF10F8014BAD1C0C1B09D16D1E58BF21
:1002400001F801CBFAD505E014F8016B01F8016B58
:100250006D1EF9D59142D6D37047000000230024CB
:1002600000250026103A28BF78C1FBD8520728BFC6
:1002700030C148BF0B6070471FB504F0E6FC1FBDDE
:1002800010B510BD00F0D4F81146FFF7F5FF03F0EC
:10029000D5FF00F0F2F803B4FFF7F2FF03BC00F063
:1002A000F5F800000948804709480047FEE7FEE7E7
:1002B000FEE7FEE7FEE7FEE7FEE7FEE7FEE7FEE716
:1002C00004480549054A064B70470000D53B000825
:1002D000C5010008600A002060100020600C0020AA
:1002E000600C002053EA020C00F069802DE9F04B0D
:1002F0004FF00006002B1FBFB3FA83F503FA05F495
:1003000024FA05F65E4012BF1643B2FA82F502FAED
:1003100005F4C5F120051EBF22FA05FC44EA0C04D1
:10032000203556EA044C4FEA144418BF641C4FF0C1
:1003300000084FF00009904271EB030C39D30029FB
:1003400019BFB1FA81F701FA07F6B0FA80F700FA9F
:1003500007F6C7F120071EBF20FA07FC46EA0C0685
:100360002037B6FBF4FCA7EB0507103F07F01F0B87
:10037000CBF120060CFA0BFB2CFA06F644BFB34671
:100380000026202FA4BF5E464FF0000B5BEA060C50
:1003900008BF4FF0010B19EB0B09ABFB027C48EBDC
:1003A0000608C01B06FB02CC0BFB03CC71EB0C0157
:1003B000C1E70B46024641464846BDE8F08B13B5FF
:1003C0004FF000004FF00001AFF30080BDE81C408B
:1003D00070474FF0000200B5134694469646203908
:1003E00022BFA0E80C50A0E80C50B1F12001BFF4EE
:1003F000F7AF090728BFA0E80C5048BF0CC05DF854
:1004000004EB890028BF40F8042B08BF704748BFA1
:1004100020F8022B11F0804F18BF00F8012B704715
:10042000704770477047000000487047FC09002083
:100430007546FFF7F9FFAE4605006946534620F0C2
:100440000700854618B020B5FFF73AFFBDE8204009
:100450004FF000064FF000074FF000084FF0000B80
:1004600021F00701AC46ACE8C009ACE8C009ACE833
:10047000C009ACE8C0098D46704710B50446AFF31B
:1004800000802046BDE81040FFF705BF0149182055
:10049000ABBEFEE72600020070470000094901EBF1
:1004A0008001094A12680A60064901EB800191ED5A
:1004B000000ABDEEC00A10EE101A09B2034A22F873
:1004C00010107047000800202B000020500800206A
:1004D00000BFFEE710B5024800F07BFD10BD000034
:1004E000E404002010B5024800F073FD10BD0000C8
:1004F000E404002010B5024800F06BFD10BD0000C0
:100500000C05002010B5024800F063FD10BD00008E
:100510000C05002008B5014661B9002004E00E4A30
:10052000125C0E4B1A54401C0328F8DD0B4800687F
:1005300000900EE001290CD1002005E0064B021DC1
:100540009A5C064B1A54401C0328F7DD03480068E8
:1005500000909DED000A08BD2B000020090000203E
:100560000146002008784A7842EA00207047704728
:1005700072B600BFFEE7000010B5024801F033FB81
:1005800010BD00003405002010B5024801F066FBE4
:1005900010BD00003405002070B50546AC6BA06BA3
:1005A00010B10020A16B0865E06B10B10020E16B79
:1005B0000865204600F07DFB70BD10B502460020A6
:1005C00001F001034BB140F0420092F8413003F0DA
:1005D0002803282B01D040F0B00001F00203022BC9
:1005E00009D140F0440092F8413003F02803282B51
:1005F00001D040F0B00001F40043B3F5004F01D149
:1006000040F0B800102901D140F09000202901D11C
:1006100040F02000402901D140F0400013681B68E1
:1006200083431468236010BD01688969C1F34001E8
:1006300011B10021026891620168896901F001012C
:1006400029B90168896941F0010102689161704727
:100650002DE9F0470446894694F8410000F028004F
:10066000282852D120688069C0F30047206880693B
:1006700000F47E00050C20688068C0F3090620683D
:10068000C06800F0FE08E06802282ED105F00600E0
:10069000062101EAE611884216D13546A06C401CBD
:1006A000A064A06C022838D10020A0640820216832
:1006B000C86100BF002084F8400000BF2A463946C8
:1006C000204601F08FFA28E045464FF400412046CD
:1006D000FFF773FF00BF002084F8400000BF2A46E8
:1006E0003946204601F07EFA17E04FF400412046DB
:1006F000FFF763FF00BF002084F8400000BF2A46D8
:100700003946204601F06EFA07E008202168C861EA
:1007100000BF002084F8400000BFBDE8F087000063
:100720002DE9F04104460F4694F84160002084F81A
:1007300042004D48E06200206085606C3843606490
:10074000282E03D0292E01D02A2E09D1032120469C
:10075000FFF733FF282084F841004448606324E019
:1007600048F203012046FFF728FF2046FFF75CFF11
:1007700094F84100602816D0202084F841002068B9
:100780008069C0F3401070B120688069C0F3001028
:1007900030B110202168C861606C40F004006064D2
:1007A00020202168C86100206063256BA06B48B3DE
:1007B000112D01D0212D25D12068006800F4804042
:1007C000B0F5804F05D12068006820F48040216892
:1007D0000860A06B01F0B7F901280FD02448A16B85
:1007E000086500BF002084F8400000BFA06B01F046
:1007F00096F970B3A06B016D884732E0204600F097
:1008000058FA2EE0E06B48B3122D01D0222D25D1ED
:100810002068006800F40040B0F5004F05D1206862
:10082000006820F4004021680860E06B01F08BF95B
:1008300001280FD00E48E16B086500BF002084F846
:10084000400000BFE06B01F06AF910B1E06B016D90
:10085000884706E0204600F02CFA02E0204600F02F
:1008600028FABDE8F08100000000FFFF690B0008D6
:100870009905000870B504460D461948E06200204D
:100880002063202084F84100002084F84200606347
:10089000C5F3800090B12068406A616A0870606AA0
:1008A000401C6062208D48B1208D401E2085608DE7
:1008B000401E6085606C40F00400606448F20301F3
:1008C0002046FFF77AFE10202168C86100BF002093
:1008D00084F8400000BF204601F03CFA70BD0000E3
:1008E0000000FFFF2DE9F047044689462068D0F854
:1008F00000804E46E76A94F8415020202168C86184
:10090000212D01D0292D07D148F201012046FFF702
:1009100054FE2120206314E0222D01D02A2D07D17E
:1009200048F202012046FFF748FE2220206308E03B
:10093000282D06D148F203012046FFF73EFE002095
:1009400020632068406840F40040216848602068C7
:10095000406860490840216848602046FFF764FE0F
:10096000C8F3803060B12068006820F480402168BE
:100970000860A06B98B1A06B0068406860850EE0CD
:10098000C8F3C03058B12068006820F400402168E6
:100990000860E06B18B1E06B006840686085C6F3E2
:1009A000800080B126F004062068406A616A087001
:1009B000606A401C6062208D28B1208D401E208519
:1009C000608D401E6085608D18B1606C40F0040041
:1009D0006064C6F3001000B3C8F30010E8B1608D86
:1009E00000BB94F84100282807D1B7F1007F04D15B
:1009F00031462046FFF73EFF23E094F841002928C6
:100A00000CD117F5803F09D010202168C86120461D
:100A1000FFF70AFE204600F061F812E0102021687E
:100A2000C8610EE010202168C861606C40F00400CD
:100A3000606417B1B7F1807F03D1616C2046FFF786
:100A40006FFE002084F842006063606C60B1616CEE
:100A50002046FFF765FE94F84100282837D131463B
:100A60002046FFF707FF32E0E06A10F5803F11D023
:100A7000204600F033F81848E062202084F8410056
:100A80000020206300BF84F8400000BF204601F032
:100A900061F91CE094F8410022280CD1202084F850
:100AA00041000020206300BF84F8400000BF2046C2
:100AB00001F0B4F90BE0202084F84100002020630D
:100AC00000BF84F8400000BF204601F0A8F9BDE84F
:100AD000F087000000E800FE0000FFFF70B504464C
:100AE00020680568002084F84200C5F3803030B1EA
:100AF0002068006820F480402168086008E0C5F3A1
:100B0000C03028B12068006820F4004021680860E7
:100B100094F84100292811D1282084F8410021208F
:100B2000206301212046FFF748FD00BF002084F824
:100B3000400000BF204601F072F914E094F8410033
:100B40002A2810D1282084F8410022202063022185
:100B50002046FFF732FD00BF002084F8400000BFB0
:100B6000204601F05BF970BD2DE9F041044688464E
:100B70001646E56A474600BF94F84000012802D1B6
:100B80000220BDE8F081012084F8400000BFC7F3D7
:100B9000401038B1C6F3401020B139462046FFF767
:100BA000A1FE7FE0C7F30010A8B3C6F3001090B316
:100BB000608D00BB94F84100282807D1B5F1007F73
:100BC00004D139462046FFF755FE6BE094F841000A
:100BD00029280CD115F5803F09D010202168C86163
:100BE0002046FFF721FD2046FFF778FF5AE010204E
:100BF0002168C86156E010202168C861606C40F02F
:100C00000400606415B1B5F1807F4BD1616C204662
:100C1000FFF786FD46E0FFE7C7F38000D0B1C6F3DB
:100C20008000B8B1608D60B12068406A616A087068
:100C3000606A401C6062208D401E2085608D401ED1
:100C40006085608D30BB15F5803F2BD02046FFF7C7
:100C500045FF27E0C7F3C00038B1C6F3C00020B19C
:100C600039462046FFF7F4FC1CE0C7F3400088B18A
:100C7000C6F3400070B1608D68B1606A0078216889
:100C80008862606A401C6062608D401E6085208DB5
:100C9000401E208506E0B5F1807F00D015B92046C2
:100CA000FFF71CFF00BF002084F8400000BF00BF1A
:100CB00067E710B5044694F8410060280CD1202065
:100CC00084F841000020206300BF84F8400000BF8A
:100CD000204600F086FF08E00020206300BF84F873
:100CE000400000BF204600F0C7FF10BD10B502460F
:100CF00092F82030012B01D0022B06D110684069F8
:100D0000084314686061002010BD506A40F48020E0
:100D100050620120F8E70000F0B504460A46216859
:100D200094F82050012D01D0022D7ED1424901F5C9
:100D30000071086840F001000860086820F47C50E9
:100D400008600868566A40EA06200860107D00F0D6
:100D50001F06012000FA06F3C8699843C861A1F58F
:100D60000071D069C8B9D1F80C029843C1F80C02DF
:100D7000908880B2968940EA064601F5107057695E
:100D800040F83760108880B2168940EA064601F5BF
:100D90001070576900EBC7004660D069012819D16F
:100DA000D1F80C021843C1F80C02908880B2168862
:100DB00040EA064601F51070576940F8376090899F
:100DC00080B2168940EA064601F51070576900EBBB
:100DD000C7004660906928B9D1F804029843C1F869
:100DE000040204E0D1F804021843C1F804021069B7
:100DF00028B9D1F814029843C1F8140204E0D1F8DC
:100E000014021843C1F81402106A012804D1D1F861
:100E10001C021843C1F81C02D1F8000220F00100A6
:100E2000C1F800020020F0BDFFE7606A40F48020B6
:100E300060620120F7E7000000640040704770B571
:100E4000044694F82050012D01D0022D7DD151B9D6
:100E50002068C06800F0030080B9606A40F40010A8
:100E60006062012070BD2068006900F0030028B9AD
:100E7000606A40F4001060620120F3E7206800F52A
:100E8000D87000EB0110006800F0040090609068DA
:100E900040B9206800F5D87000EB01100068400DE3
:100EA000106007E0206800F5D87000EB01100068C2
:100EB000C0085060206800F5D87000EB0110006891
:100EC00000F00200D060206800F5D87000EB01103F
:100ED000406800F00F00082802D30820106108E0E5
:100EE000206800F5D87000EB0110406800F00F009A
:100EF0001061206800F5D87000EB0110406800F424
:100F00007F40000A9061206800F5D87000EB011066
:100F10004068000C5061206800F5D87000EB0110AB
:100F200080681870206800F5D87000EB01108068A8
:100F300000F47F40000A5870206800F5D87000EB7C
:100F40000110806800F47F0000E03CE0000C987025
:100F5000206800F5D87000EB01108068000ED87092
:100F6000206800F5D87000EB0110C0681871206887
:100F700000F5D87000EB0110C06800F47F40000A53
:100F80005871206800F5D87000EB0110C06800F4BB
:100F90007F00000C9871206800F5D87000EB0110FC
:100FA000C068000ED87131B92068C06840F02000D8
:100FB0002668F06005E02068006940F0200026689F
:100FC000306100204EE7606A40F4802060620120BA
:100FD00048E72DE9F05F044600252068466920684F
:100FE000D0F80490206887682068D0F80CA02068AA
:100FF000D0F810B02068D0F8188006F00100002862
:1010000055D007F00100C0B101202168886007F0C9
:10101000020018B1204600F026FD0EE007F00400A3
:1010200010B145F4006508E007F0080010B145F480
:10103000805502E0204600F015FD07F48070C8B12D
:101040004FF480702168886007F4007018B1204662
:1010500000F00BFD0EE007F4806010B145F4005580
:1010600008E007F4006010B145F4804502E0204636
:1010700000F0FAFC07F48030C8B14FF480302168EA
:10108000886007F4003018B1204600F0F0FC0EE054
:1010900007F4802010B145F4004508E007F4002073
:1010A00010B145F4803502E0204600F0DFFC06F088
:1010B000080038B10AF0100020B145F40075102086
:1010C0002168C86006F0040040B10AF0080028B1A9
:1010D00008202168C860204600F01CFA06F00200D3
:1010E00038B12068C06800F0030010B1204600F05D
:1010F00013FA06F0400038B10BF0100020B145F4AF
:10110000806510202168086106F0200040B10BF0D6
:10111000080028B1082021680861204600F0CEFBB5
:1011200006F0100038B12068006900F0030010B12B
:10113000204600F0C5FB06F4003040B109F0100075
:1011400028B1102021684860204600F05BFC06F4BE
:10115000803040B109F0080028B1082021684860BB
:10116000204600F085FC06F4004088B309F0040036
:1011700078B306F4807020B108F0010008B145F0A2
:10118000010506F4007020B108F0020008B145F036
:10119000020506F4806020B108F0040008B145F0B3
:1011A000040506F40060A0B108F0700088B108F0F2
:1011B0007000402817D006DC10280BD020280CD057
:1011C000302819D10CE0502810D0602814D110E03C
:1011D0001DE019E045F008050FE045F010050CE0B2
:1011E00045F0200509E045F0400506E045F08005A2
:1011F00003E045F4807500E000BF00BF206880690F
:1012000020F07000216888610420216848602DB1B9
:10121000606A284360622046FFF710FEBDE8F09F39
:1012200070B504460CB9012070BD94F8200010B9C7
:10123000204600F0AFF82068006840F00100216807
:10124000086000F0E5FE05460DE000F0E1FE401B01
:101250000A2808D9606A40F400306062052084F8EA
:1012600020000120E0E72068406800F0010000282D
:10127000EBD02068006820F002002168086000F0D0
:10128000C7FE05460DE000F0C3FE401B0A2808D942
:10129000606A40F400306062052084F8200001207C
:1012A000C2E72068406800F002000028EBD1207EF1
:1012B000012806D12068006840F08000216808609D
:1012C00005E02068006820F0800021680860607EEA
:1012D000012806D12068006840F0400021680860BD
:1012E00005E02068006820F0400021680860A07ECA
:1012F000012806D12068006840F0200021680860BD
:1013000005E02068006820F0200021680860E07E89
:10131000012806D12068006820F0100021680860CC
:1013200005E02068006840F0100021680860207F18
:10133000012806D12068006840F008002168086094
:1013400005E02068006820F0080021680860607FE0
:10135000012806D12068006840F004002168086078
:1013600005E02068006820F0040021680860D4E9E6
:101370000201084321690843616908436168491E05
:1013800008432168C86100206062012084F82000C1
:10139000002049E710B586B00446142101A8FFF7E4
:1013A00018F85749206888424AD156480068401CBE
:1013B000544908600846006801280FD100BF00208A
:1013C00000905148006840F000704F49086008469E
:1013D000006800F00070009000BF00BF00BF002058
:1013E000009049481038006840F002004649103922
:1013F00008600846006800F00200009000BF00BFCF
:101400004FF44070019002200290002003900320CE
:1014100004900920059001A93C4800F001FD00223C
:101420001146142000F082FE142000F06BFE002212
:101430001146152000F07AFE152000F063FE5DE0F5
:1014400033492068884259D100BF002000902E48BF
:10145000006840F080602C4908600846006800F091
:101460008060009000BF00BF26480068401C2549EE
:1014700008600846006801280FD100BF00200090D6
:101480002148006840F000701F4908600846006865
:1014900000F00070009000BF00BF00BF002000906F
:1014A00019481038006840F00200174910390860E8
:1014B0000846006800F00200009000BF00BF4FF433
:1014C00040500190022002900020039003200490DD
:1014D0000920059001A90D4800F0A2FC0022114648
:1014E000402000F023FE402000F00CFE00221146B8
:1014F000412000F01BFE412000F004FE06B010BDAC
:1015000000640040D0040020403802400004024043
:10151000006800407047000010B52DED048B0446B4
:10152000CD4BCE4A00212046FFF789FCCB4800680E
:1015300013287DD008DC08280DD0092844D01028B5
:1015400077D0122876D1D0E0142874D0172873D021
:101550001828F7D167E1C0490978BF4A527841EAB3
:10156000022108B203F026F941EC190B9FEDBC0BE8
:1015700053EC102B02F0C6FF41EC180B02F0DCFE1E
:10158000B9490860B4498978B34AD27841EA02215E
:1015900008B203F00FF941EC190B9FEDB10B53ECBE
:1015A000102B02F0AFFF41EC180B02F0C5FEAF4963
:1015B0000860AF484078401CAD494870AD48407D58
:1015C000401CAC4948753FE1A3490978A24A5278CA
:1015D00041EA022108B203F0EDF841EC190B9FED4E
:1015E000A00B53EC102B02F08DFF41EC180B02F016
:1015F000A3FEA149086098498978974AD27841EAC0
:10160000022108B203F0D6F841EC190B9FED940BC0
:1016100053EC102B02F076FF41EC180B02F08CFE1D
:101620009649086092488078401C9149887004E08F
:1016300084E008E007E12FE0A9E08E48807D401CAF
:101640008C49887500E18448FEF78AFF8C49488000
:101650008C48006803F088FA41EC180B88494888E8
:1016600003F0BFF841EC190BB0EE481AF0EE681A1F
:10167000B0EE490AF0EE690A02F0E0F9824880ED26
:10168000000A7B48C078401C7949C8707948C07D01
:10169000401C7849C875D7E06F48FEF761FF78496C
:1016A00088807A48006803F05FFA41EC180B7449AF
:1016B000888803F096F841EC190BB0EE481AF0EE6A
:1016C000681AB0EE490AF0EE690A02F0B7F97048FC
:1016D00080ED000A66480079401C6549087165483C
:1016E000007E401C63490876AEE05B48FEF738FF99
:1016F0006349C8806748006803F036FA41EC180B6C
:101700005F49C88803F06DF841EC190BB0EE481A38
:10171000F0EE681AB0EE490AF0EE690A02F08EF9AE
:101720005D4880ED000A52484079401C504948719C
:101730005048407E401C4F49487685E04648FEF7B9
:101740000FFF4F4908815548006803F00DFA41EC3E
:10175000180B4B49088903F044F841EC190BB0EE23
:10176000481AF0EE681AB0EE490AF0EE690A02F083
:1017700065F94B4880ED000A3D488079401C3C49A2
:1017800088713C48807E401C3A4988765CE032484B
:10179000FEF7E6FE00EE100AB8EE400A414880ED82
:1017A000000A4148008803F01CF841EC180B3D4842
:1017B000006803F0D9F941EC190BB0EE481AF0EECD
:1017C000681AB0EE490AF0EE690A02F037F93748B4
:1017D00080ED000A014691ED000ADFED350A30EE9A
:1017E000600ABDEEC00A10EE100A002801DB0146B7
:1017F00000E0414200EE101AB8EEC00A2B4981ED1C
:10180000000A084690ED000ABDEEC00A10EE100A6C
:1018100002B20A21274802F0D5FC1548C079401CC5
:101820001349C87110E00C48FEF79AFE00EE100A4A
:10183000B8EE400A204880ED000A0D48007A401CAE
:101840000B49087200E000BF00BF00200349086098
:10185000BDEC048B10BD00001B00002078060020AA
:1018600000000000000030407000002074000020E4
:1018700004070020C8060020780000207C0000201B
:10188000F4070020B4000020A4000020B8000020CD
:10189000A8000020BC000020AC000020C0000020F8
:1018A000B00000201C010020400100202C0100207D
:1018B00000005442D409002020010020704700009D
:1018C00010B50446444B454A01212046FFF7B7FABC
:1018D00042480088C0F34710414908703F480078EB
:1018E00000F01F003F49087008460078092820D002
:1018F00008DC01280DD0032835D004283FD0052866
:1019000066D148E0142853D0152821D017285FD17C
:1019100059E0354832490978405C401C3249304A28
:10192000127888542C48007930492D4A127888540E
:101930004FE00120FEF7EEFD2D482949097800EB24
:10194000810080ED000A26480078FEF7A7FD40E000
:101950000120FEF7DFFD26482149097800EB8100D0
:1019600080ED000A35E00120FEF7D4FDBCEEC00A90
:1019700010EE100A1F491A4A1278885429E00120F3
:10198000FEF7C8FDBCEEC00A10EE100A1A49144A50
:10199000127888541DE00020FEF7BCFDBCEEC00AA2
:1019A00010EE100AC1B214480D4A1278815410E0AA
:1019B0000120FEF7AFFD11480949097800EB8100CD
:1019C00080ED000A05E00E4803490968016000E067
:1019D00000BF00BF10BD00002B000020AC0600209F
:1019E0004C0000204D000020C80600200E070020FB
:1019F0002C070020CC070020E00700207C070020F7
:101A000050000020704770B5044694F8200001286B
:101A100022D1022084F820002068006820F0010014
:101A20002168086000F0F4FA05460DE000F0F0FAD5
:101A3000401B0A2808D9606A40F400306062052023
:101A400084F82000012070BD2068406800F001008B
:101A50000028EBD16062F6E7606A40F40020606223
:101A60000120F0E770477047704770477047704734
:101A7000704770B50446A56D00F0CAFA064694F8A2
:101A80003500022808D08020606500BF002084F85F
:101A9000340000BF012070BD2068006820F01600EF
:101AA000216808602068406920F080002168486152
:101AB000206C08B9A06C28B12068006820F00800EC
:101AC000216808602068006820F001002168086033
:101AD00010E000F09DFA801B05280BD920206065DE
:101AE000032084F8350000BF002084F8340000BFD4
:101AF0000320D0E72068006800F001000028E8D14A
:101B000094F85C103F208840A860012084F83500DC
:101B100000BF002084F8340000BF00BFBBE70146CF
:101B200091F83500022803D08020486501207047D5
:101B3000052081F835000868006820F001000A6877
:101B400010600020F3E7014691F83500704700006F
:101B500070B5044600F05CFA06462546681C10B1D4
:101B600004480078054400BF00F052FA801BA842E8
:101B7000FAD370BDDC040020024692F84100202810
:101B80002DD100BF92F84000012801D102207047FA
:101B9000012082F8400000BF242082F84100106834
:101BA000006820F00100136818601068006820F4D5
:101BB0008050136818601068006808431368186044
:101BC0001068006840F0010013681860202082F857
:101BD000410000BF002082F8400000BFD7E702208C
:101BE000D5E7704770472DE9F041044620688569C4
:101BF00020680668C5F3002050B1C6F3C01038B1A4
:101C0000606C40F0010060644FF480702168C8612E
:101C1000C5F3802050B1C6F3C01038B1606C40F0FD
:101C2000080060644FF480602168C861C5F34020FB
:101C300050B1C6F3C01038B1606C40F0020060646F
:101C40004FF400702168C861676C07F00B0018B191
:101C500039462046FEF764FDBDE8F08170B50446C4
:101C60002068856920680668606B20B13246294685
:101C70002046636B984770BD7047000010B504465E
:101C80000CB9012010BD94F8410028B9002084F857
:101C90004000204600F060F8242084F841002068CD
:101CA000006820F0010021680860606820F0706022
:101CB000216808612068806820F4004021688860FD
:101CC000E068012805D1A06840F4004021688860E0
:101CD00004E0A06840F4044021688860E0680228BD
:101CE00006D12068406840F400602168486005E043
:101CF0002068406820F400602168486020684068DF
:101D000013490843216848602068C06820F40040F7
:101D10002168C860D4E904010843A16940EA0120B0
:101D20002168C860D4E90701084321680860206879
:101D3000006840F0010021680860002060642020F5
:101D400084F841000020206384F8420000BF99E736
:101D5000008000027047000010B59EB004461421B8
:101D600019A8FEF736FB5C2102A8FEF732FB2849D2
:101D70002068884249D1802002900020159002A856
:101D800000F06CFA08B1FEF7F3FB00BF00200190F1
:101D90002048006840F004001E49086008460068BA
:101DA00000F00400019000BF00BFC0201990122075
:101DB0001A9001201B9003201C9004201D9019A94B
:101DC000154800F02DF800BF002001901148103098
:101DD000006840F080700F491031086008460068C4
:101DE00000F08070019000BF00BF002211465F200C
:101DF00000F09CF95F2000F085F900221146602078
:101E000000F094F9602000F07DF91EB010BD0000D4
:101E100000600040303802400008024070477047C0
:101E2000F8B502460B460025002400200021D1E031
:101E3000012606FA01F51E6806EA0504AC4274D1D3
:101E40001E7906F00306012E04D01E7906F0030663
:101E5000022E13D190684F000326BE40B0434F00BE
:101E6000DE68BE4030439060506801268E40B0432B
:101E70001E79C6F300168E40304350601E7906F07E
:101E80000306032E09D0D0684F000326BE40B0439E
:101E90004F009E68BE403043D0601E7906F00306B6
:101EA000022E13D1CF0802F1200656F827004E0764
:101EB000F70E0F26BE40B0434F07FF0E1E69BE400F
:101EC0003043CF0802F1200646F8270010684F0083
:101ED0000326BE40B0431E7906F003064F00BE4005
:101EE000304310605E6806F44036002E71D000BFAB
:101EF00000260096394E366846F48046374F3E60DD
:101F00003E46366806F48046009600BF00BF344E59
:101F10008F0856F827008E07370F0F26BE40B043B4
:101F2000304EB24202D100261FE052E02E4EB242A5
:101F300001D1012619E02D4EB24201D1022614E052
:101F40002B4EB24201D103260FE02A4EB24201D1FC
:101F500004260AE0284EB24201D1052605E0274EAC
:101F6000B24201D1062600E007268F073F0FBE4090
:101F700030431B4E8F0846F82700214E3068A0439F
:101F80005E6806F4801606B120431D4E3060361D93
:101F90003068A0435E6806F4001606B12043184E70
:101FA000361D3060164E361F3068A0435E6806F45A
:101FB000003606B12043124E361F3060361F30689F
:101FC000A0435E6806F4803606B120430C4E083EFE
:101FD0003060491C1029FFF42BAFF8BD4438024093
:101FE000083801400000024000040240000802409E
:101FF000000C024000100240001402400018024091
:10200000083C01400AB1816101E00B048361704723
:102010000148006870470000D404002003480068AD
:10202000034909780844014908607047D404002036
:10203000DC04002010B50D48006840F400700B4926
:1020400008600846006840F4806008600846006840
:1020500040F480700860032000F0A6F80F2000F024
:1020600007F800F02BF8002010BD0000003C0240F3
:1020700070B504460E4800784FF47A71B1FBF0F069
:102080000C490968B1FBF0F5284600F07BFF08B168
:10209000012070BD102C07D200222146501E00F0F6
:1020A00045F80548046001E00120F2E70020F0E770
:1020B000DC040020E0040020D804002008B500BFA4
:1020C000002000900E48006840F480400C490860F1
:1020D0000846006800F48040009000BF00BF00BFC9
:1020E00000200090081F006840F08050091F086021
:1020F0000846006800F08050009000BF00BF08BD97
:10210000443802400146084600280DDB00BF00BFEE
:1021100000F01F0301229A4043099B0003F1E023D2
:10212000C3F8002100BF00BF00BF70472DE9F05F7A
:1021300080460D461646002702F064F807463946E9
:102140002A46334601F00700C0F1070ABAF1040F2E
:1021500002D94FF0040A01E0C0F1070AD14600F1AC
:10216000040ABAF1070F02D24FF0000A01E0A0F111
:10217000030AD4464FF0010A0AFA09FAAAF1010A41
:102180000AEA020A0AFA0CFA4FF0010B0BFA0CFBEE
:10219000ABF1010B0BEA030B4AEA0B042146404664
:1021A00002F038F8BDE8F09F00BF00F00702064BD0
:1021B00019684FF6FF031940044B0B4343EA022111
:1021C000014B196000BF70470CED00E00000FA05FC
:1021D00038B5002400BF002000901D48006840F082
:1021E00080501B4908600846006800F0805000904D
:1021F00000BF00BF012017490864FFF709FF04462C
:1022000007E0FFF705FF001BB0F57A7F01D9032037
:1022100038BD1148406800F48030B0F5803FF0D1FF
:1022200001200C494864FFF7F3FE044607E0FFF77E
:10223000EFFE001BB0F57A7F01D90320E8E70648DE
:10224000406800F40030B0F5003FF0D10020DFE737
:102250004038024000000E42007000402DE9FE4F61
:102260000446002500260027A846A946AA46AB46F4
:10227000002002900190207800F0010058B1FE4843
:10228000006820F0C060A16B0843FB490860A06BA8
:1022900008B901200290207800F0020002280BD13A
:1022A000F548006820F0C050E16B0843F24908602F
:1022B000E06B08B901200290207800F004000428A7
:1022C00011D1ED48006820F44010216B0843EA4921
:1022D0000860206BB0F5801F01D101200290206BB7
:1022E00008B901200190207800F00800082811D1D9
:1022F000E148006820F44000616B0843DE49086053
:10230000606BB0F5800F01D101200290606B08B9BD
:1023100001200190207800F0200020286FD100BF1C
:1023200000200090D4484C38006840F08050D249DA
:102330004C3908600846006800F08050009000BFEB
:1023400000BFCE48006840F48070CC490860FFF7B9
:102350005FFE054607E0FFF75BFE401B022802D93F
:102360000320BDE8FE8FC548006800F48070002897
:10237000F1D0C1481C38006800F4407656B3B4F878
:10238000400000F44070B04224D0BB481C380068C4
:1023900020F440760120BA49086000200860B64861
:1023A0001C380660006800F0010098B1FFF730FEAD
:1023B000054608E0FFF72CFE401B41F288318842B9
:1023C00001D90320CDE7AC481C380068C0F34000B9
:1023D0000028EFD000BFB4F8400000F44070B0F522
:1023E000407F0DD1A4488438006820F4F810A54A35
:1023F000216C11400843A0498439086008E013E0CB
:102400009D488438006820F4F8109B49843908609E
:1024100099481C380068B4F84010C1F30B01084318
:1024200095491C39086000BF207800F01000102882
:1024300003D194F8580094490860207800F0800097
:10244000802809D18C480830006820F44000E16CF5
:102450000843894908310860207800F0400040288E
:1024600009D185480830006820F08060A16C0843DD
:10247000814908310860208800F48070B0F5807FC1
:102480000FD17D480830006820F00060616D08437E
:10249000794908310860606DB0F1006F01D1012009
:1024A0000190208800F40070B0F5007F09D17248D7
:1024B0000830006820F08050616C08436E49083194
:1024C0000860208800F48060B0F5806F0FD16A4802
:1024D0000830006820F00050216D0843664908313B
:1024E0000860206DB0F1005F01D1012002900298D8
:1024F000012803D02068B0F5006F7DD1002063492A
:102500008866FFF785FD054606E0FFF781FD401B65
:10251000022801D9032024E757488C380068C0F30B
:10252000C0600028F1D1207800F0010008B1A06B54
:1025300030B1207800F0020002281ED1E06BE0B933
:102540004D4808380068C0F30140401C47004A4825
:1025500008380068C0F30368D4E9011041EA80102C
:102560000121C1EB570140EA014040EA0861207DAA
:1025700041EA0070404908390860207800F0040002
:10258000042803D1206BB0F5801F08D0207800F01C
:102590000800082829D1606BB0F5800F25D1364896
:1025A00008380068C0F30140401C47003248083832
:1025B0000068C0F30279D4E9011041EA80100121DA
:1025C000C1EB570140EA0141207C41EA006040EA4A
:1025D00009702949083908602748006820F01F0061
:1025E000A16A491E084324490860208800F48060DD
:1025F000B0F5806F23D100E05BE0206DB0F1005FAB
:102600001DD11D4808380068C0F30140401C4FEA46
:102610004008194808380068C0F30279D4E901106D
:1026200041EA80110122E068C2EB500041EA00401B
:1026300040EA086040EA09700F49083908602088BC
:1026400000F40060B0F5006F12D1D4E9011041EA46
:1026500080110122E068C2EB500041EA0041207C79
:1026600041EA0061207D41EA0070034908390860B1
:102670000120064988660BE08C380240007000405B
:10268000400E4742FFFCFF0FE01147420000474267
:10269000FFF7BEFC054606E0FFF7BAFC401B022828
:1026A00001D903205DE641480068C0F3C0600028FE
:1026B000F2D00198012877D100203D490867FFF743
:1026C000A7FC054606E0FFF7A3FC401B022801D942
:1026D000032046E635480068C0F340700028F2D178
:1026E000207800F00400042801D1206B30B120785C
:1026F00000F00800082824D1606B10BB2B488830FC
:102700000068C0F30140401C4FEA400AD4E90610BB
:1027100041EA80100121C1EB5A0140EA0141242025
:10272000005D41EA0060214988310860081D0068A9
:1027300020F4F851E06A401E41EA00201B498C3128
:102740000860208800F48070B0F5807F17D1606D3C
:10275000B0F1006F13D1154888300068C0F3036BE7
:10276000D4E9061041EA80110122206AC2EB500030
:1027700041EA004040EA0B600C49883108600120C2
:102780000B490867FFF744FC054607E0FFF740FCEC
:10279000401B022802D90320E3E505E00348006856
:1027A000C0F340700028F1D00020DAE50038024084
:1027B0000000474270B504460D460CB9012070BDBB
:1027C0005848006800F00F00A84209D255490D7022
:1027D0000846006800F00F00A84201D00120EEE793
:1027E000207800F0020002281DD1207800F00400BB
:1027F000042805D14C48006840F4E0504A4908607C
:10280000207800F00800082805D14748006840F407
:102810006040454908604448006820F0F000A16825
:10282000084341490860207800F00100A8B36068BF
:10283000012807D13C4808380068C0F34040B8B9C7
:102840000120BCE76068022802D06068032807D135
:10285000354808380068C0F3406048B90120AEE749
:10286000314808380068C0F3400008B90120A6E7E5
:102870002D48006820F00300616808432A49086079
:10288000FFF7C6FB064609E0FFF7C2FB801B41F2DB
:102890008831884202D9032091E707E02248006886
:1028A00000F00C006168B0EB810FEDD11D480068AD
:1028B00000F00F00A84209D91A490D7008460068B7
:1028C00000F00F00A84201D0012078E7207800F046
:1028D0000400042807D11448006820F4E050E1689F
:1028E000084311490860207800F00800082808D142
:1028F0000D48006820F46040216940EAC1000A499F
:10290000086000F03FF808490968C1F30311074A5D
:10291000515CC8400649086006480068FFF7A8FBFC
:1029200000204CE7003C0240083802405E4C0008A2
:10293000E0040020D804002001480068704700002F
:10294000E004002000B5FFF7F7FF04490968C1F370
:102950008221034A515CC84000BD00000838024093
:102960006E4C000800B5FFF7E7FF04490968C1F3A2
:102970004231034A515CC84000BD000008380240A3
:102980006E4C00082DE9F047002400250026A146E2
:10299000A2463F48006800F00C0030B1042807D080
:1029A000082808D00C286BD138E0DFF8E8A06AE0EE
:1029B000DFF8E4A067E03648001F006800F03F043D
:1029C0003348001F006800F4800078B13248304975
:1029D000091F0968C1F38811A0FB01700146224656
:1029E00000233846FDF77EFC05460DE029482849BE
:1029F000091F0968C1F38811A0FB01712246002359
:102A00003846FDF76FFC05462148001F0068C0F3FB
:102A10000140401C4600B5FBF6FA34E01C48001F9C
:102A2000006800F03F041A48001F006800F48000AE
:102A300078B119481649091F0968C1F38811A0FB2C
:102A400001700146224600233846FDF74BFC05463F
:102A50000EE010480E49091F0968C1F38811A0FB58
:102A600001700146224600233846FDF73BFC05462F
:102A70000748001F0068C0F30279B5FBF9FA02E0CD
:102A8000DFF810A000BF00BF5046BDE8F08700008F
:102A9000083802400024F40040787D01F8B504466F
:102AA0000CB90120F8BD207800F0010000286FD09B
:102AB000FE48006800F00C0004281BD0FB480068AA
:102AC00000F00C00082807D1F848001F006800F447
:102AD0008000B0F5800F0DD0F448006800F00C00C5
:102AE0000C2813D1F148001F006800F48000B0F5F5
:102AF000800F0BD1ED4808380068C0F34040002833
:102B000059D06068002856D10120CBE700BF60682B
:102B1000B0F5803F08D1E5480838006840F48030BF
:102B2000E249083908601EE06068B0F5A02F0DD1B9
:102B3000DE480838006840F48020DC490839086025
:102B40000846006840F4803008600CE0D748083838
:102B5000006820F48030D5490839086008460068CC
:102B600020F48020086000BF606890B1FFF750FA41
:102B7000054606E0FFF74CFA401B642801D9032004
:102B800090E7CA4808380068C0F340400028F1D0F8
:102B900011E0FFF73DFA054606E0FFF739FA401B62
:102BA000642801D903207DE7C04808380068C0F3D5
:102BB00040400028F1D1207800F0020002286BD1BB
:102BC000BA48006800F00C00B8B1B848006800F0DE
:102BD0000C00082805D1B548001F006800F48000EB
:102BE00058B1B248006800F00C000C281CD1AF4866
:102BF000001F006800F48000B0B9AC4808380068D5
:102C0000C0F3400020B1E068012801D0012049E76D
:102C1000A6480838006820F0F800216940EAC100A1
:102C2000A2490839086037E0E06800B30120A049F4
:102C30000860FFF7EDF9054606E0FFF7E9F9401BEC
:102C4000022801D903202DE7984808380068C0F30E
:102C500040000028F1D095480838006820F0F800BE
:102C6000216940EAC10091490839086014E0002058
:102C70008F490860FFF7CCF9054606E0FFF7C8F971
:102C8000401B022801D903200CE788480838006857
:102C9000C0F340000028F1D1207800F00800082897
:102CA0002CD16069A8B1012082490860FFF7B0F912
:102CB000054606E0FFF7ACF9401B022801D90320C6
:102CC000F0E67A486C300068C0F340000028F1D08C
:102CD00014E0002077490860FFF79AF9054606E0FE
:102CE000FFF796F9401B022801D90320DAE66F4866
:102CF0006C300068C0F340000028F1D1207800F06B
:102D00000400042870D1002768483830006800F0BB
:102D1000805090B900BF00200090644838300068AF
:102D200040F080506149383108600846006800F082
:102D30008050009000BF00BF01275F48006800F48A
:102D40008070B0B95C48006840F480705A490860EF
:102D5000FFF75EF9054606E0FFF75AF9401B022827
:102D600001D903209EE65448006800F480700028D2
:102D7000F2D000BFA068012808D14C486830006834
:102D800040F001004949683108601DE0A06805284D
:102D90000DD146486830006840F00400434968316E
:102DA00008600846006840F0010008600CE03F48F9
:102DB0006830006820F001003C496831086008462E
:102DC000006820F00400086000BFA068A8B1FFF709
:102DD0001FF9054609E0FFF71BF9401B41F2883156
:102DE000884202D903205DE626E03048683000685A
:102DF000C0F340000028EED013E0FFF709F90546C4
:102E000008E0FFF705F9401B41F28831884201D9FB
:102E1000032047E6254868300068C0F340000028DA
:102E2000EFD1012F07D121483830006820F08050C1
:102E30001E493831086000BFA069002851D01B48E6
:102E4000006800F00C00082861D0A069022849D170
:102E5000002017490866FFF7DBF8054606E0FFF794
:102E6000D7F8401B022801D903201BE60F48083879
:102E70000068C0F340600028F1D1D4E9070108439D
:102E8000616A40EA81110122A06AC2EB500041EA66
:102E900000412C20005D41EA00613020005D41EAE4
:102EA00000700249091F0860012007E0083802404D
:102EB00000004742800E4742007000402F490866DC
:102EC000FFF7A6F8054606E0FFF7A2F8401B022828
:102ED00001D90320E6E52A480068C0F340600028D5
:102EE000F2D048E0002025490866FFF791F8054632
:102EF00006E0FFF78DF8401B022801D90320D1E539
:102F00001F480068C0F340600028F2D133E0A06998
:102F1000012800D1C6E51A48001D0668A0690128ED
:102F200027D006F48001E069814222D106F03F01FA
:102F3000206A81421DD147F6C0703040616AB0EB13
:102F4000811F16D106F440310122A06AC2EB500065
:102F5000B1EB004F0DD106F070612C20005DB1EB9C
:102F6000006F06D106F0E0413020005DB1EB007F3C
:102F700001D0012096E5002094E5000000004742C2
:102F80000038024070B504462546681EB0F1807FC7
:102F900001D301200FE0681E4FF0E02148610F21AE
:102FA0004FF0FF3001F036F900204FF0E02188614A
:102FB00007200861002070BD7047704710B50446B7
:102FC0000CB9012010BD94F83D0028B9002084F808
:102FD0003C00204600F026F8022084F83D00211D28
:102FE000206800F037FE012084F8460000BF84F816
:102FF0003E0001213F20015540200155412001554F
:1030000000BF00BF012084F8420043200155442046
:1030100001554520015500BF012084F83D000020E6
:10302000D0E7000038B504460E492068884217D121
:1030300000BF002000900C48006840F480700A49EE
:1030400008600846006800F48070009000BF00BF70
:10305000002211462D20FFF769F82D20FFF752F8C6
:1030600038BD00000020004040380240704770B575
:1030700004462068C5682068066906F00200022838
:1030800019D105F00200022815D1401F21680861FE
:10309000012020772068806900F0030018B12046E5
:1030A000FFF7E4FF05E0204600F097F8204600F027
:1030B00095F80020207706F00400042819D105F0C7
:1030C0000400042815D1C04321680861022020773C
:1030D0002068806900F4407018B12046FFF7C6FFF1
:1030E00005E0204600F079F8204600F077F800204F
:1030F000207706F00800082819D105F008000828F4
:1031000015D1C04321680861042020772068C06978
:1031100000F0030018B12046FFF7A8FF05E02046A5
:1031200000F05BF8204600F059F80020207706F008
:103130001000102819D105F01000102815D1C04337
:1031400021680861082020772068C06900F4407079
:1031500018B12046FFF78AFF05E0204600F03DF851
:10316000204600F03BF80020207706F0010048B12F
:1031700005F0010030B16FF00100216808612046C0
:1031800000F02DF806F08000802809D105F08000BD
:10319000802805D1C043216808612046FFF70CFF55
:1031A00006F04000402809D105F04000402805D134
:1031B000C04321680861204600F012F806F02000A4
:1031C000202809D105F02000202805D1C04321681E
:1031D00008612046FFF7F1FE70BD704770477047E9
:1031E00070477047704700002DE9F84F044620688B
:1031F00005682068C668206847694FF00009CA461C
:1032000005F00F09B9F1000F0AD105F0200038B11F
:1032100006F0200020B1204600F0F0FDBDE8F88F58
:10322000B9F1000F7CD007F0010018B906F49070D6
:10323000002875D005F0010030B106F4807018B197
:10324000606C40F00100606405F0040030B107F0EC
:10325000010018B1606C40F00200606405F00200EB
:1032600030B107F0010018B1606C40F004006064F8
:1032700005F0080048B106F0200010B907F0010081
:1032800018B1606C40F008006064606C002846D0A3
:1032900005F0200028B106F0200010B1204600F013
:1032A000ADFD20684069C0F3801A606C00F0080032
:1032B00010B9BAF1000F2DD0204600F059FD20685A
:1032C000406900F04000402820D100BF00BF2168C5
:1032D000143151E8001F21F040002168143141E809
:1032E0000002002AF3D100BFE06B50B17748E16BD8
:1032F0000865E06BFEF713FC88B1E06B016D884751
:103300000DE02046FFF76EFF09E009E02046FFF7D9
:1033100069FF04E02046FFF765FF002060647DE759
:10332000206B012878D105F01000002874D006F039
:1033300010000028FAD000BF00200090206800682C
:10334000009020684068009000BF00BF206840697E
:1033500000F04000402860D1E06B006840681FFA30
:1033600080F8B8F1000F56D0A08D404553DDA4F889
:103370002E80E06BC069B0F5807F43D000BF00BFF6
:1033800021680C3151E8001F21F4807021680C3154
:1033900041E80002002AF3D100BF00BF00BF21684E
:1033A000143151E8001F21F001002168143141E877
:1033B0000002002AF3D100BF00BF00BF2168143112
:1033C00051E8001F21F040002168143141E800025B
:1033D000002AF3D100BF202084F84200002020639F
:1033E00000BF00BF21680C3151E8001F21F0100020
:1033F00021680C3141E80002002AF3D100BFE06BE4
:10340000FEF737FB02206063A08DE28D801A81B247
:103410002046FFF7E6FE01E742E0A08DE18D401A6D
:103420001FFA80F8E08DD0B3B8F1000F37D000BF9D
:1034300000BF21680C3151E8001F21F49070216811
:103440000C3141E80002002AF3D100BF00BF00BFE9
:103450002168143151E8001F21F001002168143166
:1034600041E80002002AF3D100BF202084F8420086
:103470000020206300BF00BF21680C3151E8001F0D
:1034800021F0100021680C3141E80002002AF3D13C
:1034900000BF0220606341462046FFF7A2FEBDE662
:1034A00005F0800030B106F0800018B1204600F031
:1034B00059FEB3E605F0400030B106F0400018B107
:1034C000204600F08BFCA9E600BFA7E65D3D0008A2
:1034D00010B504460CB9012010BDA06900B100E090
:1034E00000BF94F8410028B9002084F8400020462D
:1034F00000F02AF8242084F841002068C06820F4F5
:1035000000502168C860204600F0F6FC2068006981
:1035100020F49040216808612068406920F02A006A
:10352000216848612068C06840F400502168C86084
:1035300000206064202084F8410084F842000020CC
:10354000606300BFC8E7000010B586B004461421D0
:1035500001A8FCF73EFF4C492068884238D100BFE3
:10356000002000904948006840F400204749086066
:103570000846006800F40020009000BF00BF00BFB4
:103580000020009041481038006840F001003F4999
:10359000103908600846006800F00100009000BF84
:1035A00000BF03200190022002900020039003201E
:1035B00004900820059001A93548FEF731FC00224F
:1035C00011463420FEF7B2FD3420FEF79BFD58E093
:1035D00030492068884254D100BF002000902B4819
:1035E000006840F48010294908600846006800F42B
:1035F0008010009000BF00BF00BF00200090234853
:103600001038006840F0040020491039086008466E
:10361000006800F00400009000BF00BF00BF002061
:1036200000900846006840F00800086008460068FE
:1036300000F00800009000BF00BF88140190022035
:10364000029000200390032004900820059001A917
:103650001148FEF7E5FB04200190022002900020B3
:103660000390032004900820059001A90B48FEF761
:10367000D7FB002211463520FEF758FD3520FEF716
:1036800041FD06B010BD0000004C00404038024033
:10369000000002400050004000080240000C0240C0
:1036A00070B504460D46164694F8420020280BD10A
:1036B00005B10EB9012070BD0020206332462946B5
:1036C000204600F02FFDF6E70220F4E710B504468F
:1036D000082205490548FFF7E3FF05480078401C2C
:1036E0000349087010BD00000000002018060020EB
:1036F0000800002010B5034693F84100202813D19C
:1037000001B10AB9012010BD19629A84DA8400203F
:103710005864212083F841001868C06840F0800098
:103720001C68E0600020EEE70220ECE7704700BF75
:10373000FEE7000000B58BB01748184908600C2060
:103740004860002115488160C1604FF4302101615B
:103750004FF4801141610021017641768176C17676
:1037600001774177FDF75CFD08B1FCF701FF01200F
:10377000099000200690059001900290039004901B
:103780000790012008900E200A9001A90348FDF738
:10379000C3FA0BB000BD000000640040E404002048
:1037A00000B58BB01848194908600C20486000210A
:1037B00016488160C1604FF4202101614FF400116F
:1037C00041610021017641768176C17601774177AA
:1037D000FDF726FD08B1FCF7CBFE012009900E2075
:1037E0000690012005900020019002900390049023
:1037F0000790012008900E200A9001A90348FDF7C8
:103800008BFA0BB000BD0000006800400C050020E2
:1038100010B50E480E4908600E48486000210C485B
:1038200081600121C1600021016141618161C1614B
:103830000162FEF723FA08B1FCF79AFE0021044862
:10384000FEF79AF908B1FCF793FE10BD0060004046
:1038500034050020120E00C000B587B0142102A864
:10386000FCF7B7FD00BF002001904548006840F01C
:103870000400434908600846006800F00400019015
:1038800000BF00BF00BF002001900846006840F064
:10389000800008600846006800F08000019000BFCA
:1038A00000BF00BF002001900846006840F0010002
:1038B00008600846006800F00100019000BF00BFEA
:1038C00000BF002001900846006840F00200086038
:1038D0000846006800F00200019000BF00BF00BF72
:1038E000002001900846006840F008000860084683
:1038F000006800F00800019000BF00BF00220C210A
:103900002048FEF77FFB002206211F48FEF77AFBC6
:1039100004200290012003900020049001200590D3
:1039200002A91848FEF77CFA0820029001200390B3
:1039300000200490059002A91248FEF771FA0420B5
:10394000029000200390049002A91048FEF768FA44
:10395000062002900120039000200490059002A907
:103960000948FEF75DFA4FF40060029000200390D2
:10397000049002A90348FEF753FA07B000BD000007
:1039800030380240000802400004024000000240BB
:1039900010B50A480A49086042F227304860002101
:1039A0000748816040F2E731C16000210161816117
:1039B000FFF704FB08B1FCF7DBFD10BD0020004061
:1039C0008805002010B50B480B4908604FF4E13022
:1039D0004860002108488160C16001610C2141619B
:1039E00000218161C161FFF773FD08B1FCF7C0FDE3
:1039F00010BD0000004C0040D005002010B50B4861
:103A00000B4908604FF4E1304860002108488160AC
:103A1000C16001610C21416100218161C161FFF739
:103A200057FD08B1FCF7A4FD10BD00000050004098
:103A30001806002000BFFEE700BFFEE710B52DED21
:103A4000088BB0EE408AF0EE608AB0EE419AF0EE5C
:103A5000619A53EC192B51EC180B00F09BFF41ECD1
:103A60001B0B9FED220B53EC102B00F05DFF0ED2D1
:103A700053EC192B51EC180B00F08CFF41EC1B0B95
:103A80009FED1C0B53EC102B00F084FF05E053EC72
:103A9000192B51EC180B00F07DFF41EC1A0B9FED38
:103AA000170B53EC102B51EC1A0B00F0ADFE08D2A3
:103AB0009FED100B53EC102B51EC1A0B00F06EFC29
:103AC00001E051EC1A0B41EC1A0B9FED0E0B53EC7D
:103AD000102B51EC1A0B00F015FD41EC1B0B00F004
:103AE0002BFC00EE100ABDEC088B10BD000000009E
:103AF000008076400000000000808640000000004A
:103B0000007076C000000000000000407047704761
:103B100010B5FEF783FA10BD00B593B0342106A8A6
:103B2000FCF757FC142101A8FCF753FC00BF002050
:103B300000902648006840F08050244908600846FC
:103B4000006800F08050009000BF00BF00BF002060
:103B500000901F48006840F440401D490860084636
:103B6000006800F44040009000BF00BF01200690B4
:103B70000004079002200C9041050D910F210E9139
:103B8000D8210F91022110911191129106A8FEF7F0
:103B900085FF08B1FCF7ECFCFEF71AFB08B1FCF757
:103BA000E7FC0F20019003200290002003904FF4C7
:103BB000A05004904FF480500590052101A8FEF715
:103BC000F9FD08B1FCF7D4FC13B000BD4038024049
:103BD000007000400348006840F47000014908602C
:103BE0007047000088ED00E010B51448FFF73FFA79
:103BF000134890ED000ADFED130AB4EEE00AF1EE8F
:103C000010FA01DB012000E000200F4908700F4886
:103C10000088401C0D49088008460088052190FB5B
:103C2000F1F201FB120040B907484078401C0649F8
:103C3000487002220648FFF75DFD10BD8805002090
:103C40005000002000002C42EC030020CC04002097
:103C50001806002010B502682D4B98420ED0B0F126
:103C6000804F0BD02B4B984208D02B4B984205D05D
:103C70002A4B984202D02A4B984203D122F070027C
:103C80004B681A43224B984220D0B0F1804F1DD090
:103C9000204B98421AD0204B984217D01F4B984285
:103CA00014D01F4B984211D01E4B98420ED01E4B81
:103CB00098420BD01D4B984208D01D4B984205D01E
:103CC0001C4B984202D01C4B984203D122F4407204
:103CD000CB681A4322F080034C6943EA0402026075
:103CE0008B68C3620B688362094B984202D00C4B0D
:103CF000984201D10B69036301234361036903F017
:103D000001031BB1036923F00103036110BD00002F
:103D1000000001400004004000080040000C00408A
:103D200000040140004001400044014000480140BF
:103D300000180040001C00400020004010B5024860
:103D4000FFF752FA10BD0000D005002010B5024860
:103D5000FFF74AFA10BD00001806002070B50546AE
:103D6000AC6B0020E085E0842046FFF73BFA70BD95
:103D700000BF00BF02680C3252E8002F22F490719D
:103D800002680C3242E80013002BF3D100BF00BFE1
:103D900000BF0268143252E8002F22F001010268CD
:103DA000143242E80013002BF3D100BF016B01294C
:103DB0000ED100BF00BF02680C3252E8002F22F083
:103DC000100102680C3242E80013002BF3D100BF4F
:103DD000202180F8421000210163704710B504468D
:103DE0002068C06820F040002168C860202084F866
:103DF00041002046FFF79AFC002010BDF8B50446AC
:103E000094F84200222875D1A068B0F5805F0CD1EB
:103E1000206950B90025A66A20684068C0F30800F0
:103E20003080A06A801CA06215E0A56A0026A06808
:103E3000B0F5805F03D0A06828B9206918B9206860
:103E40004068287004E02068406800F07F00287017
:103E5000A06A401CA062E08D401E80B2E085002870
:103E600046D12068C06820F020002168C860206822
:103E7000C06820F480702168C8602068406920F024
:103E8000010021684861202084F84200002060631E
:103E9000206B012826D10020206300BF00BF2168CD
:103EA0000C3151E8001F21F0100021680C3141E86D
:103EB0000002002AF3D100BF2068006800F0100063
:103EC00010280AD100BF00200090206800680090F0
:103ED00020684068009000BF00BFA18D2046FFF71A
:103EE00080F902E02046FFF7F1FB0020F8BD01E079
:103EF0000020FBE70220F9E72DE9F84F044620688F
:103F0000006920F44050E168084321680861216994
:103F1000A068084361690843E1690843009020688C
:103F2000C06849F20C618843009908432168C86061
:103F30002068406920F44070A16908432168486105
:103F400076492068884203D075492068884203D1A9
:103F5000FEF708FD814602E0FEF7F4FC8146E069C9
:103F6000B0F5004F6CD102206168A0FB0150034600
:103F70001920A9FB007001462A463846FCF7B2F921
:103F80006421B0FBF1F04FEA001A02206168A0FB47
:103F900001510B461920A9FB00712A463846FCF74F
:103FA000A1F9834602206168A0FB01500346192055
:103FB000A9FB00712A463846FCF794F96421B0FB4E
:103FC000F1F000EBC00101EB0010ABEB80003221FF
:103FD00001EBC0006421B0FBF1F000F0F8000AEB47
:103FE000400A02206168A0FB015003461920A9FB8A
:103FF000007001462A463846FCF774F983460220D1
:104000006168A0FB015003461920A9FB00712A46F4
:104010003846FCF767F96421B0FBF1F000EBC00112
:1040200001EB0010ABEB8000322101EBC0006421FA
:10403000B0FBF1F000F007005044216888606AE0AE
:1040400004206168A0FB015003461920A9FB007001
:1040500001462A463846FCF745F982460420616845
:10406000A0FB015003461920A9FB007001462A4617
:104070003846FCF737F96421B0FBF1F000EBC001E2
:1040800001EB0010AAEB8000322101EB001064214B
:10409000B0FBF1F000F0F00A04206168A0FB0170B1
:1040A00003461920A9FB00513A462846FCF71AF9A5
:1040B0006421B0FBF1F00AEB001A04206168A0FB58
:1040C00001510B461920A9FB00712A463846FCF71E
:1040D00009F9834604206168A0FB015003461920BA
:1040E000A9FB007001462A463846FCF7FBF864211C
:1040F000B0FBF1F000EBC00101EB0010ABEB800076
:10410000322101EB00106421B0FBF1F000F00F0050
:10411000504421688860BDE8F88F0000001001401D
:104120000014014010B5034699629A85DA85002093
:104130005864222083F84200186928B11868C068C2
:1041400040F480701C68E0601868406940F001002D
:104150001C6860611868C06840F020001C68E0605E
:10416000002010BD014691F84100212828D188681F
:10417000B0F5805F0BD1086948B90A6A1088C0F3AE
:1041800008000B685860086A801C086205E00B6A2A
:10419000581C086218780B685860C88C401E80B2A2
:1041A000C88458B90868C06820F080000B68D860DF
:1041B0000868C06840F040000B68D8600020704775
:1041C0000220FCE710B50B46002106E04C1C30F83D
:1041D000144020F811404C1CE1B25C1E8C42F5DC0E
:1041E000591E20F81120054991ED000AF7EE000A4A
:1041F00030EE200A81ED000A10BD0000F803002017
:1042000000BFFEE702480068C0F3022070470000CC
:104210000CED00E010B5002804DB0A07130E054A78
:10422000135406E00A07140E034A00F00F031B1F85
:10423000D45410BD00E400E018ED00E0FDF7FAFEF4
:10424000FFF76AFCFFF708FBFFF774FAFFF7A8FA1D
:10425000FFF7B8FBFFF7D2FBFFF79AFBFFF7D8FA9F
:10426000002202212848FDF7CDFE00220421264825
:10427000FDF7C8FE4FF47A70FDF76AFC2348FDF79E
:10428000C2FB02212148FCF731FD2148FDF7BBFBB1
:104290004FF47A70FDF75CFC10211D48FCF726FDF9
:1042A00040F2DC50FDF754FCFFF78CFBFFF7A6FB58
:1042B000082218491848FFF7F3F901201749087038
:1042C0009FED170A174880ED000A174880ED000A95
:1042D000164880ED000A164880ED000A01220221EE
:1042E0000948FDF78FFE012204210748FDF78AFEE9
:1042F00008E010480068401C0E4908604FF4FA704E
:10430000FDF726FCF5E7000000040240E40400206D
:104310000C0500200000002018060020F4000020FA
:1043200000000000D0000020CC000020C8000020C9
:10433000C4000020C804002021F00042A2F1605215
:10434000B2F5801F01F0004328BFD2F17F6C0BD97A
:104350005FEA001C43EAC20242EB507018BF70478C
:1043600028BF20F001007047B2F5801FBCBF18467F
:1043700070474FEA410C1CF5001F02D2084600F0BE
:1043800069BC70B500F07CFA00000089FFF7F6BF49
:104390004FF00040A0F580007047000010B591EA92
:1043A000030F48BF83F0004300F1FC82841A71EBD5
:1043B000030C05D2121943EB0C03001B61EB0C013B
:1043C000DFF824E14FEA1154A4EB135C1EEA430F1B
:1043D00018BF9EEA445F73D023EA0E03DCF1200E7F
:1043E00021EA045143F4801332D322FA0CFE10EB7D
:1043F0000E0023FA0CFE41EB0E01CCF1200E03FA65
:104400000EFE10EB0E0051F10001B1F5801FCCF152
:10441000200E32D201EB045112FA0EF2BDE8104028
:1044200058BF7047401C38BF5FEA420218BF704750
:10443000002814BF20F0010041F100014FEA4103C0
:1044400013F5001F38BF7047A1F1C04100F066BAF4
:10445000012A43EB0302ACF1200CDCF11F0E32BF4A
:104460004FF0000E23FA0CF310EB030041EB045164
:10447000B4EB115FD0D0A1EB045101F580114908D4
:104480005FEA300001EB04510ED350F1000038BF59
:1044900012FA0EFE08D1BDE81040C9E7401C38BF33
:1044A0005FEA4202CAD1C3E7BDE810404FEA4103C8
:1044B00013F5001F38BF7047A1F1C04100F02EBABC
:1044C0009EEA445F08D011EA5E0FBDE8104004BFC9
:1044D00001F0004100207047BDE8104070B500F0C9
:1044E000CFF900BF64FBBE3E0000E0FF491058BF9B
:1044F000C1F140415B1058BFC3F140438B42EFF321
:10450000008070472DE9C04130B4DFF8A0C23CEA1A
:10451000111418BF3CEA131400F0EC8081EA030583
:104520001CEA111444EAD57418BF1CEA131500F0F4
:10453000C780A4EB05044FF0004545EAC12145EAD8
:10454000C32341EA505143EA525304F17F74994224
:1045500004F500344FEAC0204FEAC22208BF90425F
:1045600000F09C804FEA13650FF24016765D4FEA2B
:10457000134506FB05F7C7F1807706FB07F74FEAFF
:10458000D737A7FB03687642C8F58038A7FB06CE6D
:1045900038BFA8F1010807FB08E64FF0000EA6FBA4
:1045A000028CE6FB03CEDCF1000CCEF1004E38BFEE
:1045B000AEF1010EA6FB0C584FF000074FF00005BE
:1045C000E6FB0E87A1FB08C6A0FB07CE16EB0E0686
:1045D00045F10005E1FB076515F1E04E7EBFA4F54E
:1045E00080345FEA46066D4116F1800745F100050B
:1045F0004FEA17274FEA066647EA0567A6F1DE4647
:10460000B6F1805F4FEA15251FD9384624F0010C1A
:1046100005EBC471BCF1FE6F01EB0C1102D8F0BCCC
:10462000BDE8008124425CBF01F5801E9EEAC47F84
:1046300002D4F0BCBDE80081244238D4F0BCA1F122
:10464000C041BDE8004100F069B94FEAD22242EA18
:1046500043524FEAD323A7FB02864FEAD02040EA19
:10466000415007FB03661EEA0E0F4FEAD12105FBFE
:10467000026658BFA6EB0056B6EB00564FEA520E44
:104680004EEAC37E18EB0E0E56EB530EBDD518EB5B
:1046900002085E417F1C55F10005B6E74FF4801516
:1046A0004FF000074FF000064FF00008ADE7F0BCF8
:1046B0004FF0000001F1C04101F00041BDE8008170
:1046C00011EA0C1F0CEA131500D00CE013EA0C1FC2
:1046D00000F025804FF00000F0BC81EA030101F0FA
:1046E0000041BDE80081F0BCBDE8004181EA030162
:1046F00000F014B9F0BCBDE8004170B500F0C0F89E
:10470000097EFC3E00F007B881EA03014FF000008B
:1047100001F00041704781EA030100F0FFB8F0BCEE
:10472000BDE800414FF0000021497047FFFDFBF953
:10473000F7F5F4F2F0EEEDEBE9E8E6E4E3E1E0DED4
:10474000DDDBDAD8D7D5D4D3D1D0CFCDCCCBCAC846
:10475000C7C6C5C4C2C1C0BFBEBDBCBBBAB9B8B76D
:10476000B6B5B4B3B2B1B0AFAEADACABAAA9A8A860
:10477000A7A6A5A4A3A3A2A1A09F9F9E9D9C9C9B2E
:104780009A999998979796959594939392919190D9
:104790008F8F8E8E8D8C8C8B8B8A8989888887876A
:1047A0008685858484838382828181800000FF07DF
:1047B0000000F87F10F0004248BF4042B0FA80F39A
:1047C00010FA03F10AD0C3F11D0303F580634FEA29
:1047D000415002EB035202EBD12170474FF0000031
:1047E0007047B0FA80F310FA03F10AD0C3F11D0349
:1047F00003F580634FEA41504FEA035202EBD121A7
:1048000070474FF00000704751EA030C17D41CF5B5
:10481000801F58BFBCF5801F00F10680994218BF69
:10482000704708BF9042704707D711F5801F58BFE7
:1048300013F5801F19D499427047894270471CF5BF
:10484000801F08D5BCF5801FF7D58B4218BF704775
:1048500008BF824270474FF4001C1CEB410F38BF69
:104860001CEB430F01D28B42704770B500F008F883
:10487000922449004FF000514FF08053FFF736BEAD
:104880000EF1020E2EF0030E5EF8046B364205D4D4
:10489000012A43EB030515F5001F12D8012841EB4F
:1048A000010C1CF5001F0CD80ED14FEAD17C15F578
:1048B000001F0CEB4C0C0CF1020C08BF4CEBD37C32
:1048C00004E04FF0080C01E04FEAD37C0CEB4C0500
:1048D00026FA05F606F00706B6F1040C06D20EEB32
:1048E000860CBDE870404CF0010C6047DFE80CF02E
:1048F000090B02024FF000414FF00000A1F500212A
:1049000070BD19461046012851EB010418BFD4F5BB
:10491000001484BF002001F0004170BD0808A0F51C
:1049200000114FEA3101704753EA010C17D41CF50E
:10493000801F58BFBCF5801F00F106808B4218BF56
:10494000704708BF8242704707D713F5801F58BFD2
:1049500011F5801F19D48B4270479B4270471CF59C
:10496000801F08D5BCF5801FF7D5994218BF704746
:1049700008BF904270474FF4001C1CEB430F38BF38
:104980001CEB410F01D2994270470FB40CBC03BC21
:10499000FFF76BBF10B591EA030F48BF83F00043E8
:1049A0003FF504AD841A71EB030C07D212198CF099
:1049B000004C43EB0C03001B61EB0C01DFF8A4E19E
:1049C0004FEA1154A4EB135C1EEA430F18BF9EEA92
:1049D000445F00F0B08023EA6E03524221EA0451A2
:1049E000C3EB6E0338BF5B1EDCF1200E25D322FA29
:1049F0000CFE10EB0E0043FA0CFE41EB0E01CCF165
:104A0000200E03FA0EFE10EB0E0051F10001CCF166
:104A1000200E29D412FA0EF201EB0451BDE8104029
:104A200058BF7047401C1CBFB2F1004F70470028B0
:104A30000CBF491C20F00100704712EB020E43EB43
:104A4000030218BF4FF0010E4EEA4202ACF1200CF7
:104A5000DCF11E0E54D943FA0CFE10EB0E0051F19E
:104A6000FF31CCF11E0ED5D50EF1010E12FA0EFE5D
:104A7000404141EB010101EB445C5FEA5C5C10D911
:104A800010EBDE7001EB045138BFBEF1004FBDE802
:104A9000104018BF704700280CBF491C20F00100CF
:104AA000704730D24FEAD42C11F5001124F4006481
:104AB0001BD0B1FA81F20B3AA41AA41ED2F1200342
:104AC000914030FA03F31943904001EBCC71002C74
:104AD00001EB0451BDE81040A8BF704701F1C0418F
:104AE0004FF0000001F000417047B0FA80F310FA77
:104AF00003F100D110BDE41A173C4805C90AE4E7E8
:104B000001EB045110BD491001EB0451BDE8104008
:104B10004FEA300002E04FF0000170474A0008BF42
:104B20000042F8D0B2F5001F28BF704701F00041E5
:104B30004FF0000070479EEA445F07D011EA5E0F15
:104B4000BDE8104004BF002100207047BDE81040C0
:104B500070B5FFF795FE00BF40DFF63E83F00041E1
:104B6000104670470000E0FF43004FEAD30C4FEAC5
:104B70003C0C43401FBF40070CF1605113F0FE4F47
:104B800070471CF0006F03D100200CF0004170470B
:104B90000CF0004343EA507010B540EACC0000F03E
:104BA0000EF800BF000000924FEA0001FFF7B6BE0A
:104BB0004FF000414FF00000A1F5002170470EF1C9
:104BC000020E2EF0030E5EF8044B244204D44FEA8A
:104BD0004102B2F17F4F11D84FEA4003B3F17F4F4A
:104BE0000CD80ED14FEAD07CB2F17F4F0CEB4C0CBD
:104BF0000CF1020C08BF4CEBD17C04E04FF0080C28
:104C000001E04FEAD17C0CEB4C0324FA03F404F0EE
:104C10000704B4F1040C06D20EEB840CBDE810407E
:104C20004CF0010C6047DFE80CF0070802024FF07F
:104C30000040A0F5800010BD0846420018BFD2F128
:104C4000807288BF00F0004010BD4FF04070E1EE70
:104C5000100A7047FF2141EAD050C005704700009C
:104C6000000000000000010203040607080900001C
:104C70000000010203040000984C0008000000201E
:104C8000E404000000020008644D0008E404002071
:104C90007C0B00005C020008015A0015140102039D
:104CA0000405060708090A0B0C0D0E100F1112134C
:104CB0001423C03F2760409A9901411A7804593E55
:104CC0001116C206C2062103148403131041148076
:104CD0002D441480E1430C2FC01A449A79050142F7
:104CE000033E33020A10240C2A40041A01A129A30E
:104CF0000A175AAA23803F4B204104290CC11AF0FD
:104D00001401210B1301015A2AE080315AA0080135
:104D1000382A10841944C948D8087B14AE47E17A70
:104D200084B0014715010203040913D529D0199055
:104D3000E904091A18A1053805050F0F1AC28F8357
:104D40008A020A1FF0F8A9BE3A010101302340404F
:104D50000A1F806841022B37120102AD283A10B4B5
:044D6000311324F4F3
:04000005080001C529
:00000001FF
