:020000040800F2
:1000000060100020A502000815500008C33D00083C
:1000100011500008DD0500082976000800000000E6
:100020000000000000000000000000009D590008D2
:100030009D09000800000000CD570008416E00082F
:10004000BF020008BF020008BF020008BF0200088C
:10005000BF020008BF020008BF020008BF0200087C
:10006000BF020008BF020008BF020008BF0200086C
:10007000BF020008BF020008BF020008BF0200085C
:10008000BF020008BF020008BF020008BF0200084C
:10009000E1050008F1050008BF020008BF020008E2
:1000A000BF020008BF020008BF020008BF0200082C
:1000B000BF020008BF020008BF020008D93D0008C7
:1000C000C93D0008BF020008BF020008BF020008C7
:1000D000BF020008BF020008BF020008BF020008FC
:1000E000BF020008BF020008BF020008BF020008EC
:1000F000BF020008196F0008BF020008BF02000815
:10010000BF020008BF020008BF020008BF020008CB
:100110006571000875710008BF020008BF02000881
:10012000BF020008BF020008BF020008BF020008AB
:10013000BF0200080000000000000000BF0200082D
:100140000106000811060008BF020008BF020008EF
:10015000BF020008BF020008BF020008BF0200087B
:10016000BF020008BF020008BF020008BF0200086B
:10017000BF020008BF020008BF0200080000000024
:1001800000000000BF0200080000000000000000A6
:10019000BF0200080000000000000000BF020008CD
:1001A000000000000000000000000000BF02000886
:1001B000BF020008BF020008BF020008BF0200081B
:1001C000BF02000800F002F800F05CF80AA090E816
:1001D000000C82448344AAF10107DA4501D100F002
:1001E00051F8AFF2090EBAE80F0013F0010F18BF73
:1001F000FB1A43F001031847009600002096000008
:100200000A444FF0000C10F8013B13F0070408BF3C
:1002100010F8014B1D1108BF10F8015B641E05D0DA
:1002200010F8016B641E01F8016BF9D113F0080F8F
:100230001EBF10F8014BAD1C0C1B09D16D1E58BF21
:1002400001F801CBFAD505E014F8016B01F8016B58
:100250006D1EF9D59142D6D37047000000230024CB
:1002600000250026103A28BF78C1FBD8520728BFC6
:1002700030C148BF0B6070471FB509F09AF91FBD28
:1002800010B510BD00F05AF91146FFF7F5FF08F060
:1002900033FB00F078F903B4FFF7F2FF03BC00F082
:1002A0007BF900000948804709480047FEE7FEE760
:1002B000FEE7FEE7FEE7FEE7FEE7FEE7FEE7FEE716
:1002C00004480549054A064B70470000056F0008C1
:1002D000C5010008600A002060100020600C0020AA
:1002E000600C002053EA020C00F069802DE9F04B0D
:1002F0004FF00006002B1FBFB3FA83F503FA05F495
:1003000024FA05F65E4012BF1643B2FA82F502FAED
:1003100005F4C5F120051EBF22FA05FC44EA0C04D1
:10032000203556EA044C4FEA144418BF641C4FF0C1
:1003300000084FF00009904271EB030C39D30029FB
:1003400019BFB1FA81F701FA07F6B0FA80F700FA9F
:1003500007F6C7F120071EBF20FA07FC46EA0C0685
:100360002037B6FBF4FCA7EB0507103F07F01F0B87
:10037000CBF120060CFA0BFB2CFA06F644BFB34671
:100380000026202FA4BF5E464FF0000B5BEA060C50
:1003900008BF4FF0010B19EB0B09ABFB027C48EBDC
:1003A0000608C01B06FB02CC0BFB03CC71EB0C0157
:1003B000C1E70B46024641464846BDE8F08B13B5FF
:1003C0004FF000004FF00001AFF30080BDE81C408B
:1003D0007047032A40F2308010F0030C00F01580C3
:1003E00011F8013BBCF1020F624498BF11F801CB38
:1003F00000F8013B38BF11F8013BA2F1040298BF9D
:1004000000F801CB38BF00F8013B11F0030300F006
:100410005A80083AC0F0088051F8043B083A51F875
:1004200004CBA0E80810F5E7121D5CBF51F8043BAF
:1004300040F8043BAFF30080D20724BF11F8013B22
:1004400011F801CB48BF11F8012B24BF00F8013B84
:1004500000F801CB48BF00F8012B70474FF00002B5
:1004600000B5134694469646203922BFA0E80C50AA
:10047000A0E80C50B1F12001BFF4F7AF090728BF85
:10048000A0E80C5048BF0CC05DF804EB890028BF01
:1004900040F8042B08BF704748BF20F8022B11F02A
:1004A000804F18BF00F8012B7047704770477047A6
:1004B00010B500F03BF8006810BD10B5044600F020
:1004C00035F8046010BD10B5203AC0F00B80B1E8DB
:1004D0001850203AA0E81850B1E81850A0E8185079
:1004E000BFF4F5AF5FEA027C24BFB1E81850A0E882
:1004F000185044BF18C918C0BDE810405FEA827C9C
:1005000024BF51F8043B40F8043B08BF7047D207B2
:1005100028BF31F8023B48BF11F8012B28BF20F853
:10052000023B48BF00F8012B7047000000487047AD
:10053000FC09002000487047FC0900207546FFF7C1
:10054000F9FFAE4605006946534620F00700854690
:1005500018B020B5FFF7B4FEBDE820404FF000060C
:100560004FF000074FF000084FF0000B21F007019B
:10057000AC46ACE8C009ACE8C009ACE8C009ACE8DE
:10058000C0098D46704710B50446AFF30080204681
:10059000BDE81040FFF77FBE01491820ABBEFEE763
:1005A0002600020070470000094901EB8001094A5A
:1005B00012680A60064901EB800191ED000ABDEE68
:1005C000C00A10EE101A09B2034A22F81010704740
:1005D000000800202B0000205008002000BFFEE78C
:1005E00010B5024801F097F910BD0000E4040020A6
:1005F00010B5024801F08FF910BD0000E40400209E
:1006000010B5024801F087F910BD00000C0500206C
:1006100010B5024801F07FF910BD00000C05002064
:1006200008B5014661B9002004E00E4A125C0E4B89
:100630001A54401C0328F8DD0B48006800900EE0B7
:1006400001290CD1002005E0064B021D9A5C064BE7
:100650001A54401C0328F7DD0348006800909DED04
:10066000000A08BD2B0000200900002001460020E0
:1006700008784A7842EA0020704700002DE9FF41DF
:100680002DED020B04460D4617461E460020584924
:1006900048600875886008460761012E01D1022074
:1006A00004E0022E01D1002000E002205049C86081
:1006B000182D7AD2DFE805F00C222D3D434F555B13
:1006C000724966177979797979797979797979734C
:1006D0003A4669464748FFF77CFE0D2040EA441041
:1006E0004349086062E03A4669464248FFF771FEB6
:1006F0000C2040EA44103E49086057E03A466946FB
:100700003C48FFF766FE0E2040EA44103849086076
:100710004CE08C20374988714220C8710846009906
:1007200001600820324908610F2040EA4410086047
:100730003CE0032000EB44102D49086036E0042023
:1007400000EB44102A49086030E0052000EB44101B
:10075000274908602AE0142040EA44102449086030
:1007600024E0092040EA4410214908601EE03A468E
:1007700069462048FFF72DFE1C2040EA44101C4922
:10078000086013E03A4669461A48FFF722FE152032
:1007900040EA44101649086008E006E006E0172029
:1007A00040EA44101249086000E000BF00BF4FF06B
:1007B00000080EE0104B0F4A0D49104800F0A9FE4A
:1007C0000F480068401C0E49086008F1010000F065
:1007D000FF08B8F1050FEDDB002004E00021054A19
:1007E0001154411CC8B20828F8DB06B0BDE8F081FE
:1007F0006006002013000020440000200C050020AB
:100800004800002070B52DED0A8BB0EE408A0446FA
:100810000D46544890ED000A38EE400A524880EDEB
:10082000000A006808F054FE41EC1A0B4F4890EDA6
:10083000000B53EC102B51EC1A0B08F0F5F941ECBE
:10084000190B08F00BF94A4908604748006808F09E
:100850003FFE41EC1C0B454890ED000B53EC102B78
:1008600051EC1C0B08F00AFC41EC1A0B41480068E3
:1008700008F02EFE41EC1B0B53EC1A2B08F020F96C
:1008800041EC190B08F0EAF83A4908603A4890ED53
:10089000000A20EE080ABDEEC00A384880ED000AC2
:1008A000374890ED000A0846D0ED000A20EE200AF5
:1008B000BDEEC00A334880ED000A0068022801DD61
:1008C000022009E02F48006810F1020F02DA6FF0F1
:1008D000010001E02B4800682A4908602A4890ED91
:1008E000000A2348D0ED000A20EE200ABDEEC00A1F
:1008F000264880ED000A2148006809680844234919
:100900000968084400EE100AB8EEC00A204880EDDD
:10091000000A90ED000ADFED1F0AB4EEE00AF1EEE6
:1009200010FA02DD9FED1B0A0FE0194890ED000A56
:10093000DFED190AB4EEE00AF1EE10FA02D29FEDF3
:10094000160A02E0124890ED000A114880ED000AF4
:10095000044880ED008A0E4890ED000ABDEC0A8B39
:1009600070BD0000540200204802002070020020E8
:100970004C02002050020020580200206402002097
:100980005C02002068020020600200206C0200204F
:100990004402002000008C4200008CC2704700001E
:1009A00010B52DED028BDB480078012804D0022819
:1009B00049D003287ED181E0D748B0F90000012852
:1009C00002DD6FF0040008E0D348B0F90000B0F198
:1009D000FF3F01DA052000E0002000EE100AB8EE2B
:1009E000C00ACE4880ED000ACD48B0F900000128C9
:1009F00002DD6FF0040008E0C948B0F90000B0F172
:100A0000FF3F01DA052000E0002000EE100AB8EEFA
:100A1000C00AC44880ED000AC349B1F90010012999
:100A200002DD6FF0040108E0BF49B1F90010B1F137
:100A3000FF3F01DA052100E00021084608F0B7FA7F
:100A4000BA4A03C274E0BA480078032802D00428E6
:100A500020D10FE0B1EE040AB04880ED000AB1EEFB
:100A6000040AB04880ED000A9FEDB20BAF4880ED5C
:100A7000000B21E0B9EE040AA84880ED000AB9EEA7
:100A8000040AA84880ED000A9FEDAC0BA74880ED52
:100A9000000B11E09FEDAB0AA04880ED000A9FED2E
:100AA000A90AA04880ED000A9FEDA70B9F4880EDA2
:100AB000000B00E03BE000BF00BF39E09C4800783D
:100AC000032802D0042820D10FE0B1EE040A934895
:100AD00080ED000AB9EE040A924880ED000A9FED0D
:100AE0009A0B924880ED000B1FE0B9EE040A8B4888
:100AF00080ED000AB1EE040A8A4880ED000A9FEDFD
:100B0000920B8A4880ED000B0FE09FED8E0A834820
:100B100080ED000A9FED8B0A824880ED000A9FED70
:100B20008A0B824880ED000B00BF00BF00E000BFD1
:100B300000BF7A4890ED000AB5EEC00AF1EE10FA57
:100B400007DD7548B0F900000A2802DB9FED7D0A39
:100B500013E0724890ED000AB5EEC00AF1EE10FA0B
:100B600008D26D48B0F9000010F10A0F02DC9FEDC9
:100B7000750A02E0694890ED000A684880ED000AB5
:100B8000684890ED000AB5EEC00AF1EE10FA07DDF4
:100B90006348B0F900000A2802DB9FED6A0A13E0FF
:100BA000604890ED000AB5EEC00AF1EE10FA08D2E6
:100BB0005B48B0F9000010F10A0F02DC9FED610AFA
:100BC00002E0584890ED000A564880ED000A9FED7B
:100BD0005E0B53EC102B554890ED000B51EC100BB5
:100BE00008F04AFB07D25048B0F90000082802DBA1
:100BF0009FED550B21E09FED540B53EC102B4B4810
:100C000090ED000B51EC100B08F0FCF908D24648AF
:100C1000B0F9000010F1080F02DC9FED4B0B0CE067
:100C20009FED4B0B53EC102B404890ED000B51EC1B
:100C3000100B08F023FA41EC100B3C4880ED000B40
:100C4000364890ED000A4448D0ED000AB4EE600A40
:100C5000F1EE10FA11D0002407E0304890ED000AC0
:100C60000C2004F0B9FE601CC4B2052CF5DB2B4847
:100C700090ED000A384880ED000A2A4890ED000AFD
:100C80003648D0ED000AB4EE600AF1EE10FA11D049
:100C9000002407E0234890ED000A0D2004F09CFE9C
:100CA000601CC4B2052CF5DB1E4890ED000A2B48F1
:100CB00080ED000A2A48006808F00AFC41EC180B95
:100CC0001A4890ED000B53EC102B51EC180B08F068
:100CD00003F91CD000240FE0144890ED000B51ECF8
:100CE000100B07F0BBFE08EE100AB0EE480A0E200B
:100CF00004F072FE601CC4B2052CEDDB0B4890EDD5
:100D0000000B51EC100B07F0A9FE15490860BDEC73
:100D1000028B10BD980100204801002054010020E2
:100D20004A010020580100205001002070010020DD
:100D30009B010020000000000000144000000000A3
:100D4000000014C0000000000000000000000000CF
:100D50009A9999999999E93F5C01002060010020D6
:100D60006401002000B52DED108B81B0B0EE408AFB
:100D7000F0EE608A9FED310BB0EE409AF0EE609A93
:100D80009FED300A8DED000A9FED2F0B53EC102BD9
:100D900051EC180B07F048FF41EC1B0B9FED2C0B9F
:100DA00053EC102B08F06AF941EC1A0BB0EE4A0A2A
:100DB000F0EE6A0A06F098FFB0EE409AF0EE609A04
:100DC00025490988480008F0F2F841EC1E0B53EC65
:100DD000192B9FED220B51EC100B07F025FF41EC76
:100DE0001F0B53EC1E2B07F06BFE41EC1D0B53EC5D
:100DF0001D2B9FED1A0B51EC100B07F015FF41EC6A
:100E00001C0BB0EE4C0AF0EE6C0A06F091FDB0EE51
:100E100040BAF0EE60BA9FED130B53EC102B51EC7F
:100E20001B0B08F02BF941EC1A0B07F017FE009092
:100E30009DED000A01B0BDEC108B00BD000000006C
:100E4000000000000000000000000000008066407C
:100E50001F85EB51B81E09409A00002000000000D9
:100E600000208C40E79AD56194A94C4010B52DED37
:100E7000028B9FED590AB0EE408A5848007800284E
:100E80004AD157480078042846DB554800780428A2
:100E900019D154480078B0B153480078012805D1E1
:100EA000B1EE480A514880ED000A0CE04E48007847
:100EB000022803D14D4880ED008A04E09FED4C0AE2
:100EC0004A4880ED000A4648007805281AD145486E
:100ED0000078B8B144480078012803D1434880ED38
:100EE000008A1EE040480078022805D1B1EE480A89
:100EF0003E4880ED000A14E09FED3D0A3B4880ED3E
:100F0000000A0EE03648007804280ADA9FED380A15
:100F1000364880ED000A04E09FED350A334880ED45
:100F2000000A2F480078042804DA9FED310A2F4880
:100F300080ED000A2D4890ED000A2E4880ED000A51
:100F40002D4880ED000A294890ED000A2B48D0ED8D
:100F5000000AB4EE600AF1EE10FA15D1264890EDC1
:100F6000000A2748D0ED000AB4EE600AF1EE10FA4C
:100F70000AD1204890ED000A2248D0ED000AB4EED4
:100F8000600AF1EE10FA23D000240DE01A4890ED2B
:100F9000000A0F2004F020FD164890ED000A1020F2
:100FA00004F01AFD601CC4B2042CEFDB0F4890ED76
:100FB000000A124880ED000A0F4890ED000A104820
:100FC00080ED000A0B4890ED000A0E4880ED000A03
:100FD000BDEC028B10BD000000009241F400002027
:100FE0009C010020180100209B0100208C020020A1
:100FF00000000000980200209402002090020020CF
:101000009C020020A002002010B52DED048B3A4870
:10101000008B3A490988084400B2394908803648AB
:10102000408B38490988084400B237490880324863
:10103000808B36490988084400B235490880354814
:101040002F4909880182304909880183304909887C
:101050000184002016E0304931F910102D4A32F990
:101060001020914209D001212C4A1170294931F8F0
:101070001010294A22F8101002E00021274A1170AE
:10108000411CC8B22328E6DD1D48B0F90000244900
:1010900008601D48B0F90000224908601C48B0F9FA
:1010A0000000214908601648B0F9000007F07FFFF2
:1010B00041EC190B9FED1D0B53EC102B07F0DEFFDD
:1010C00041EC180B07F0CAFC1A4908600E48B0F949
:1010D000000007F06CFF41EC190B9FED140B53EC73
:1010E000102B07F0CBFF41EC180B07F0B7FC1249AF
:1010F0000860BDEC048B10BD500800204E0100209C
:10110000480100204C0100204A010020520100202B
:1011100050010020C008002008090020CA02002059
:101120002C04002030040020340400208FC2F52855
:101130005C8F0A403C0400204004002010B50022CF
:1011400002214F4801F0B6FA002204214C4801F078
:10115000B1FA002201214A4801F0ACFA494800786E
:10116000C0B1012406E09FED480A204604F017FCB8
:10117000601CC4B2052CF6DB062406E09FED420A93
:10118000204604F029FC601CC4B2112CF6DB0020C0
:101190003C49087001F094FA00213C4AD2E900323F
:1011A000C31A61EB020040F2DC529A1A884166D3FE
:1011B00037480078C0B9012411E0052C0DD0112C5E
:1011C0000BD006E0204604F003FB4FF4FA6001F078
:1011D00063F93048005D0828F4D1601CC4B2152CB6
:1011E000EBDB01202A4908702B480078C8B90120A0
:1011F00012E005280ED011280CD000BF2749095C49
:10120000274A32F810209142F8D026490968491C33
:10121000244A1160411CC8B21B28EADB01201E4988
:10122000087000201F4908601948007801280CD177
:1012300019480078012808D11B480078012804D1FA
:101240001A480078012800D100E0002018490870F1
:101250000846007870B101220221094801F02AFAFB
:1012600001220421064801F025FA01221146044812
:1012700001F020FA01F024FA0021044A03C210BD53
:1012800000040240A103002000000000B003002081
:101290009D0300200E0700209E030020C8060020AA
:1012A00098090020B8030020FD010020FC01002067
:1012B000A003002072B600BFFEE7000010B573481F
:1012C000007858B99FED720A724880ED000A7248A2
:1012D00080ED000A714880ED000AD6E06B48007886
:1012E0000028FAD06E4890ED000A6E48D0ED000A52
:1012F00030EE600A6C4880ED000A002001466A4A20
:1013000092ED000A04F07EFA634880ED000A90ED49
:10131000000AF0EE000AB4EEE00AF1EE10FA0BD883
:1013200090ED000AF8EE000AB4EEE00AF1EE10FAD1
:1013300002DB9FED570A02E0574890ED000A56483D
:1013400080ED000A90ED000AB5EEC00AF1EE10FA49
:1013500001D0012000E0002054490870544890ED6D
:10136000000A5448D0ED000A30EE600A524880ED81
:10137000000A00200146504A92ED000AFFF742FAA7
:10138000444880ED000A90ED000AF0EE000AB4EE49
:10139000E00AF1EE10FA0BD890ED000AF8EE000A20
:1013A000B4EEE00AF1EE10FA02DB9FED390A02E03A
:1013B000384890ED000A374880ED000A90ED000AA9
:1013C000B5EEC00AF1EE10FA01D0012000E00020D5
:1013D0003A4908703A48007828B93448007810B97A
:1013E0000846007808B1012000E000203549087067
:1013F000354890ED000A2948D0ED000AB4EE600AA5
:10140000F1EE10FA04D090ED000A2F4880ED000AAA
:101410002E4890ED000A2048D0ED000AB4EE600A94
:10142000F1EE10FA0DD090ED000AB1EE400A284816
:10143000007804F0D1FA184890ED000A234880EDB6
:10144000000A244890ED000A1248D0ED000AB4EEDC
:10145000600AF1EE10FA0BD090ED000A1E480078F9
:1014600004F0BAFA0B4890ED000A1A4880ED000A21
:101470001A480078012803D019480078012801D1C2
:10148000012000E000201749087010BD98000020DE
:1014900000000000F0010020E4010020E001002035
:1014A000880000207C000020AC010020F901002011
:1014B0008400002078000020B0010020FA01002004
:1014C000F8010020FB010020E8010020EC010020D1
:1014D0005F000020F401002060000020C402002012
:1014E000C5020020CC02002010B5024692F8203040
:1014F000012B01D0022B06D1106840690843146803
:101500006061002010BD506A40F4802050620120CC
:10151000F8E7F0B504460D461E4694F820702068A2
:101520008368A86800B900E000BF012F01D0022F36
:101530007DD103F0806030B903F0006018B903F08A
:10154000805000287ED0C3F30161012088403060C4
:10155000A86860B9B5F800C0E86840EA4C5C20684B
:1015600000F5C07000EB0110C0F800C00FE0D5E935
:1015700001C040EACC00D5F80CC040EA0C00D4F819
:1015800000C00CF5C07C0CEB011CCCF80000D5F8B9
:1015900010C0206800F5C07000EB0110C0F804C056
:1015A000287D01280ED1206800F5C07000EB0110E5
:1015B000406840F4807C206800F5C07000EB0110AA
:1015C000C0F804C0D079000692F806C040EA0C408A
:1015D00092F805C040EA0C2092F804C040EA0C00E2
:1015E000D4F800C00CF5C07C0CEB011CCCF80C004E
:1015F000D078000692F802C040EA0C4092F801C090
:1016000040EA0C2092F800C040EA0C00D4F800C078
:101610000CF5C07C0CEB011CCCF80800206800F530
:10162000C07000EB0110006840F0010C01E00FE019
:1016300008E0206800F5C07000EB0110C0F800C0A1
:101640000020F0BD606A40F4001060620120F8E7FD
:10165000606A40F4802060620120F2E7F0B5044641
:101660000A46216894F82050012D01D0022D7ED128
:10167000424901F50071086840F0010008600868FF
:1016800020F47C5008600868566A40EA062008602A
:10169000107D00F01F06012000FA06F3C869984388
:1016A000C861A1F50071D069C8B9D1F80C0298439E
:1016B000C1F80C02908880B2968940EA064601F58E
:1016C0001070576940F83760108880B2168940EA78
:1016D000064601F51070576900EBC7004660D069F7
:1016E000012819D1D1F80C021843C1F80C029088D6
:1016F00080B2168840EA064601F51070576940F836
:101700003760908980B2168940EA064601F510706C
:10171000576900EBC7004660906928B9D1F8040208
:101720009843C1F8040204E0D1F804021843C1F858
:101730000402106928B9D1F814029843C1F81402C0
:1017400004E0D1F814021843C1F81402106A012809
:1017500004D1D1F81C021843C1F81C02D1F80002D0
:1017600020F00100C1F800020020F0BDFFE7606A30
:1017700040F4802060620120F7E700000064004030
:10178000704770B5044694F82050012D01D0022D09
:101790007DD151B92068C06800F0030080B9606A4B
:1017A00040F400106062012070BD2068006900F004
:1017B000030028B9606A40F4001060620120F3E77A
:1017C000206800F5D87000EB0110006800F00400FC
:1017D0009060906840B9206800F5D87000EB011067
:1017E0000068400D106007E0206800F5D87000EB3D
:1017F00001100068C0085060206800F5D87000EB48
:101800000110006800F00200D060206800F5D87078
:1018100000EB0110406800F00F00082802D30820F8
:10182000106108E0206800F5D87000EB01104068F6
:1018300000F00F001061206800F5D87000EB011077
:10184000406800F47F40000A9061206800F5D8707D
:1018500000EB01104068000C5061206800F5D87062
:1018600000EB011080681870206800F5D87000EB5C
:101870000110806800F47F40000A5870206800F56D
:10188000D87000EB0110806800F47F0000E03CE0BD
:10189000000C9870206800F5D87000EB011080688B
:1018A000000ED870206800F5D87000EB0110C068F9
:1018B0001871206800F5D87000EB0110C06800F4C2
:1018C0007F40000A5871206800F5D87000EB0110C5
:1018D000C06800F47F00000C9871206800F5D87093
:1018E00000EB0110C068000ED87131B92068C068E3
:1018F00040F020002668F06005E02068006940F0B4
:1019000020002668306100204EE7606A40F48020A5
:101910006062012048E72DE9F05F04460025206859
:1019200046692068D0F80490206887682068D0F85D
:101930000CA02068D0F810B02068D0F8188006F00D
:101940000100002855D007F00100C0B10120216836
:10195000886007F0020018B1204600F028FD0EE074
:1019600007F0040010B145F4006508E007F0080036
:1019700010B145F4805502E0204600F017FD07F451
:101980008070C8B14FF480702168886007F40070DF
:1019900018B1204600F00DFD0EE007F4806010B194
:1019A00045F4005508E007F4006010B145F48045A7
:1019B00002E0204600F0FCFC07F48030C8B14FF490
:1019C00080302168886007F4003018B1204600F0AC
:1019D000F2FC0EE007F4802010B145F4004508E069
:1019E00007F4002010B145F4803502E0204600F0F5
:1019F000E1FC06F0080038B10AF0100020B145F40F
:101A0000007510202168C86006F0040040B10AF09B
:101A1000080028B108202168C860204600F01EFA9E
:101A200006F0020038B12068C06800F0030010B171
:101A3000204600F015FA06F0400038B10BF0100017
:101A400020B145F4806510202168086106F020006F
:101A500040B10BF0080028B1082021680861204639
:101A600000F0D0FB06F0100038B12068006900F0EB
:101A7000030010B1204600F0C7FB06F4003040B16F
:101A800009F0100028B1102021684860204600F0BD
:101A90005DFC06F4803040B109F0080028B1082050
:101AA00021684860204600F087FC06F4004088B3B7
:101AB00009F0040078B306F4807020B108F001004A
:101AC00008B145F0010506F4007020B108F00200ED
:101AD00008B145F0020506F4806020B108F004006A
:101AE00008B145F0040506F40060A0B108F07000EC
:101AF00088B108F07000402817D006DC10280BD001
:101B000020280CD0302819D10CE0502810D06028A3
:101B100014D110E01DE019E045F008050FE045F094
:101B200010050CE045F0200509E045F0400506E011
:101B300045F0800503E045F4807500E000BF00BF7C
:101B40002068806920F07000216888610420216885
:101B500048602DB1606A284360622046FFF710FE9E
:101B6000BDE8F09F70B504460CB9012070BD94F833
:101B7000200010B9204600F0AFF82068006840F05F
:101B800001002168086000F09BFD05460DE000F0B3
:101B900097FD401B0A2808D9606A40F40030606253
:101BA000052084F820000120E0E72068406800F06C
:101BB00001000028EBD02068006820F002002168B6
:101BC000086000F07DFD05460DE000F079FD401B4A
:101BD0000A2808D9606A40F400306062052084F861
:101BE00020000120C2E72068406800F002000028C1
:101BF000EBD1207E012806D12068006840F08000EB
:101C00002168086005E02068006820F080002168F5
:101C10000860607E012806D12068006840F040001E
:101C20002168086005E02068006820F04000216815
:101C30000860A07E012806D12068006840F02000DE
:101C40002168086005E02068006820F02000216815
:101C50000860E07E012806D12068006820F01000AE
:101C60002168086005E02068006840F010002168E5
:101C70000860207F012806D12068006840F0080035
:101C80002168086005E02068006820F008002168ED
:101C90000860607F012806D12068006840F00400D9
:101CA0002168086005E02068006820F004002168D1
:101CB0000860D4E9020108432169084361690843C7
:101CC0006168491E08432168C861002060620120E4
:101CD00084F82000002049E710B586B0044614219E
:101CE00001A8FEF7BBFB5749206888424AD15648F5
:101CF0000068401C544908600846006801280FD15C
:101D000000BF002000905148006840F000704F492B
:101D100008600846006800F00070009000BF00BF37
:101D200000BF0020009049481038006840F00100D2
:101D30004649103908600846006800F0010000902C
:101D400000BF00BF4FF4C05001900220029000205D
:101D50000390032004900920059001A93C4800F05D
:101D6000AFFB00221146142000F0D6FF142000F033
:101D7000BFFF00221146152000F0CEFF152000F015
:101D8000B7FF5DE033492068884259D100BF002089
:101D900000902E48006840F080602C49086008469A
:101DA000006800F08060009000BF00BF2648006817
:101DB000401C254908600846006801280FD100BF73
:101DC000002000902148006840F000701F49086022
:101DD0000846006800F00070009000BF00BF00BF20
:101DE0000020009019481038006840F002001749A0
:101DF000103908600846006800F00200009000BF3B
:101E000000BF4FF440500190022002900020039048
:101E1000032004900920059001A90F4800F050FB11
:101E200000221146402000F077FF402000F060FFC4
:101E300000221146412000F06FFF412000F058FFC2
:101E400006B010BD00640040D004002040380240BD
:101E5000000002400068004000040240704700009B
:101E600010B52DED048B0446CD4BCE4A0021204603
:101E7000FFF787FCCB48006813287DD008DC0828D2
:101E80000DD0092844D0102877D0122876D1D0E080
:101E9000142874D0172873D01828F7D167E1C049E7
:101EA0000978BF4A527841EA022108B207F07FF868
:101EB00041EC190B9FEDBC0B53EC102B06F0B4FE5C
:101EC00041EC180B06F0CAFDB9490860B44989789D
:101ED000B34AD27841EA022108B207F068F841EC2F
:101EE000190B9FEDB10B53EC102B06F09DFE41EC4E
:101EF000180B06F0B3FDAF490860AF484078401CAE
:101F0000AD494870AD48407D401CAC4948753FE143
:101F1000A3490978A24A527841EA022108B207F09F
:101F200046F841EC190B9FEDA00B53EC102B06F07B
:101F30007BFE41EC180B06F091FDA1490860984921
:101F40008978974AD27841EA022108B207F02FF83F
:101F500041EC190B9FED940B53EC102B06F064FE33
:101F600041EC180B06F07AFD96490860924880789B
:101F7000401C9149887004E084E008E007E12FE00C
:101F8000A9E08E48807D401C8C49887500E184481A
:101F9000FEF76CFB8C4948808C48006807F098FA83
:101FA00041EC180B8849488807F018F841EC190BE8
:101FB000B0EE481AF0EE681AB0EE490AF0EE690A7F
:101FC00003F0F0FA824880ED000A7B48C078401C9C
:101FD0007949C8707948C07D401C7849C875D7E0F8
:101FE0006F48FEF743FB784988807A48006807F01D
:101FF0006FFA41EC180B7449888806F0EFFF41EC4A
:10200000190BB0EE481AF0EE681AB0EE490AF0EE7D
:10201000690A03F0C7FA704880ED000A6648007943
:10202000401C654908716548007E401C634908767C
:10203000AEE05B48FEF71AFB6349C880674800685A
:1020400007F046FA41EC180B5F49C88806F0C6FF56
:1020500041EC190BB0EE481AF0EE681AB0EE490ADE
:10206000F0EE690A03F09EFA5D4880ED000A5248DE
:102070004079401C504948715048407E401C4F49AF
:10208000487685E04648FEF7F1FA4F490881554801
:10209000006807F01DFA41EC180B4B49088906F05F
:1020A0009DFF41EC190BB0EE481AF0EE681AB0EE45
:1020B000490AF0EE690A03F075FA4B4880ED000A10
:1020C0003D488079401C3C4988713C48807E401CDA
:1020D0003A4988765CE03248FEF7C8FA00EE100A0A
:1020E000B8EE400A414880ED000A4148008806F0F9
:1020F00075FF41EC180B3D48006807F0E9F941EC29
:10210000190BB0EE481AF0EE681AB0EE490AF0EE7C
:10211000690A03F047FA374880ED000A014691ED5D
:10212000000ADFED350A30EE600ABDEEC00A10EE9F
:10213000100A002801DB014600E0414200EE101ABF
:10214000B8EEC00A2B4981ED000A084690ED000A5E
:10215000BDEEC00A10EE100A02B20A21274805F0AF
:1021600045FA1548C079401C1349C87110E00C4865
:10217000FEF77CFA00EE100AB8EE400A204880ED27
:10218000000A0D48007A401C0B49087200E000BFAD
:1021900000BF002003490860BDEC048B10BD0000A7
:1021A0001B000020780600200000000000003040E6
:1021B000700000207400002004070020C8060020E2
:1021C000780000207C000020F4070020B4000020EC
:1021D000A4000020B8000020A8000020BC000020BF
:1021E000AC000020C0000020B00000201C01002036
:1021F000400100202C01002000005442D40900209E
:10220000200100207047000010B50446444B454AA9
:1022100001212046FFF7B5FA42480088C0F3471075
:10222000414908703F48007800F01F003F4908709E
:1022300008460078092820D008DC01280DD00328A2
:1022400035D004283FD0052866D148E0142853D063
:10225000152821D017285FD159E03548324909782F
:10226000405C401C3249304A127888542C4800792E
:1022700030492D4A127888544FE00120FEF7D0F9FA
:102280002D482949097800EB810080ED000A264895
:102290000078FEF789F940E00120FEF7C1F92648F1
:1022A0002149097800EB810080ED000A35E001202A
:1022B000FEF7B6F9BCEEC00A10EE100A1F491A4A22
:1022C0001278885429E00120FEF7AAF9BCEEC00A72
:1022D00010EE100A1A49144A127888541DE00020A2
:1022E000FEF79EF9BCEEC00A10EE100AC1B2144807
:1022F0000D4A1278815410E00120FEF791F911483F
:102300000949097800EB810080ED000A05E00E48DC
:1023100003490968016000E000BF00BF10BD000074
:102320002B000020AC0600204C0000204D000020B7
:10233000C80600200E0700202C070020CC07002034
:10234000E00700207C07002050000020704770B597
:10235000044694F82000012822D1022084F82000AD
:102360002068006820F001002168086000F0A8F9EA
:1023700005460DE000F0A4F9401B0A2808D9606A60
:1023800040F400306062052084F82000012070BD18
:102390002068406800F001000028EBD16062F6E799
:1023A000606A40F4002060620120F0E770477047E7
:1023B0007047704770477047704770B50446A56D09
:1023C00000F07EF9064694F83500022808D08020F7
:1023D000606500BF002084F8340000BF012070BD9C
:1023E0002068006820F016002168086020684069B5
:1023F00020F0800021684861206C08B9A06C28B1E9
:102400002068006820F008002168086020680068E3
:1024100020F001002168086010E000F051F9801BF5
:1024200005280BD920206065032084F8350000BF03
:10243000002084F8340000BF0320D0E72068006843
:1024400000F001000028E8D194F85C103F2088409B
:10245000A860012084F8350000BF002084F8340013
:1024600000BF00BFBBE7014691F83500022803D04A
:102470008020486501207047052081F835000868F4
:10248000006820F001000A6810600020F3E70146B0
:1024900091F835007047000070B5044600F010F95F
:1024A00006462546681C10B104480078054400BF64
:1024B00000F006F9801BA842FAD370BDDC040020AE
:1024C000F8B502460B460025002400200021D1E08B
:1024D000012606FA01F51E6806EA0504AC4274D12D
:1024E0001E7906F00306012E04D01E7906F00306BD
:1024F000022E13D190684F000326BE40B0434F0018
:10250000DE68BE4030439060506801268E40B04384
:102510001E79C6F300168E40304350601E7906F0D7
:102520000306032E09D0D0684F000326BE40B043F7
:102530004F009E68BE403043D0601E7906F003060F
:10254000022E13D1CF0802F1200656F827004E07BD
:10255000F70E0F26BE40B0434F07FF0E1E69BE4068
:102560003043CF0802F1200646F8270010684F00DC
:102570000326BE40B0431E7906F003064F00BE405E
:10258000304310605E6806F44036002E71D000BF04
:1025900000260096394E366846F48046374F3E6036
:1025A0003E46366806F48046009600BF00BF344EB3
:1025B0008F0856F827008E07370F0F26BE40B0430E
:1025C000304EB24202D100261FE052E02E4EB242FF
:1025D00001D1012619E02D4EB24201D1022614E0AC
:1025E0002B4EB24201D103260FE02A4EB24201D156
:1025F00004260AE0284EB24201D1052605E0274E06
:10260000B24201D1062600E007268F073F0FBE40E9
:1026100030431B4E8F0846F82700214E3068A043F8
:102620005E6806F4801606B120431D4E3060361DEC
:102630003068A0435E6806F4001606B12043184EC9
:10264000361D3060164E361F3068A0435E6806F4B3
:10265000003606B12043124E361F3060361F3068F8
:10266000A0435E6806F4803606B120430C4E083E57
:102670003060491C1029FFF42BAFF8BD44380240EC
:1026800008380140000002400004024000080240F7
:10269000000C0240001002400014024000180240EA
:1026A000083C0140024613690B400BB1012000E0D9
:1026B000002070470AB1816101E00B04836170471B
:1026C0000148006870470000D4040020704770473C
:1026D0002DE9F84F0446206847692068D0F8048047
:1026E000002594F83E90C7F3002040B1C8F30020C5
:1026F00028B145F001056FF4807021684861C7F387
:10270000402040B1C8F3002028B145F002056FF425
:10271000007021684861C7F3802070B3C8F30020BF
:1027200058B3CA46B4F82AB094F83D60206B0090C4
:10273000BAF1200F0FD1BBF1000F0CD1212E06D022
:10274000292E04D0282E06D10098212803D1204616
:1027500002F020F911E06FF480602168486145F0D3
:102760000405B9F1100F02D0B9F1400F05D120686E
:10277000006840F4007021680860C7F3C02040B1D1
:10278000C8F3002028B145F008056FF40060216807
:1027900048612DB1206C28432064204601F0B8FB2D
:1027A000BDE8F88F2DE9F04705464FF0000928688D
:1027B0004668D5F82CA095F83E7095F83D80102F0E
:1027C00001D0402F75D12868D0F818902868446946
:1027D00004F0010060B9BAF52A0F02D0BAF12A4F0D
:1027E00001D1012000E00020012801D1BDE8F087DF
:1027F00004F0010048B1C6F3402030B1284601F092
:10280000F3FA284601F07BFFB7E0C4F3C00030B113
:10281000C6F3402018B1284601F028FEADE0C4F30D
:10282000400030B1C6F3402018B1284601F033FE15
:10283000A3E0C9F3800040B32868406800F400605A
:10284000B0F5006FE0D0C4F3C01048B1C6F38020EB
:1028500030B1C4F3800018B9284601F09BFD8CE02C
:10286000C4F380000028CFD0C6F340200028CBD08E
:10287000B8F1210F03D1284601F03CFD7DE0402F47
:102880007BD1284601F08AFF77E02868406800F491
:102890000060B0F5006F70D0C4F3801050B1C6F383
:1028A000802038B1C4F3800020B9284601F0A0FC94
:1028B00063E00BE0C4F3800000285ED0C6F3402044
:1028C00000285AD0284601F0F9FB56E0286C10B1D8
:1028D0002868446904E02868D0F81890286844699A
:1028E000C4F3400060B1C6F3402048B1286C10B179
:1028F0002868D0F818904946284602F012F83CE0C3
:10290000C4F3001030B1C6F3402018B1284602F0DD
:1029100095F832E0B8F1210F02D0B8F1290F16D1A5
:10292000C4F3C01048B1C6F3802030B1C4F38000B6
:1029300018B9284601F0D2FF1FE0C4F38000E0B1CF
:10294000C6F34020C8B1284601F0BBFF15E0C4F330
:10295000801048B1C6F3802030B1C4F3800018B9AC
:10296000284601F08BFF08E0C4F3800028B1C6F3CD
:10297000402010B1284601F074FF00BF36E77047D1
:1029800070B504460CB9012070BD94F83D0028B91B
:10299000002084F83C00204600F0E0F8242084F871
:1029A0003D002068006820F0010021680860206870
:1029B000006840F40040216808602068006820F446
:1029C00000402168086000F007FB05465C4960682C
:1029D000884206D85B48854201D2012007E00020EA
:1029E00005E05948854201D2012000E0002001287D
:1029F00000D1C9E75548B5FBF0F62068406820F0E3
:102A00003F003043216848604D496068884201D8E2
:102A1000701C07E04FF4967070434FF47A71B0FB6E
:102A2000F1F0401C2168096A21F03F010843216848
:102A3000086243496068884214D8681E616849008A
:102A4000B0FBF1F0401CC0F30B00042801D20420BD
:102A50003DE0681E61684900B0FBF1F0401CC0F326
:102A60000B0034E0A06838B9681E616801EB4101D1
:102A7000B0FBF1F0401C0AE0681E616801EBC10286
:102A800002EB0111B0FBF1F0401C40F48040C0F3B8
:102A90000B0008B901201AE0A06848B9681E6168F7
:102AA00001EB4101B0FBF1F0401CC0F30B000CE066
:102AB000681E616801EBC10202EB0111B0FBF1F08D
:102AC000401CC0F30B0040F4804040F400402168FB
:102AD000C9694CF6FF72914308432168C861D4E983
:102AE000070108432168096821F0C00108432168F3
:102AF0000860D4E9031008432168896848F2FF326E
:102B00009143084321688860D4E90501084321689E
:102B1000C96821F0FF0108432168C8602068006887
:102B200040F001002168086000202064202084F823
:102B30003D000020206384F83E0000BF24E7000031
:102B4000A086010080841E0000093D0040420F0065
:102B500070477047704770477047000010B586B0E7
:102B60000446142101A8FDF779FC23492068884216
:102B70003FD100BF002000902048006840F00200D4
:102B80001E4908600846006800F00200009000BF7F
:102B900000BFC0200190122002900020039003206B
:102BA00004900420059001A91548FFF789FC00BF97
:102BB0000020009011481030006840F400100F49C8
:102BC000103108600846006800F40010009000BF53
:102BD00000BF002211461F2000F09EF81F2000F0C9
:102BE00087F800221146202000F096F8202000F0FF
:102BF0007FF806B010BD000000540040303802409D
:102C00000004024070477047034800680349097890
:102C10000844014908607047D4040020DC04002007
:102C200010B50D48006840F400700B490860084674
:102C3000006840F4806008600846006840F48070D6
:102C40000860032000F0A6F80F2000F007F800F05D
:102C50002BF8002010BD0000003C024070B5044677
:102C60000E4800784FF47A71B1FBF0F00C49096816
:102C7000B1FBF0F5284600F0CFFC08B1012070BD93
:102C8000102C07D200222146501E00F045F80548BE
:102C9000046001E00120F2E70020F0E7DC040020FE
:102CA000E0040020D804002008B500BF00200090F8
:102CB0000E48006840F480400C49086008460068EF
:102CC00000F48040009000BF00BF00BF00200090D3
:102CD000081F006840F08050091F0860084600681F
:102CE00000F08050009000BF00BF08BD4438024093
:102CF0000146084600280DDB00BF00BF00F01F039F
:102D000001229A4043099B0003F1E023C3F800210C
:102D100000BF00BF00BF70472DE9F05F80460D4641
:102D20001646002704F0E6FD074639462A46334694
:102D300001F00700C0F1070ABAF1040F02D94FF001
:102D4000040A01E0C0F1070AD14600F1040ABAF111
:102D5000070F02D24FF0000A01E0A0F1030AD446A7
:102D60004FF0010A0AFA09FAAAF1010A0AEA020A6C
:102D70000AFA0CFA4FF0010B0BFA0CFBABF1010B4A
:102D80000BEA030B4AEA0B042146404604F0BAFD65
:102D9000BDE8F09F00BF00F00702064B19684FF630
:102DA000FF031940044B0B4343EA0221014B196016
:102DB00000BF70470CED00E00000FA0538B50024B4
:102DC00000BF002000901D48006840F080501B4963
:102DD00008600846006800F08050009000BF00BF07
:102DE000012017490864FFF76BFC044607E0FFF772
:102DF00067FC001BB0F57A7F01D9032038BD11486C
:102E0000406800F48030B0F5803FF0D101200C49DB
:102E10004864FFF755FC044607E0FFF751FC001B30
:102E2000B0F57A7F01D90320E8E70648406800F44E
:102E30000030B0F5003FF0D10020DFE7403802401D
:102E400000000E420070004070B504460D460CB9FB
:102E5000012070BD5848006800F00F00A84209D258
:102E600055490D700846006800F00F00A84201D0D7
:102E70000120EEE7207800F0020002281DD1207822
:102E800000F00400042805D14C48006840F4E050EC
:102E90004A490860207800F00800082805D1474812
:102EA000006840F46040454908604448006820F0EC
:102EB000F000A168084341490860207800F0010053
:102EC000A8B36068012807D13C4808380068C0F3FF
:102ED0004040B8B90120BCE76068022802D06068B1
:102EE000032807D1354808380068C0F3406048B966
:102EF0000120AEE7314808380068C0F3400008B947
:102F00000120A6E72D48006820F00300616808430F
:102F10002A490860FFF7D4FB064609E0FFF7D0FB1B
:102F2000801B41F28831884202D9032091E707E0F3
:102F30002248006800F00C006168B0EB810FEDD111
:102F40001D48006800F00F00A84209D91A490D7009
:102F50000846006800F00F00A84201D0012078E781
:102F6000207800F00400042807D11448006820F4F9
:102F7000E050E168084311490860207800F008003B
:102F8000082808D10D48006820F46040216940EA13
:102F9000C1000A49086000F03FF808490968C1F318
:102FA0000311074A515CC84006490860064800689A
:102FB000FFF754FE00204CE7003C02400838024076
:102FC000C6950008E0040020D804002001480068ED
:102FD00070470000E004002000B5FFF7F7FF044948
:102FE0000968C1F38221034A515CC84000BD00005A
:102FF00008380240D695000800B5FFF7E7FF0449FE
:103000000968C1F34231034A515CC84000BD000069
:1030100008380240D69500082DE9F0470024002525
:103020000026A146A2463F48006800F00C0030B1DF
:10303000042807D0082808D00C286BD138E0DFF826
:10304000E8A06AE0DFF8E4A067E03648001F006807
:1030500000F03F043348001F006800F4800078B19E
:1030600032483049091F0968C1F38811A0FB01707B
:103070000146224600233846FDF734F905460DE0A7
:1030800029482849091F0968C1F38811A0FB01716B
:10309000224600233846FDF725F905462148001F42
:1030A0000068C0F30140401C4600B5FBF6FA34E06E
:1030B0001C48001F006800F03F041A48001F006809
:1030C00000F4800078B119481649091F0968C1F356
:1030D0008811A0FB01700146224600233846FDF707
:1030E00001F905460EE010480E49091F0968C1F3B1
:1030F0008811A0FB01700146224600233846FDF7E7
:10310000F1F805460748001F0068C0F30279B5FBD7
:10311000F9FA02E0DFF810A000BF00BF5046BDE89A
:10312000F0870000083802400024F40000127A0002
:10313000F8B504460CB90120F8BD207800F0010074
:1031400000286FD0FE48006800F00C0004281BD057
:10315000FB48006800F00C00082807D1F848001F61
:10316000006800F48000B0F5800F0DD0F4480068CE
:1031700000F00C000C2813D1F148001F006800F487
:103180008000B0F5800F0BD1ED4808380068C0F31F
:103190004040002859D06068002856D10120CBE774
:1031A00000BF6068B0F5803F08D1E5480838006886
:1031B00040F48030E249083908601EE06068B0F5EC
:1031C000A02F0DD1DE480838006840F48020DC498B
:1031D000083908600846006840F4803008600CE058
:1031E000D7480838006820F48030D549083908608D
:1031F0000846006820F48020086000BF606890B135
:10320000FFF75EFA054606E0FFF75AFA401B64280E
:1032100001D9032090E7CA4808380068C0F340404D
:103220000028F1D011E0FFF74BFA054606E0FFF762
:1032300047FA401B642801D903207DE7C0480838BD
:103240000068C0F340400028F1D1207800F002006F
:1032500002286BD1BA48006800F00C00B8B1B84839
:10326000006800F00C00082805D1B548001F006870
:1032700000F4800058B1B248006800F00C000C283F
:103280001CD1AF48001F006800F48000B0B9AC4802
:1032900008380068C0F3400020B1E068012801D080
:1032A000012049E7A6480838006820F0F8002169A5
:1032B00040EAC100A2490839086037E0E06800B37D
:1032C0000120A0490860FFF7FBF9054606E0FFF77B
:1032D000F7F9401B022801D903202DE79848083848
:1032E0000068C0F340000028F1D095480838006815
:1032F00020F0F800216940EAC100914908390860CE
:1033000014E000208F490860FFF7DAF9054606E06F
:10331000FFF7D6F9401B022801D903200CE78848A3
:1033200008380068C0F340000028F1D1207800F090
:10333000080008282CD16069A8B1012082490860E2
:10334000FFF7BEF9054606E0FFF7BAF9401B022871
:1033500001D90320F0E67A486C300068C0F34000E1
:103360000028F1D014E0002077490860FFF7A8F9A1
:10337000054606E0FFF7A4F9401B022801D9032007
:10338000DAE66F486C300068C0F340000028F1D1E5
:10339000207800F00400042870D1002768483830F5
:1033A000006800F0805090B900BF00200090644891
:1033B0003830006840F08050614938310860084674
:1033C000006800F08050009000BF00BF01275F48F8
:1033D000006800F48070B0B95C48006840F4807008
:1033E0005A490860FFF76CF9054606E0FFF768F9EF
:1033F000401B022801D903209EE65448006800F4CF
:1034000080700028F2D000BFA068012808D14C4885
:103410006830006840F001004949683108601DE0EB
:10342000A06805280DD146486830006840F00400C7
:103430004349683108600846006840F001000860B0
:103440000CE03F486830006820F001003C496831DA
:1034500008600846006820F00400086000BFA0680B
:10346000A8B1FFF72DF9054609E0FFF729F9401B40
:1034700041F28831884202D903205DE626E03048D7
:1034800068300068C0F340000028EED013E0FFF77A
:1034900017F9054608E0FFF713F9401B41F28831A0
:1034A000884201D9032047E6254868300068C0F308
:1034B00040000028EFD1012F07D1214838300068A3
:1034C00020F080501E493831086000BFA0690028F4
:1034D00051D01B48006800F00C00082861D0A0699A
:1034E000022849D1002017490866FFF7E9F8054688
:1034F00006E0FFF7E5F8401B022801D903201BE690
:103500000F4808380068C0F340600028F1D1D4E9C2
:1035100007010843616A40EA81110122A06AC2EBF7
:10352000500041EA00412C20005D41EA006130205A
:10353000005D41EA00700249091F0860012007E0B0
:103540000838024000004742800E474200700040A9
:103550002F490866FFF7B4F8054606E0FFF7B0F814
:10356000401B022801D90320E6E52A480068C0F381
:1035700040600028F2D048E0002025490866FFF7A7
:103580009FF8054606E0FFF79BF8401B022801D98B
:103590000320D1E51F480068C0F340600028F2D145
:1035A00033E0A069012800D1C6E51A48001D06686D
:1035B000A069012827D006F48001E069814222D168
:1035C00006F03F01206A81421DD147F6C0703040AD
:1035D000616AB0EB811F16D106F440310122A06A66
:1035E000C2EB5000B1EB004F0DD106F070612C2002
:1035F000005DB1EB006F06D106F0E0413020005DC8
:10360000B1EB007F01D0012096E5002094E5000099
:10361000000047420038024070B504462546681E47
:10362000B0F1807F01D301200FE0681E4FF0E02150
:1036300048610F214FF0FF3004F064F900204FF093
:10364000E021886107200861002070BD7047704745
:1036500010B504460CB9012010BD94F83D0028B9FE
:10366000002084F83C00204600F026F8022084F870
:103670003D00211D206803F085FC012084F84600F0
:1036800000BF84F83E0001213F2001554020015534
:103690004120015500BF00BF012084F842004320B3
:1036A0000155442001554520015500BF012084F8F3
:1036B0003D000020D0E7000038B504460E492068E0
:1036C000884217D100BF002000900C48006840F4E9
:1036D00080700A4908600846006800F48070009015
:1036E00000BF00BF002211462D20FFF715FB2D2043
:1036F000FFF7FEFA38BD00000020004040380240CD
:10370000704770B504462068C5682068066906F0F1
:103710000200022819D105F00200022815D1401F2D
:1037200021680861012020772068806900F003008B
:1037300018B12046FFF7E4FF05E0204600F097F8B7
:10374000204600F095F80020207706F004000428B9
:1037500019D105F00400042815D1C043216808617F
:10376000022020772068806900F4407018B120465C
:10377000FFF7C6FF05E0204600F079F8204600F08C
:1037800077F80020207706F00800082819D105F006
:103790000800082815D1C04321680861042020775B
:1037A0002068C06900F0030018B12046FFF7A8FFA9
:1037B00005E0204600F05BF8204600F059F80020B4
:1037C000207706F01000102819D105F010001028FD
:1037D00015D1C04321680861082020772068C0699E
:1037E00000F4407018B12046FFF78AFF05E020463C
:1037F00000F03DF8204600F03BF80020207706F06E
:10380000010048B105F0010030B16FF001002168FE
:103810000861204600F02DF806F08000802809D1CC
:1038200005F08000802805D1C0432168086120464A
:10383000FFF70CFF06F04000402809D105F04000DA
:10384000402805D1C04321680861204600F012F8E5
:1038500006F02000202809D105F02000202805D1FD
:10386000C043216808612046FFF7F1FE70BD704734
:103870007047704770477047704700002DE9F84F58
:103880000446206805682068C668206847694FF0CC
:103890000009CA4605F00F09B9F1000F0AD105F079
:1038A000200038B106F0200020B1204603F0BAFC19
:1038B000BDE8F88FB9F1000F7CD007F0010018B90E
:1038C00006F49070002875D005F0010030B106F4C0
:1038D000807018B1606C40F00100606405F0040075
:1038E00030B107F0010018B1606C40F00200606474
:1038F00005F0020030B107F0010018B1606C40F033
:103900000400606405F0080048B106F0200010B91A
:1039100007F0010018B1606C40F008006064606C52
:10392000002846D005F0200028B106F0200010B194
:10393000204603F077FC20684069C0F3801A606C71
:1039400000F0080010B9BAF1000F2DD0204603F0A6
:1039500023FC2068406900F04000402820D100BFCF
:1039600000BF2168143151E8001F21F04000216898
:10397000143141E80002002AF3D100BFE06B50B1DE
:103980007748E16B0865E06BFEF76DFD88B1E06B91
:10399000016D88470DE02046FFF76EFF09E009E062
:1039A0002046FFF769FF04E02046FFF765FF00208F
:1039B00060647DE7206B012878D105F010000028B5
:1039C00074D006F010000028FAD000BF002000904C
:1039D00020680068009020684068009000BF00BF29
:1039E0002068406900F04000402860D1E06B00682A
:1039F00040681FFA80F8B8F1000F56D0A08D4045FE
:103A000053DDA4F82E80E06BC069B0F5807F43D011
:103A100000BF00BF21680C3151E8001F21F4807005
:103A200021680C3141E80002002AF3D100BF00BF39
:103A300000BF2168143151E8001F21F00100216806
:103A4000143141E80002002AF3D100BF00BF00BFDB
:103A50002168143151E8001F21F040002168143121
:103A600041E80002002AF3D100BF202084F8420080
:103A70000020206300BF00BF21680C3151E8001F07
:103A800021F0100021680C3141E80002002AF3D136
:103A900000BFE06BFEF791FC02206063A08DE28D19
:103AA000801A81B22046FFF7E6FE01E742E0A08DD2
:103AB000E18D401A1FFA80F8E08DD0B3B8F1000F05
:103AC00037D000BF00BF21680C3151E8001F21F43E
:103AD000907021680C3141E80002002AF3D100BF48
:103AE00000BF00BF2168143151E8001F21F0010020
:103AF0002168143141E80002002AF3D100BF2020E0
:103B000084F842000020206300BF00BF21680C3110
:103B100051E8001F21F0100021680C3141E800023B
:103B2000002AF3D100BF0220606341462046FFF720
:103B3000A2FEBDE605F0800030B106F0800018B1AD
:103B4000204603F023FDB3E605F0400030B106F057
:103B5000400018B1204603F055FBA9E600BFA7E6D8
:103B60008571000810B504460CB9012010BDA0698C
:103B700000B100E000BF94F8410028B9002084F8AB
:103B80004000204600F02AF8242084F841002068F4
:103B9000C06820F400502168C860204603F0C0FBD4
:103BA0002068006920F4904021680861206840691D
:103BB00020F02A00216848612068C06840F4005065
:103BC0002168C86000206064202084F8410084F8E7
:103BD00042000020606300BFC8E7000010B586B057
:103BE0000446142101A8FCF739FC4C49206888429E
:103BF00038D100BF002000904948006840F4002000
:103C0000474908600846006800F40020009000BFA3
:103C100000BF00BF0020009041481038006840F00D
:103C200001003F49103908600846006800F00100B3
:103C3000009000BF00BF03200190022002900020EE
:103C40000390032004900820059001A93548FEF751
:103C500037FC002211463420FFF75EF83420FFF7CE
:103C600047F858E030492068884254D100BF00200E
:103C700000902B48006840F48010294908600846ED
:103C8000006800F48010009000BF00BF00BF00205B
:103C9000009023481038006840F004002049103993
:103CA00008600846006800F00400009000BF00BFF4
:103CB00000BF002000900846006840F0080008603F
:103CC0000846006800F00800009000BF00BF88149C
:103CD000019002200290002003900320049008200D
:103CE000059001A91148FEF7EBFB0420019002208A
:103CF000029000200390032004900820059001A961
:103D00000B48FEF7DDFB002211463520FFF704F8D3
:103D10003520FEF7EDFF06B010BD0000004C00405E
:103D200040380240000002400050004000080240BD
:103D3000000C024070B504460D46164694F8420049
:103D400020280BD105B10EB9012070BD00202063E1
:103D500032462946204603F0F9FBF6E70220F4E755
:103D600010B50446082205490548FFF7E3FF05485A
:103D70000078401C0349087010BD000000000020BE
:103D8000180600200800002010B5034693F84100F3
:103D9000202813D101B10AB9012010BD19629A84FB
:103DA000DA8400205864212083F841001868C06834
:103DB00040F080001C68E0600020EEE70220ECE7A5
:103DC000704700BFFEE7000010B50248FEF780FC18
:103DD00010BD00003405002010B50248FEF7E2FCDB
:103DE00010BD000034050020C16AB1F52A0F02D1D0
:103DF0000121C16205E0C16AB1F12A4F01D1082158
:103E0000C1627047F8B5054600200090AC6B94F88D
:103E10003D60394800681921B0FBF1F04FF47A7128
:103E2000B0FBF1F0C0EBC00000EB8000009000BFE1
:103E3000009820B9206C40F02000206409E0009830
:103E4000401E00902068006800F40070B0F5007F0C
:103E5000EED000BF606B10B10020616BC863A06B37
:103E600010B10020A16BC8632068006820F4806056
:103E70002168086000206085606B10B10020616BD4
:103E80000865A06B10B10020A16B08652068006870
:103E900020F001002168086094F83D0060280AD1F4
:103EA000202084F83D00002084F83E002064204655
:103EB000FEF70CFC1EE006F02800282811D120682F
:103EC000006840F00100216808602068006840F444
:103ED00080602168086000202063282084F83D006D
:103EE00005E0202084F83D00002084F83E002046B4
:103EF000FEF745FDF8BD0000E004002001684969B7
:103F0000C1F3C01111B100210268116170470000B6
:103F10002DE9F041044694F83D6094F83E70102F6E
:103F200001D0402F07D1222E05D12068006820F44F
:103F300000602168086006F02800282805D10020CC
:103F40002063282084F83D0010E02068406800F4D9
:103F50000060B0F5006F07D0602E05D0202084F8F7
:103F60003D00002084F83E00002020632068406867
:103F700000F40060B0F5006F40D12068406820F484
:103F8000006021684860606B90F83500012814D00B
:103F90004848616B0865606BFEF765FA00285BD0E6
:103FA0002068006820F0010021680860202084F863
:103FB0003D00606B016D88474EE03E48A16B08658F
:103FC000A06BFEF750FA002846D020684069C0F385
:103FD000801030B120680069616A0870606A401C16
:103FE00060622068006820F00100216808602020DD
:103FF00084F83D00A06B016D88472DE094F83D00EA
:1040000060281AD1202084F83D0000202064206818
:104010004069C0F3801030B120680069616A08709F
:10402000606A401C60622068006820F0010021681E
:1040300008602046FEF74AFB0EE020684069C0F3A6
:10404000801030B120680069616A0870606A401CA5
:1040500060622046FEF793FC256C05F0010058B91C
:1040600005F00200022807D005F00400042803D060
:1040700005F00800082805D12068406820F4E060B9
:104080002168486094F83D60206C00F0040004282A
:104090000ED1282E0CD10848E06200202063202099
:1040A00084F83D00002084F83E002046FEF750FDD5
:1040B000BDE8F081053E00080000FFFF70B5044632
:1040C000E56A608D042810D12068406820F4806083
:1040D0002168486020680069616A0870606A401C55
:1040E0006062608D401E608581E0608D03281AD17A
:1040F0002068406820F4806021684860042D07D063
:10410000022D05D02068006820F4806021680860D6
:1041100020680069616A0870606A401C6062608D96
:10412000401E608563E0608D022856D1012D01D0CC
:10413000102D06D12068006820F480602168086096
:1041400012E0042D01D0022D06D12068006840F451
:1041500080602168086007E0102D05D020680068A5
:1041600040F400702168086020680069616A087086
:10417000606A401C6062608D401E60852068006936
:10418000616A0870606A401C6062608D401E6085D4
:104190002068406820F4407021684860202084F83E
:1041A0003D0094F83E00402807D1002084F83E00EE
:1041B00020632046FEF7CFFC19E0002084F83E0083
:1041C000082D01D0202D02D10020206301E0122013
:1041D00020632046FEF7BDFC09E020680069616AA3
:1041E0000870606A401C6062608D401E608570BD12
:1041F00070B5044694F83D0022287AD1E66A658DB0
:10420000032D13D920680069616A0870606A401C38
:104210006062608D401E6085608D032868D12068D3
:10422000406820F480602168486061E0E06A02280C
:1042300058D0012D01D0002D54D1204600F0C4FCEF
:10424000A0BB2068006820F48060216808602068B6
:10425000406820F4E0602168486020680069616A75
:104260000870606A401C6062608D401E608520207E
:1042700084F83D0094F83E00402807D1002084F8DF
:104280003E0020632046FEF766FC31E0002084F803
:104290003E00082E01D0202E02D10020206301E034
:1042A000122020632046FEF754FC21E0FFE720683F
:1042B000406820F4E0602168486020680069616A15
:1042C0000870606A401C6062608D401E608520201E
:1042D00084F83D00002084F83E002046FEF74FFBA6
:1042E00006E006E02068406820F4806021684860AD
:1042F00000BF70BD70B50446E56A94F83D00212802
:1043000047D1608D50B1606A007821680861606AA9
:10431000401C6062608D401E60853AE0082D16D01A
:10432000202D14D015F5803F11D02068406820F46E
:10433000E0602168486011202063002084F83E007E
:10434000202084F83D002046FEF704FC21E0206890
:10435000406820F4E060216848602068006840F40C
:1043600000702168086000202063202084F83D0050
:1043700094F83E00402806D1002084F83E002046F4
:10438000FEF7EAFB05E0002084F83E002046FEF739
:10439000E1FB70BD2DE9F041044694F83D5094F8DE
:1043A0003E70E66A208DB0BB212D3CD1082E16D080
:1043B000202E14D016F5803F11D02068406820F4DC
:1043C000E0602168486011202063002084F83E00EE
:1043D000202084F83D002046FEF7BCFB44E0206826
:1043E000406820F4E060216848602068006840F47C
:1043F00000702168086000202063202084F83D00C0
:1044000094F83E00402807D1002084F83E00204662
:10441000FEF7A2FB28E006E0002084F83E002046DC
:10442000FEF798FB20E0212D03D0402F1CD1222D38
:104430001AD1608D30B92068406820F4806021680E
:10444000486011E094F83E00402803D1204600F077
:10445000A5F909E0606A007821680861606A401C7B
:104460006062608D401E6085BDE8F081416CC9B21C
:1044700002681161416B11B1416BC96B21B9816B4C
:1044800041B1816BC96B29B10168496841F4006190
:1044900002685160704738B590F83E20C16A036BDE
:1044A00090F83D40222C73D1046D64B9402A0AD1A2
:1044B00000BF002400940468646900940468A4693F
:1044C000009400BF1AE1046DC4B90469B4F5404F0B
:1044D00014D100BF00240094046864690094046847
:1044E000A469009400BF00BF0468246844F4807489
:1044F00005682C60046D641C0465FFE0448D8CB974
:1045000000BF002400940468646900940468A469EE
:10451000009400BF00BF0468246844F40074056878
:104520002C60DDE0448D012C72D111F5803F30D13B
:104530000468246824F4806405682C600468646856
:1045400004F40064B4F5006F10D10468246824F406
:10455000806405682C6000BF0024009404686469CE
:1045600000940468A469009400BFB9E000BF00246F
:1045700000940468646900940468A469009400BF0E
:1045800000BF0468246844F4007405682C60A7E048
:10459000A9E0082923D0202921D0122B01D10129FB
:1045A0001DD104290AD0022908D0102906D0046898
:1045B000246824F4806405682C6005E0046824689D
:1045C00044F4806405682C6000BF002400940468F3
:1045D000646900940468A469009400BF80E00468E2
:1045E000246824F4806405682C6000BF00240094D3
:1045F0000468646900940468A469009400BF00BF63
:104600000468246844F4007405682C6068E0FFE7DF
:10461000448D022C3BD1042910D002290ED0102940
:104620000CD00468246824F4806405682C60046855
:10463000246844F4006405682C6005E0046824687C
:1046400044F4806405682C600468646804F40064C1
:10465000B4F5006F10D111F5803F07D0012905D0C6
:10466000082903D0102901D0202905D104686468E5
:1046700044F4805405686C6000BF00240094046812
:10468000646900940468A469009400BF28E0046889
:10469000246844F4806405682C600468646804F449
:1046A0000064B4F5006F10D111F5803F07D00129E7
:1046B00005D0082903D0102901D0202905D104688C
:1046C000646844F4805405686C6000BF0024009462
:1046D0000468646900940468A469009400BF00BF82
:1046E000002404650AE000BF0024009404686469A3
:1046F00000940468A469009400BF00BF38BD90F81E
:104700003E1040290ED1016D29B9416C01F0FE0126
:104710000268116141E0416CC9B241F001010268D7
:1047200011613AE00169B1F5804F20D190F83D1058
:10473000212905D1416C01F0FE010268116105E0FB
:10474000416CC9B241F0010102681161416B11B1C4
:10475000416BC96B21B9816BF9B1816BC96BE1B157
:104760000168496841F400610268516015E0016D1B
:1047700041B9416C01F44071F02242EAE111026852
:1047800011610AE0016D012907D1416C01F440710A
:10479000F12242EAE11102681161704770B50446E6
:1047A00094F83D50206D98B9E06C012807D1A06CB9
:1047B000C0B221680861206D801C206550E0A06CAB
:1047C000C0F3072021680861206D401C206547E088
:1047D000206D012807D1A06CC0B221680861206D4E
:1047E000401C20653CE0206D022836D1222D09D1E5
:1047F0002068006840F4807021680860206D401CCB
:1048000020652DE0608D60B1212D0AD1606A0078AD
:1048100021680861606A401C6062608D401E60858E
:104820001EE0608DE0B9212D1AD12068406820F487
:10483000E060216848602068006840F400702168EA
:10484000086000202063202084F83D00002084F8C8
:104850003E002046FEF780F902E02046FFF74EFBBF
:1048600070BD418D49B101680969426A1170416AA0
:10487000491C4162418D491E4185704770B504460F
:1048800094F83D50608DD8B120680069616A087065
:10489000606A401C6062608D401E6085608D78B9E2
:1048A0002A2D0DD12068406820F48060216848607E
:1048B00022202063282084F83D002046FEF7A2F93C
:1048C00070BD418D49B1416A097802681161416A40
:1048D000491C4162418D491E4185704770B50446AF
:1048E00094F83D50608DD8B1606A00782168086105
:1048F000606A401C6062608D401E6085608D78B982
:10490000292D0DD12068406820F48060216848601E
:1049100021202063282084F83D002046FEF773F90B
:1049200070BDF8B504460D46002794F83D0000F030
:10493000280028281CD12068406820F48060216865
:104940004860C5F3800000B90127C5F3C01010B955
:10495000A08986B201E0208B86B200BF002084F8D7
:104960003C0000BF324639462046FDF7B0FE0FE05E
:1049700000BF002000902068406900902068806996
:10498000009000BF00BF00BF002084F83C0000BFC3
:10499000F8BD000070B5044694F83D50E66A082E54
:1049A00001D0202E1FD1282D1DD12348E062206880
:1049B000406820F4E060216848606FF480602168FE
:1049C00048612068006820F4806021680860002049
:1049D0002063202084F83D00002084F83E0020461B
:1049E000FEF7B6F826E0212D20D11348E062212001
:1049F0002063202084F83D00002084F83E002068D9
:104A0000406820F4E060216848606FF480602168AD
:104A100048612068006820F48060216808602046B2
:104A2000FFF76CFA2046FEF7EEF803E06FF48060C3
:104A30002168486170BD00000000FFFF38B50446E2
:104A400094F83D502068406820F4E0602168486098
:104A500000BF002000902068406900902068006836
:104A600040F001002168086000BF00BF20680068B6
:104A700020F48060216808602068406800F40060CD
:104A8000B0F5006F42D1222D01D02A2D1FD1A06B8D
:104A9000006840686085608D18B1206C40F00400AB
:104AA00020642068406820F4006021684860A06BA2
:104AB000FDF7EDFC012829D04148A16B0865A06BEA
:104AC000FDF7D1FC10B3A06B016D88471EE0606B51
:104AD000006840686085608D18B1206C40F004006B
:104AE00020642068406820F4006021684860606BA2
:104AF000FDF7CDFC012809D03148616B0865606B7A
:104B0000FDF7B1FC10B1606B016D8847608D18B383
:104B100020684069C0F3800048B120680069616A7C
:104B20000870606A401C6062608D401E608520686D
:104B30004069C0F3801048B120680069616A08705C
:104B4000606A401C6062608D401E6085608D18B197
:104B5000206C40F004002064206C18B12046FFF760
:104B6000D7F92BE02A2D07D100202063282084F8D4
:104B70003D002046FEF746F894F83D0028280DD168
:104B80001048E06200202063202084F83D000020CF
:104B900084F83E002046FDF7DBFF0FE0206B222863
:104BA00001D0222D0AD100202063202084F83D006E
:104BB000002084F83E002046FEF724F838BD0000AF
:104BC000053E00080000FFFF08B5014600200090E8
:104BD000104800681922B0FBF2F04FF47A72B0FB73
:104BE000F2F000EB8000009000BF0098401E0090A3
:104BF000009828B9086C40F020000864012008BD26
:104C00000868006800F40070B0F5007FEDD0002067
:104C1000F5E70000E004002021480078AA283ED1F2
:104C20001F48C079FF283AD11D4840781D490870B7
:104C30001B48807810B11A48807801E01A48007843
:104C4000194908701648C078184908701448007946
:104C50001749087012484079164908701048807941
:104C6000154908701148007810B901200F490870E3
:104C70000B48C07811490978884210D01048007854
:104C80000A490978884206D001200E490870074871
:104C900000780B4908700248C078084908707047CE
:104CA00000000020980100209A0100209C010020B3
:104CB000A00100209B0100209D010020A4010020F4
:104CC000A3010020F4000020F0EE400ADFED0E1AF0
:104CD000B0EE610ADFED0D1AB0EE611A9FED0C2AFD
:104CE000C1EE021A80EEA12ADFED091A22EE212A76
:104CF000DFED082AC2EE221A9FED072A61EE821A22
:104D0000B0EE610A7047000000000000AAE5A6446A
:104D100000007A44000061450000164300B58BB0E6
:104D20001748184908600C20486000211548816028
:104D3000C1604FF4202101614FF400114161002155
:104D4000017641768176C17601774177FCF70AFFDB
:104D500008B1FCF7AFFA01200990002006900590F9
:104D600001900290039004900790012008900E207B
:104D70000A9001A90348FCF771FC0BB000BD0000CC
:104D800000640040E404002000B58BB018481949C5
:104D900008600C204860002116488160C1604FF413
:104DA000202101614FF4001141610021017641761B
:104DB0008176C17601774177FCF7D4FE08B1FCF724
:104DC00079FA012009900E2006900120059000201C
:104DD00001900290039004900790012008900E200B
:104DE0000A9001A90348FCF739FC0BB000BD000094
:104DF000006800400C05002000B587B0142102A80F
:104E0000FBF72CFB00BF002001904548006840F0F4
:104E10000400434908600846006800F0040001905F
:104E200000BF00BF00BF002001900846006840F0AE
:104E3000800008600846006800F08000019000BF14
:104E400000BF00BF002001900846006840F001004C
:104E500008600846006800F00100019000BF00BF34
:104E600000BF002001900846006840F00200086082
:104E70000846006800F00200019000BF00BF00BFBC
:104E8000002001900846006840F0080008600846CD
:104E9000006800F00800019000BF00BF00220C2154
:104EA0002048FDF707FC002207211F48FDF702FC00
:104EB000042002900120039000200490012005901E
:104EC00002A91848FDF7FCFA08200290012003907F
:104ED00000200490059002A91248FDF7F1FA042081
:104EE000029000200390049002A91048FDF7E8FA10
:104EF000072002900120039000200490059002A951
:104F00000948FDF7DDFA4FF400600290002003909D
:104F1000049002A90348FDF7D3FA07B000BD0000D2
:104F20003038024000080240000402400000024005
:104F300010B50B480B4908600B4848600021094830
:104F40008160C1604FF48041016100214161816154
:104F5000C1610162FDF714FD08B1FCF7ABF910BDAA
:104F60000054004034050020A086010010B50A4816
:104F70000A49086042F227304860002107488160F2
:104F800040F2E731C160002101618161FEF760FB01
:104F900008B1FCF78FF910BD002000408805002003
:104FA00010B50B480B4908604FF4E1304860002110
:104FB00008488160C16001610C214161002181616B
:104FC000C161FEF7CFFD08B1FCF774F910BD000018
:104FD000004C0040D005002010B50B480B4908607C
:104FE0004FF4E1304860002108488160C1600161F0
:104FF0000C21416100218161C161FEF7B3FD08B15F
:10500000FCF758F910BD00000050004018060020C1
:1050100000BFFEE700BFFEE710B52DED108B82B09C
:10502000FE48007800287CD0FD4800780028FAD09F
:10503000FC4890ED040A10EE101A084604F048FAF5
:1050400041EC1B0BB0EE4B0AF0EE6B0A02F0DCFDFC
:10505000B0EE409AF0EE609AF24890ED030A10EE3E
:10506000101A084604F034FA41EC1D0BB0EE4D0A5C
:10507000F0EE6D0A02F0C8FDB0EE40BAF0EE60BA94
:10508000E84890ED020A10EE101A084604F020FAE3
:1050900041EC1F0BB0EE4F0AF0EE6F0A02F0B4FDC8
:1050A000B0EE40DAF0EE60DADE4890ED010A10EE84
:1050B000101A084604F00CFA41EC1F0BB0EE4F0A30
:1050C000F0EE6F0A02F0A0FDB0EE40EAF0EE60EA0A
:1050D00053EC1D2B51EC1E0B03F0F2FC41EC1C0BAE
:1050E00053EC1B2B03F0ECFC41EC1A0B53EC192B8B
:1050F00003F0E6FC41EC180B9FEDCB0B53EC102BAF
:1051000003F092FDCDE900019DED000B51EC100B79
:1051100003F0A4FCC6490860C648007810B90A200C
:1051200004E027E2BD480078C0EB001000EE100A52
:10513000B8EEC00AC04880ED000ABE48007860B1F1
:10514000BE480078012808D0B2EE0E0ABA4880EDB9
:10515000000A0020BA4908600EE0B648007858B945
:10516000B6480078012807D09FEDB60AB24880ED16
:10517000000A0020B2490860AE480078E0B1AF48AC
:105180000078012818D1B04890ED000AF3EE090A22
:10519000B4EEE00AF1EE10FA09DAAC4890ED000A3C
:1051A000FBEE090AB4EEE00AF1EE10FA04D8B2EE12
:1051B0000E0AA14880ED000AA0480078012804D01A
:1051C0000020A3490860A34908609B48D0ED000A6D
:1051D000A04890ED000AB8EEC00A70EE800A984828
:1051E00090ED000AB8EEC00A30EE800AF1EE000A37
:1051F00030EE200ABCEEC00A10EE100A9649087084
:105200008D48D0ED000A924890ED000AB8EEC00A31
:1052100030EE800AF1EE000A30EE200ABCEEC00A41
:1052200010EE100A8D4908708248007810B18C4841
:10523000007828B17F480078B8B989480078A0B1D3
:105240007B4890ED000AF2EE080AB4EEE00AF1EEB7
:1052500010FA0AD290ED000AFAEE080AB4EEE00A5B
:10526000F1EE10FA01DD01F001FF7B4800787D4985
:10527000097888427ED0FDF723FA00217A4B0CCBC7
:10528000821A61EB0300323A884173D37248007886
:1052900074490978884205DD72480078401C7149DC
:1052A00008706FE06C4800786E490978884269DAC6
:1052B0005C4890ED030A10EE101A084604F008F955
:1052C00041EC190BB0EE490AF0EE690A02F09CFCC1
:1052D000B0EE408AF0EE608A9FED640B53EC102B29
:1052E00051EC180B03F08EFE05D85E480078401E86
:1052F0005C49087046E04B4890ED030A10EE101A26
:10530000084604F0E5F841EC190BB0EE490AF0EE5E
:10531000690A02F079FCB0EE408AF0EE608A9FEDF7
:10532000530B53EC102B51EC180B03F0A5FF24D2B8
:105330003C4890ED030A10EE101A084604F0C8F835
:1053400041EC190BB0EE490AF0EE690A02F05CFC80
:10535000B0EE408AF0EE608A9FED460B53EC102BC6
:1053600051EC180B03F04EFE07D83E480078C01EE3
:105370003C4900E020E0087004E03A480078401F13
:1053800038490870012410E00223042235480078CF
:1053900000EE100AB8EE400A19462046FBF76EF9F7
:1053A0000120FDF779F8601CC4B2022CECDDFDF79A
:1053B00087F900212C4A03C2284800782F49097830
:1053C000884276D0FDF77CF900212D4AD2E90032DF
:1053D000C01A61EB0201323871F1000169D31F4834
:1053E000007826490978884205DD24480078401C69
:1053F00022490870A3E019480078204909788842BA
:1054000056DA084890ED030A10EE101A084604F028
:105410005FF841EC190BB0EE490A33E09A01002025
:10542000980000202C070020000000000000104021
:10543000980300209B010020C00100209C01002057
:105440007803002000000000A4000020AC00002031
:105450007403002070030020240300202503002093
:10546000910300202803002080030020000000009A
:10547000000034400000000000003E4029030020EE
:1054800088030020F0EE690A02F0BEFBB0EE408A0D
:10549000F0EE608A1FED0B0B53EC102B51EC180B48
:1054A00003F0B0FD06D83C480078401E3A49087029
:1054B00045E06DE0394890ED030A10EE101A0846F9
:1054C00004F006F841EC190BB0EE490AF0EE690A57
:1054D00002F09AFBB0EE408AF0EE608A1FED1D0BE1
:1054E00053EC102B51EC180B03F0C6FE22D22B48C4
:1054F00090ED030A10EE101A084603F0E9FF41ECA4
:10550000190BB0EE490AF0EE690A02F07DFBB0EE2D
:10551000408AF0EE608A1FED290B53EC102B51EC02
:10552000180B03F06FFD05D81B480078C01E1A4900
:10553000087004E018480078401F174908700324D9
:1055400010E0022304221448007800EE100AB8EE9E
:10555000400A19462046FBF791F80120FCF79CFF12
:10556000601CC4B2042CECDDFDF7AAF800210C4A43
:1055700003C20DE0012409E01FED4E0A204600F0B1
:105580000EFA0120FCF788FF601CC4B2052CF3DB87
:1055900002B0BDEC108B10BD290300202C070020A9
:1055A0008803002010B52DED088BB0EE408AF0EE98
:1055B000608AB0EE419AF0EE619A53EC192B51ECEF
:1055C000180B03F09BFE41EC1B0B9FED220B53ECE1
:1055D000102B03F051FE0ED253EC192B51EC180B8B
:1055E00003F08CFE41EC1B0B9FED1C0B53EC102BBE
:1055F00003F084FE05E053EC192B51EC180B03F07B
:105600007DFE41EC1A0B9FED170B53EC102B51EC68
:105610001A0B03F0F7FC08D29FED100B53EC102B84
:1056200051EC1A0B03F04CFA01E051EC1A0B41EC6F
:105630001A0B9FED0E0B53EC102B51EC1A0B03F0D1
:10564000F3FA41EC1B0B03F009FA00EE100ABDEC73
:10565000088B10BD000000000080764000000000B4
:105660000080864000000000007076C0000000004E
:105670000000004010B5012048490870FDF720F8EF
:105680000021474AD2E90032C01A61EB020140F220
:10569000DC53C01A71F100017FD3012014E005280A
:1056A00010D011280ED03F49095C3F4A32F8102033
:1056B000914202D100213D4A11703A49095C3A4AAF
:1056C00022F81010411CC8B21B28E8DB01200CE0B6
:1056D000052808D0112806D03549095C082902D0D0
:1056E0000021344A1170411CC8B21528F0DB324841
:1056F0000068C82803DB30480068D22812DD2E4835
:105700000068D2280EDA2C48006810F1C80F04DCBB
:105710002948006810F1D20F04DA2748006810F118
:10572000D20F02DC00202549087025480068962821
:1057300003DB23480068A02812DD21480068A02868
:105740000EDA1F48006810F1960F04DC1C48006850
:1057500010F1A00F04DA1A48006810F1960F02DC6D
:105760000020184908701348007801280DD10F480F
:105770000078012809D113480078012805D10F4885
:105780000078012801D101E007E000200E490870EF
:10579000FCF796FF0021024A03C210BDA1030020BE
:1057A000A8030020C8060020980900209E030020BE
:1057B0000E0700209D030020B4020020FD01002000
:1057C000B8020020FC010020A00300207047000068
:1057D00010B5044604200749086100208860C860AD
:1057E000162040EA44100860034B044A0448FBF7C3
:1057F00090FE10BD60060020440000201300002031
:105800000C05002070B52DED0A8BB0EE408A0446E1
:105810000D46544890ED000A38EE400A524880ED9B
:10582000000A006803F054FE41EC1A0B4F4890ED5B
:10583000000B53EC102B51EC1A0B03F0F5F941EC73
:10584000190B03F00BF94A4908604748006803F058
:105850003FFE41EC1C0B454890ED000B53EC102B28
:1058600051EC1C0B03F00AFC41EC1A0B4148006898
:1058700003F02EFE41EC1B0B53EC1A2B03F020F926
:1058800041EC190B03F0EAF83A4908603A4890ED08
:10589000000A20EE080ABDEEC00A384880ED000A72
:1058A000374890ED000A0846D0ED000A20EE200AA5
:1058B000BDEEC00A334880ED000A0068022801DD11
:1058C000022009E02F48006810F1020F02DA6FF0A1
:1058D000010001E02B4800682A4908602A4890ED41
:1058E000000A2348D0ED000A20EE200ABDEEC00ACF
:1058F000264880ED000A21480068096808442349C9
:105900000968084400EE100AB8EEC00A204880ED8D
:10591000000A90ED000ADFED1F0AB4EEE00AF1EE96
:1059200010FA02DD9FED1B0A0FE0194890ED000A06
:10593000DFED190AB4EEE00AF1EE10FA02D29FEDA3
:10594000160A02E0124890ED000A114880ED000AA4
:10595000044880ED008A0E4890ED000ABDEC0A8BE9
:1059600070BD00000C020020000200207002002028
:105970000402002008020020100200201C02002067
:10598000140200202002002018020020240200201F
:105990004002002000008C4200008CC2704710B50D
:1059A0002DED028B0446B0EE408A022C02D1B1EEFE
:1059B000480A01E0B0EE480AB0EE408A0223042211
:1059C000B0EE480A01212046FAF758FE0320FCF702
:1059D00063FDBDEC028B10BD10B52DED028B0446AE
:1059E000B0EE408A092C02D1B1EE480A01E0B0EED7
:1059F000480AB0EE408A02230422B0EE480A002191
:105A00002046FAF73BFE0220FCF746FDBDEC028B78
:105A100010BD000010B5214800782149097888425E
:105A20003BD01F48007802281AD1002415E0B3EEBD
:105A3000040A1220FFF7D0FF0A20FCF72DFDB3EE79
:105A4000040A1320FFF7C8FF0A20FCF725FDB3EE78
:105A5000040A1420FFF7C0FF641C052CE7DB18E0E4
:105A6000002414E09FED0F0A1120FFF7B5FF9FED12
:105A70000D0A1220FFF7B0FF9FED0A0A1320FFF76F
:105A8000ABFF9FED080A1420FFF7A6FF641C042C4F
:105A9000E8DB034800780149087010BDA20100202E
:105AA0009D0100200000000010B52DED028BFE4886
:105AB0000078002871D0FD4890ED000AF0EE000A51
:105AC000B4EEE00AF1EE10FA11D890ED000AF8EE0B
:105AD000000AB4EEE00AF1EE10FA08DB9FEDF40ADA
