:020000040800F2
:10000000F8100020A50200085149000877320008C6
:100010004D490008ED040008CD5000080000000024
:100020000000000000000000000000003D4A000841
:100030008B05000800000000254A00083F4A000820
:10004000BF020008BF020008BF020008BF0200088C
:10005000BF020008BF020008BF020008BF0200087C
:10006000BF020008BF020008BF020008BF0200086C
:10007000BF020008BF020008BF020008BF0200085C
:10008000BF020008BF020008BF020008BF0200084C
:10009000F104000801050008BF020008BF020008C3
:1000A000BF020008BF020008BF020008BF0200082C
:1000B000BF020008BF020008BF0200088D3200081E
:1000C0007D320008BF020008BF020008BF0200081E
:1000D000BF020008BF020008BF020008BF020008FC
:1000E000BF020008BF020008BF020008BF020008EC
:1000F000BF020008194B0008BF020008BF02000839
:10010000BF020008BF020008BF020008BF020008CB
:10011000114C0008214C0008BF020008BF02000873
:10012000BF020008BF020008BF020008BF020008AB
:10013000BF0200080000000000000000BF0200082D
:100140001105000821050008BF020008BF020008D1
:10015000BF020008BF020008BF020008BF0200087B
:10016000BF020008BF020008BF020008BF0200086B
:10017000BF020008BF020008BF0200080000000024
:1001800000000000BF0200080000000000000000A6
:10019000BF0200080000000000000000BF020008CD
:1001A000000000000000000000000000BF02000886
:1001B000BF020008BF020008BF020008BF0200081B
:1001C000BF02000800F002F800F05CF80AA090E816
:1001D000000C82448344AAF10107DA4501D100F002
:1001E00051F8AFF2090EBAE80F0013F0010F18BF73
:1001F000FB1A43F00103184788600000A860000064
:100200000A444FF0000C10F8013B13F0070408BF3C
:1002100010F8014B1D1108BF10F8015B641E05D0DA
:1002200010F8016B641E01F8016BF9D113F0080F8F
:100230001EBF10F8014BAD1C0C1B09D16D1E58BF21
:1002400001F801CBFAD505E014F8016B01F8016B58
:100250006D1EF9D59142D6D37047000000230024CB
:1002600000250026103A28BF78C1FBD8520728BFC6
:1002700030C148BF0B6070471FB505F0CAFF1FBDF6
:1002800010B510BD00F0E2F81146FFF7F5FF05F0DC
:10029000D9F900F000F903B4FFF7F2FF03BC00F056
:1002A00003F900000948804709480047FEE7FEE7D8
:1002B000FEE7FEE7FEE7FEE7FEE7FEE7FEE7FEE716
:1002C00004480549054A064B70470000054B0008E5
:1002D000C5010008F80A0020F8100020F80C0020E2
:1002E000F80C002053EA020C00F069802DE9F04B75
:1002F0004FF00006002B1FBFB3FA83F503FA05F495
:1003000024FA05F65E4012BF1643B2FA82F502FAED
:1003100005F4C5F120051EBF22FA05FC44EA0C04D1
:10032000203556EA044C4FEA144418BF641C4FF0C1
:1003300000084FF00009904271EB030C39D30029FB
:1003400019BFB1FA81F701FA07F6B0FA80F700FA9F
:1003500007F6C7F120071EBF20FA07FC46EA0C0685
:100360002037B6FBF4FCA7EB0507103F07F01F0B87
:10037000CBF120060CFA0BFB2CFA06F644BFB34671
:100380000026202FA4BF5E464FF0000B5BEA060C50
:1003900008BF4FF0010B19EB0B09ABFB027C48EBDC
:1003A0000608C01B06FB02CC0BFB03CC71EB0C0157
:1003B000C1E70B46024641464846BDE8F08B13B5FF
:1003C0004FF000004FF00001AFF30080BDE81C408B
:1003D00070474FF0000200B5134694469646203908
:1003E00022BFA0E80C50A0E80C50B1F12001BFF4EE
:1003F000F7AF090728BFA0E80C5048BF0CC05DF854
:1004000004EB890028BF40F8042B08BF704748BFA1
:1004100020F8022B11F0804F18BF00F8012B704715
:1004200070477047704710B500F008F8006810BDBD
:1004300010B5044600F002F8046010BD0048704793
:10044000980A002000487047980A00207546FFF778
:10045000F9FFAE4605006946534620F00700854681
:1004600018B020B5FFF72CFFBDE820404FF0000684
:100470004FF000074FF000084FF0000B21F007018C
:10048000AC46ACE8C009ACE8C009ACE8C009ACE8CF
:10049000C0098D46704710B50446AFF30080204672
:1004A000BDE81040FFF7F7BE01491820ABBEFEE7DC
:1004B0002600020070470000094901EB8001094A4B
:1004C00012680A60064901EB800191ED000ABDEE59
:1004D000C00A10EE101A044A42F8201070470000BB
:1004E000180700202B0000206807002000BFFEE74F
:1004F00010B5024800F09FFA10BD0000040400206F
:1005000010B5024800F097FA10BD00000404002066
:1005100010B5024800F08FFA10BD00002C04002036
:1005200010B5024800F087FA10BD00002C0400202E
:1005300008B5014661B9002004E00E4A125C0E4B7A
:100540001A54401C0328F8DD0B48006800900EE0A8
:1005500001290CD1002005E0064B021D9A5C064BD8
:100560001A54401C0328F7DD0348006800909DEDF5
:10057000000A08BD2B0000200900002001460020D1
:1005800008784A7842EA0020704770472DE9F04F1A
:100590002DED068B87B004460F4690461D469FED15
:1005A0002C0B04F0B1FDB0EE409AF0EE609A9FED96
:1005B0002A0B04F0A9FDB0EE40AAF0EE60AA53ECBD
:1005C000192B51EC1A0B05F05FF941EC180B05F0F3
:1005D000EFFA06902646E819C11700EBD16104EB4B
:1005E000611189B205910598801B401C80B204906E
:1005F0004FF00009CB4623E0069806FA00F0384396
:1006000080B203903946284605F012F882464FF42E
:100610007A7108EB09000223CDE901A10090AE2117
:100620000F48039A01F0DAFA701C86B20027A5EB96
:100630000A0085B209EB0A001FFA80F90BF1010BE1
:1006400004988345D8DB07B0BDEC068BBDE8F08F7E
:1006500000000000000000400000000000004040DA
:100660005404002010B5002004E00A21084A42F892
:100670002010401C2028F8DB9023054A00210F2081
:1006800000F008F84FF4FA7000F04EFF10BD0000C3
:10069000480800202DE9F04F2DED068B87B0044669
:1006A0000F4690461D469FED2E0B04F02DFDB0EE3B
:1006B000409AF0EE609A9FED2C0B04F025FDB0EE11
:1006C00040AAF0EE60AA53EC192B51EC1A0B05F07E
:1006D000DBF841EC180B05F06BFA06902646E8199A
:1006E000C11700EBD16104EB611189B20591059846
:1006F000801B401C80B204904FF00009CB4626E0DE
:10070000069806FA00F0384380B20390394628462E
:1007100004F08EFF82464FF47A7108EB0900022341
:10072000CDE901A10090AE211148039A01F0DAFB56
:10073000701C86B20027A5EB0A0085B209EB0A00FF
:100740001FFA80F9052000F0EFFE0BF1010B049871
:100750008345D5DB07B0BDEC068BBDE8F08F00000C
:1007600000000000000000400000000000004040C9
:100770005404002072B600BFFEE70000F0B5044646
:100780000A46216894F82050012D01D0022D7ED117
:10079000424901F50071086840F0010008600868EE
:1007A00020F47C5008600868566A40EA0620086019
:1007B000107D00F01F06012000FA06F3C869984377
:1007C000C861A1F50071D069C8B9D1F80C0298438D
:1007D000C1F80C02908880B2968940EA064601F57D
:1007E0001070576940F83760108880B2168940EA67
:1007F000064601F51070576900EBC7004660D069E6
:10080000012819D1D1F80C021843C1F80C029088C4
:1008100080B2168840EA064601F51070576940F824
:100820003760908980B2168940EA064601F510705B
:10083000576900EBC7004660906928B9D1F80402F7
:100840009843C1F8040204E0D1F804021843C1F847
:100850000402106928B9D1F814029843C1F81402AF
:1008600004E0D1F814021843C1F81402106A0128F8
:1008700004D1D1F81C021843C1F81C02D1F80002BF
:1008800020F00100C1F800020020F0BDFFE7606A1F
:1008900040F4802060620120F7E70000006400401F
:1008A000704770B5044694F82050012D01D0022DF8
:1008B0007DD151B92068C06800F0030080B9606A3A
:1008C00040F400106062012070BD2068006900F0F3
:1008D000030028B9606A40F4001060620120F3E769
:1008E000206800F5D87000EB0110006800F00400EB
:1008F0009060906840B9206800F5D87000EB011056
:100900000068400D106007E0206800F5D87000EB2B
:1009100001100068C0085060206800F5D87000EB36
:100920000110006800F00200D060206800F5D87067
:1009300000EB0110406800F00F00082802D30820E7
:10094000106108E0206800F5D87000EB01104068E5
:1009500000F00F001061206800F5D87000EB011066
:10096000406800F47F40000A9061206800F5D8706C
:1009700000EB01104068000C5061206800F5D87051
:1009800000EB011080681870206800F5D87000EB4B
:100990000110806800F47F40000A5870206800F55C
:1009A000D87000EB0110806800F47F0000E03CE0AC
:1009B000000C9870206800F5D87000EB011080687A
:1009C000000ED870206800F5D87000EB0110C068E8
:1009D0001871206800F5D87000EB0110C06800F4B1
:1009E0007F40000A5871206800F5D87000EB0110B4
:1009F000C06800F47F00000C9871206800F5D87082
:100A000000EB0110C068000ED87131B92068C068D1
:100A100040F020002668F06005E02068006940F0A2
:100A200020002668306100204EE7606A40F4802094
:100A30006062012048E72DE9F05F04460025206848
:100A400046692068D0F80490206887682068D0F84C
:100A50000CA02068D0F810B02068D0F8188006F0FC
:100A60000100002855D007F00100C0B10120216825
:100A7000886007F0020018B1204600F0E1FC0EE0AB
:100A800007F0040010B145F4006508E007F0080025
:100A900010B145F4805502E0204600F0D0FC07F488
:100AA0008070C8B14FF480702168886007F40070CE
:100AB00018B1204600F0C6FC0EE007F4806010B1CB
:100AC00045F4005508E007F4006010B145F4804596
:100AD00002E0204600F0B5FC07F48030C8B14FF4C6
:100AE00080302168886007F4003018B1204600F09B
:100AF000ABFC0EE007F4802010B145F4004508E09F
:100B000007F4002010B145F4803502E0204600F0E3
:100B10009AFC06F0080038B10AF0100020B145F444
:100B2000007510202168C86006F0040040B10AF08A
:100B3000080028B108202168C860204600F01CFA8F
:100B400006F0020038B12068C06800F0030010B160
:100B5000204600F013FA06F0400038B10BF0100008
:100B600020B145F4806510202168086106F020005E
:100B700040B10BF0080028B1082021680861204628
:100B800000F0B8FB06F0100038B12068006900F0F2
:100B9000030010B1204600F0AFFB06F4003040B176
:100BA00009F0100028B1102021684860204600F0AC
:100BB00045FC06F4803040B109F0080028B1082057
:100BC00021684860204600F040FC06F4004088B3ED
:100BD00009F0040078B306F4807020B108F0010039
:100BE00008B145F0010506F4007020B108F00200DC
:100BF00008B145F0020506F4806020B108F0040059
:100C000008B145F0040506F40060A0B108F07000DA
:100C100088B108F07000402817D006DC10280BD0EF
:100C200020280CD0302819D10CE0502810D0602892
:100C300014D110E01DE019E045F008050FE045F083
:100C400010050CE045F0200509E045F0400506E000
:100C500045F0800503E045F4807500E000BF00BF6B
:100C60002068806920F07000216888610420216874
:100C700048602DB1606A284360622046FFF710FE8D
:100C8000BDE8F09F70B504460CB9012070BD94F822
:100C9000200010B9204600F0AFF82068006840F04E
:100CA00001002168086000F04BFD05460DE000F0F2
:100CB00047FD401B0A2808D9606A40F40030606292
:100CC000052084F820000120E0E72068406800F05B
:100CD00001000028EBD02068006820F002002168A5
:100CE000086000F02DFD05460DE000F029FD401BD9
:100CF0000A2808D9606A40F400306062052084F850
:100D000020000120C2E72068406800F002000028AF
:100D1000EBD1207E012806D12068006840F08000D9
:100D20002168086005E02068006820F080002168E4
:100D30000860607E012806D12068006840F040000D
:100D40002168086005E02068006820F04000216804
:100D50000860A07E012806D12068006840F02000CD
:100D60002168086005E02068006820F02000216804
:100D70000860E07E012806D12068006820F010009D
:100D80002168086005E02068006840F010002168D4
:100D90000860207F012806D12068006840F0080024
:100DA0002168086005E02068006820F008002168DC
:100DB0000860607F012806D12068006840F00400C8
:100DC0002168086005E02068006820F004002168C0
:100DD0000860D4E9020108432169084361690843B6
:100DE0006168491E08432168C861002060620120D3
:100DF00084F82000002049E710B586B0044614218D
:100E000001A8FFF7E6FA5749206888424AD15648B8
:100E10000068401C544908600846006801280FD14A
:100E200000BF002000905148006840F000704F491A
:100E300008600846006800F00070009000BF00BF26
:100E400000BF0020009049481038006840F00200C0
:100E50004649103908600846006800F0020000901A
:100E600000BF00BF4FF440700190022002900020AC
:100E70000390032004900920059001A93C4800F04C
:100E800067FB00221146142001F0BCF9142001F088
:100E9000A5F900221146152001F0B4F9152001F042
:100EA0009DF95DE033492068884259D100BF002098
:100EB00000902E48006840F080602C490860084689
:100EC000006800F08060009000BF00BF2648006806
:100ED000401C254908600846006801280FD100BF62
:100EE000002000902148006840F000701F49086011
:100EF0000846006800F00070009000BF00BF00BF0F
:100F00000020009019481038006840F0020017498E
:100F1000103908600846006800F00200009000BF29
:100F200000BF4FF440500190022002900020039037
:100F3000032004900920059001A90D4800F008FB4A
:100F400000221146402001F05DF9402001F046F9F1
:100F500000221146412001F055F9412001F03EF9EF
:100F600006B010BD00640040F0030020403802408D
:100F700000040240006800407047000010B52DEDED
:100F8000048B0446C34BC44A00212046FFF789FC6A
:100F9000C148006812287DD006DC08280BD009283B
:100FA00042D0102877D17DE0132875D0142874D052
:100FB0001728F7D11AE1B7490978B64A527841EAB9
:100FC000022108B204F023FE41EC190B9FEDB30B94
:100FD00053EC102B04F058FC41EC180B04F06EFBA2
:100FE000B0490860AB498978AA4AD27841EA02211F
:100FF00008B204F00CFE41EC190B9FEDA80B53EC6A
:10100000102B04F041FC41EC180B04F057FBA649EF
:101010000860A6484078401CA4494870A448407D18
:10102000401CA34948752EE19A490978994A52789B
:1010300041EA022108B204F0EAFD41EC190B9FEDF0
:10104000970B53EC102B04F01FFC41EC180B04F031
:1010500035FB984908608F4989788E4AD27841EAF1
:10106000022108B204F0D3FD41EC190B9FED8B0B6C
:1010700053EC102B04F008FC41EC180B04F01EFBA1
:101080008D49086089488078401C88498870884864
:10109000807D03E058E0F5E07FE02CE0401C8449CF
:1010A0008875F0E07B48FFF769FA844948808448F6
:1010B000006805F03DF841EC180B8049488804F0C1
:1010C000BDFD41EC190BB0EE481AF0EE681AB0EE17
:1010D000490AF0EE690A03F03DFC7A4880ED000A07
:1010E0007248C078401C7149C8707148C07D401C6E
:1010F0006F49C875C7E06748FFF740FA6F498880B5
:101100007148006805F014F841EC180B6B498888A9
:1011100004F094FD41EC190BB0EE481AF0EE681A99
:10112000B0EE490AF0EE690A03F014FC674880ED5E
:10113000000A5E480079401C5C4908715C48007EEA
:10114000401C5B4908769EE05248FFF717FA5B495E
:10115000C8805F48006804F0EBFF41EC180B57496A
:10116000C88804F06BFD41EC190BB0EE481AF0EEA4
:10117000681AB0EE490AF0EE690A03F0EBFB554835
:1011800080ED000A49484079401C48494871484868
:10119000407E401C4649487675E03E48FFF7EEF930
:1011A000464908814C48006804F0C2FF41EC180B26
:1011B0004249088904F042FD41EC190BB0EE481A8F
:1011C000F0EE681AB0EE490AF0EE690A03F0C2FBCD
:1011D000424880ED000A35488079401C33498871C7
:1011E0003348807E401C324988764CE02948FFF71E
:1011F000C5F900EE100AB8EE400A394880ED000A41
:101200003848008804F01AFD41EC180B3448006897
:1012100004F08EFF41EC190BB0EE481AF0EE681A9C
:10122000B0EE490AF0EE690A03F094FB2E4880ED17
:10123000000A014691ED000ADFED2C0A30EE600A4B
:10124000BDEEC00A10EE100A002801DB014600E0E6
:10125000414200EE101AB8EEC00A234981ED000A9F
:10126000084690ED000ABDEEC00A10EE100A02B268
:101270000A211F4803F010FF0C48C079401C0B499D
:10128000C87100E000BF00BF002003490860BDEC4A
:10129000048B10BD1B0000209805002000000000FA
:1012A0000000304070000020740000202406002060
:1012B000E8050020780000207C0000200C070020BA
:1012C000B4000020A4000020B8000020A8000020E6
:1012D000BC000020AC000020C0000020B0000020B6
:1012E0001C010020400100202C010020000054427D
:1012F000F80900207047000010B50446444B454AE9
:1013000001212046FFF7CDFA42480088C0F347107C
:10131000414908703F48007800F01F003F490870BD
:1013200008460078092820D008DC01280DD00328C1
:1013300035D004283FD0052866D148E0142853D082
:10134000152821D017285FD159E03548324909784E
:10135000405C401C3249304A127888542C4800794D
:1013600030492D4A127888544FE00120FFF7E0F809
:101370002D482949097800EB810080ED000A2648B4
:101380000078FFF799F840E00120FFF7D1F82648F0
:101390002149097800EB810080ED000A35E0012049
:1013A000FFF7C6F8BCEEC00A10EE100A1F491A4A31
:1013B0001278885429E00120FFF7BAF8BCEEC00A81
:1013C00010EE100A1A49144A127888541DE00020C1
:1013D000FFF7AEF8BCEEC00A10EE100AC1B2144816
:1013E0000D4A1278815410E00120FFF7A1F811484E
:1013F0000949097800EB810080ED000A05E00E48FC
:1014000003490968016000E000BF00BF10BD000093
:101410002B000020CC0500204C0000204D000020B7
:10142000E80500202E06002044060020E4060020E7
:10143000F8060020940600205000002070477047F6
:1014400070477047704770477047704770B50446E3
:10145000A56D00F075F9064694F83500022808D00D
:101460008020606500BF002084F8340000BF0120A8
:1014700070BD2068006820F01600216808602068B0
:10148000406920F0800021684861206C08B9A06C98
:1014900028B12068006820F00800216808602068F2
:1014A000006820F001002168086010E000F048F9B1
:1014B000801B05280BD920206065032084F83500A7
:1014C00000BF002084F8340000BF0320D0E720686C
:1014D000006800F001000028E8D194F85C103F207B
:1014E0008840A860012084F8350000BF002084F8FF
:1014F000340000BF00BFBBE7014691F83500022869
:1015000003D08020486501207047052081F8350010
:101510000868006820F001000A6810600020F3E706
:10152000014691F83500704770B5044600F008F99F
:1015300006462546681C10B104480078054400BFE3
:1015400000F0FEF8801BA842FAD370BDFC03002017
:10155000F8B502460B460025002400200021D1E00A
:10156000012606FA01F51E6806EA0504AC4274D1AC
:101570001E7906F00306012E04D01E7906F003063C
:10158000022E13D190684F000326BE40B0434F0097
:10159000DE68BE4030439060506801268E40B04304
:1015A0001E79C6F300168E40304350601E7906F057
:1015B0000306032E09D0D0684F000326BE40B04377
:1015C0004F009E68BE403043D0601E7906F003068F
:1015D000022E13D1CF0802F1200656F827004E073D
:1015E000F70E0F26BE40B0434F07FF0E1E69BE40E8
:1015F0003043CF0802F1200646F8270010684F005C
:101600000326BE40B0431E7906F003064F00BE40DD
:10161000304310605E6806F44036002E71D000BF83
:1016200000260096394E366846F48046374F3E60B5
:101630003E46366806F48046009600BF00BF344E32
:101640008F0856F827008E07370F0F26BE40B0438D
:10165000304EB24202D100261FE052E02E4EB2427E
:1016600001D1012619E02D4EB24201D1022614E02B
:101670002B4EB24201D103260FE02A4EB24201D1D5
:1016800004260AE0284EB24201D1052605E0274E85
:10169000B24201D1062600E007268F073F0FBE4069
:1016A00030431B4E8F0846F82700214E3068A04378
:1016B0005E6806F4801606B120431D4E3060361D6C
:1016C0003068A0435E6806F4001606B12043184E49
:1016D000361D3060164E361F3068A0435E6806F433
:1016E000003606B12043124E361F3060361F306878
:1016F000A0435E6806F4803606B120430C4E083ED7
:101700003060491C1029FFF42BAFF8BD443802406B
:101710000838014000000240000402400008024076
:10172000000C024000100240001402400018024069
:10173000083C01400AB1816101E00B0483617047FC
:101740000148006870470000F403002070477047AC
:101750002DE9F84F0446206847692068D0F80480D6
:10176000002594F83E90C7F3002040B1C8F3002054
:1017700028B145F001056FF4807021684861C7F316
:10178000402040B1C8F3002028B145F002056FF4B5
:10179000007021684861C7F3802070B3C8F300204F
:1017A00058B3CA46B4F82AB094F83D60206B009054
:1017B000BAF1200F0FD1BBF1000F0CD1212E06D0B2
:1017C000292E04D0282E06D10098212803D12046A6
:1017D00002F078FC11E06FF480602168486145F008
:1017E0000405B9F1100F02D0B9F1400F05D12068FE
:1017F000006840F4007021680860C7F3C02040B161
:10180000C8F3002028B145F008056FF40060216896
:1018100048612DB1206C28432064204601F0D2FDA0
:10182000BDE8F88F2DE9F04705464FF0000928681C
:101830004668D5F82CA095F83E7095F83D80102F9D
:1018400001D0402F75D12868D0F8189028684469D5
:1018500004F0010060B9BAF52A0F02D0BAF12A4F9C
:1018600001D1012000E00020012801D1BDE8F0876E
:1018700004F0010048B1C6F3402030B1284601F021
:101880000DFD284602F0B4F9B7E0C4F3C00030B152
:10189000C6F3402018B1284602F061F8ADE0C4F369
:1018A000400030B1C6F3402018B1284602F06CF871
:1018B000A3E0C9F3800040B32868406800F40060EA
:1018C000B0F5006FE0D0C4F3C01048B1C6F380207B
:1018D00030B1C4F3800018B9284601F0D4FF8CE081
:1018E000C4F380000028CFD0C6F340200028CBD01E
:1018F000B8F1210F03D1284601F075FF7DE0402F9C
:101900007BD1284602F0C3F977E02868406800F4EC
:101910000060B0F5006F70D0C4F3801050B1C6F312
:10192000802038B1C4F3800020B9284601F0D9FEE8
:1019300063E00BE0C4F3800000285ED0C6F34020D3
:1019400000285AD0284601F032FE56E0286C10B12B
:101950002868446904E02868D0F818902868446929
:10196000C4F3400060B1C6F3402048B1286C10B108
:101970002868D0F818904946284602F06BFB3CE0F6
:10198000C4F3001030B1C6F3402018B1284602F06D
:10199000EDFB32E0B8F1210F02D0B8F1290F16D1DA
:1019A000C4F3C01048B1C6F3802030B1C4F3800046
:1019B00018B9284602F02BFB1FE0C4F38000E0B109
:1019C000C6F34020C8B1284602F014FB15E0C4F36A
:1019D000801048B1C6F3802030B1C4F3800018B93C
:1019E000284602F0E4FA08E0C4F3800028B1C6F308
:1019F000402010B1284602F0CDFA00BF36E770470C
:101A000070B504460CB9012070BD94F83D0028B9AA
:101A1000002084F83C00204600F016FB242084F8C7
:101A20003D002068006820F00100216808602068FF
:101A3000006840F40040216808602068006820F4D5
:101A400000402168086000F03DFD05465C49606883
:101A5000884206D85B48854201D2012007E0002079
:101A600005E05948854201D2012000E0002001280C
:101A700000D1C9E75548B5FBF0F62068406820F072
:101A80003F003043216848604D496068884201D872
:101A9000701C07E04FF4967070434FF47A71B0FBFE
:101AA000F1F0401C2168096A21F03F0108432168D8
:101AB000086243496068884214D8681E616849001A
:101AC000B0FBF1F0401CC0F30B00042801D204204D
:101AD0003DE0681E61684900B0FBF1F0401CC0F3B6
:101AE0000B0034E0A06838B9681E616801EB410161
:101AF000B0FBF1F0401C0AE0681E616801EBC10216
:101B000002EB0111B0FBF1F0401C40F48040C0F347
:101B10000B0008B901201AE0A06848B9681E616886
:101B200001EB4101B0FBF1F0401CC0F30B000CE0F5
:101B3000681E616801EBC10202EB0111B0FBF1F01C
:101B4000401CC0F30B0040F4804040F4004021688A
:101B5000C9694CF6FF72914308432168C861D4E912
:101B6000070108432168096821F0C0010843216882
:101B70000860D4E9031008432168896848F2FF32FD
:101B80009143084321688860D4E90501084321682E
:101B9000C96821F0FF0108432168C8602068006817
:101BA00040F001002168086000202064202084F8B3
:101BB0003D000020206384F83E0000BF24E70000C1
:101BC000A086010080841E0000093D0040420F00F5
:101BD0007047704770477047704700002DE9FC5F01
:101BE00004460F4690469946DDE90CAB0E9EFFF782
:101BF000A7FD054694F83D00202870D11923012245
:101C0000B5492046009502F0AAFB10B10220BDE8BC
:101C1000FC9F00BF94F83C00012801D10220F6E7A8
:101C2000012084F83C0000BF2068006800F001003B
:101C300028B92068006840F0010021680860206829
:101C4000006820F4006021680860222084F83D00CC
:101C5000402084F83E0000202064C4F824A0A4F8AA
:101C60002AB0608D20859D48E0624B464246394649
:101C70002046CDE9006502F06DF808B10120C6E705
:101C8000208D88B900BF0020019020684069019034
:101C900020688069019000BF00BF2068006840F4A0
:101CA00000702168086040E0208D012818D120686C
:101CB000006820F480602168086000BF0020019067
:101CC00020684069019020688069019000BF00BFD2
:101CD0002068006840F400702168086025E0F8E0A2
:101CE000208D022816D12068006820F480602168C9
:101CF00008602068006840F400602168086000BF48
:101D0000002001902068406901902068806901905E
:101D100000BF0AE000BF00200190206840690190E8
:101D200020688069019000BF00BFC3E0208D0328B8
:101D30007ED8208D012815D12A463146204602F052
:101D4000EAFB08B1012062E720680069616A087057
:101D5000606A401C6062208D401E2085608D401EA0
:101D60006085A7E0208D02282AD1334600225C49F5
:101D70002046009502F0F3FA08B1012047E72068F9
:101D8000006840F400702168086020680069616A9A
:101D90000870606A401C6062208D401E2085608D46
:101DA000401E608520680069616A0870606A401C96
:101DB0006062208D401E2085608D401E608579E028
:101DC0003346002246492046009502F0C8FA08B181
:101DD00001201CE72068006820F48060216808600A
:101DE00020680069616A0870606A401C6062208D2A
:101DF000401E2085608D401E608533460022384994
:101E00002046009502F0ABFA08B10120FFE62068F9
:101E1000006840F400702168086020680069616A09
:101E20000870606A401C6062208D401E208500E0C2
:101E300010E0608D401E608520680069616A08704E
:101E4000606A401C6062208D401E2085608D401EAF
:101E500060852FE02A463146204602F05CFB08B13F
:101E60000120D4E620680069616A0870606A401C3D
:101E70006062208D401E2085608D401E6085206838
:101E80004069C0F38000A8B1208D032805D12068E7
:101E9000006820F480602168086020680069616A39
:101EA0000870606A401C6062208D401E2085608D35
:101EB000401E6085208D00287FF438AF202084F8F4
:101EC0003D00002084F83E0000BF84F83C0000BFC5
:101ED0009DE602209BE60000020010000000FFFFCC
:101EE000040001002DE9FC5F04460F469046994628
:101EF000DDE90CAB0E9EFFF723FC054694F83D0090
:101F000020287DD1192301224D492046009502F059
:101F100026FA10B10220BDE8FC9F00BF94F83C00F7
:101F2000012801D10220F6E7012084F83C0000BF1F
:101F30002068006800F0010028B92068006840F0BF
:101F40000100216808602068006820F400602168B2
:101F50000860212084F83D00402084F83E000020E5
:101F60002064C4F824A0A4F82AB0608D20853548E8
:101F7000E0624B46424639462046CDE9006501F015
:101F800099FF08B10120C6E731E02A4631462046D4
:101F900002F02EFB50B1206C042805D120680068A7
:101FA00040F40070216808600120B4E7606A00789E
:101FB00021680861606A401C6062208D401E208597
:101FC000608D401E608520684069C0F3800070B15C
:101FD000208D60B1606A007821680861606A401CE9
:101FE0006062208D401E2085608D401E6085208DA2
:101FF0000028CAD12A463146204602F07DF900E089
:102000001CE050B1206C042805D12068006840F421
:1020100000702168086001207DE72068006840F4B6
:10202000007021680860202084F83D00002084F8BA
:102030003E0000BF84F83C0000BF6CE702206AE766
:10204000020010000000FFFF10B586B00446142106
:1020500001A8FEF7BEF92349206888423FD100BF9E
:10206000002000902048006840F002001E490860EF
:102070000846006800F00200009000BF00BFC020CA
:10208000019012200290002003900320049004206D
:10209000059001A91548FFF75BFA00BF00200090EA
:1020A00011481030006840F400100F4910310860EA
:1020B0000846006800F40010009000BF00BF002236
:1020C00011461F2000F09EF81F2000F087F8002224
:1020D0001146202000F096F8202000F07FF806B08E
:1020E00010BD00000054004030380240000402409F
:1020F000704770470348006803490978084401495C
:1021000008607047F4030020FC03002010B50D4860
:10211000006840F400700B4908600846006840F40D
:10212000806008600846006840F480700860032002
:1021300000F0A6F80F2000F007F800F02BF80020C0
:1021400010BD0000003C024070B504460E48007807
:102150004FF47A71B1FBF0F00C490968B1FBF0F56E
:10216000284600F0CFFC08B1012070BD102C07D22A
:1021700000222146501E00F045F80548046001E0A9
:102180000120F2E70020F0E7FC030020000400201B
:10219000F803002008B500BF002000900E4800683A
:1021A00040F480400C4908600846006800F4804014
:1021B000009000BF00BF00BF00200090081F006813
:1021C00040F08050091F08600846006800F0805009
:1021D000009000BF00BF08BD4438024001460846D9
:1021E00000280DDB00BF00BF00F01F0301229A4052
:1021F00043099B0003F1E023C3F8002100BF00BFA7
:1022000000BF70472DE9F05F80460D461646002757
:1022100002F05EFF074639462A46334601F00700C2
:10222000C0F1070ABAF1040F02D94FF0040A01E025
:10223000C0F1070AD14600F1040ABAF1070F02D231
:102240004FF0000A01E0A0F1030AD4464FF0010A62
:102250000AFA09FAAAF1010A0AEA020A0AFA0CFAC7
:102260004FF0010B0BFA0CFBABF1010B0BEA030B6C
:102270004AEA0B042146404602F032FFBDE8F09FD7
:1022800000BF00F00702064B19684FF6FF03194024
:10229000044B0B4343EA0221014B196000BF704716
:1022A0000CED00E00000FA0538B5002400BF002066
:1022B00000901D48006840F080501B4908600846A7
:1022C000006800F08050009000BF00BF0120174957
:1022D0000864FFF735FA044607E0FFF731FA001B00
:1022E000B0F57A7F01D9032038BD1148406800F469
:1022F0008030B0F5803FF0D101200C494864FFF7F1
:102300001FFA044607E0FFF71BFA001BB0F57A7FBF
:1023100001D90320E8E70648406800F40030B0F532
:10232000003FF0D10020DFE74038024000000E42BD
:102330000070004070B504460D460CB9012070BD18
:102340005848006800F00F00A84209D255490D70A6
:102350000846006800F00F00A84201D00120EEE717
:10236000207800F0020002281DD1207800F004003F
:10237000042805D14C48006840F4E0504A49086000
:10238000207800F00800082805D14748006840F48C
:102390006040454908604448006820F0F000A168AA
:1023A000084341490860207800F00100A8B3606844
:1023B000012807D13C4808380068C0F34040B8B94C
:1023C0000120BCE76068022802D06068032807D1BA
:1023D000354808380068C0F3406048B90120AEE7CE
:1023E000314808380068C0F3400008B90120A6E76A
:1023F0002D48006820F00300616808432A490860FE
:10240000FFF79EF9064609E0FFF79AF9801B41F2B3
:102410008831884202D9032091E707E0224800680A
:1024200000F00C006168B0EB810FEDD11D48006831
:1024300000F00F00A84209D91A490D70084600683B
:1024400000F00F00A84201D0012078E7207800F0CA
:102450000400042807D11448006820F4E050E16823
:10246000084311490860207800F00800082808D1C6
:102470000D48006820F46040216940EAC1000A4923
:10248000086000F03FF808490968C1F30311074AE2
:10249000515CC8400649086006480068FFF754FED2
:1024A00000204CE7003C0240083802402662000849
:1024B00000040020F8030020014800687047000075
:1024C0000004002000B5FFF7F7FF04490968C1F3D5
:1024D0008221034A515CC84000BD00000838024018
:1024E0003662000800B5FFF7E7FF04490968C1F349
:1024F0004231034A515CC84000BD00000838024028
:10250000366200082DE9F047002400250026A14688
:10251000A2463F48006800F00C0030B1042807D004
:10252000082808D00C286BD138E0DFF8E8A06AE072
:10253000DFF8E4A067E03648001F006800F03F04C1
:102540003348001F006800F4800078B132483049F9
:10255000091F0968C1F38811A0FB017001462246DA
:1025600000233846FDF7BEFE05460DE02948284900
:10257000091F0968C1F38811A0FB017122460023DD
:102580003846FDF7AFFE05462148001F0068C0F33E
:102590000140401C4600B5FBF6FA34E01C48001F21
:1025A000006800F03F041A48001F006800F4800033
:1025B00078B119481649091F0968C1F38811A0FBB1
:1025C00001700146224600233846FDF78BFE054682
:1025D0000EE010480E49091F0968C1F38811A0FBDD
:1025E00001700146224600233846FDF77BFE054672
:1025F0000748001F0068C0F30279B5FBF9FA02E052
:10260000DFF810A000BF00BF5046BDE8F087000013
:10261000083802400024F40000127A00F8B504469D
:102620000CB90120F8BD207800F0010000286FD01F
:10263000FE48006800F00C0004281BD0FB4800682E
:1026400000F00C00082807D1F848001F006800F4CB
:102650008000B0F5800F0DD0F448006800F00C0049
:102660000C2813D1F148001F006800F48000B0F579
:10267000800F0BD1ED4808380068C0F340400028B7
:1026800059D06068002856D10120CBE700BF6068B0
:10269000B0F5803F08D1E5480838006840F4803044
:1026A000E249083908601EE06068B0F5A02F0DD13E
:1026B000DE480838006840F48020DC4908390860AA
:1026C0000846006840F4803008600CE0D7480838BD
:1026D000006820F48030D549083908600846006851
:1026E00020F48020086000BF606890B1FFF728F8F0
:1026F000054606E0FFF724F8401B642801D90320B3
:1027000090E7CA4808380068C0F340400028F1D07C
:1027100011E0FFF715F8054606E0FFF711F8401B3A
:10272000642801D903207DE7C04808380068C0F359
:1027300040400028F1D1207800F0020002286BD13F
:10274000BA48006800F00C00B8B1B848006800F062
:102750000C00082805D1B548001F006800F480006F
:1027600058B1B248006800F00C000C281CD1AF48EA
:10277000001F006800F48000B0B9AC480838006859
:10278000C0F3400020B1E068012801D0012049E7F2
:10279000A6480838006820F0F800216940EAC10026
:1027A000A2490839086037E0E06800B30120A04979
:1027B0000860FEF7C5FF054606E0FEF7C1FF401BB7
:1027C000022801D903202DE7984808380068C0F393
:1027D00040000028F1D095480838006820F0F80043
:1027E000216940EAC10091490839086014E00020DD
:1027F0008F490860FEF7A4FF054606E0FEF7A0FF3C
:10280000401B022801D903200CE7884808380068DB
:10281000C0F340000028F1D1207800F0080008281B
:102820002CD16069A8B1012082490860FEF788FFB9
:10283000054606E0FEF784FF401B022801D903206D
:10284000F0E67A486C300068C0F340000028F1D010
:1028500014E0002077490860FEF772FF054606E0A5
:10286000FEF76EFF401B022801D90320DAE66F480D
:102870006C300068C0F340000028F1D1207800F0EF
:102880000400042870D1002768483830006800F040
:10289000805090B900BF0020009064483830006834
:1028A00040F080506149383108600846006800F007
:1028B0008050009000BF00BF01275F48006800F40F
:1028C0008070B0B95C48006840F480705A49086074
:1028D000FEF736FF054606E0FEF732FF401B0228F2
:1028E00001D903209EE65448006800F48070002857
:1028F000F2D000BFA068012808D14C4868300068B9
:1029000040F001004949683108601DE0A0680528D1
:102910000DD146486830006840F0040043496831F2
:1029200008600846006840F0010008600CE03F487D
:102930006830006820F001003C49683108600846B2
:10294000006820F00400086000BFA068A8B1FEF78E
:10295000F7FE054609E0FEF7F3FE401B41F2883121
:10296000884202D903205DE626E0304868300068DE
:10297000C0F340000028EED013E0FEF7E1FE05466C
:1029800008E0FEF7DDFE401B41F28831884201D9A4
:10299000032047E6254868300068C0F3400000285F
:1029A000EFD1012F07D121483830006820F0805046
:1029B0001E493831086000BFA069002851D01B486B
:1029C000006800F00C00082861D0A069022849D1F5
:1029D000002017490866FEF7B3FE054606E0FEF73D
:1029E000AFFE401B022801D903201BE60F48083820
:1029F0000068C0F340600028F1D1D4E90701084322
:102A0000616A40EA81110122A06AC2EB500041EAEA
:102A100000412C20005D41EA00613020005D41EA68
:102A200000700249091F0860012007E008380240D1
:102A300000004742800E4742007000402F49086660
:102A4000FEF77EFE054606E0FEF77AFE401B0228F2
:102A500001D90320E6E52A480068C0F34060002859
:102A6000F2D048E0002025490866FEF769FE0546D9
:102A700006E0FEF765FE401B022801D90320D1E5E0
:102A80001F480068C0F340600028F2D133E0A0691D
:102A9000012800D1C6E51A48001D0668A069012872
:102AA00027D006F48001E069814222D106F03F017F
:102AB000206A81421DD147F6C0703040616AB0EB98
:102AC000811F16D106F440310122A06AC2EB5000EA
:102AD000B1EB004F0DD106F070612C20005DB1EB21
:102AE000006F06D106F0E0413020005DB1EB007FC1
:102AF00001D0012096E5002094E500000000474247
:102B00000038024070B504462546681EB0F1807F4B
:102B100001D301200FE0681E4FF0E02148610F2132
:102B20004FF0FF3002F0DCFA00204FF0E021886126
:102B300007200861002070BD7047704710B504463B
:102B40000CB9012010BD94F83D0028B9002084F88C
:102B50003C00204600F026F8022084F83D00211DAC
:102B6000206801F0E1FF012084F8460000BF84F8EE
:102B70003E0001213F2001554020015541200155D3
:102B800000BF00BF012084F84200432001554420CB
:102B900001554520015500BF012084F83D0000206B
:102BA000D0E7000038B504460E492068884217D1A6
:102BB00000BF002000900C48006840F480700A4973
:102BC00008600846006800F48070009000BF00BFF5
:102BD000002211462D20FFF715FB2D20FFF7FEFAEE
:102BE00038BD00000020004040380240704770B5FA
:102BF00004462068C5682068066906F002000228BD
:102C000019D105F00200022815D1401F2168086182
:102C1000012020772068806900F0030018B1204669
:102C2000FFF7E4FF05E0204600F097F8204600F0AB
:102C300095F80020207706F00400042819D105F04B
:102C40000400042815D1C0432168086102202077C0
:102C50002068806900F4407018B12046FFF7C6FF75
:102C600005E0204600F079F8204600F077F80020D3
:102C7000207706F00800082819D105F00800082878
:102C800015D1C04321680861042020772068C069FD
:102C900000F0030018B12046FFF7A8FF05E020462A
:102CA00000F05BF8204600F059F80020207706F08D
:102CB0001000102819D105F01000102815D1C043BC
:102CC00021680861082020772068C06900F44070FE
:102CD00018B12046FFF78AFF05E0204600F03DF8D6
:102CE000204600F03BF80020207706F0010048B1B4
:102CF00005F0010030B16FF0010021680861204645
:102D000000F02DF806F08000802809D105F0800041
:102D1000802805D1C043216808612046FFF70CFFD9
:102D200006F04000402809D105F04000402805D1B8
:102D3000C04321680861204600F012F806F0200028
:102D4000202809D105F02000202805D1C0432168A2
:102D500008612046FFF7F1FE70BD7047704770476D
:102D600070477047704700002DE9F84F044620680F
:102D700005682068C668206847694FF00009CA46A0
:102D800005F00F09B9F1000F0AD105F0200038B1A4
:102D900006F0200020B1204601F09AFFBDE8F88F30
:102DA000B9F1000F7CD007F0010018B906F490705B
:102DB000002875D005F0010030B106F4807018B11C
:102DC000606C40F00100606405F0040030B107F071
:102DD000010018B1606C40F00200606405F0020070
:102DE00030B107F0010018B1606C40F0040060647D
:102DF00005F0080048B106F0200010B907F0010006
:102E000018B1606C40F008006064606C002846D027
:102E100005F0200028B106F0200010B1204601F096
:102E200057FF20684069C0F3801A606C00F008000A
:102E300010B9BAF1000F2DD0204601F003FF206831
:102E4000406900F04000402820D100BF00BF216849
:102E5000143151E8001F21F040002168143141E88D
:102E60000002002AF3D100BFE06B50B17748E16B5C
:102E70000865E06BFEF740FB88B1E06B016D8847A9
:102E80000DE02046FFF76EFF09E009E02046FFF75E
:102E900069FF04E02046FFF765FF002060647DE7DE
:102EA000206B012878D105F01000002874D006F0BE
:102EB00010000028FAD000BF0020009020680068B1
:102EC000009020684068009000BF00BF2068406903
:102ED00000F04000402860D1E06B006840681FFAB5
:102EE00080F8B8F1000F56D0A08D404553DDA4F80E
:102EF0002E80E06BC069B0F5807F43D000BF00BF7B
:102F000021680C3151E8001F21F4807021680C31D8
:102F100041E80002002AF3D100BF00BF00BF2168D2
:102F2000143151E8001F21F001002168143141E8FB
:102F30000002002AF3D100BF00BF00BF2168143196
:102F400051E8001F21F040002168143141E80002DF
:102F5000002AF3D100BF202084F842000020206323
:102F600000BF00BF21680C3151E8001F21F01000A4
:102F700021680C3141E80002002AF3D100BFE06B68
:102F8000FEF764FA02206063A08DE28D801A81B2A0
:102F90002046FFF7E6FE01E742E0A08DE18D401AF2
:102FA0001FFA80F8E08DD0B3B8F1000F37D000BF22
:102FB00000BF21680C3151E8001F21F49070216896
:102FC0000C3141E80002002AF3D100BF00BF00BF6E
:102FD0002168143151E8001F21F0010021681431EB
:102FE00041E80002002AF3D100BF202084F842000B
:102FF0000020206300BF00BF21680C3151E8001F92
:1030000021F0100021680C3141E80002002AF3D1C0
:1030100000BF0220606341462046FFF7A2FEBDE6E6
:1030200005F0800030B106F0800018B1204602F0B3
:1030300003F8B3E605F0400030B106F0400018B1E7
:10304000204601F035FEA9E600BFA7E6314C000896
:1030500010B504460CB9012010BDA06900B100E014
:1030600000BF94F8410028B9002084F840002046B1
:1030700000F02AF8242084F841002068C06820F479
:1030800000502168C860204601F0A0FE2068006959
:1030900020F49040216808612068406920F02A00EF
:1030A000216848612068C06840F400502168C86009
:1030B00000206064202084F8410084F84200002051
:1030C000606300BFC8E7000010B586B00446142155
:1030D00001A8FDF77EF94C492068884238D100BF2D
:1030E000002000904948006840F4002047490860EB
:1030F0000846006800F40020009000BF00BF00BF39
:103100000020009041481038006840F001003F491D
:10311000103908600846006800F00100009000BF08
:1031200000BF0320019002200290002003900320A2
:1031300004900820059001A93548FEF709FA0022FD
:1031400011463420FFF75EF83420FFF747F858E0C7
:1031500030492068884254D100BF002000902B489D
:10316000006840F48010294908600846006800F4AF
:103170008010009000BF00BF00BF002000902348D7
:103180001038006840F004002049103908600846F3
:10319000006800F00400009000BF00BF00BF0020E6
:1031A00000900846006840F0080008600846006883
:1031B00000F00800009000BF00BF881401900220BA
:1031C000029000200390032004900820059001A99C
:1031D0001148FEF7BDF90420019002200290002062
:1031E0000390032004900820059001A90B48FEF7E6
:1031F000AFF9002211463520FFF704F83520FEF71D
:10320000EDFF06B010BD0000004C00404038024009
:10321000000002400050004000080240000C024044
:1032200070B504460D46164694F8420020280BD18E
:1032300005B10EB9012070BD002020633246294639
:10324000204601F0D9FEF6E70220F4E710B5044667
:10325000082205490548FFF7E3FF05480078401CB0
:103260000349087010BD0000000000203805002050
:1032700008000020704700BFFEE7000010B50248BC
:10328000FEF766FA10BD00005404002010B5024895
:10329000FEF7C8FA10BD000054040020C16AB1F561
:1032A0002A0F02D10121C16205E0C16AB1F12A4FA2
:1032B00001D10821C1627047F8B505460020009091
:1032C000AC6B94F83D60394800681921B0FBF1F00F
:1032D0004FF47A71B0FBF1F0C0EBC00000EB80005E
:1032E000009000BF009820B9206C40F020002064BE
:1032F00009E00098401E00902068006800F400700B
:10330000B0F5007FEED000BF606B10B10020616BA4
:10331000C863A06B10B10020A16BC863206800686F
:1033200020F480602168086000206085606B10B127
:103330000020616B0865A06B10B10020A16B0865CF
:103340002068006820F001002168086094F83D00C2
:1033500060280AD1202084F83D00002084F83E0037
:1033600020642046FEF7F2F91EE006F02800282827
:1033700011D12068006840F00100216808602068D1
:10338000006840F4806021680860002020632820E5
:1033900084F83D0005E0202084F83D00002084F8FA
:1033A0003E002046FEF72BFBF8BD00000004002085
:1033B00001684969C1F3C01111B1002102681161AE
:1033C000704700002DE9F041044694F83D6094F800
:1033D0003E70102F01D0402F07D1222E05D120683A
:1033E000006820F400602168086006F028002828A2
:1033F00005D100202063282084F83D0010E02068DB
:10340000406800F40060B0F5006F07D0602E05D072
:10341000202084F83D00002084F83E000020206336
:103420002068406800F40060B0F5006F40D120686B
:10343000406820F4006021684860606B90F83500B7
:10344000012814D04848616B0865606BFEF754F89A
:1034500000285BD02068006820F001002168086027
:10346000202084F83D00606B016D88474EE03E48A7
:10347000A16B0865A06BFEF73FF8002846D02068D6
:103480004069C0F3801030B120680069616A08703B
:10349000606A401C60622068006820F001002168BA
:1034A0000860202084F83D00A06B016D88472DE066
:1034B00094F83D0060281AD1202084F83D000020B7
:1034C000206420684069C0F3801030B12068006932
:1034D000616A0870606A401C60622068006820F0C1
:1034E0000100216808602046FEF730F90EE02068F0
:1034F0004069C0F3801030B120680069616A0870CB
:10350000606A401C60622046FEF779FA256C05F07F
:10351000010058B905F00200022807D005F00400A8
:10352000042803D005F00800082805D12068406869
:1035300020F4E0602168486094F83D60206C00F061
:10354000040004280ED1282E0CD10848E062002087
:103550002063202084F83D00002084F83E002046AF
:10356000FEF736FBBDE8F081B93200080000FFFF2E
:10357000014608684069C0F38020B0B16FF48060F4
:103580000A68506100200863202081F83D00002077
:1035900081F83E00086C40F00400086400BF002081
:1035A00081F83C0000BF012070470020FCE770B5A7
:1035B0000446E56A608D042810D12068406820F434
:1035C00080602168486020680069616A0870606AEC
:1035D000401C6062608D401E608581E0608D032824
:1035E0001AD12068406820F4806021684860042D6A
:1035F00007D0022D05D02068006820F48060216883
:10360000086020680069616A0870606A401C606236
:10361000608D401E608563E0608D022856D1012DCB
:1036200001D0102D06D12068006820F48060216848
:10363000086012E0042D01D0022D06D12068006838
:1036400040F480602168086007E0102D05D02068F4
:10365000006840F400702168086020680069616AB1
:103660000870606A401C6062608D401E6085206842
:103670000069616A0870606A401C6062608D401E6B
:1036800060852068406820F44070216848602020F0
:1036900084F83D0094F83E00402807D1002084F8CB
:1036A0003E0020632046FEF796FA19E0002084F8D9
:1036B0003E00082D01D0202D02D10020206301E022
:1036C000122020632046FEF784FA09E02068006992
:1036D000616A0870606A401C6062608D401E60858F
:1036E00070BD70B5044694F83D0022287AD1E66A90
:1036F000658D032D13D920680069616A0870606ABE
:10370000401C6062608D401E6085608D032868D11A
:103710002068406820F480602168486061E0E06AC9
:10372000022858D0012D01D0002D54D1204600F0A0
:1037300037FFA0BB2068006820F480602168086023
:103740002068406820F4E0602168486020680069D3
:10375000616A0870606A401C6062608D401E60850E
:10376000202084F83D0094F83E00402807D1002036
:1037700084F83E0020632046FEF72DFA31E0002059
:1037800084F83E00082E01D0202E02D100202063B4
:1037900001E0122020632046FEF71BFA21E0FFE73C
:1037A0002068406820F4E060216848602068006973
:1037B000616A0870606A401C6062608D401E6085AE
:1037C000202084F83D00002084F83E002046FEF7CB
:1037D00016F906E006E02068406820F48060216861
:1037E000486000BF70BD70B50446E56A94F83D00BE
:1037F000212847D1608D50B1606A00782168086146
:10380000606A401C6062608D401E60853AE0082D51
:1038100016D0202D14D015F5803F11D020684068B7
:1038200020F4E0602168486011202063002084F8C3
:103830003E00202084F83D002046FEF7CBF921E031
:103840002068406820F4E0602168486020680068D3
:1038500040F400702168086000202063202084F874
:103860003D0094F83E00402806D1002084F83E0038
:103870002046FEF7B1F905E0002084F83E0020461E
:10388000FEF7A8F970BD2DE9F041044694F83D50CB
:1038900094F83E70E66A208DB0BB212D3CD1082EF5
:1038A00016D0202E14D016F5803F11D02068406825
:1038B00020F4E0602168486011202063002084F833
:1038C0003E00202084F83D002046FEF783F944E0C6
:1038D0002068406820F4E060216848602068006843
:1038E00040F400702168086000202063202084F8E4
:1038F0003D0094F83E00402807D1002084F83E00A7
:103900002046FEF769F928E006E0002084F83E0032
:103910002046FEF75FF920E0212D03D0402F1CD177
:10392000222D1AD1608D30B92068406820F4806063
:103930002168486011E094F83E00402803D12046F9
:1039400000F0A5F909E0606A007821680861606A02
:10395000401C6062608D401E6085BDE8F081416C56
:10396000C9B202681161416B11B1416BC96B21B9D8
:10397000816B41B1816BC96B29B10168496841F420
:10398000006102685160704738B590F83E20C16A06
:10399000036B90F83D40222C73D1046D64B9402A2A
:1039A0000AD100BF0024009404686469009404688C
:1039B000A469009400BF1AE1046DC4B90469B4F5A8
:1039C000404F14D100BF002400940468646900943F
:1039D0000468A469009400BF00BF0468246844F42C
:1039E000807405682C60046D641C0465FFE0448DE0
:1039F0008CB900BF002400940468646900940468D2
:103A0000A469009400BF00BF0468246844F40074F3
:103A100005682C60DDE0448D012C72D111F5803FEA
:103A200030D10468246824F4806405682C6004683C
:103A3000646804F40064B4F5006F10D1046824686D
:103A400024F4806405682C6000BF0024009404689E
:103A5000646900940468A469009400BFB9E000BFE1
:103A6000002400940468646900940468A4690094C4
:103A700000BF00BF0468246844F4007405682C602B
:103A8000A7E0A9E0082923D0202921D0122B01D1B9
:103A900001291DD104290AD0022908D0102906D0F5
:103AA0000468246824F4806405682C6005E00468D8
:103AB000246844F4806405682C6000BF00240094EE
:103AC0000468646900940468A469009400BF80E0FD
:103AD0000468246824F4806405682C6000BF002416
:103AE00000940468646900940468A469009400BFA9
:103AF00000BF0468246844F4007405682C6068E022
:103B0000FFE7448D022C3BD1042910D002290ED0AE
:103B100010290CD00468246824F4806405682C60A3
:103B20000468246844F4006405682C6005E00468B7
:103B3000246844F4806405682C600468646804F4B4
:103B40000064B4F5006F10D111F5803F07D0012952
:103B500005D0082903D0102901D0202905D10468F7
:103B6000646844F4805405686C6000BF00240094CD
:103B70000468646900940468A469009400BF28E0A4
:103B80000468246844F4806405682C6004686468F0
:103B900004F40064B4F5006F10D111F5803F07D034
:103BA000012905D0082903D0102901D0202905D1E9
:103BB0000468646844F4805405686C6000BF0024A5
:103BC00000940468646900940468A469009400BFC8
:103BD00000BF002404650AE000BF002400940468CC
:103BE000646900940468A469009400BF00BF38BDF4
:103BF00090F83E1040290ED1016D29B9416C01F0B9
:103C0000FE010268116141E0416CC9B241F001015D
:103C1000026811613AE00169B1F5804F20D190F856
:103C20003D10212905D1416C01F0FE0102681161AE
:103C300005E0416CC9B241F0010102681161416BBC
:103C400011B1416BC96B21B9816BF9B1816BC96B42
:103C5000E1B10168496841F400610268516015E012
:103C6000016D41B9416C01F44071F02242EAE11169
:103C7000026811610AE0016D012907D1416C01F46C
:103C80004071F12242EAE11102681161704770B59A
:103C9000044694F83D50206D98B9E06C012807D196
:103CA000A06CC0B221680861206D801C206550E0C6
:103CB000A06CC0F3072021680861206D401C2065BE
:103CC00047E0206D012807D1A06CC0B221680861CF
:103CD000206D401C20653CE0206D022836D1222D4D
:103CE00009D12068006840F4807021680860206D68
:103CF000401C20652DE0608D60B1212D0AD1606AE5
:103D0000007821680861606A401C6062608D401E16
:103D100060851EE0608DE0B9212D1AD120684068D1
:103D200020F4E060216848602068006840F400707A
:103D30002168086000202063202084F83D000020D6
:103D400084F83E002046FDF747FF02E02046FFF7DB
:103D50002FFB70BD2DE9F84304460F4615469946E2
:103D6000DDE908862068006840F48060216808600A
:103D70002068006840F48070216808604346002293
:103D80004FF001112046009600F0E9FA60B120687A
:103D9000006800F48070B0F5807F02D14FF40070AD
:103DA00020640320BDE8F88307F0FE002168086165
:103DB000334642463E49204600F030FB08B1012020
:103DC000F0E700BF00200090206840690090206864
:103DD0008069009000BF00BF32464146204600F097
:103DE00007FC50B1206C042805D12068006840F41D
:103DF0000070216808600120D4E7B9F1010F03D1F8
:103E0000E8B22168086117E0C5F30720216808615E
:103E100032464146204600F0EBFB50B1206C0428AE
:103E200005D12068006840F4007021680860012016
:103E3000B8E7E8B22168086132464146204600F002
:103E4000D7FB50B1206C042805D12068006840F4ED
:103E50000070216808600120A4E72068006840F431
:103E6000807021680860434600224FF0011120460F
:103E7000009600F074FA58B12068006800F4807071
:103E8000B0F5807F02D14FF400702064032089E7F1
:103E9000F8B240F001002168086133464246044907
:103EA000204600F0BBFA08B101207BE7002079E74B
:103EB000020001002DE9F84304468846154699465C
:103EC000DDE908672068006840F4807021680860B8
:103ED000334600224FF001112046009700F03FFAD0
:103EE00060B12068006800F48070B0F5807F02D176
:103EF0004FF4007020640320BDE8F88308F0FE0052
:103F0000216808613B4632462149204600F086FA86
:103F100008B10120F0E700BF002000902068406950
:103F2000009020688069009000BF00BF3A4631468B
:103F3000204600F05DFB50B1206C042805D12068BC
:103F4000006840F40070216808600120D4E7B9F1EE
:103F5000010F03D1E8B22168086117E0C5F307201B
:103F6000216808613A463146204600F041FB50B1D5
:103F7000206C042805D12068006840F40070216896
:103F800008600120B8E7E8B2216808610020B3E7C3
:103F900002000100418D49B101680969426A11704E
:103FA000416A491C4162418D491E4185704770B587
:103FB000044694F83D50608DD8B120680069616A6C
:103FC0000870606A401C6062608D401E6085608D74
:103FD00078B92A2D0DD12068406820F480602168CE
:103FE000486022202063282084F83D002046FEF708
:103FF0007FF870BD418D49B1416A0978026811614D
:10400000416A491C4162418D491E4185704770B526
:10401000044694F83D50608DD8B1606A00782168FC
:104020000861606A401C6062608D401E6085608D22
:1040300078B9292D0DD12068406820F4806021686E
:10404000486021202063282084F83D002046FEF7A8
:1040500050F870BDF8B504460D46002794F83D00B1
:1040600000F0280028281CD12068406820F48060D7
:1040700021684860C5F3800000B90127C5F3C0106E
:1040800010B9A08986B201E0208B86B200BF002063
:1040900084F83C0000BF324639462046FDF757FB06
:1040A0000FE000BF00200090206840690090206869
:1040B0008069009000BF00BF00BF002084F83C0072
:1040C00000BFF8BD70B5044694F83D50E66A082E6E
:1040D00001D0202E1FD1282D1DD12348E062206859
:1040E000406820F4E060216848606FF480602168D7
:1040F00048612068006820F4806021680860002022
:104100002063202084F83D00002084F83E002046F3
:10411000FDF75EFD26E0212D20D11348E06221202D
:104120002063202084F83D00002084F83E002068B1
:10413000406820F4E060216848606FF48060216886
:1041400048612068006820F480602168086020468B
:10415000FFF72EF92046FDF7CCFF03E06FF48060F7
:104160002168486170BD00000000FFFF38B50446BB
:1041700094F83D502068406820F4E0602168486071
:1041800000BF00200090206840690090206800680F
:1041900040F001002168086000BF00BF206800688F
:1041A00020F48060216808602068406800F40060A6
:1041B000B0F5006F42D1222D01D02A2D1FD1A06B66
:1041C000006840686085608D18B1206C40F0040084
:1041D00020642068406820F4006021684860A06B7B
:1041E000FDF79EF9012829D04148A16B0865A06B15
:1041F000FDF782F910B3A06B016D88471EE0606B7C
:10420000006840686085608D18B1206C40F0040043
:1042100020642068406820F4006021684860606B7A
:10422000FDF77EF9012809D03148616B0865606BA4
:10423000FDF762F910B1606B016D8847608D18B3AE
:1042400020684069C0F3800048B120680069616A55
:104250000870606A401C6062608D401E6085206846
:104260004069C0F3801048B120680069616A087035
:10427000606A401C6062608D401E6085608D18B170
:10428000206C40F004002064206C18B12046FFF739
:1042900099F82BE02A2D07D100202063282084F8EC
:1042A0003D002046FDF724FF94F83D0028280DD15D
:1042B0001048E06200202063202084F83D000020A8
:1042C00084F83E002046FDF783FC0FE0206B222897
:1042D00001D0222D0AD100202063202084F83D0047
:1042E000002084F83E002046FDF702FF38BD0000A4
:1042F000B93200080000FFFF70B504460D461646AF
:1043000025E02046FFF734F908B1012070BD681C94
:10431000E8B1FDF715FA801BA84200D8BDB92068A6
:104320004069C0F3800090B900202063202084F809
:104330003D00002084F83E00206C40F02000206406
:1043400000BF002084F83C0000BF0120DEE72068A9
:104350004069C0F380000028D3D00020D6E72DE9C3
:10436000F04104460D4617461E46DDF8188038E039
:10437000701CA8B3FDF7E4F9A0EB0800B04200D828
:1043800076BBC5F3074001280AD120684069A9B26D
:104390000840A9B2884201D101200BE0002009E0C9
:1043A00020688069A9B20840A9B2884201D10120E1
:1043B00000E00020B84214D100202063202084F8BF
:1043C0003D00002084F83E00206C40F02000206476
:1043D00000BF002084F83C0000BF0120BDE8F08150
:1043E000FFE7C5F3074001280AD120684069A9B258
:1043F0000840A9B2884201D101200BE0002009E069
:1044000020688069A9B20840A9B2884201D1012080
:1044100000E00020B842ABD00020DFE72DE9F041FA
:1044200004460D4616461F4658E020684069C0F312
:104430008020E8B12068006840F4007021680860BE
:104440006FF480602168486100202063202084F898
:104450003D00002084F83E00206C40F00400206401
:1044600000BF002084F83C0000BF0120BDE8F081BF
:10447000701C90B3FDF764F9C01BB04200D866BB56
:10448000C5F3074001280AD120684069A9B2084055
:10449000A9B2884201D101200BE0002009E0206888
:1044A0008069A9B20840A9B2884201D1012000E088
:1044B000002090B900202063202084F83D000020D7
:1044C00084F83E00206C40F02000206400BF0020F3
:1044D00084F83C0000BF0120C8E7FFE7C5F30740B0
:1044E00001280AD120684069A9B20840A9B28842CF
:1044F00001D101200BE0002009E020688069A9B209
:104500000840A9B2884201D1012000E00020002823
:104510008BD00020AAE770B504460D46164637E05A
:1045200020684069C0F30010A0B16FF0100021684E
:10453000486100202063202084F83D00002084F89A
:104540003E00206C206400BF002084F83C0000BFC7
:10455000012070BDFDF7F4F8801BA84200D8BDB95A
:1045600020684069C0F3801090B9002020632020AB
:1045700084F83D00002084F83E00206C40F02000CC
:10458000206400BF002084F83C0000BF0120E0E769
:1045900020684069C0F380100028C1D00020D8E70F
:1045A00008B5014600200090104800681922B0FBB1
:1045B000F2F04FF47A72B0FBF2F000EB8000009062
:1045C00000BF0098401E0090009828B9086C40F089
:1045D00020000864012008BD0868006800F400702D
:1045E000B0F5007FEDD00020F5E7000000040020CA
:1045F00070B504460D46164625E02046FEF7B8FF86
:1046000008B1012070BD681CE8B1FDF799F8801B66
:10461000A84200D8BDB920684069C0F3C01090B965
:1046200000202063202084F83D00002084F83E0014
:10463000206C40F02000206400BF002084F83C0083
:1046400000BF0120DEE720684069C0F3C0100028E9
:10465000D3D00020D6E7000000B58BB0174818492A
:1046600008600C204860002115488160C1604FF44B
:10467000302101614FF480114161002101764176C2
:104680008176C17601774177FCF7FCFA08B1FCF737
:1046900071F8012009900020069005900190029089
:1046A000039004900790012008900E200A9001A921
:1046B0000348FCF763F80BB000BD00000064004045
:1046C0000404002000B58BB01848194908600C207C
:1046D0004860002116488160C1604FF420210161CB
:1046E0004FF4001141610021017641768176C17657
:1046F00001774177FCF7C6FA08B1FCF73BF80120D7
:1047000009900E2006900120059000200190029053
:10471000039004900790012008900E200A9001A9B0
:104720000348FCF72BF80BB000BD00000068004008
:104730002C04002000B587B0142102A8FBF749FE25
:1047400000BF002001904548006840F080004349C8
:1047500008600846006800F08000019000BF00BFBC
:1047600000BF002001900846006840F00400086087
:104770000846006800F00400019000BF00BF00BFC1
:10478000002001900846006840F0010008600846DB
:10479000006800F00100019000BF00BF00BF0020D2
:1047A00001900846006840F0020008600846006872
:1047B00000F00200019000BF00BF00BF0020019088
:1047C0000846006840F0080008600846006800F0ED
:1047D0000800019000BF00BF00220C212048FCF718
:1047E000A9FF002206211F48FCF7A4FF0420029025
:1047F00001200390002004900120059002A9184890
:10480000FCF7A6FE082002900120039000200490EF
:10481000059002A91248FCF79BFE0420029000209C
:104820000390049002A91048FCF792FE0620029023
:104830000120039000200490059002A90948FCF78C
:1048400087FE4FF40060029000200390049002A9BC
:104850000348FCF77DFE07B000BD00003038024081
:1048600000080240000402400000024010B50B485E
:104870000B4908600B484860002109488160C1600D
:104880004FF480410161002141618161C161016298
:10489000FDF7B6F808B1FBF76DFF10BD00540040FE
:1048A00054040020A086010010B50A480A49086097
:1048B00042F22730486000210748816040F2E7312A
:1048C000C160002101618161FEF738F908B1FBF791
:1048D00051FF10BD00200040A804002010B50B4877
:1048E0000B4908604FF4E1304860002108488160BE
:1048F000C16001610C21416100218161C161FEF74C
:10490000A7FB08B1FBF736FF10BD0000004C0040CC
:10491000F004002010B50B480B4908604FF4E1305B
:104920004860002108488160C16001610C2141613B
:1049300000218161C161FEF78BFB08B1FBF71AFF13
:1049400010BD0000005000403805002000BFFEE709
:1049500000BFFEE710B52DED088BB0EE408AF0EEFB
:10496000608AB0EE419AF0EE619A53EC192B51EC4B
:10497000180B01F0F3FA41EC1B0B9FED220B53ECEB
:10498000102B01F0A9FA0ED253EC192B51EC180B95
:1049900001F0E4FA41EC1B0B9FED1C0B53EC102BC8
:1049A00001F0DCFA05E053EC192B51EC180B01F087
:1049B000D5FA41EC1A0B9FED170B53EC102B51EC71
:1049C0001A0B01F04FF908D29FED100B53EC102B8E
:1049D00051EC1A0B00F0A4FE01E051EC1A0B41EC73
:1049E0001A0B9FED0E0B53EC102B51EC1A0B00F031
:1049F0004BFF41EC1B0B00F061FE00EE100ABDEC1A
:104A0000088B10BD00000000008076400000000010
:104A10000080864000000000007076C000000000AA
:104A2000000000407047000010B59023024A0021AA
:104A30000F20FBF7ABFD10BDB8070020704710B585
:104A4000FDF758FB10BD000000B593B0342106A857
:104A5000FBF7BFFC142101A8FBF7BBFC00BF002043
:104A600000902648006840F08050244908600846BD
:104A7000006800F08050009000BF00BF00BF002021
:104A800000901F48006840F440401D4908600846F7
:104A9000006800F44040009000BF00BF0120069075
:104AA0000004079002200C9041050D9104210E9105
:104AB000B4210F91022110911191129106A8FDF7D6
:104AC000ADFD08B1FBF756FEFDF7EEFB08B1FBF7B5
:104AD00051FE0F20019002200290002003904FF41D
:104AE000A05004904FF480500590052101A8FDF7D7
:104AF00021FC08B1FBF73EFE13B000BD4038024078
:104B0000007000400348006840F4700001490860EC
:104B10007047000088ED00E010B50248FEF767F826
:104B200010BD0000A804002010B502682D4B98426B
:104B30000ED0B0F1804F0BD02B4B984208D02B4BAE
:104B4000984205D02A4B984202D02A4B984203D172
:104B500022F070024B681A43224B984220D0B0F1E9
:104B6000804F1DD0204B98421AD0204B984217D02E
:104B70001F4B984214D01F4B984211D01E4B9842A5
:104B80000ED01E4B98420BD01D4B984208D01D4BA7
:104B9000984205D01C4B984202D01C4B984203D13E
:104BA00022F44072CB681A4322F080034C6943EA36
:104BB000040202608B68C3620B688362094B9842EF
:104BC00002D00C4B984201D10B690363012343616E
:104BD000036903F001031BB1036923F001030361BF
:104BE00010BD00000000014000040040000800402B
:104BF000000C00400004014000400140004401401E
:104C00000048014000180040001C00400020004007
:104C100010B50248FEF7A8F810BD0000F00400200F
:104C200010B50248FEF7A0F810BD000038050020BE
:104C300070B50546AC6B0020E085E0842046FEF7A9
:104C400091F870BD00BF00BF02680C3252E8002F1F
:104C500022F4907102680C3242E80013002BF3D169
:104C600000BF00BF00BF0268143252E8002F22F0DC
:104C700001010268143242E80013002BF3D100BF97
:104C8000016B01290ED100BF00BF02680C3252E84F
:104C9000002F22F0100102680C3242E80013002BB2
:104CA000F3D100BF202180F842100021016370473A
:104CB00010B504462068C06820F040002168C86034
:104CC000202084F841002046FEF7D4FA002010BDD1
:104CD000F8B5044694F84200222875D1A068B0F5D2
:104CE000805F0CD1206950B90025A66A2068406811
:104CF000C0F308003080A06A801CA06215E0A56A9D
:104D00000026A068B0F5805F03D0A06828B92069AC
:104D100018B920684068287004E02068406800F0F6
:104D20007F002870A06A401CA062E08D401E80B207
:104D3000E085002846D12068C06820F02000216866
:104D4000C8602068C06820F480702168C86020684E
:104D5000406920F0010021684861202084F8420069
:104D600000206063206B012826D10020206300BF53
:104D700000BF21680C3151E8001F21F010002168AC
:104D80000C3141E80002002AF3D100BF206800681E
:104D900000F0100010280AD100BF00200090206809
:104DA0000068009020684068009000BF00BFA18D9F
:104DB0002046FDF7D6FF02E02046FEF747FA002026
:104DC000F8BD01E00020FBE70220F9E72DE9F84FEC
:104DD00004462068006920F44050E16808432168D7
:104DE00008612169A068084361690843E1690843D3
:104DF00000902068C06849F20C618843009908431C
:104E00002168C8602068406920F44070A1690843A7
:104E10002168486176492068884203D07549206836
:104E2000884203D1FDF75EFB814602E0FDF74AFBB5
:104E30008146E069B0F5004F6CD102206168A0FBAB
:104E4000015003461920A9FB007001462A46384646
:104E5000FBF748FA6421B0FBF1F04FEA001A022098
:104E60006168A0FB01510B461920A9FB00712A467D
:104E70003846FBF737FA834602206168A0FB0150F1
:104E800003461920A9FB00712A463846FBF72AFA87
:104E90006421B0FBF1F000EBC00101EB0010ABEBC3
:104EA0008000322101EBC0006421B0FBF1F000F082
:104EB000F8000AEB400A02206168A0FB015003469B
:104EC0001920A9FB007001462A463846FBF70AFA6A
:104ED000834602206168A0FB015003461920A9FB0C
:104EE00000712A463846FBF7FDF96421B0FBF1F06A
:104EF00000EBC00101EB0010ABEB8000322101EBB5
:104F0000C0006421B0FBF1F000F0070050442168BC
:104F100088606AE004206168A0FB01500346192004
:104F2000A9FB007001462A463846FBF7DBF98246AA
:104F300004206168A0FB015003461920A9FB007002
:104F400001462A463846FBF7CDF96421B0FBF1F063
:104F500000EBC00101EB0010AAEB8000322101EB55
:104F600000106421B0FBF1F000F0F00A0420616849
:104F7000A0FB017003461920A9FB00513A462846C0
:104F8000FBF7B0F96421B0FBF1F00AEB001A042042
:104F90006168A0FB01510B461920A9FB00712A464C
:104FA0003846FBF79FF9834604206168A0FB015057
:104FB00003461920A9FB007001462A463846FBF734
:104FC00091F96421B0FBF1F000EBC00101EB00109E
:104FD000ABEB8000322101EB00106421B0FBF1F05B
:104FE00000F00F00504421688860BDE8F88F000091
:104FF000001001400014014010B5034699629A85E3
:10500000DA8500205864222083F84200186928B10C
:105010001868C06840F480701C68E06018684069D7
:1050200040F001001C6860611868C06840F0200012
:105030001C68E060002010BD014691F84100212865
:1050400028D18868B0F5805F0BD1086948B90A6A31
:105050001088C0F308000B685860086A801C08625A
:1050600005E00B6A581C086218780B685860C88CF9
:10507000401E80B2C88458B90868C06820F080001B
:105080000B68D8600868C06840F040000B68D860C2
:10509000002070470220FCE730B50B4605240021B4
:1050A00006E04D1C30F8155020F811504D1CE9B2A7
:1050B0005D1E8D42F5DC591E20F811200249096859
:1050C000491C014D296030BD8803002000BFFEE768
:1050D00002480068C0F30220704700000CED00E0B9
:1050E00010B5002804DB0A07130E054A135406E026
:1050F0000A07140E034A00F00F031B1FD45410BDFF
:1051000000E400E018ED00E070B5D94B00242DED6F
:10511000020B2DED108BDDE91010984205DA20F01E
:1051200000429A4201D809D141B19DED100BBDEC6E
:10513000108B02B0BDE8704000F05EBAB0F5801F81
:1051400026DA11430BD0002813DA0120FBF770F99F
:10515000BDEC108B02B0BDE8704000F059BA0220DF
:10516000FBF766F900F030FA51EC100B00F09AFAF8
:105170009EE06FF035049FEDC00B53EC102B9DEDBE
:10518000100B51EC100B00F0A9FDCDE91001084601
:1051900004EB2051C0F31304B948A1F2FF312044BD
:1051A00000F4801080F07F6282F04052224301EBD5
:1051B00020559FEDB50B119253EC102B9DED100B6C
:1051C00051EC100B00F0CAFE41EC180BA01CC0F310
:1051D00013009FEDAFDB9FEDB0EBB14E7E44032893
:1051E0006CD296ED000B51EC180B53EC102B00F029
:1051F000A3FC1DD1002D01BF96ED000BBDEC108B63
:1052000002B070BD284600F002FD41EC180B53ECD3
:105210001D2B00F063FD41EC190B53EC1E2B51ECE0
:10522000180B00F05BFD53EC192B00F079FA3FE00E
:105230009FED9D0B51EC180B53EC102B00F04EFD25
:105240009FED9B1B53EC112B00F07CFE41EC190BE6
:1052500053EC182B51EC180B00F040FD53EC192BBC
:1052600000F03CFD41EC190B002D04BF53EC192B51
:1052700051EC180B1AD0284600F0C9FC41EC1A0B6F
:1052800053EC1D2B00F02AFD53EC192B00F05AFEB5
:1052900053EC182B00F062FE41EC180B53EC1E2B64
:1052A00051EC1A0B00F01AFD53EC182B00F056FECF
:1052B000BDEC108B02B041EC100B70BD9FED7E0B6E
:1052C00051EC180B53EC102B00F02AFA41EC100BA8
:1052D00051EC180B53EC102B00F0D6FA41EC190BE3
:1052E000284600F094FC41EC1B0B53EC192B51ECBD
:1052F000190B00F0F3FC41EC1A0B714853EC1A2B1C
:10530000261851EC1A0B00F0E9FC41EC1F0B6D481C
:10531000C4F1510404F5D724B0EE4F0AF0EE6F0A41
:105320000321784400F0D2F853EC1F2B51EC100B02
:1053300000F0D4FC41EC1C0B6348B0EE4F0AF0EED9
:105340006F0A0421784400F0C1F853EC1A2B51EC99
:10535000100B00F0C3FC344353EC1C2B00F0E0F9BD
:1053600041EC1C0B002C4CDD9FED510B51EC180B4C
:1053700053EC102B00F0B2FC53EC182B00F0AEFCF9
:1053800041EC1A0B55B353EC1D2B51EC1B0B00F0E9
:10539000A5FC41EC1D0B53EC1C2B51EC1A0B00F03F
:1053A000BFF953EC192B00F099FC53EC1D2B00F0C6
:1053B000B7F953EC1A2B00F0C5FD53EC182B00F095
:1053C000CDFD41EC180B53EC1E2B51EC1B0B00F0E8
:1053D00085FC53EC182B00F0C1FD69E753EC1C2B46
:1053E00051EC1A0B00F09CF953EC192B00F076FCF1
:1053F00053EC1A2B00F0A6FD53EC182B00F0A2FD85
:1054000056E735B353EC1D2B51EC1B0B00F066FC3B
:1054100041EC1A0B53EC1C2B51EC180B00F09EFDC9
:1054200053EC192B00F05AFC53EC1A2B00F096FDAC
:1054300053EC182B00F092FD41EC180B53EC1E2B93
:1054400051EC1B0B00F04AFC53EC182B00F086FDCE
:105450002EE753EC1C2B51EC180B00F07FFD53ECA6
:10546000192B00F03BFC53EC182B00F06BFD1FE7F1
:105470000000F07F0000000000000000000050432A
:10548000645F090000000000000000000000F03F21
:10549000763C7935EF39EA3D0000E0FE422EE63FEA
:1054A0009810000000000000555555555555D53F42
:1054B000000000000000E03F00000000000000408D
:1054C00086EBF9FF1A0F0000100F000070B50446BC
:1054D0002DED028B4D1E00EBC500B0EE408AF0EEC4
:1054E000608A90ED000B35F0060017D053EC182BB6
:1054F00051EC100B00F0F2FB41EC100B6D1E04EBB5
:10550000C50090ED001B51EC100B53EC112B00F07B
:1055100007F941EC100B35F00600E7D1022D36D02B
:10552000042D1CD0062D1CBFBDEC028B70BD53ECAE
:10553000182B51EC100B00F0D1FB94ED0A1B53EC2F
:10554000112B00F0EDF853EC182B00F0C7FB94ED95
:10555000081B53EC112B00F0E3F841EC100B53EC5B
:10556000182B51EC100B00F0B9FB94ED061B53EC1B
:10557000112B00F0D5F853EC182B00F0AFFB94ED95
:10558000040B53EC102B00F0CBF841EC100B53EC58
:10559000182B51EC100B00F0A1FB94ED021B53EC07
:1055A000112B00F0BDF853EC182B00F097FB94ED95
:1055B000001B53EC112B00F0B3F8BDEC028B41EC57
:1055C000100B70BD000000009FED070B10B553ECF1
:1055D000102B9FED070B51EC100B00F055F941EC2F
:1055E000100B10BD000000000000000000000000D3
:1055F000000000000000F03F10B553EC102B51EC00
:10560000100B00F08DF841EC100B10BD00000000F5
:105610009FED050B10B553EC102B51EC100B00F067
:1056200033F941EC100B10BD000000000000000039
:1056300002465018202801DA10467047C1F12000B8
:1056400080B2FAE7FCF762FDFFF7FEF9FFF772F8A8
:10565000FFF702F8FFF736F8FFF740F9FFF75AF9BE
:10566000FFF722F9FFF702F940F2DC50FBF75CFF8D
:10567000FFF734F9FFF74EF9082207490748FDF70D
:10568000CFFD08E006480068401C05490860FAF7AD
:10569000E9FFFFF7C9F9F5E7000000203805002011
:1056A000C403002081F00041704780F00040704743
:1056B00021F00041704720F00040704721F0004287
:1056C000A2F16052B2F5801F01F0004328BFD2F171
:1056D0007F6C0BD95FEA001C43EAC20242EB5070B8
:1056E00018BF704728BF20F001007047B2F5801F37
:1056F000BCBF184670474FEA410C1CF5001F02D290
:10570000084600F08BBD70B500F092FB00000089E8
:10571000FFF7F6BF4FF00040A0F580007047000093
:1057200010B591EA030F48BF83F0004300F11E84D7
:10573000841A71EB030C05D2121943EB0C03001B06
:1057400061EB0C01DFF824E14FEA1154A4EB135C88
:105750001EEA430F18BF9EEA445F73D023EA0E038C
:10576000DCF1200E21EA045143F4801332D322FAF3
:105770000CFE10EB0E0023FA0CFE41EB0E01CCF1F7
:10578000200E03FA0EFE10EB0E0051F10001B1F5F0
:10579000801FCCF1200E32D201EB045112FA0EF22E
:1057A000BDE8104058BF7047401C38BF5FEA420256
:1057B00018BF7047002814BF20F0010041F100011C
:1057C0004FEA410313F5001F38BF7047A1F1C041F4
:1057D00000F07CBB012A43EB0302ACF1200CDCF1AE
:1057E0001F0E32BF4FF0000E23FA0CF310EB030034
:1057F00041EB0451B4EB115FD0D0A1EB045101F5A2
:10580000801149085FEA300001EB04510ED350F1DA
:10581000000038BF12FA0EFE08D1BDE81040C9E7FB
:10582000401C38BF5FEA4202CAD1C3E7BDE810405E
:105830004FEA410313F5001F38BF7047A1F1C04183
:1058400000F044BB9EEA445F08D011EA5E0FBDE859
:10585000104004BF01F0004100207047BDE8104037
:1058600070B500F0E5FA00BF64FBBE3E0000E0FF4B
:10587000491058BFC1F140415B1058BFC3F14043CC
:105880008B42EFF3008070472DE9C04130B4DFF860
:10589000A0C23CEA111418BF3CEA131400F0EC80DB
:1058A00081EA03051CEA111444EAD57418BF1CEA06
:1058B000131500F0C780A4EB05044FF0004545EA3E
:1058C000C12145EAC32341EA505143EA525304F14E
:1058D0007F74994204F500344FEAC0204FEAC22297
:1058E00008BF904200F09C804FEA13650FF240160B
:1058F000765D4FEA134506FB05F7C7F1807706FB97
:1059000007F74FEAD737A7FB03687642C8F5803818
:10591000A7FB06CE38BFA8F1010807FB08E64FF049
:10592000000EA6FB028CE6FB03CEDCF1000CCEF1F0
:10593000004E38BFAEF1010EA6FB0C584FF0000729
:105940004FF00005E6FB0E87A1FB08C6A0FB07CEC3
:1059500016EB0E0645F10005E1FB076515F1E04E7B
:105960007EBFA4F580345FEA46066D4116F18007DC
:1059700045F100054FEA17274FEA066647EA056733
:10598000A6F1DE46B6F1805F4FEA15251FD93846ED
:1059900024F0010C05EBC471BCF1FE6F01EB0C119E
:1059A00002D8F0BCBDE8008124425CBF01F5801E36
:1059B0009EEAC47F02D4F0BCBDE80081244238D402
:1059C000F0BCA1F1C041BDE8004100F07FBA4FEA50
:1059D000D22242EA43524FEAD323A7FB02864FEA80
:1059E000D02040EA415007FB03661EEA0E0F4FEA43
:1059F000D12105FB026658BFA6EB0056B6EB005658
:105A00004FEA520E4EEAC37E18EB0E0E56EB530EC3
:105A1000BDD518EB02085E417F1C55F10005B6E7C5
:105A20004FF480154FF000074FF000064FF00008CC
:105A3000ADE7F0BC4FF0000001F1C04101F00041C2
:105A4000BDE8008111EA0C1F0CEA131500D00CE030
:105A500013EA0C1F00F025804FF00000F0BC81EA33
:105A6000030101F00041BDE80081F0BCBDE8004148
:105A700081EA030100F02ABAF0BCBDE8004170B52C
:105A800000F0D6F9097EFC3E00F007B881EA030178
:105A90004FF0000001F00041704781EA030100F07F
:105AA00015BAF0BCBDE800414FF000002149704735
:105AB000FFFDFBF9F7F5F4F2F0EEEDEBE9E8E6E4D3
:105AC000E3E1E0DEDDDBDAD8D7D5D4D3D1D0CFCD5A
:105AD000CCCBCAC8C7C6C5C4C2C1C0BFBEBDBCBB93
