:020000040800F2
:1000000060100020A5020008E53D0008E339000863
:10001000E13D0008DD050008F9630008000000006C
:100020000000000000000000000000006D47000814
:100030009D090008000000009D450008115C0008B3
:10004000BF020008BF020008BF020008BF0200088C
:10005000BF020008BF020008BF020008BF0200087C
:10006000BF020008BF020008BF020008BF0200086C
:10007000BF020008BF020008BF020008BF0200085C
:10008000BF020008BF020008BF020008BF0200084C
:10009000E1050008F1050008BF020008BF020008E2
:1000A000BF020008BF020008BF020008BF0200082C
:1000B000BF020008BF020008BF020008BF0200081C
:1000C000BF020008BF020008BF020008BF0200080C
:1000D000BF020008BF020008BF020008BF020008FC
:1000E000BF020008BF020008BF020008BF020008EC
:1000F000BF020008E95C0008BF020008BF02000858
:10010000BF020008BF020008BF020008BF020008CB
:10011000355F0008455F0008BF020008BF02000805
:10012000BF020008BF020008BF020008BF020008AB
:10013000BF0200080000000000000000BF0200082D
:100140000106000811060008BF020008BF020008EF
:10015000BF020008BF020008BF020008BF0200087B
:10016000BF020008BF020008BF020008BF0200086B
:10017000BF020008BF020008BF0200080000000024
:1001800000000000BF0200080000000000000000A6
:10019000BF0200080000000000000000BF020008CD
:1001A000000000000000000000000000BF02000886
:1001B000BF020008BF020008BF020008BF0200081B
:1001C000BF02000800F002F800F05CF80AA090E816
:1001D000000C82448344AAF10107DA4501D100F002
:1001E00051F8AFF2090EBAE80F0013F0010F18BF73
:1001F000FB1A43F001031847D0830000F08300008E
:100200000A444FF0000C10F8013B13F0070408BF3C
:1002100010F8014B1D1108BF10F8015B641E05D0DA
:1002200010F8016B641E01F8016BF9D113F0080F8F
:100230001EBF10F8014BAD1C0C1B09D16D1E58BF21
:1002400001F801CBFAD505E014F8016B01F8016B58
:100250006D1EF9D59142D6D37047000000230024CB
:1002600000250026103A28BF78C1FBD8520728BFC6
:1002700030C148BF0B6070471FB508F080F81FBD44
:1002800010B510BD00F05AF91146FFF7F5FF07F061
:100290001BFA00F078F903B4FFF7F2FF03BC00F09B
:1002A0007BF900000948804709480047FEE7FEE760
:1002B000FEE7FEE7FEE7FEE7FEE7FEE7FEE7FEE716
:1002C00004480549054A064B70470000D55C000804
:1002D000C5010008600A002060100020600C0020AA
:1002E000600C002053EA020C00F069802DE9F04B0D
:1002F0004FF00006002B1FBFB3FA83F503FA05F495
:1003000024FA05F65E4012BF1643B2FA82F502FAED
:1003100005F4C5F120051EBF22FA05FC44EA0C04D1
:10032000203556EA044C4FEA144418BF641C4FF0C1
:1003300000084FF00009904271EB030C39D30029FB
:1003400019BFB1FA81F701FA07F6B0FA80F700FA9F
:1003500007F6C7F120071EBF20FA07FC46EA0C0685
:100360002037B6FBF4FCA7EB0507103F07F01F0B87
:10037000CBF120060CFA0BFB2CFA06F644BFB34671
:100380000026202FA4BF5E464FF0000B5BEA060C50
:1003900008BF4FF0010B19EB0B09ABFB027C48EBDC
:1003A0000608C01B06FB02CC0BFB03CC71EB0C0157
:1003B000C1E70B46024641464846BDE8F08B13B5FF
:1003C0004FF000004FF00001AFF30080BDE81C408B
:1003D0007047032A40F2308010F0030C00F01580C3
:1003E00011F8013BBCF1020F624498BF11F801CB38
:1003F00000F8013B38BF11F8013BA2F1040298BF9D
:1004000000F801CB38BF00F8013B11F0030300F006
:100410005A80083AC0F0088051F8043B083A51F875
:1004200004CBA0E80810F5E7121D5CBF51F8043BAF
:1004300040F8043BAFF30080D20724BF11F8013B22
:1004400011F801CB48BF11F8012B24BF00F8013B84
:1004500000F801CB48BF00F8012B70474FF00002B5
:1004600000B5134694469646203922BFA0E80C50AA
:10047000A0E80C50B1F12001BFF4F7AF090728BF85
:10048000A0E80C5048BF0CC05DF804EB890028BF01
:1004900040F8042B08BF704748BF20F8022B11F02A
:1004A000804F18BF00F8012B7047704770477047A6
:1004B00010B500F03BF8006810BD10B5044600F020
:1004C00035F8046010BD10B5203AC0F00B80B1E8DB
:1004D0001850203AA0E81850B1E81850A0E8185079
:1004E000BFF4F5AF5FEA027C24BFB1E81850A0E882
:1004F000185044BF18C918C0BDE810405FEA827C9C
:1005000024BF51F8043B40F8043B08BF7047D207B2
:1005100028BF31F8023B48BF11F8012B28BF20F853
:10052000023B48BF00F8012B7047000000487047AD
:10053000FC09002000487047FC0900207546FFF7C1
:10054000F9FFAE4605006946534620F00700854690
:1005500018B020B5FFF7B4FEBDE820404FF000060C
:100560004FF000074FF000084FF0000B21F007019B
:10057000AC46ACE8C009ACE8C009ACE8C009ACE8DE
:10058000C0098D46704710B50446AFF30080204681
:10059000BDE81040FFF77FBE01491820ABBEFEE763
:1005A0002600020070470000094901EB8001094A5A
:1005B00012680A60064901EB800191ED000ABDEE68
:1005C000C00A10EE101A09B2034A22F81010704740
:1005D000000800202B0000205008002000BFFEE78C
:1005E00010B5024801F0FDF810BD0000E404002041
:1005F00010B5024801F0F5F810BD0000E404002039
:1006000010B5024801F0EDF810BD00000C05002007
:1006100010B5024801F0E5F810BD00000C050020FF
:1006200008B5014661B9002004E00E4A125C0E4B89
:100630001A54401C0328F8DD0B48006800900EE0B7
:1006400001290CD1002005E0064B021D9A5C064BE7
:100650001A54401C0328F7DD0348006800909DED04
:10066000000A08BD2B0000200900002001460020E0
:1006700008784A7842EA0020704700002DE9FF41DF
:100680002DED020B04460D4617461E460020584924
:1006900048600875886008460761012E01D1022074
:1006A00004E0022E01D1002000E002205049C86081
:1006B000182D7AD2DFE805F00C222D3D434F555B13
:1006C000724966177979797979797979797979734C
:1006D0003A4669464748FFF77CFE0D2040EA441041
:1006E0004349086062E03A4669464248FFF771FEB6
:1006F0000C2040EA44103E49086057E03A466946FB
:100700003C48FFF766FE0E2040EA44103849086076
:100710004CE08C20374988714220C8710846009906
:1007200001600820324908610F2040EA4410086047
:100730003CE0032000EB44102D49086036E0042023
:1007400000EB44102A49086030E0052000EB44101B
:10075000274908602AE0142040EA44102449086030
:1007600024E0092040EA4410214908601EE03A468E
:1007700069462048FFF72DFE1C2040EA44101C4922
:10078000086013E03A4669461A48FFF722FE152032
:1007900040EA44101649086008E006E006E0172029
:1007A00040EA44101249086000E000BF00BF4FF06B
:1007B00000080EE0104B0F4A0D49104800F00FFEE4
:1007C0000F480068401C0E49086008F1010000F065
:1007D000FF08B8F1050FEDDB002004E00021054A19
:1007E0001154411CC8B20828F8DB06B0BDE8F081FE
:1007F0006006002013000020440000200C050020AB
:100800004800002070B52DED0A8BB0EE408A0446FA
:100810000D46544890ED000A38EE400A524880EDEB
:10082000000A006807F03AFD41EC1A0B4F4890EDC2
:10083000000B53EC102B51EC1A0B07F0DBF841ECDA
:10084000190B06F0F1FF4A4908604748006807F0B5
:1008500025FD41EC1C0B454890ED000B53EC102B93
:1008600051EC1C0B07F0F0FA41EC1A0B4148006800
:1008700007F014FD41EC1B0B53EC1A2B07F006F8A4
:1008800041EC190B06F0D0FF3A4908603A4890ED68
:10089000000A20EE080ABDEEC00A384880ED000AC2
:1008A000374890ED000A0846D0ED000A20EE200AF5
:1008B000BDEEC00A334880ED000A0068022801DD61
:1008C000022009E02F48006810F1020F02DA6FF0F1
:1008D000010001E02B4800682A4908602A4890ED91
:1008E000000A2348D0ED000A20EE200ABDEEC00A1F
:1008F000264880ED000A2148006809680844234919
:100900000968084400EE100AB8EEC00A204880EDDD
:10091000000A90ED000ADFED1F0AB4EEE00AF1EEE6
:1009200010FA02DD9FED1B0A0FE0194890ED000A56
:10093000DFED190AB4EEE00AF1EE10FA02D29FEDF3
:10094000160A02E0124890ED000A114880ED000AF4
:10095000044880ED008A0E4890ED000ABDEC0A8B39
:1009600070BD0000540200204802002070020020E8
:100970004C02002050020020580200206402002097
:100980005C02002068020020600200206C0200204F
:100990004402002000008C4200008CC2704700001E
:1009A00010B52DED028BDB480078012804D0022819
:1009B00049D003287ED181E0D748B0F90000012852
:1009C00002DD6FF0040008E0D348B0F90000B0F198
:1009D000FF3F01DA052000E0002000EE100AB8EE2B
:1009E000C00ACE4880ED000ACD48B0F900000128C9
:1009F00002DD6FF0040008E0C948B0F90000B0F172
:100A0000FF3F01DA052000E0002000EE100AB8EEFA
:100A1000C00AC44880ED000AC349B1F90010012999
:100A200002DD6FF0040108E0BF49B1F90010B1F137
:100A3000FF3F01DA052100E00021084607F09DF99B
:100A4000BA4A03C274E0BA480078032802D00428E6
:100A500020D10FE0B1EE040AB04880ED000AB1EEFB
:100A6000040AB04880ED000A9FEDB20BAF4880ED5C
:100A7000000B21E0B9EE040AA84880ED000AB9EEA7
:100A8000040AA84880ED000A9FEDAC0BA74880ED52
:100A9000000B11E09FEDAB0AA04880ED000A9FED2E
:100AA000A90AA04880ED000A9FEDA70B9F4880EDA2
:100AB000000B00E03BE000BF00BF39E09C4800783D
:100AC000032802D0042820D10FE0B1EE040A934895
:100AD00080ED000AB9EE040A924880ED000A9FED0D
:100AE0009A0B924880ED000B1FE0B9EE040A8B4888
:100AF00080ED000AB1EE040A8A4880ED000A9FEDFD
:100B0000920B8A4880ED000B0FE09FED8E0A834820
:100B100080ED000A9FED8B0A824880ED000A9FED70
:100B20008A0B824880ED000B00BF00BF00E000BFD1
:100B300000BF7A4890ED000AB5EEC00AF1EE10FA57
:100B400007DD7548B0F900000A2802DB9FED7D0A39
:100B500013E0724890ED000AB5EEC00AF1EE10FA0B
:100B600008D26D48B0F9000010F10A0F02DC9FEDC9
:100B7000750A02E0694890ED000A684880ED000AB5
:100B8000684890ED000AB5EEC00AF1EE10FA07DDF4
:100B90006348B0F900000A2802DB9FED6A0A13E0FF
:100BA000604890ED000AB5EEC00AF1EE10FA08D2E6
:100BB0005B48B0F9000010F10A0F02DC9FED610AFA
:100BC00002E0584890ED000A564880ED000A9FED7B
:100BD0005E0B53EC102B554890ED000B51EC100BB5
:100BE00007F030FA07D25048B0F90000082802DBBD
:100BF0009FED550B21E09FED540B53EC102B4B4810
:100C000090ED000B51EC100B07F0E2F808D24648CB
:100C1000B0F9000010F1080F02DC9FED4B0B0CE067
:100C20009FED4B0B53EC102B404890ED000B51EC1B
:100C3000100B07F009F941EC100B3C4880ED000B5C
:100C4000364890ED000A4448D0ED000AB4EE600A40
:100C5000F1EE10FA11D0002407E0304890ED000AC0
:100C60000C2003F0A1FD601CC4B2052CF5DB2B4861
:100C700090ED000A384880ED000A2A4890ED000AFD
:100C80003648D0ED000AB4EE600AF1EE10FA11D049
:100C9000002407E0234890ED000A0D2003F084FDB6
:100CA000601CC4B2052CF5DB1E4890ED000A2B48F1
:100CB00080ED000A2A48006807F0F0FA41EC180BB2
:100CC0001A4890ED000B53EC102B51EC180B06F06A
:100CD000E9FF1CD000240FE0144890ED000B51EC0C
:100CE000100B06F0A1FD08EE100AB0EE480A0E2027
:100CF00003F05AFD601CC4B2052CEDDB0B4890EDEF
:100D0000000B51EC100B06F08FFD15490860BDEC8F
:100D1000028B10BD980100204801002054010020E2
:100D20004A010020580100205001002070010020DD
:100D30009B010020000000000000144000000000A3
:100D4000000014C0000000000000000000000000CF
:100D50009A9999999999E93F5C01002060010020D6
:100D60006401002000B52DED108B81B0B0EE408AFB
:100D7000F0EE608A9FED310BB0EE409AF0EE609A93
:100D80009FED300A8DED000A9FED2F0B53EC102BD9
:100D900051EC180B06F02EFE41EC1B0B9FED2C0BBB
:100DA00053EC102B07F050F841EC1A0BB0EE4A0A46
:100DB000F0EE6A0A05F080FEB0EE409AF0EE609A1E
:100DC00025490988480006F0D8FF41EC1E0B53EC7A
:100DD000192B9FED220B51EC100B06F00BFE41EC92
:100DE0001F0B53EC1E2B06F051FD41EC1D0B53EC79
:100DF0001D2B9FED1A0B51EC100B06F0FBFD41EC87
:100E00001C0BB0EE4C0AF0EE6C0A05F079FCB0EE6B
:100E100040BAF0EE60BA9FED130B53EC102B51EC7F
:100E20001B0B07F011F841EC1A0B06F0FDFC0090CB
:100E30009DED000A01B0BDEC108B00BD000000006C
:100E4000000000000000000000000000008066407C
:100E50001F85EB51B81E09409A00002000000000D9
:100E600000208C40E79AD56194A94C4010B52DED37
:100E7000028B9FED590AB0EE408A5848007800284E
:100E80004AD157480078042846DB554800780428A2
:100E900019D154480078B0B153480078012805D1E1
:100EA000B1EE480A514880ED000A0CE04E48007847
:100EB000022803D14D4880ED008A04E09FED4C0AE2
:100EC0004A4880ED000A4648007805281AD145486E
:100ED0000078B8B144480078012803D1434880ED38
:100EE000008A1EE040480078022805D1B1EE480A89
:100EF0003E4880ED000A14E09FED3D0A3B4880ED3E
:100F0000000A0EE03648007804280ADA9FED380A15
:100F1000364880ED000A04E09FED350A334880ED45
:100F2000000A2F480078042804DA9FED310A2F4880
:100F300080ED000A2D4890ED000A2E4880ED000A51
:100F40002D4880ED000A294890ED000A2B48D0ED8D
:100F5000000AB4EE600AF1EE10FA15D1264890EDC1
:100F6000000A2748D0ED000AB4EE600AF1EE10FA4C
:100F70000AD1204890ED000A2248D0ED000AB4EED4
:100F8000600AF1EE10FA23D000240DE01A4890ED2B
:100F9000000A0F2003F008FC164890ED000A10200C
:100FA00003F002FC601CC4B2042CEFDB0F4890ED90
:100FB000000A124880ED000A0F4890ED000A104820
:100FC00080ED000A0B4890ED000A0E4880ED000A03
:100FD000BDEC028B10BD000000009241F400002027
:100FE0009C010020180100209B0100208C020020A1
:100FF00000000000980200209402002090020020CF
:101000009C020020A002002010B5002202214F48BF
:1010100001F0B2FA002204214C4801F0ADFA00229E
:1010200001214A4801F0A8FA49480078C0B10124DA
:1010300006E09FED480A204603F099FB601CC4B20D
:10104000052CF6DB062406E09FED420A204603F05D
:10105000ABFB601CC4B2112CF6DB00203C490870CD
:1010600001F090FA00213C4AD2E90032C31A61EB48
:10107000020040F2DC529A1A884166D33748007861
:10108000C0B9012411E0052C0DD0112C0BD006E0C5
:10109000204603F085FA4FF4FA6001F05FF930481A
:1010A000005D0828F4D1601CC4B2152CEBDB0120D4
:1010B0002A4908702B480078C8B9012012E0052899
:1010C0000ED011280CD000BF2749095C274A32F8FE
:1010D00010209142F8D026490968491C244A116021
:1010E000411CC8B21B28EADB01201E490870002001
:1010F0001F4908601948007801280CD11948007868
:10110000012808D11B480078012804D11A4800782A
:10111000012800D100E00020184908700846007836
:1011200070B101220221094801F026FA01220421AE
:10113000064801F021FA01221146044801F01CFA88
:1011400001F020FA0021044A03C210BD000402404D
:10115000A103002000000000B00300209D03002038
:101160000E0700209E030020C806002098090020DA
:10117000B8030020FD010020FC010020A003002096
:1011800072B600BFFEE7000010B57348007858B98A
:101190009FED720A724880ED000A724880ED000AE5
:1011A000714880ED000AD6E06B4800780028FAD03C
:1011B0006E4890ED000A6E48D0ED000A30EE600AED
:1011C0006C4880ED000A002001466A4A92ED000A50
:1011D00003F000FA634880ED000A90ED000AF0EE9B
:1011E000000AB4EEE00AF1EE10FA0BD890ED000A16
:1011F000F8EE000AB4EEE00AF1EE10FA02DB9FED21
:10120000570A02E0574890ED000A564880ED000A60
:1012100090ED000AB5EEC00AF1EE10FA01D00120FF
:1012200000E0002054490870544890ED000A5448EA
:10123000D0ED000A30EE600A524880ED000A00202E
:101240000146504A92ED000AFFF7DCFA444880ED6F
:10125000000A90ED000AF0EE000AB4EEE00AF1EEAA
:1012600010FA0BD890ED000AF8EE000AB4EEE00A8E
:10127000F1EE10FA02DB9FED390A02E0384890EDFA
:10128000000A374880ED000A90ED000AB5EEC00A6A
:10129000F1EE10FA01D0012000E000203A49087078
:1012A0003A48007828B93448007810B908460078E0
:1012B00008B1012000E0002035490870354890ED64
:1012C000000A2948D0ED000AB4EE600AF1EE10FAE7
:1012D00004D090ED000A2F4880ED000A2E4890EDD2
:1012E000000A2048D0ED000AB4EE600AF1EE10FAD0
:1012F0000DD090ED000AB1EE400A2848007803F0C6
:1013000053FA184890ED000A234880ED000A24485B
:1013100090ED000A1248D0ED000AB4EE600AF1EE3A
:1013200010FA0BD090ED000A1E48007803F03CFA4A
:101330000B4890ED000A1A4880ED000A1A48007820
:10134000012803D019480078012801D1012000E0CC
:1013500000201749087010BD980000200000000010
:10136000F0010020E4010020E001002088000020BE
:101370007C000020AC010020F90100208400002046
:1013800078000020B0010020FA010020F8010020C0
:10139000FB010020E8010020EC0100205F0000209C
:1013A000F401002060000020C4020020C5020020DB
:1013B000CC02002010B5024692F82030012B01D05B
:1013C000022B06D110684069084314686061002050
:1013D00010BD506A40F4802050620120F8E7F0B55B
:1013E00004460D461E4694F8207020688368A8685D
:1013F00000B900E000BF012F01D0022F7DD103F022
:10140000806030B903F0006018B903F08050002804
:101410007ED0C3F30161012088403060A86860B9C4
:10142000B5F800C0E86840EA4C5C206800F5C07080
:1014300000EB0110C0F800C00FE0D5E901C040EAA0
:10144000CC00D5F80CC040EA0C00D4F800C00CF574
:10145000C07C0CEB011CCCF80000D5F810C0206853
:1014600000F5C07000EB0110C0F804C0287D012811
:101470000ED1206800F5C07000EB0110406840F408
:10148000807C206800F5C07000EB0110C0F804C03B
:10149000D079000692F806C040EA0C4092F805C0E8
:1014A00040EA0C2092F804C040EA0C00D4F800C0D6
:1014B0000CF5C07C0CEB011CCCF80C00D0780006BD
:1014C00092F802C040EA0C4092F801C040EA0C20B9
:1014D00092F800C040EA0C00D4F800C00CF5C07CC3
:1014E0000CEB011CCCF80800206800F5C07000EB84
:1014F0000110006840F0010C01E00FE008E02068F6
:1015000000F5C07000EB0110C0F800C00020F0BD75
:10151000606A40F4001060620120F8E7606A40F4FD
:10152000802060620120F2E7F0B504460A46216897
:1015300094F82050012D01D0022D7ED1424901F5B1
:101540000071086840F001000860086820F47C50D1
:1015500008600868566A40EA06200860107D00F0BE
:101560001F06012000FA06F3C8699843C861A1F577
:101570000071D069C8B9D1F80C029843C1F80C02C7
:10158000908880B2968940EA064601F51070576946
:1015900040F83760108880B2168940EA064601F5A7
:1015A0001070576900EBC7004660D069012819D157
:1015B000D1F80C021843C1F80C02908880B216884A
:1015C00040EA064601F51070576940F83760908987
:1015D00080B2168940EA064601F51070576900EBA3
:1015E000C7004660906928B9D1F804029843C1F851
:1015F000040204E0D1F804021843C1F8040210699F
:1016000028B9D1F814029843C1F8140204E0D1F8C3
:1016100014021843C1F81402106A012804D1D1F849
:101620001C021843C1F81C02D1F8000220F001008E
:10163000C1F800020020F0BDFFE7606A40F480209E
:1016400060620120F7E7000000640040704770B559
:10165000044694F82050012D01D0022D7DD151B9BE
:101660002068C06800F0030080B9606A40F4001090
:101670006062012070BD2068006900F0030028B995
:10168000606A40F4001060620120F3E7206800F512
:10169000D87000EB0110006800F0040090609068C2
:1016A00040B9206800F5D87000EB01100068400DCB
:1016B000106007E0206800F5D87000EB01100068AA
:1016C000C0085060206800F5D87000EB0110006879
:1016D00000F00200D060206800F5D87000EB011027
:1016E000406800F00F00082802D30820106108E0CD
:1016F000206800F5D87000EB0110406800F00F0082
:101700001061206800F5D87000EB0110406800F40B
:101710007F40000A9061206800F5D87000EB01104E
:101720004068000C5061206800F5D87000EB011093
:1017300080681870206800F5D87000EB0110806890
:1017400000F47F40000A5870206800F5D87000EB64
:101750000110806800F47F0000E03CE0000C98700D
:10176000206800F5D87000EB01108068000ED8707A
:10177000206800F5D87000EB0110C068187120686F
:1017800000F5D87000EB0110C06800F47F40000A3B
:101790005871206800F5D87000EB0110C06800F4A3
:1017A0007F00000C9871206800F5D87000EB0110E4
:1017B000C068000ED87131B92068C06840F02000C0
:1017C0002668F06005E02068006940F02000266887
:1017D000306100204EE7606A40F4802060620120A2
:1017E00048E72DE9F05F0446002520684669206837
:1017F000D0F80490206887682068D0F80CA0206892
:10180000D0F810B02068D0F8188006F00100002849
:1018100055D007F00100C0B101202168886007F0B1
:10182000020018B1204600F028FD0EE007F0040089
:1018300010B145F4006508E007F0080010B145F468
:10184000805502E0204600F017FD07F48070C8B113
:101850004FF480702168886007F4007018B120464A
:1018600000F00DFD0EE007F4806010B145F4005566
:1018700008E007F4006010B145F4804502E020461E
:1018800000F0FCFC07F48030C8B14FF480302168D0
:10189000886007F4003018B1204600F0F2FC0EE03A
:1018A00007F4802010B145F4004508E007F400205B
:1018B00010B145F4803502E0204600F0E1FC06F06E
:1018C000080038B10AF0100020B145F4007510206E
:1018D0002168C86006F0040040B10AF0080028B191
:1018E00008202168C860204600F01EFA06F00200B9
:1018F00038B12068C06800F0030010B1204600F045
:1019000015FA06F0400038B10BF0100020B145F494
:10191000806510202168086106F0200040B10BF0BE
:10192000080028B1082021680861204600F0D0FB9B
:1019300006F0100038B12068006900F0030010B113
:10194000204600F0C7FB06F4003040B109F010005B
:1019500028B1102021684860204600F05DFC06F4A4
:10196000803040B109F0080028B1082021684860A3
:10197000204600F087FC06F4004088B309F004001C
:1019800078B306F4807020B108F0010008B145F08A
:10199000010506F4007020B108F0020008B145F01E
:1019A000020506F4806020B108F0040008B145F09B
:1019B000040506F40060A0B108F0700088B108F0DA
:1019C0007000402817D006DC10280BD020280CD03F
:1019D000302819D10CE0502810D0602814D110E024
:1019E0001DE019E045F008050FE045F010050CE09A
:1019F00045F0200509E045F0400506E045F080058A
:101A000003E045F4807500E000BF00BF20688069F6
:101A100020F07000216888610420216848602DB1A1
:101A2000606A284360622046FFF710FEBDE8F09F21
:101A300070B504460CB9012070BD94F8200010B9AF
:101A4000204600F0AFF82068006840F001002168EF
:101A5000086000F097FD05460DE000F093FD401B87
:101A60000A2808D9606A40F400306062052084F8D2
:101A700020000120E0E72068406800F00100002815
:101A8000EBD02068006820F002002168086000F0B8
:101A900079FD05460DE000F075FD401B0A2808D9C8
:101AA000606A40F400306062052084F82000012064
:101AB000C2E72068406800F002000028EBD1207ED9
:101AC000012806D12068006840F080002168086085
:101AD00005E02068006820F0800021680860607ED2
:101AE000012806D12068006840F0400021680860A5
:101AF00005E02068006820F0400021680860A07EB2
:101B0000012806D12068006840F0200021680860A4
:101B100005E02068006820F0200021680860E07E71
:101B2000012806D12068006820F0100021680860B4
:101B300005E02068006840F0100021680860207F00
:101B4000012806D12068006840F00800216808607C
:101B500005E02068006820F0080021680860607FC8
:101B6000012806D12068006840F004002168086060
:101B700005E02068006820F0040021680860D4E9CE
:101B80000201084321690843616908436168491EED
:101B900008432168C86100206062012084F82000A9
:101BA000002049E710B586B00446142101A8FEF7CD
:101BB00055FC5749206888424AD156480068401C65
:101BC000544908600846006801280FD100BF002072
:101BD00000905148006840F000704F490860084686
:101BE000006800F00070009000BF00BF00BF002040
:101BF000009049481038006840F00100464910390B
:101C000008600846006800F00100009000BF00BFB7
:101C10004FF4C05001900220029000200390032056
:101C200004900920059001A93C4800F0ABFB00227C
:101C30001146142000F080FE142000F069FE0022FE
:101C40001146152000F078FE152000F061FE5DE0E1
:101C500033492068884259D100BF002000902E48A7
:101C6000006840F080602C4908600846006800F079
:101C70008060009000BF00BF26480068401C2549D6
:101C800008600846006801280FD100BF00200090BE
:101C90002148006840F000701F490860084600684D
:101CA00000F00070009000BF00BF00BF0020009057
:101CB00019481038006840F00200174910390860D0
:101CC0000846006800F00200009000BF00BF4FF41B
:101CD00040500190022002900020039003200490C5
:101CE0000920059001A90F4800F04CFB0022114685
:101CF000402000F021FE402000F00AFE00221146A4
:101D0000412000F019FE412000F002FE06B010BD97
:101D100000640040D004002040380240000002402F
:101D200000680040000402407047000010B52DED2F
:101D3000048B0446CD4BCE4A00212046FFF787FC9A
:101D4000CB48006813287DD008DC08280DD009286E
:101D500044D0102877D0122876D1D0E0142874D03F
:101D6000172873D01828F7D167E1C0490978BF4A0E
:101D7000527841EA022108B205F0FFFF41EC190B4D
:101D80009FEDBC0B53EC102B05F034FE41EC180B0F
:101D900005F04AFDB9490860B4498978B34AD27858
:101DA00041EA022108B205F0E8FF41EC190B9FED72
:101DB000B10B53EC102B05F01DFE41EC180B05F098
:101DC00033FDAF490860AF484078401CAD494870CA
:101DD000AD48407D401CAC4948753FE1A3490978B6
:101DE000A24A527841EA022108B205F0C6FF41EC4E
:101DF000190B9FEDA00B53EC102B05F0FBFD41ECF4
:101E0000180B05F011FDA149086098498978974A97
:101E1000D27841EA022108B205F0AFFF41EC190B7C
:101E20009FED940B53EC102B05F0E4FD41EC180BE7
:101E300005F0FAFC9649086092488078401C914968
:101E4000887004E084E008E007E12FE0A9E08E4814
:101E5000807D401C8C49887500E18448FEF706FCB3
:101E60008C4948808C48006806F018FA41EC180B41
:101E70008849488805F098FF41EC190BB0EE481AE4
:101E8000F0EE681AB0EE490AF0EE690A02F072FA52
:101E9000824880ED000A7B48C078401C7949C870B0
:101EA0007948C07D401C7849C875D7E06F48FEF777
:101EB000DDFB784988807A48006806F0EFF941EC4C
:101EC000180B7449888805F06FFF41EC190BB0EED0
:101ED000481AF0EE681AB0EE490AF0EE690A02F00C
:101EE00049FA704880ED000A66480079401C65494F
:101EF00008716548007E401C63490876AEE05B4887
:101F0000FEF7B4FB6349C8806748006806F0C6F96D
:101F100041EC180B5F49C88805F046FF41EC190BEE
:101F2000B0EE481AF0EE681AB0EE490AF0EE690A0F
:101F300002F020FA5D4880ED000A52484079401CCA
:101F4000504948715048407E401C4F49487685E0D2
:101F50004648FEF78BFB4F4908815548006806F05C
:101F60009DF941EC180B4B49088905F01DFF41EC28
:101F7000190BB0EE481AF0EE681AB0EE490AF0EE0E
:101F8000690A02F0F7F94B4880ED000A3D48807974
:101F9000401C3C4988713C48807E401C3A49887608
:101FA0005CE03248FEF762FB00EE100AB8EE400A31
:101FB000414880ED000A4148008805F0F5FE41ECFB
:101FC000180B3D48006806F069F941EC190BB0EEBA
:101FD000481AF0EE681AB0EE490AF0EE690A02F00B
:101FE000C9F9374880ED000A014691ED000ADFED9E
:101FF000350A30EE600ABDEEC00A10EE100A002865
:1020000001DB014600E0414200EE101AB8EEC00AC2
:102010002B4981ED000A084690ED000ABDEEC00A8A
:1020200010EE100A02B20A21274804F0C7F9154839
:10203000C079401C1349C87110E00C48FEF716FB2C
:1020400000EE100AB8EE400A204880ED000A0D4864
:10205000007A401C0B49087200E000BF00BF00205E
:1020600003490860BDEC048B10BD00001B0000207C
:1020700078060020000000000000304070000020C2
:102080007400002004070020C8060020780000200B
:102090007C000020F4070020B4000020A4000020F1
:1020A000B8000020A8000020BC000020AC000020E8
:1020B000C0000020B00000201C01002040010020D2
:1020C0002C01002000005442D409002020010020EF
:1020D0007047000010B50446444B454A0121204694
:1020E000FFF7B5FA42480088C0F34710414908702D
:1020F0003F48007800F01F003F490870084600780C
:10210000092820D008DC01280DD0032835D0042868
:102110003FD0052866D148E0142853D0152821D097
:1021200017285FD159E0354832490978405C401C96
:102130003249304A127888542C48007930492D4A67
:10214000127888544FE00120FEF76AFA2D48294999
:10215000097800EB810080ED000A26480078FEF740
:1021600023FA40E00120FEF75BFA2648214909786E
:1021700000EB810080ED000A35E00120FEF750FA07
:10218000BCEEC00A10EE100A1F491A4A1278885491
:1021900029E00120FEF744FABCEEC00A10EE100A56
:1021A0001A49144A127888541DE00020FEF738FAC4
:1021B000BCEEC00A10EE100AC1B214480D4A1278E3
:1021C000815410E00120FEF72BFA114809490978E3
:1021D00000EB810080ED000A05E00E480349096824
:1021E000016000E000BF00BF10BD00002B00002018
:1021F000AC0600204C0000204D000020C806002046
:102200000E0700202C070020CC070020E00700204C
:102210007C07002050000020704770B5044694F8F9
:102220002000012822D1022084F8200020680068C4
:1022300020F001002168086000F0A4F905460DE0D7
:1022400000F0A0F9401B0A2808D9606A40F4003069
:102250006062052084F82000012070BD206840687D
:1022600000F001000028EBD16062F6E7606A40F4FC
:10227000002060620120F0E77047704770477047A8
:1022800070477047704770B50446A56D00F07AF945
:10229000064694F83500022808D08020606500BF0B
:1022A000002084F8340000BF012070BD2068006861
:1022B00020F01600216808602068406920F0800046
:1022C00021684861206C08B9A06C28B120680068BA
:1022D00020F00800216808602068006820F00100F4
:1022E0002168086010E000F04DF9801B05280BD92B
:1022F00020206065032084F8350000BF002084F8AA
:10230000340000BF0320D0E72068006800F001001F
:102310000028E8D194F85C103F208840A860012094
:1023200084F8350000BF002084F8340000BF00BFEF
:10233000BBE7014691F83500022803D080204865AC
:1023400001207047052081F835000868006820F0FA
:1023500001000A6810600020F3E7000070B5044631
:1023600000F010F906462546681C10B104480078B4
:10237000054400BF00F006F9801BA842FAD370BDE7
:10238000DC040020F8B502460B460025002400209E
:102390000021D1E0012606FA01F51E6806EA0504CF
:1023A000AC4274D11E7906F00306012E04D01E79CA
:1023B00006F00306022E13D190684F000326BE409C
:1023C000B0434F00DE68BE40304390605068012645
:1023D0008E40B0431E79C6F300168E4030435060E5
:1023E0001E7906F00306032E09D0D0684F0003269D
:1023F000BE40B0434F009E68BE403043D0601E795F
:1024000006F00306022E13D1CF0802F1200656F87B
:1024100027004E07F70E0F26BE40B0434F07FF0EB2
:102420001E69BE403043CF0802F1200646F827005F
:1024300010684F000326BE40B0431E7906F0030625
:102440004F00BE40304310605E6806F44036002EF8
:1024500071D000BF00260096394E366846F480469B
:10246000374F3E603E46366806F48046009600BF11
:1024700000BF344E8F0856F827008E07370F0F26FF
:10248000BE40B043304EB24202D100261FE052E0BF
:102490002E4EB24201D1012619E02D4EB24201D199
:1024A000022614E02B4EB24201D103260FE02A4E41
:1024B000B24201D104260AE0284EB24201D10526DB
:1024C00005E0274EB24201D1062600E007268F071D
:1024D0003F0FBE4030431B4E8F0846F82700214E69
:1024E0003068A0435E6806F4801606B120431D4E96
:1024F0003060361D3068A0435E6806F4001606B1F1
:102500002043184E361D3060164E361F3068A043EB
:102510005E6806F4003606B12043124E361F306066
:10252000361F3068A0435E6806F4803606B120434B
:102530000C4E083E3060491C1029FFF42BAFF8BD4B
:1025400044380240083801400000024000040240C4
:1025500000080240000C024000100240001402403B
:1025600000180240083C0140024613690B400BB1C1
:10257000012000E0002070470AB1816101E00B04F6
:10258000836170470148006870470000D404002050
:1025900070B504460CB9012070BD94F83D0028B90F
:1025A000002084F83C00204600F0DAF8242084F86B
:1025B0003D002068006820F0010021680860206864
:1025C000006840F40040216808602068006820F43A
:1025D00000402168086000F00FFB05465C49606818
:1025E000884206D85B48854201D2012007E00020DE
:1025F00005E05948854201D2012000E00020012871
:1026000000D1C9E75548B5FBF0F62068406820F0D6
:102610003F003043216848604D496068884201D8D6
:10262000701C07E04FF4967070434FF47A71B0FB62
:10263000F1F0401C2168096A21F03F01084321683C
:10264000086243496068884214D8681E616849007E
:10265000B0FBF1F0401CC0F30B00042801D20420B1
:102660003DE0681E61684900B0FBF1F0401CC0F31A
:102670000B0034E0A06838B9681E616801EB4101C5
:10268000B0FBF1F0401C0AE0681E616801EBC1027A
:1026900002EB0111B0FBF1F0401C40F48040C0F3AC
:1026A0000B0008B901201AE0A06848B9681E6168EB
:1026B00001EB4101B0FBF1F0401CC0F30B000CE05A
:1026C000681E616801EBC10202EB0111B0FBF1F081
:1026D000401CC0F30B0040F4804040F400402168EF
:1026E000C9694CF6FF72914308432168C861D4E977
:1026F000070108432168096821F0C00108432168E7
:102700000860D4E9031008432168896848F2FF3261
:102710009143084321688860D4E905010843216892
:10272000C96821F0FF0108432168C860206800687B
:1027300040F001002168086000202064202084F817
:102740003D000020206384F83E0000BF24E7000025
:10275000A086010080841E0000093D0040420F0059
:1027600010B586B00446142101A8FDF777FE2A496A
:10277000206888424DD100BF0020009027480068A3
:1027800040F00400254908600846006800F0040095
:10279000009000BF00BF00BF002000900846006806
:1027A00040F0010008600846006800F00100009059
:1027B00000BF00BF48150190122002900020039036
:1027C000032004900420059001A91548FFF7DAFDC5
:1027D0004FF480700190122002900020039003209B
:1027E00004900420059001A90E48FFF7CBFD00BF1F
:1027F0000020009009481030006840F400000749AC
:10280000103108600846006800F40000009000BF26
:1028100000BF06B010BD0000005C00403038024030
:10282000000802400000024003480068034909789C
:102830000844014908607047D4040020DC040020EB
:1028400010B50D48006840F400700B490860084658
:10285000006840F4806008600846006840F48070BA
:102860000860032000F0A6F80F2000F007F800F041
:102870002BF8002010BD0000003C024070B504465B
:102880000E4800784FF47A71B1FBF0F00C490968FA
:10289000B1FBF0F5284600F0CFFC08B1012070BD77
:1028A000102C07D200222146501E00F045F80548A2
:1028B000046001E00120F2E70020F0E7DC040020E2
:1028C000E0040020D804002008B500BF00200090DC
:1028D0000E48006840F480400C49086008460068D3
:1028E00000F48040009000BF00BF00BF00200090B7
:1028F000081F006840F08050091F08600846006803
:1029000000F08050009000BF00BF08BD4438024076
:102910000146084600280DDB00BF00BF00F01F0382
:1029200001229A4043099B0003F1E023C3F80021F0
:1029300000BF00BF00BF70472DE9F05F80460D4625
:102940001646002703F0BEFE074639462A463346A0
:1029500001F00700C0F1070ABAF1040F02D94FF0E5
:10296000040A01E0C0F1070AD14600F1040ABAF1F5
:10297000070F02D24FF0000A01E0A0F1030AD4468B
:102980004FF0010A0AFA09FAAAF1010A0AEA020A50
:102990000AFA0CFA4FF0010B0BFA0CFBABF1010B2E
:1029A0000BEA030B4AEA0B042146404603F092FE71
:1029B000BDE8F09F00BF00F00702064B19684FF614
:1029C000FF031940044B0B4343EA0221014B1960FA
:1029D00000BF70470CED00E00000FA0538B5002498
:1029E00000BF002000901D48006840F080501B4947
:1029F00008600846006800F08050009000BF00BFEB
:102A0000012017490864FFF7BDFD044607E0FFF702
:102A1000B9FD001BB0F57A7F01D9032038BD1148FC
:102A2000406800F48030B0F5803FF0D101200C49BF
:102A30004864FFF7A7FD044607E0FFF7A3FD001B6E
:102A4000B0F57A7F01D90320E8E70648406800F432
:102A50000030B0F5003FF0D10020DFE74038024001
:102A600000000E420070004070B504460D460CB9DF
:102A7000012070BD5848006800F00F00A84209D23C
:102A800055490D700846006800F00F00A84201D0BB
:102A90000120EEE7207800F0020002281DD1207806
:102AA00000F00400042805D14C48006840F4E050D0
:102AB0004A490860207800F00800082805D14748F6
:102AC000006840F46040454908604448006820F0D0
:102AD000F000A168084341490860207800F0010037
:102AE000A8B36068012807D13C4808380068C0F3E3
:102AF0004040B8B90120BCE76068022802D0606895
:102B0000032807D1354808380068C0F3406048B949
:102B10000120AEE7314808380068C0F3400008B92A
:102B20000120A6E72D48006820F0030061680843F3
:102B30002A490860FFF726FD064609E0FFF722FD57
:102B4000801B41F28831884202D9032091E707E0D7
:102B50002248006800F00C006168B0EB810FEDD1F5
:102B60001D48006800F00F00A84209D91A490D70ED
:102B70000846006800F00F00A84201D0012078E765
:102B8000207800F00400042807D11448006820F4DD
:102B9000E050E168084311490860207800F008001F
:102BA000082808D10D48006820F46040216940EAF7
:102BB000C1000A49086000F03FF808490968C1F3FC
:102BC0000311074A515CC84006490860064800687E
:102BD000FFF754FE00204CE7003C0240083802405A
:102BE00092830008E0040020D80400200148006817
:102BF00070470000E004002000B5FFF7F7FF04492C
:102C00000968C1F38221034A515CC84000BD00003D
:102C100008380240A283000800B5FFF7E7FF044927
:102C20000968C1F34231034A515CC84000BD00004D
:102C300008380240A28300082DE9F047002400254F
:102C40000026A146A2463F48006800F00C0030B1C3
:102C5000042807D0082808D00C286BD138E0DFF80A
:102C6000E8A06AE0DFF8E4A067E03648001F0068EB
:102C700000F03F043348001F006800F4800078B182
:102C800032483049091F0968C1F38811A0FB01705F
:102C90000146224600233846FDF724FB05460DE099
:102CA00029482849091F0968C1F38811A0FB01714F
:102CB000224600233846FDF715FB05462148001F34
:102CC0000068C0F30140401C4600B5FBF6FA34E052
:102CD0001C48001F006800F03F041A48001F0068ED
:102CE00000F4800078B119481649091F0968C1F33A
:102CF0008811A0FB01700146224600233846FDF7EB
:102D0000F1FA05460EE010480E49091F0968C1F3A3
:102D10008811A0FB01700146224600233846FDF7CA
:102D2000E1FA05460748001F0068C0F30279B5FBC9
:102D3000F9FA02E0DFF810A000BF00BF5046BDE87E
:102D4000F0870000083802400024F40000127A00E6
:102D5000F8B504460CB90120F8BD207800F0010058
:102D600000286FD0FE48006800F00C0004281BD03B
:102D7000FB48006800F00C00082807D1F848001F45
:102D8000006800F48000B0F5800F0DD0F4480068B2
:102D900000F00C000C2813D1F148001F006800F46B
:102DA0008000B0F5800F0BD1ED4808380068C0F303
:102DB0004040002859D06068002856D10120CBE758
:102DC00000BF6068B0F5803F08D1E548083800686A
:102DD00040F48030E249083908601EE06068B0F5D0
:102DE000A02F0DD1DE480838006840F48020DC496F
:102DF000083908600846006840F4803008600CE03C
:102E0000D7480838006820F48030D5490839086070
:102E10000846006820F48020086000BF606890B118
:102E2000FFF7B0FB054606E0FFF7ACFB401B64284C
:102E300001D9032090E7CA4808380068C0F3404031
:102E40000028F1D011E0FFF79DFB054606E0FFF7F3
:102E500099FB401B642801D903207DE7C04808384E
:102E60000068C0F340400028F1D1207800F0020053
:102E700002286BD1BA48006800F00C00B8B1B8481D
:102E8000006800F00C00082805D1B548001F006854
:102E900000F4800058B1B248006800F00C000C2823
:102EA0001CD1AF48001F006800F48000B0B9AC48E6
:102EB00008380068C0F3400020B1E068012801D064
:102EC000012049E7A6480838006820F0F800216989
:102ED00040EAC100A2490839086037E0E06800B361
:102EE0000120A0490860FFF74DFB054606E0FFF70B
:102EF00049FB401B022801D903202DE798480838D8
:102F00000068C0F340000028F1D0954808380068F8
:102F100020F0F800216940EAC100914908390860B1
:102F200014E000208F490860FFF72CFB054606E0FF
:102F3000FFF728FB401B022801D903200CE7884833
:102F400008380068C0F340000028F1D1207800F074
:102F5000080008282CD16069A8B1012082490860C6
:102F6000FFF710FB054606E0FFF70CFB401B0228AD
:102F700001D90320F0E67A486C300068C0F34000C5
:102F80000028F1D014E0002077490860FFF7FAFA32
:102F9000054606E0FFF7F6FA401B022801D9032098
:102FA000DAE66F486C300068C0F340000028F1D1C9
:102FB000207800F00400042870D1002768483830D9
:102FC000006800F0805090B900BF00200090644875
:102FD0003830006840F08050614938310860084658
:102FE000006800F08050009000BF00BF01275F48DC
:102FF000006800F48070B0B95C48006840F48070EC
:103000005A490860FFF7BEFA054606E0FFF7BAFA2C
:10301000401B022801D903209EE65448006800F4B2
:1030200080700028F2D000BFA068012808D14C4869
:103030006830006840F001004949683108601DE0CF
:10304000A06805280DD146486830006840F00400AB
:103050004349683108600846006840F00100086094
:103060000CE03F486830006820F001003C496831BE
:1030700008600846006820F00400086000BFA068EF
:10308000A8B1FFF77FFA054609E0FFF77BFA401B7E
:1030900041F28831884202D903205DE626E03048BB
:1030A00068300068C0F340000028EED013E0FFF75E
:1030B00069FA054608E0FFF765FA401B41F28831DE
:1030C000884201D9032047E6254868300068C0F3EC
:1030D00040000028EFD1012F07D121483830006887
:1030E00020F080501E493831086000BFA0690028D8
:1030F00051D01B48006800F00C00082861D0A0697E
:10310000022849D1002017490866FFF73BFA054617
:1031100006E0FFF737FA401B022801D903201BE61F
:103120000F4808380068C0F340600028F1D1D4E9A6
:1031300007010843616A40EA81110122A06AC2EBDB
:10314000500041EA00412C20005D41EA006130203E
:10315000005D41EA00700249091F0860012007E094
:103160000838024000004742800E4742007000408D
:103170002F490866FFF706FA054606E0FFF702FA50
:10318000401B022801D90320E6E52A480068C0F365
:1031900040600028F2D048E0002025490866FFF78B
:1031A000F1F9054606E0FFF7EDF9401B022801D9C9
:1031B0000320D1E51F480068C0F340600028F2D129
:1031C00033E0A069012800D1C6E51A48001D066851
:1031D000A069012827D006F48001E069814222D14C
:1031E00006F03F01206A81421DD147F6C070304091
:1031F000616AB0EB811F16D106F440310122A06A4A
:10320000C2EB5000B1EB004F0DD106F070612C20E5
:10321000005DB1EB006F06D106F0E0413020005DAB
:10322000B1EB007F01D0012096E5002094E500007D
:10323000000047420038024070B504462546681E2B
:10324000B0F1807F01D301200FE0681E4FF0E02134
:1032500048610F214FF0FF3003F03CFA00204FF09F
:10326000E021886107200861002070BD7047704729
:1032700010B504460CB9012010BD94F83D0028B9E2
:10328000002084F83C00204600F026F8022084F854
:103290003D00211D206802F05DFD012084F84600FC
:1032A00000BF84F83E0001213F2001554020015518
:1032B0004120015500BF00BF012084F84200432097
:1032C0000155442001554520015500BF012084F8D7
:1032D0003D000020D0E7000038B504460E492068C4
:1032E000884217D100BF002000900C48006840F4CD
:1032F00080700A4908600846006800F480700090F9
:1033000000BF00BF002211462D20FFF715FB2D2026
:10331000FFF7FEFA38BD00000020004040380240B0
:10332000704770B504462068C5682068066906F0D5
:103330000200022819D105F00200022815D1401F11
:1033400021680861012020772068806900F003006F
:1033500018B12046FFF7E4FF05E0204600F097F89B
:10336000204600F095F80020207706F0040004289D
:1033700019D105F00400042815D1C0432168086163
:10338000022020772068806900F4407018B1204640
:10339000FFF7C6FF05E0204600F079F8204600F070
:1033A00077F80020207706F00800082819D105F0EA
:1033B0000800082815D1C04321680861042020773F
:1033C0002068C06900F0030018B12046FFF7A8FF8D
:1033D00005E0204600F05BF8204600F059F8002098
:1033E000207706F01000102819D105F010001028E1
:1033F00015D1C04321680861082020772068C06982
:1034000000F4407018B12046FFF78AFF05E020461F
:1034100000F03DF8204600F03BF80020207706F051
:10342000010048B105F0010030B16FF001002168E2
:103430000861204600F02DF806F08000802809D1B0
:1034400005F08000802805D1C0432168086120462E
:10345000FFF70CFF06F04000402809D105F04000BE
:10346000402805D1C04321680861204600F012F8C9
:1034700006F02000202809D105F02000202805D1E1
:10348000C043216808612046FFF7F1FE70BD704718
:103490007047704770477047704700002DE9F84F3C
:1034A0000446206805682068C668206847694FF0B0
:1034B0000009CA4605F00F09B9F1000F0AD105F05D
:1034C000200038B106F0200020B1204602F092FD25
:1034D000BDE8F88FB9F1000F7CD007F0010018B9F2
:1034E00006F49070002875D005F0010030B106F4A4
:1034F000807018B1606C40F00100606405F0040059
:1035000030B107F0010018B1606C40F00200606457
:1035100005F0020030B107F0010018B1606C40F016
:103520000400606405F0080048B106F0200010B9FE
:1035300007F0010018B1606C40F008006064606C36
:10354000002846D005F0200028B106F0200010B178
:10355000204602F04FFD20684069C0F3801A606C7D
:1035600000F0080010B9BAF1000F2DD0204602F08B
:10357000FBFC2068406900F04000402820D100BFDB
:1035800000BF2168143151E8001F21F0400021687C
:10359000143141E80002002AF3D100BFE06B50B1C2
:1035A0007748E16B0865E06BFEF7C3FE88B1E06B1E
:1035B000016D88470DE02046FFF76EFF09E009E046
:1035C0002046FFF769FF04E02046FFF765FF002073
:1035D00060647DE7206B012878D105F01000002899
:1035E00074D006F010000028FAD000BF0020009030
:1035F00020680068009020684068009000BF00BF0D
:103600002068406900F04000402860D1E06B00680D
:1036100040681FFA80F8B8F1000F56D0A08D4045E1
:1036200053DDA4F82E80E06BC069B0F5807F43D0F5
:1036300000BF00BF21680C3151E8001F21F48070E9
:1036400021680C3141E80002002AF3D100BF00BF1D
:1036500000BF2168143151E8001F21F001002168EA
:10366000143141E80002002AF3D100BF00BF00BFBF
:103670002168143151E8001F21F040002168143105
:1036800041E80002002AF3D100BF202084F8420064
:103690000020206300BF00BF21680C3151E8001FEB
:1036A00021F0100021680C3141E80002002AF3D11A
:1036B00000BFE06BFEF7E7FD02206063A08DE28DA6
:1036C000801A81B22046FFF7E6FE01E742E0A08DB6
:1036D000E18D401A1FFA80F8E08DD0B3B8F1000FE9
:1036E00037D000BF00BF21680C3151E8001F21F422
:1036F000907021680C3141E80002002AF3D100BF2C
:1037000000BF00BF2168143151E8001F21F0010003
:103710002168143141E80002002AF3D100BF2020C3
:1037200084F842000020206300BF00BF21680C31F4
:1037300051E8001F21F0100021680C3141E800021F
:10374000002AF3D100BF0220606341462046FFF704
:10375000A2FEBDE605F0800030B106F0800018B191
:10376000204602F0FBFDB3E605F0400030B106F064
:10377000400018B1204602F02DFCA9E600BFA7E6E4
:10378000555F000810B504460CB9012010BDA069B2
:1037900000B100E000BF94F8410028B9002084F88F
:1037A0004000204600F02AF8242084F841002068D8
:1037B000C06820F400502168C860204602F098FCE0
:1037C0002068006920F49040216808612068406901
:1037D00020F02A00216848612068C06840F4005049
:1037E0002168C86000206064202084F8410084F8CB
:1037F00042000020606300BFC8E7000010B586B03B
:103800000446142101A8FCF729FE4C49206888428F
:1038100038D100BF002000904948006840F40020E3
:10382000474908600846006800F40020009000BF87
:1038300000BF00BF0020009041481038006840F0F1
:1038400001003F49103908600846006800F0010097
:10385000009000BF00BF03200190022002900020D2
:103860000390032004900820059001A93548FEF735
:1038700089FD002211463420FFF75EF83420FFF75F
:1038800047F858E030492068884254D100BF0020F2
:1038900000902B48006840F48010294908600846D1
:1038A000006800F48010009000BF00BF00BF00203F
:1038B000009023481038006840F004002049103977
:1038C00008600846006800F00400009000BF00BFD8
:1038D00000BF002000900846006840F00800086023
:1038E0000846006800F00800009000BF00BF881480
:1038F00001900220029000200390032004900820F1
:10390000059001A91148FEF73DFD04200190022019
:10391000029000200390032004900820059001A944
:103920000B48FEF72FFD002211463520FFF704F863
:103930003520FEF7EDFF06B010BD0000004C004042
:1039400040380240000002400050004000080240A1
:10395000000C024070B504460D46164694F842002D
:1039600020280BD105B10EB9012070BD00202063C5
:1039700032462946204602F0D1FCF6E70220F4E761
:1039800010B50446082205490548FFF7E3FF05483E
:103990000078401C0349087010BD000000000020A2
:1039A000180600200800002010B5034693F84100D7
:1039B000202813D101B10AB9012010BD19629A84DF
:1039C000DA8400205864212083F841001868C06818
:1039D00040F080001C68E0600020EEE70220ECE789
:1039E000704700BFFEE7000021480078AA283ED1BA
:1039F0001F48C079FF283AD11D4840781D490870FA
:103A00001B48807810B11A48807801E01A48007885
:103A1000194908701648C078184908701448007988
:103A20001749087012484079164908701048807983
:103A3000154908701148007810B901200F49087025
:103A40000B48C07811490978884210D01048007896
:103A50000A490978884206D001200E4908700748B3
:103A600000780B4908700248C07808490870704710
:103A700000000020980100209A0100209C010020F5
:103A8000A00100209B0100209D010020A401002036
:103A9000A3010020F4000020F0EE400ADFED0E1A32
:103AA000B0EE610ADFED0D1AB0EE611A9FED0C2A3F
:103AB000C1EE021A80EEA12ADFED091A22EE212AB8
:103AC000DFED082AC2EE221A9FED072A61EE821A64
:103AD000B0EE610A7047000000000000AAE5A644AD
:103AE00000007A44000061450000164300B58BB029
:103AF0001748184908600C2048600021154881606B
:103B0000C1604FF4202101614FF400114161002197
:103B1000017641768176C17601774177FDF788FF9E
:103B200008B1FDF72DFB01200990002006900590BB
:103B300001900290039004900790012008900E20BD
:103B40000A9001A90348FDF7EFFC0BB000BD00008F
:103B500000640040E404002000B58BB01848194907
:103B600008600C204860002116488160C1604FF455
:103B7000202101614FF4001141610021017641765D
:103B80008176C17601774177FDF752FF08B1FDF7E5
:103B9000F7FA012009900E200690012005900020E0
:103BA00001900290039004900790012008900E204D
:103BB0000A9001A90348FDF7B7FC0BB000BD000057
:103BC000006800400C05002000B587B0142102A851
:103BD000FCF744FC00BF002001904548006840F01D
:103BE0000400434908600846006800F004000190A2
:103BF00000BF00BF00BF002001900846006840F0F1
:103C0000800008600846006800F08000019000BF56
:103C100000BF00BF002001900846006840F001008E
:103C200008600846006800F00100019000BF00BF76
:103C300000BF002001900846006840F002000860C4
:103C40000846006800F00200019000BF00BF00BFFE
:103C5000002001900846006840F00800086008460F
:103C6000006800F00800019000BF00BF00220C2196
:103C70002048FEF781FC002207211F48FEF77CFC4C
:103C80000420029001200390002004900120059060
:103C900002A91848FEF776FB082002900120039045
:103CA00000200490059002A91248FEF76BFB042047
:103CB000029000200390049002A91048FEF762FBD6
:103CC000072002900120039000200490059002A993
:103CD0000948FEF757FB4FF4006002900020039064
:103CE000049002A90348FEF74DFB07B000BD000099
:103CF0003038024000080240000402400000024048
:103D000010B50B480B4908600B4848600021094872
:103D10008160C1604FF48041016100214161816196
:103D2000C1610162FEF734FC08B1FDF729FA10BD4C
:103D3000005C004034050020A086010010B50A4850
:103D40000A49086042F22730486000210748816034
:103D500040F2E731C160002101618161FFF788FA1B
:103D600008B1FDF70DFA10BD0020004088050020C5
:103D700010B50B480B4908604FF4E1304860002152
:103D800008488160C16001610C21416100218161AD
:103D9000C161FFF7F7FC08B1FDF7F2F910BD0000B3
:103DA000004C0040D005002010B50B480B490860BE
:103DB0004FF4E1304860002108488160C160016132
:103DC0000C21416100218161C161FFF7DBFC08B179
:103DD000FDF7D6F910BD0000005000401806002085
:103DE00000BFFEE700BFFEE710B52DED108B82B0DF
:103DF000FE48007800287CD0FD4800780028FAD0E2
:103E0000FC4890ED040A10EE101A084604F046FA39
:103E100041EC1B0BB0EE4B0AF0EE6B0A02F0DCFD3E
:103E2000B0EE409AF0EE609AF24890ED030A10EE80
:103E3000101A084604F032FA41EC1D0BB0EE4D0AA0
:103E4000F0EE6D0A02F0C8FDB0EE40BAF0EE60BAD6
:103E5000E84890ED020A10EE101A084604F01EFA27
:103E600041EC1F0BB0EE4F0AF0EE6F0A02F0B4FD0A
:103E7000B0EE40DAF0EE60DADE4890ED010A10EEC6
:103E8000101A084604F00AFA41EC1F0BB0EE4F0A74
:103E9000F0EE6F0A02F0A0FDB0EE40EAF0EE60EA4C
:103EA00053EC1D2B51EC1E0B03F0F0FC41EC1C0BF2
:103EB00053EC1B2B03F0EAFC41EC1A0B53EC192BCF
:103EC00003F0E4FC41EC180B9FEDCB0B53EC102BF3
:103ED00003F090FDCDE900019DED000B51EC100BBE
:103EE00003F0A2FCC6490860C648007810B90A2051
:103EF00004E027E2BD480078C0EB001000EE100A95
:103F0000B8EEC00AC04880ED000ABE48007860B133
:103F1000BE480078012808D0B2EE0E0ABA4880EDFB
:103F2000000A0020BA4908600EE0B648007858B987
:103F3000B6480078012807D09FEDB60AB24880ED58
:103F4000000A0020B2490860AE480078E0B1AF48EE
:103F50000078012818D1B04890ED000AF3EE090A64
:103F6000B4EEE00AF1EE10FA09DAAC4890ED000A7E
:103F7000FBEE090AB4EEE00AF1EE10FA04D8B2EE54
:103F80000E0AA14880ED000AA0480078012804D05C
:103F90000020A3490860A34908609B48D0ED000AAF
:103FA000A04890ED000AB8EEC00A70EE800A98486A
:103FB00090ED000AB8EEC00A30EE800AF1EE000A79
:103FC00030EE200ABCEEC00A10EE100A96490870C6
:103FD0008D48D0ED000A924890ED000AB8EEC00A74
:103FE00030EE800AF1EE000A30EE200ABCEEC00A84
:103FF00010EE100A8D4908708248007810B18C4884
:10400000007828B17F480078B8B989480078A0B115
:104010007B4890ED000AF2EE080AB4EEE00AF1EEF9
:1040200010FA0AD290ED000AFAEE080AB4EEE00A9D
:10403000F1EE10FA01DD01F001FF7B4800787D49C7
:10404000097888427ED0FEF79DFA00217A4B0CCB8E
:10405000821A61EB0300323A884173D372480078C8
:1040600074490978884205DD72480078401C71491E
:1040700008706FE06C4800786E490978884269DA08
:104080005C4890ED030A10EE101A084604F006F999
:1040900041EC190BB0EE490AF0EE690A02F09CFC03
:1040A000B0EE408AF0EE608A9FED640B53EC102B6B
:1040B00051EC180B03F08CFE05D85E480078401ECA
:1040C0005C49087046E04B4890ED030A10EE101A68
:1040D000084604F0E3F841EC190BB0EE490AF0EEA3
:1040E000690A02F079FCB0EE408AF0EE608A9FED3A
:1040F000530B53EC102B51EC180B03F0A3FF24D2FD
:104100003C4890ED030A10EE101A084604F0C6F879
:1041100041EC190BB0EE490AF0EE690A02F05CFCC2
:10412000B0EE408AF0EE608A9FED460B53EC102B08
:1041300051EC180B03F04CFE07D83E480078C01E27
:104140003C4900E020E0087004E03A480078401F55
:1041500038490870012410E0022304223548007811
:1041600000EE100AB8EE400A19462046FCF786FA1F
:104170000120FEF7F3F8601CC4B2022CECDDFEF760
:1041800001FA00212C4A03C2284800782F490978F7
:10419000884276D0FEF7F6F900212D4AD2E90032A6
:1041A000C01A61EB0201323871F1000169D31F4876
:1041B000007826490978884205DD24480078401CAB
:1041C00022490870A3E019480078204909788842FC
:1041D00056DA084890ED030A10EE101A084604F06B
:1041E0005DF841EC190BB0EE490A33E09A0100206A
:1041F000980000202C070020000000000000104064
:10420000980300209B010020C00100209C01002099
:104210007803002000000000A4000020AC00002073
:1042200074030020700300202403002025030020D5
:1042300091030020280300208003002000000000DC
:10424000000034400000000000003E402903002030
:1042500088030020F0EE690A02F0BEFBB0EE408A4F
:10426000F0EE608A1FED0B0B53EC102B51EC180B8A
:1042700003F0AEFD06D83C480078401E3A4908706D
:1042800045E06DE0394890ED030A10EE101A08463B
:1042900004F004F841EC190BB0EE490AF0EE690A9B
:1042A00002F09AFBB0EE408AF0EE608A1FED1D0B23
:1042B00053EC102B51EC180B03F0C4FE22D22B4808
:1042C00090ED030A10EE101A084603F0E7FF41ECE8
:1042D000190BB0EE490AF0EE690A02F07DFBB0EE70
:1042E000408AF0EE608A1FED290B53EC102B51EC45
:1042F000180B03F06DFD05D81B480078C01E1A4945
:10430000087004E018480078401F1749087003241B
:1043100010E0022304221448007800EE100AB8EEE0
:10432000400A19462046FCF7A9F90120FEF716F8C5
:10433000601CC4B2042CECDDFEF724F900210C4A09
:1043400003C20DE0012409E01FED4E0A204600F0F3
:104350000EFA0120FEF702F8601CC4B2052CF3DB54
:1043600002B0BDEC108B10BD290300202C070020EB
:104370008803002010B52DED088BB0EE408AF0EEDA
:10438000608AB0EE419AF0EE619A53EC192B51EC31
:10439000180B03F099FE41EC1B0B9FED220B53EC25
:1043A000102B03F04FFE0ED253EC192B51EC180BCF
:1043B00003F08AFE41EC1B0B9FED1C0B53EC102B02
:1043C00003F082FE05E053EC192B51EC180B03F0BF
:1043D0007BFE41EC1A0B9FED170B53EC102B51ECAD
:1043E0001A0B03F0F5FC08D29FED100B53EC102BC9
:1043F00051EC1A0B03F04AFA01E051EC1A0B41ECB4
:104400001A0B9FED0E0B53EC102B51EC1A0B03F013
:10441000F1FA41EC1B0B03F007FA00EE100ABDECB9
:10442000088B10BD000000000080764000000000F6
:104430000080864000000000007076C00000000090
:104440000000004010B5012048490870FEF79AF8B6
:104450000021474AD2E90032C01A61EB020140F262
:10446000DC53C01A71F100017FD3012014E005284C
:1044700010D011280ED03F49095C3F4A32F8102075
:10448000914202D100213D4A11703A49095C3A4AF1
:1044900022F81010411CC8B21B28E8DB01200CE0F8
:1044A000052808D0112806D03549095C082902D012
:1044B0000021344A1170411CC8B21528F0DB324883
:1044C0000068C82803DB30480068D22812DD2E4877
:1044D0000068D2280EDA2C48006810F1C80F04DCFE
:1044E0002948006810F1D20F04DA2748006810F15B
:1044F000D20F02DC00202549087025480068962864
:1045000003DB23480068A02812DD21480068A028AA
:104510000EDA1F48006810F1960F04DC1C48006892
:1045200010F1A00F04DA1A48006810F1960F02DCAF
:104530000020184908701348007801280DD10F4851
:104540000078012809D113480078012805D10F48C7
:104550000078012801D101E007E000200E49087031
:10456000FEF710F80021024A03C210BDA10300208B
:10457000A8030020C8060020980900209E03002000
:104580000E0700209D030020B4020020FD01002042
:10459000B8020020FC010020A003002070470000AA
:1045A00010B5044604200749086100208860C860EF
:1045B000162040EA44100860034B044A0448FCF704
:1045C0000EFF10BD600600204400002013000020F4
:1045D0000C05002070B52DED0A8BB0EE408A044624
:1045E0000D46544890ED000A38EE400A524880EDDE
:1045F000000A006803F052FE41EC1A0B4F4890EDA0
:10460000000B53EC102B51EC1A0B03F0F3F941ECB7
:10461000190B03F009F94A4908604748006803F09C
:104620003DFE41EC1C0B454890ED000B53EC102B6C
:1046300051EC1C0B03F008FC41EC1A0B41480068DC
:1046400003F02CFE41EC1B0B53EC1A2B03F01EF96C
:1046500041EC190B03F0E8F83A4908603A4890ED4C
:10466000000A20EE080ABDEEC00A384880ED000AB4
:10467000374890ED000A0846D0ED000A20EE200AE7
:10468000BDEEC00A334880ED000A0068022801DD53
:10469000022009E02F48006810F1020F02DA6FF0E3
:1046A000010001E02B4800682A4908602A4890ED83
:1046B000000A2348D0ED000A20EE200ABDEEC00A11
:1046C000264880ED000A214800680968084423490B
:1046D0000968084400EE100AB8EEC00A204880EDD0
:1046E000000A90ED000ADFED1F0AB4EEE00AF1EED9
:1046F00010FA02DD9FED1B0A0FE0194890ED000A49
:10470000DFED190AB4EEE00AF1EE10FA02D29FEDE5
:10471000160A02E0124890ED000A114880ED000AE6
:10472000044880ED008A0E4890ED000ABDEC0A8B2B
:1047300070BD00000C02002000020020700200206A
:104740000402002008020020100200201C020020A9
:104750001402002020020020180200202402002061
:104760004002002000008C4200008CC2704710B54F
:104770002DED028B0446B0EE408A022C02D1B1EE40
:10478000480A01E0B0EE480AB0EE408A0223042253
:10479000B0EE480A01212046FBF770FF0320FDF729
:1047A000DDFDBDEC028B10BD10B52DED028B044676
:1047B000B0EE408A092C02D1B1EE480A01E0B0EE19
:1047C000480AB0EE408A02230422B0EE480A0021D3
:1047D0002046FBF753FF0220FDF7C0FDBDEC028B26
:1047E00010BD000010B521480078214909788842A1
:1047F0003BD01F48007802281AD1002415E0B3EE00
:10480000040A1220FFF7D0FF0A20FDF7A7FDB3EE40
:10481000040A1320FFF7C8FF0A20FDF79FFDB3EE3F
:10482000040A1420FFF7C0FF641C052CE7DB18E026
:10483000002414E09FED0F0A1120FFF7B5FF9FED54
:104840000D0A1220FFF7B0FF9FED0A0A1320FFF7B1
:10485000ABFF9FED080A1420FFF7A6FF641C042C91
:10486000E8DB034800780149087010BDA201002070
:104870009D0100200000000010B52DED028BFE48C8
:104880000078002871D0FD4890ED000AF0EE000A93
:10489000B4EEE00AF1EE10FA11D890ED000AF8EE4D
:1048A000000AB4EEE00AF1EE10FA08DB9FEDF40A1C
:1048B000F44880ED000A0120F349087020E0EF4839
:1048C00090ED000AF0EE000AB4EEE00AF1EE10FA04
:1048D00002DD6FF00E000CE0E84890ED000AF0EE0B
:1048E000000AB4EEE00AF1EE10FA01D20F2000E067
:1048F000002000EE100AB8EEC00AE24880ED000A7F
:10490000E24890ED000AF0EE000AB4EEE00AF1EEA3
:1049100010FA11D890ED000AF8EE000AB4EEE00AA1
:10492000F1EE10FA08DB9FEDD60AD94880ED000AB7
:104930000120D849087021E0D44890ED000AF0EE3B
:10494000000AB4EEE00AF1EE10FA02DD6FF00E009C
:104950000DE0CE4890ED000AF0EE000AB4EEE00A59
:10496000F1EE10FA02D20F2001E0ABE0002000EEE1
:10497000100AB8EEC00AC64880ED000AC64890ED9D
:10498000000AF0EE000AB4EEE00AF1EE10FA11D8D7
:1049900090ED000AF8EE000AB4EEE00AF1EE10FA2B
:1049A00008DB9FEDB70ABD4880ED000A0120BC4935
:1049B000087020E0B84890ED000AF0EE000AB4EE6E
:1049C000E00AF1EE10FA01DD0F200DE0B24890EDA3
:1049D000000AF0EE000AB4EEE00AF1EE10FA02D29C
:1049E0006FF00E0000E0002000EE100AB8EEC00AE2
:1049F000AA4880ED000AAB4890ED000AF0EE000AEC
:104A0000B4EEE00AF1EE10FA11D890ED000AF8EEDB
:104A1000000AB4EEE00AF1EE10FA08DB9FED980A06
:104A2000A14880ED000A0120A049087020E09D48BF
:104A300090ED000AF0EE000AB4EEE00AF1EE10FA92
:104A400002DD6FF00E000CE0964890ED000AF0EEEB
:104A5000000AB4EEE00AF1EE10FA01D20F2000E0F5
:104A6000002000EE100AB8EEC00A8F4880ED000A60
:104A7000B7EE000A8E4880ED000A8E4880ED000AED
:104A80008D4880ED000A8D4880ED000A7E48007850
:104A9000002816D07F4800780028FAD08048007897
:104AA0000028F6D0814800780028F2D000207F4905
:104AB00008707B49087077490870734908706E491F
:104AC0000870FBE36C4800780028FAD17C48007835
:104AD000062876D2DFE800F003F9F8F7F6CF67484A
:104AE00090ED000AF0EE000AB4EEE00AF1EE10FAE2
:104AF00011D890ED000AF8EE000AB4EEE00AF1EEEB
:104B000010FA08DB9FED5E0A5E4880ED000A012086
:104B10005D49087020E0594890ED000AF0EE000A67
:104B2000B4EEE00AF1EE10FA02DD6FF00E000CE0D8
:104B3000524890ED000AF0EE000AB4EEE00AF1EE01
:104B400010FA01D20F2000E0002000EE100AB8EEAB
:104B5000C00A4C4880ED000A4C4890ED000AF0EE87
:104B6000000AB4EEE00AF1EE10FA11D890ED000A56
:104B7000F8EE000AB4EEE00AF1EE10FA08DB9FED61
:104B8000400A434880ED000A01204249087021E0B4
:104B90003E4890ED000AF0EE000AB4EEE00AF1EEB5
:104BA00010FA02DD6FF00E000DE0384890ED000ABB
:104BB000F0EE000AB4EEE00AF1EE10FA02D20F2095
:104BC00001E0F5E3002000EE100AB8EEC00A30481C
:104BD00080ED000A304890ED000AF0EE000AB4EED5
:104BE000E00AF1EE10FA11D890ED000AF8EE000A92
:104BF000B4EEE00AF1EE10FA08DB9FED210A274837
:104C000080ED000A01202649087020E0224890ED3E
:104C1000000AF0EE000AB4EEE00AF1EE10FA01DD4F
:104C20000F200DE01C4890ED000AF0EE000AB4EEF3
:104C3000E00AF1EE10FA02D26FF00E0000E0002060
:104C400000EE100AB8EEC00A144880ED000A1548BC
:104C500090ED000AF0EE000AB4EEE00AF1EE10FA70
:104C60003DD890ED000AF8EE000AB4EEE00AF1EE4D
:104C700010FA34DB2AE0F4E3F4000020A400002062
:104C800000000000C4000020F5000020A800002063
:104C9000C8000020F6000020AC000020CC0000205E
:104CA000F7000020B0000020D0000020F800002015
:104CB000F0000020EC000020E8000020E4000020CC
:104CC0009C010020FDE366E1ADE22AE01FED140A3D
:104CD000FE4880ED000A0120FD49087020E0FD48F3
:104CE00090ED000AF0EE000AB4EEE00AF1EE10FAE0
:104CF00002DD6FF00E000CE0F64890ED000AF0EED9
:104D0000000AB4EEE00AF1EE10FA01D20F2000E042
:104D1000002000EE100AB8EEC00AEC4880ED000A50
:104D200080E2ED49087800EBD07149102D3900EE92
:104D3000101AB8EEC00AE94981ED000A084690ED64
:104D4000000AFFEE000AB4EEE00AF1EE10FA7CD899
:104D500090ED000AB1EE400AE148D0ED000A30EED5
:104D6000600AE04880ED000A90ED000AF1EE040AC6
:104D700020EE200ADC4880ED000A084690ED000A8B
:104D8000DA48D0ED000A30EE600AD94880ED000A1A
:104D900090ED000AF1EE040A20EE200AD54880EDDD
:104DA000000A084690ED000AB1EE400A10EE100A23
:104DB00003F074FA41EC180BB0EE480AF0EE680A02
:104DC000FBF7D0FFCC4880ED000A90ED000AB1EE71
:104DD000400ACA48D0ED000AF1EE600A30EE600ADF
:104DE000C74880ED000A90ED000AF1EE040A20EEBB
:104DF000200AC44880ED000AB84890ED000AB1EEE0
:104E0000400A10EE100A03F049FA41EC180BB0EE1C
:104E1000480AF0EE680AFBF7A5FFBB4880ED000AE0
:104E2000B54890ED000AB1EE400AAA48D0ED000A5C
:104E300030EE600AB54880ED000A90ED000AF1EE10
:104E4000040A20EE200AA14800E008E080ED000AF4
:104E5000A24890ED000AAE4880ED000A91E09F481C
:104E600090ED000AF7EE000AB4EEE00AF1EE10FA57
:104E700076DB90ED000AA148D0ED000AF1EE600A61
:104E800030EE600A9E4880ED000A90ED000AF1EED7
:104E9000040A20EE200A9B4880ED000A8F4890ED1E
:104EA000000A8C48D0ED000A30EE600A974880ED89
:104EB000000A90ED000AF1EE040A20EE200A834871
:104EC00080ED000A8548006803F0E8F941EC180B12
:104ED000B0EE480AF0EE680AFBF744FF864880ED22
:104EE000000A90ED000AB1EE400A7D48D0ED000ABC
:104EF00030EE600A7B4880ED000A90ED000AF1EE8A
:104F0000040A20EE200A784880ED000A7348006801
:104F100003F0C4F941EC180BB0EE480AF0EE680A51
:104F2000FBF720FF784880ED000A90ED000A6F48FB
:104F3000D0ED000A30EE600A6D4880ED000A90ED79
:104F4000000AF1EE040A20EE200A6A4880ED000A09
:104F5000624890ED000A6E4880ED000A11E0FFE71C
:104F600001206C490870B7EE000A684880ED000A1D
:104F7000634880ED000A5E4880ED000A594880EDE4
:104F8000000A564890ED000ABDEEC00A10EE100A65
:104F900001F034FA46E1504800785A3800EE100A21
:104FA000B8EEC00A5C4880ED000A90ED000AF0EE11
:104FB000000A30EE600A4A48D0ED000AB4EEE00A7A
:104FC000F1EE10FA10D2544890ED000AF0EE000A0B
:104FD00030EE200A4248D0ED000AB4EEE00AF1EECD
:104FE00010FA01DD00201BE03D4890ED000A4A4820
:104FF000D0ED000AB4EEE00AF1EE10FA01D20F2073
:105000000EE0374890ED000A4348D0ED000AB4EEB8
:10501000E00AF1EE10FA02DD6FF00E0000E0002071
:1050200000EE100AB8EEC00A2F4880ED000A3A4898
:1050300090ED000AF0EE000A30EE600A2B48D0ED49
:10504000000AB4EEE00AF1EE10FA10D2324890ED08
:10505000000AF0EE000A30EE200A2448D0ED000AE3
:10506000B4EEE00AF1EE10FA01DD00201BE01F486B
:1050700090ED000A2848D0ED000AB4EEE00AF1EE07
:1050800010FA01D20F200EE0184890ED000A2248D5
:10509000D0ED000AB4EEE00AF1EE10FA02DD6FF096
:1050A0000E0000E0002000EE100AB8EEC00A114821
:1050B00080ED000A184890ED000AF0EE000A30EE8C
:1050C000600A0E48D0ED000A28E00000D000002061
:1050D000F8000020B0000020A0010020FC0000200B
:1050E000A4000020E4000020C4000020A80000204C
:1050F000E8000020C800002000010020AC000020D3
:10510000EC000020CC0000200C010020F00000206A
:1051100004010020F400002008010020B4EEE00AA1
:10512000F1EE10FA10D2F74890ED000AF0EE000A06
:1051300030EE200AF448D0ED000AB4EEE00AF1EEB9
:1051400010FA01DD002023E0EE4890ED000AF0EEB9
:10515000000A30EE600AEC48D0ED000AB4EEE00A36
:10516000F1EE10FA02DD6FF00E0011E0E54890ED6F
:10517000000AF0EE000A30EE200AE348D0ED000A03
:10518000B4EEE00AF1EE10FA01D20F2000E00020A8
:1051900000EE100AB8EEC00ADC4880ED000AD948DB
:1051A00090ED000AF0EE000A30EE600AD848D0ED2B
:1051B000000AB4EEE00AF1EE10FA10D2D14890EDF8
:1051C000000AF0EE000A30EE200AD148D0ED000AC5
:1051D000B4EEE00AF1EE10FA01DD00201BE0CC484D
:1051E00090ED000AC748D0ED000AB4EEE00AF1EEF7
:1051F00010FA01D20F200EE0C54890ED000AC14818
:10520000D0ED000AB4EEE00AF1EE10FA02DD6FF024
:105210000E0000E0002000EE100AB8EEC00ABD4803
:1052200080ED000AFBE2BC48008800EE100AB8EEF0
:10523000400AB44880ED000A90ED000AB1EE400A41
:10524000F0EE000A30EE600AB448D0ED000AB4EE89
:10525000E00AF1EE10FA12D2AA4890ED000AB1EE7F
:10526000400AF0EE000A30EE200AAC48D0ED000A09
:10527000B4EEE00AF1EE10FA01DD002020E0A748CC
:1052800090ED000A9F48D0ED000AF1EE600AB4EEFE
:10529000E00AF1EE10FA01D20F2011E09F4890EDE4
:1052A000000A9848D0ED000AF1EE600AB4EEE00A78
:1052B000F1EE10FA03DD6FF00E0001E0B0E2002025
:1052C00000EE100AB8EEC00A954880ED000A8D483D
:1052D00090ED000AF0EE000A30EE600A9148D0ED41
:1052E000000AB4EEE00AF1EE10FA10D2854890ED13
:1052F000000AF0EE000A30EE200A8A48D0ED000ADB
:10530000B4EEE00AF1EE10FA01DD00201BE0854862
:1053100090ED000A7B48D0ED000AB4EEE00AF1EE11
:1053200010FA01D20F200EE07E4890ED000A754879
:10533000D0ED000AB4EEE00AF1EE10FA02DD6FF0F3
:105340000E0000E0002000EE100AB8EEC00A764819
:1053500080ED000A6B4890ED000AF0EE000A30EE96
:10536000600A6948D0ED000AB4EEE00AF1EE10FAE6
:1053700010D2644890ED000AF0EE000A30EE200AE8
:105380006148D0ED000AB4EEE00AF1EE10FA01DD5A
:1053900000201CE05C4890ED000A5A48D0ED000A5D
:1053A000B4EEE00AF1EE10FA03D26FF00E000EE058
:1053B00034E2554890ED000A5248D0ED000AB4EEB0
:1053C000E00AF1EE10FA01DD0F2000E0002000EE0F
:1053D000100AB8EEC00A4D4880ED000A494890ED29
:1053E000000AB1EE400AF0EE000A30EE600A4848CA
:1053F000D0ED000AB4EEE00AF1EE10FA12D2414804
:1054000090ED000AB1EE400AF0EE000A30EE200AFC
:105410003F48D0ED000AB4EEE00AF1EE10FA01DDEB
:10542000002020E03A4890ED000A3648D0ED000A0E
:10543000F1EE600AB4EEE00AF1EE10FA01D20F20AC
:1054400011E0334890ED000A2E48D0ED000AF1EE4D
:10545000600AB4EEE00AF1EE10FA03DD6FF00E0020
:1054600001E008E0002000EE100AB8EEC00A29486A
:1054700080ED000AD3E1B0EE080A2C4880ED000A66
:10548000B8EE080A2A4880ED000A284890ED000A84
:10549000F0EE000A30EE600A2048D0ED000AB4EECB
:1054A000E00AF1EE10FA12D2204890ED000AF0EE78
:1054B000000A30EE200A1948D0ED000AB4EEE00AE6
:1054C00000E0EFE0F1EE10FA01DD002033E01348D8
:1054D00090ED000A1548D0ED000AB4EEE00AF1EEB6
:1054E00010FA01D20F2026E00C4890ED000A0F4878
:1054F000D0ED000AB4EEE00AF1EE10FA1ADD6FF01A
:105500000E0018E008010020AC000020CC000020B4
:10551000B0000020D00000209E000020A400002049
:10552000C4000020A8000020C800002010010020B6
:1055300014010020002000EE100AB8EEC00AFD4859
:1055400080ED000AFC4890ED000AF0EE000A30EE13
:10555000600AFA48D0ED000AB4EEE00AF1EE10FA63
:1055600010D2F54890ED000AF0EE000A30EE200A65
:10557000F248D0ED000AB4EEE00AF1EE10FA01DDD7
:1055800000201BE0ED4890ED000AEB48D0ED000A4A
:10559000B4EEE00AF1EE10FA01D20F200EE0E74877
:1055A00090ED000AE448D0ED000AB4EEE00AF1EE16
:1055B00010FA02DD6FF00E0000E0002000EE100A8D
:1055C000B8EEC00ADE4880ED000A9FEDDE0ADE4834
:1055D00080ED000ADD4880ED000AD74890ED000A12
:1055E000F0EE000A30EE600AD948D0ED000AB4EEC1
:1055F000E00AF1EE10FA2ED2CF4890ED000AF0EE5C
:10560000000A30EE200AD248D0ED000AB4EEE00ADB
:10561000F1EE10FA1FDDCF4890ED000AF0EE000A1F
:1056200030EE600ACC48D0ED000AB4EEE00AF1EEAC
:1056300010FA10D2C74890ED000AF0EE000A30EEE2
:10564000200AC548D0ED000AB4EEE00AF1EE10FAE7
:1056500001DD012000E00020C0490870B64890ED4F
:10566000000AF0EE000A30EE600AB948D0ED000AF8
:10567000B4EEE00AF1EE10FA10D2AF4890ED000A55
:10568000F0EE000A30EE200AB148D0ED000AB4EE88
:10569000E00AF1EE10FA01DD012000E00020AF4940
:1056A0000870BCE0B9EE040AA34880ED000AB1EE30
:1056B000040AA84880ED000A9F4890ED000AF0EE29
:1056C000000A30EE600AA248D0ED000AB4EEE00A0B
:1056D000F1EE10FA10D2984890ED000AF0EE000AB0
:1056E00030EE200A9A48D0ED000AB4EEE00AF1EE5E
:1056F00010FA01DD00201BE0954890ED000A8E486D
:10570000D0ED000AB4EEE00AF1EE10FA01D20F205B
:105710000EE08F4890ED000A8748D0ED000AB4EE05
:10572000E00AF1EE10FA02DD6FF00E0000E000205A
:1057300000EE100AB8EEC00A7E4880ED000A7E48EE
:1057400090ED000AF0EE000A30EE600A7B48D0EDE2
:10575000000AB4EEE00AF1EE10FA10D2764890EDAD
:10576000000AF0EE000A30EE200A7448D0ED000A7C
:10577000B4EEE00AF1EE10FA01DD00201BE06F4804
:1057800090ED000A6C48D0ED000AB4EEE00AF1EEAC
:1057900010FA01D20F200EE0684890ED000A66482A
:1057A000D0ED000AB4EEE00AF1EE10FA02DD6FF07F
:1057B0000E0000E0002000EE100AB8EEC00A6048BB
:1057C00080ED000A9FED5F0A5F4880ED000A5F48A8
:1057D00080ED000A584890ED000AF0EE000A30EE25
:1057E000600A5B48D0ED000AB4EEE00AF1EE10FA70
:1057F00010D2514890ED000AF0EE000A30EE200A77
:105800005348D0ED000AB4EEE00AF1EE10FA01DDE3
:10581000012000E000205149087000E000BF00BFF7
:10582000444890ED000AB5EEC00AF1EE10FA0CDD26
:10583000474890ED000ADFED4A0AB4EEE00AF1EEC7
:1058400010FA02DB9FED3F0A17E03A4890ED000A9C
:10585000B5EEC00AF1EE10FA0CD23D4890ED000A08
:10586000DFED400AB4EEE00AF1EE10FA02D89FED47
:10587000350A02E02F4890ED000A2E4880ED000A1C
:105880002F4890ED000AB5EEC00AF1EE10FA0CDDDB
:105890002A4890ED000ADFED320AB4EEE00AF1EE9C
:1058A00010FA02DB9FED270A17E0254890ED000A69
:1058B000B5EEC00AF1EE10FA0CD2204890ED000AC5
:1058C000DFED280AB4EEE00AF1EE10FA02D89FEDFF
:1058D0001D0A02E01A4890ED000A194880ED000AFE
:1058E0001A4890ED000AB5EEC00AF1EE10FA0CD29B
:1058F000194890ED000ADFED1A0AB4EEE00AF1EE65
:1059000010FA02DB9FED0F0A31E0104890ED000A1B
:10591000B5EEC00AF1EE10FA26DD0F4890ED000A50
:10592000DFED100AB4EEE00AF1EE10FA1CD89FED9C
:10593000050A1CE0C400002010010020A80000207F
:10594000C800002000000000D0000020CC00002093
:10595000A400002014010020AC0000201801002049
:105960000000B4420000B4C29A4890ED000A994881
:1059700080ED000A984890ED000AB5EEC00AF1EEFD
:1059800010FA0CDD954890ED000A5FED0B0AB4EEBD
:10599000E00AF1EE10FA02DB1FED160A17E08E485E
:1059A00090ED000AB5EEC00AF1EE10FA0CD28B4869
:1059B00090ED000A5FED150AB4EEE00AF1EE10FA80
:1059C00002D81FED200A02E0834890ED000A8248C9
:1059D00080ED000A824890ED000A8248D0ED000A6E
:1059E000B4EE600AF1EE10FA33D090ED000ADFED6C
:1059F0007E0AB4EEE00AF1EE10FA02DD9FED7A0ABB
:105A00000FE0784890ED000ADFED780AB4EEE00A86
:105A1000F1EE10FA02D29FED750A02E0714890EDA6
:105A2000000A704880ED000A00240AE06D4890EDFD
:105A3000000AB1EE400A6E480078FEF7B5FE601C21
:105A4000C4B2052CF2DB674890ED000A644880ED93
:105A5000000A684890ED000A6748D0ED000AB4EEED
:105A6000600AF1EE10FA33D090ED000ADFED5E0A25
:105A7000B4EEE00AF1EE10FA02DD9FED5B0A0FE0F2
:105A80005D4890ED000ADFED590AB4EEE00AF1EE50
:105A900010FA02D29FED550A02E0574890ED000A35
:105AA000554880ED000A00240AE0534890ED000AB2
:105AB000B1EE400A51480078FEF776FE601CC4B291
:105AC000052CF2DB4C4890ED000A4A4880ED000AB4
:105AD0004B4890ED000A3F48D0ED000AB4EE600A52
