:020000040800F2
:1000000058100020A502000835400008273C0008D1
:1000100031400008DD050008995B00080000000081
:100020000000000000000000000000000B4100087C
:10003000050800080000000009410008A954000854
:10004000BF020008BF020008BF020008BF0200088C
:10005000BF020008BF020008BF020008BF0200087C
:10006000BF020008BF020008BF020008BF0200086C
:10007000BF020008BF020008BF020008BF0200085C
:10008000BF020008BF020008BF020008BF0200084C
:10009000E1050008F1050008BF020008BF020008E2
:1000A000BF020008BF020008BF020008BF0200082C
:1000B000BF020008BF020008BF020008BF0200081C
:1000C000BF020008BF020008BF020008BF0200080C
:1000D000BF020008BF020008BF020008BF020008FC
:1000E000BF020008BF020008BF020008BF020008EC
:1000F000BF02000881550008BF020008BF020008C7
:10010000BF020008BF020008BF020008BF020008CB
:10011000D5560008E5560008BF020008BF020008D7
:10012000BF020008BF020008BF020008BF020008AB
:10013000BF0200080000000000000000BF0200082D
:100140000106000811060008BF020008BF020008EF
:10015000BF020008BF020008BF020008BF0200087B
:10016000BF020008BF020008BF020008BF0200086B
:10017000BF020008BF020008BF0200080000000024
:1001800000000000BF0200080000000000000000A6
:10019000BF0200080000000000000000BF020008CD
:1001A000000000000000000000000000BF02000886
:1001B000BF020008BF020008BF02000829090008AA
:1001C0001909000800F002F800F05CF80AA090E8B5
:1001D000000C82448344AAF10107DA4501D100F002
:1001E00051F8AFF2090EBAE80F0013F0010F18BF73
:1001F000FB1A43F001031847B87A0000D87A0000D0
:100200000A444FF0000C10F8013B13F0070408BF3C
:1002100010F8014B1D1108BF10F8015B641E05D0DA
:1002200010F8016B641E01F8016BF9D113F0080F8F
:100230001EBF10F8014BAD1C0C1B09D16D1E58BF21
:1002400001F801CBFAD505E014F8016B01F8016B58
:100250006D1EF9D59142D6D37047000000230024CB
:1002600000250026103A28BF78C1FBD8520728BFC6
:1002700030C148BF0B6070471FB507F0F6FB1FBDCC
:1002800010B510BD00F05AF91146FFF7F5FF06F062
:10029000EBFD00F078F903B4FFF7F2FF03BC00F0C8
:1002A0007BF900000948804709480047FEE7FEE760
:1002B000FEE7FEE7FEE7FEE7FEE7FEE7FEE7FEE716
:1002C00004480549054A064B704700006D55000873
:1002D000C5010008580A002058100020580C0020C2
:1002E000580C002053EA020C00F069802DE9F04B15
:1002F0004FF00006002B1FBFB3FA83F503FA05F495
:1003000024FA05F65E4012BF1643B2FA82F502FAED
:1003100005F4C5F120051EBF22FA05FC44EA0C04D1
:10032000203556EA044C4FEA144418BF641C4FF0C1
:1003300000084FF00009904271EB030C39D30029FB
:1003400019BFB1FA81F701FA07F6B0FA80F700FA9F
:1003500007F6C7F120071EBF20FA07FC46EA0C0685
:100360002037B6FBF4FCA7EB0507103F07F01F0B87
:10037000CBF120060CFA0BFB2CFA06F644BFB34671
:100380000026202FA4BF5E464FF0000B5BEA060C50
:1003900008BF4FF0010B19EB0B09ABFB027C48EBDC
:1003A0000608C01B06FB02CC0BFB03CC71EB0C0157
:1003B000C1E70B46024641464846BDE8F08B13B5FF
:1003C0004FF000004FF00001AFF30080BDE81C408B
:1003D0007047032A40F2308010F0030C00F01580C3
:1003E00011F8013BBCF1020F624498BF11F801CB38
:1003F00000F8013B38BF11F8013BA2F1040298BF9D
:1004000000F801CB38BF00F8013B11F0030300F006
:100410005A80083AC0F0088051F8043B083A51F875
:1004200004CBA0E80810F5E7121D5CBF51F8043BAF
:1004300040F8043BAFF30080D20724BF11F8013B22
:1004400011F801CB48BF11F8012B24BF00F8013B84
:1004500000F801CB48BF00F8012B70474FF00002B5
:1004600000B5134694469646203922BFA0E80C50AA
:10047000A0E80C50B1F12001BFF4F7AF090728BF85
:10048000A0E80C5048BF0CC05DF804EB890028BF01
:1004900040F8042B08BF704748BF20F8022B11F02A
:1004A000804F18BF00F8012B7047704770477047A6
:1004B00010B500F03BF8006810BD10B5044600F020
:1004C00035F8046010BD10B5203AC0F00B80B1E8DB
:1004D0001850203AA0E81850B1E81850A0E8185079
:1004E000BFF4F5AF5FEA027C24BFB1E81850A0E882
:1004F000185044BF18C918C0BDE810405FEA827C9C
:1005000024BF51F8043B40F8043B08BF7047D207B2
:1005100028BF31F8023B48BF11F8012B28BF20F853
:10052000023B48BF00F8012B7047000000487047AD
:10053000F809002000487047F80900207546FFF7C9
:10054000F9FFAE4605006946534620F00700854690
:1005500018B020B5FFF7B4FEBDE820404FF000060C
:100560004FF000074FF000084FF0000B21F007019B
:10057000AC46ACE8C009ACE8C009ACE8C009ACE8DE
:10058000C0098D46704710B50446AFF30080204681
:10059000BDE81040FFF77FBE01491820ABBEFEE763
:1005A0002600020070470000094901EB8001094A5A
:1005B00012680A60064901EB800191ED000ABDEE68
:1005C000C00A10EE101A09B2034A22F81010704740
:1005D000FC0700202B0000204C08002000BFFEE795
:1005E00010B5024800F069FF10BD0000E0040020D3
:1005F00010B5024800F061FF10BD0000E0040020CB
:1006000010B5024800F059FF10BD00000805002099
:1006100010B5024800F051FF10BD00000805002091
:1006200008B5014661B9002004E00E4A125C0E4B89
:100630001A54401C0328F8DD0B48006800900EE0B7
:1006400001290CD1002005E0064B021D9A5C064BE7
:100650001A54401C0328F7DD0348006800909DED04
:10066000000A08BD2B0000200900002001460020E0
:1006700008784A7842EA0020704700002DE9FF41DF
:100680002DED020B04460D4617461E460020584924
:1006900048600875886008460761012E01D1022074
:1006A00004E0022E01D1002000E002205049C86081
:1006B000182D7AD2DFE805F00C222D3D434F555B13
:1006C000724966177979797979797979797979734C
:1006D0003A4669464748FFF77CFE0D2040EA441041
:1006E0004349086062E03A4669464248FFF771FEB6
:1006F0000C2040EA44103E49086057E03A466946FB
:100700003C48FFF766FE0E2040EA44103849086076
:100710004CE08C20374988714220C8710846009906
:1007200001600820324908610F2040EA4410086047
:100730003CE0032000EB44102D49086036E0042023
:1007400000EB44102A49086030E0052000EB44101B
:10075000274908602AE0142040EA44102449086030
:1007600024E0092040EA4410214908601EE03A468E
:1007700069462048FFF72DFE1C2040EA44101C4922
:10078000086013E03A4669461A48FFF722FE152032
:1007900040EA44101649086008E006E006E0172029
:1007A00040EA44101249086000E000BF00BF4FF06B
:1007B00000080EE0104B0F4A0D49104800F07BFC7A
:1007C0000F480068401C0E49086008F1010000F065
:1007D000FF08B8F1050FEDDB002004E00021054A19
:1007E0001154411CC8B20828F8DB06B0BDE8F081FE
:1007F0005C060020130000204400002008050020B3
:10080000480000207047000000B52DED108B81B02E
:10081000B0EE408AF0EE608A9FED310BB0EE409A68
:10082000F0EE609A9FED300A8DED000A9FED2F0BE0
:1008300053EC102B51EC180B06F08EFC41EC1B0B0B
:100840009FED2C0B53EC102B06F074FE41EC1A0BB1
:10085000B0EE4A0AF0EE6A0A05F0FEFCB0EE409AED
:10086000F0EE609A25490988480006F0FCFD41EC4D
:100870001E0B53EC192B9FED220B51EC100B06F0C5
:100880006BFC41EC1F0B53EC1E2B06F0B1FB41EC53
:100890001D0B53EC1D2B9FED1A0B51EC100B06F0AA
:1008A0005BFC41EC1C0BB0EE4C0AF0EE6C0A05F060
:1008B000F7FAB0EE40BAF0EE60BA9FED130B53ECCE
:1008C000102B51EC1B0B06F035FE41EC1A0B06F019
:1008D0005DFB00909DED000A01B0BDEC108B00BDEA
:1008E0000000000000000000000000000000000008
:1008F000008066401F85EB51B81E09409A00002019
:100900000000000000208C40E79AD56194A94C407B
:1009100072B600BFFEE7000010B5024801F0D7FB39
:1009200010BD00003005002010B5024801F00AFC9F
:1009300010BD00003005002070B50546AC6BA06B03
:1009400010B10020A16B0865E06B10B10020E16BD5
:100950000865204600F07DFB70BD10B50246002002
:1009600001F001034BB140F0420092F8413003F036
:100970002803282B01D040F0B00001F00203022B25
:1009800009D140F0440092F8413003F02803282BAD
:1009900001D040F0B00001F40043B3F5004F01D1A5
:1009A00040F0B800102901D140F09000202901D179
:1009B00040F02000402901D140F0400013681B683E
:1009C00083431468236010BD01688969C1F3400145
:1009D00011B10021026891620168896901F0010189
:1009E00029B90168896941F0010102689161704784
:1009F0002DE9F0470446894694F8410000F02800AC
:100A0000282852D120688069C0F300472068806997
:100A100000F47E00050C20688068C0F30906206899
:100A2000C06800F0FE08E06802282ED105F006003C
:100A3000062101EAE611884216D13546A06C401C19
:100A4000A064A06C022838D10020A064082021688E
:100A5000C86100BF002084F8400000BF2A46394624
:100A6000204601F033FB28E045464FF40041204684
:100A7000FFF773FF00BF002084F8400000BF2A4644
:100A80003946204601F022FB17E04FF40041204692
:100A9000FFF763FF00BF002084F8400000BF2A4634
:100AA0003946204601F012FB07E008202168C861A2
:100AB00000BF002084F8400000BFBDE8F0870000C0
:100AC0002DE9F04104460F4694F84160002084F877
:100AD00042004D48E06200206085606C38436064ED
:100AE000282E03D0292E01D02A2E09D103212046F9
:100AF000FFF733FF282084F841004448606324E076
:100B000048F203012046FFF728FF2046FFF75CFF6D
:100B100094F84100602816D0202084F84100206815
:100B20008069C0F3401070B120688069C0F3001084
:100B300030B110202168C861606C40F0040060642E
:100B400020202168C86100206063256BA06B48B33A
:100B5000112D01D0212D25D12068006800F480409E
:100B6000B0F5804F05D12068006820F480402168EE
:100B70000860A06B01F05BFA01280FD02448A16B3C
:100B8000086500BF002084F8400000BFA06B01F0A2
:100B90003AFA70B3A06B016D884732E0204600F04E
:100BA00058FA2EE0E06B48B3122D01D0222D25D14A
:100BB0002068006800F40040B0F5004F05D12068BF
:100BC000006820F4004021680860E06B01F02FFA13
:100BD00001280FD00E48E16B086500BF002084F8A3
:100BE000400000BFE06B01F00EFA10B1E06B016D48
:100BF000884706E0204600F02CFA02E0204600F08C
:100C000028FABDE8F08100000000FFFF090F00088E
:100C10003909000870B504460D461948E062002005
:100C20002063202084F84100002084F842006063A3
:100C3000C5F3800090B12068406A616A0870606AFC
:100C4000401C6062208D48B1208D401E2085608D43
:100C5000401E6085606C40F00400606448F203014F
:100C60002046FFF77AFE10202168C86100BF0020EF
:100C700084F8400000BF204601F0E0FA70BD00009B
:100C80000000FFFF2DE9F047044689462068D0F8B0
:100C900000804E46E76A94F8415020202168C861E0
:100CA000212D01D0292D07D148F201012046FFF75F
:100CB00054FE2120206314E0222D01D02A2D07D1DB
:100CC00048F202012046FFF748FE2220206308E098
:100CD000282D06D148F203012046FFF73EFE0020F2
:100CE00020632068406840F4004021684860206824
:100CF000406860490840216848602046FFF764FE6C
:100D0000C8F3803060B12068006820F4804021681A
:100D10000860A06B98B1A06B0068406860850EE029
:100D2000C8F3C03058B12068006820F40040216842
:100D30000860E06B18B1E06B006840686085C6F33E
:100D4000800080B126F004062068406A616A08705D
:100D5000606A401C6062208D28B1208D401E208575
:100D6000608D401E6085608D18B1606C40F004009D
:100D70006064C6F3001000B3C8F30010E8B1608DE2
:100D800000BB94F84100282807D1B7F1007F04D1B7
:100D900031462046FFF73EFF23E094F84100292822
:100DA0000CD117F5803F09D010202168C86120467A
:100DB000FFF70AFE204600F061F812E010202168DB
:100DC000C8610EE010202168C861606C40F004002A
:100DD000606417B1B7F1807F03D1616C2046FFF7E3
:100DE0006FFE002084F842006063606C60B1616C4B
:100DF0002046FFF765FE94F84100282837D1314698
:100E00002046FFF707FF32E0E06A10F5803F11D07F
:100E1000204600F033F81848E062202084F84100B2
:100E20000020206300BF84F8400000BF204601F08E
:100E300005FA1CE094F8410022280CD1202084F807
:100E400041000020206300BF84F8400000BF20461E
:100E500001F058FA0BE0202084F8410000202063C4
:100E600000BF84F8400000BF204601F04CFABDE806
:100E7000F087000000E800FE0000FFFF70B50446A8
:100E800020680568002084F84200C5F3803030B146
:100E90002068006820F480402168086008E0C5F3FD
:100EA000C03028B12068006820F400402168086044
:100EB00094F84100292811D1282084F841002120EC
:100EC000206301212046FFF748FD00BF002084F881
:100ED000400000BF204601F016FA14E094F84100EB
:100EE0002A2810D1282084F84100222020630221E2
:100EF0002046FFF732FD00BF002084F8400000BF0D
:100F0000204601F0FFF970BD2DE9F0410446884606
:100F10001646E56A474600BF94F84000012802D112
:100F20000220BDE8F081012084F8400000BFC7F333
:100F3000401038B1C6F3401020B139462046FFF7C3
:100F4000A1FE7FE0C7F30010A8B3C6F3001090B372
:100F5000608D00BB94F84100282807D1B5F1007FCF
:100F600004D139462046FFF755FE6BE094F8410066
:100F700029280CD115F5803F09D010202168C861BF
:100F80002046FFF721FD2046FFF778FF5AE01020AA
:100F90002168C86156E010202168C861606C40F08B
:100FA0000400606415B1B5F1807F4BD1616C2046BF
:100FB000FFF786FD46E0FFE7C7F38000D0B1C6F338
:100FC0008000B8B1608D60B12068406A616A0870C5
:100FD000606A401C6062208D401E2085608D401E2E
:100FE0006085608D30BB15F5803F2BD02046FFF724
:100FF00045FF27E0C7F3C00038B1C6F3C00020B1F9
:1010000039462046FFF7F4FC1CE0C7F3400088B1E6
:10101000C6F3400070B1608D68B1606A00782168E5
:101020008862606A401C6062608D401E6085208D11
:10103000401E208506E0B5F1807F00D015B920461E
:10104000FFF71CFF00BF002084F8400000BF00BF76
:1010500067E710B5044694F8410060280CD12020C1
:1010600084F841000020206300BF84F8400000BFE6
:10107000204601F02AF808E00020206300BF84F831
:10108000400000BF204601F06BF810BD10B50246CD
:1010900092F82030012B01D0022B06D11068406954
:1010A000084314686061002010BD506A40F480203D
:1010B00050620120F8E7F0B504460D461E4694F84C
:1010C000207020688368A86800B900E000BF012F85
:1010D00001D0022F7DD103F0806030B903F00060B1
:1010E00018B903F0805000287ED0C3F301610120BD
:1010F00088403060A86860B9B5F800C0E86840EA88
:101100004C5C206800F5C07000EB0110C0F800C016
:101110000FE0D5E901C040EACC00D5F80CC040EAA8
:101120000C00D4F800C00CF5C07C0CEB011CCCF812
:101130000000D5F810C0206800F5C07000EB011069
:10114000C0F804C0287D01280ED1206800F5C070C9
:1011500000EB0110406840F4807C206800F5C0700E
:1011600000EB0110C0F804C0D079000692F806C068
:1011700040EA0C4092F805C040EA0C2092F804C006
:1011800040EA0C00D4F800C00CF5C07C0CEB011C4C
:10119000CCF80C00D078000692F802C040EA0C406F
:1011A00092F801C040EA0C2092F800C040EA0C001E
:1011B000D4F800C00CF5C07C0CEB011CCCF8080086
:1011C000206800F5C07000EB0110006840F0010CD1
:1011D00001E00FE008E0206800F5C07000EB0110AE
:1011E000C0F800C00020F0BD606A40F400106062EA
:1011F0000120F8E7606A40F4802060620120F2E795
:10120000F0B504460A46216894F82050012D01D01B
:10121000022D7ED1424901F50071086840F00100BD
:101220000860086820F47C5008600868566A40EA44
:1012300006200860107D00F01F06012000FA06F36A
:10124000C8699843C861A1F50071D069C8B9D1F8DF
:101250000C029843C1F80C02908880B2968940EA4B
:10126000064601F51070576940F83760108880B263
:10127000168940EA064601F51070576900EBC70071
:101280004660D069012819D1D1F80C021843C1F881
:101290000C02908880B2168840EA064601F510706C
:1012A000576940F83760908980B2168940EA06464F
:1012B00001F51070576900EBC7004660906928B9C6
:1012C000D1F804029843C1F8040204E0D1F8040202
:1012D0001843C1F80402106928B9D1F814029843E0
:1012E000C1F8140204E0D1F814021843C1F8140242
:1012F000106A012804D1D1F81C021843C1F81C025D
:10130000D1F8000220F00100C1F800020020F0BD79
:10131000FFE7606A40F4802060620120F7E7000088
:1013200000640040704770B5044694F82050012DC9
:1013300001D0022D7DD151B92068C06800F00300B2
:1013400080B9606A40F400106062012070BD2068BE
:10135000006900F0030028B9606A40F40010606280
:101360000120F3E7206800F5D87000EB0110006859
:1013700000F004009060906840B9206800F5D870D3
:1013800000EB01100068400D106007E0206800F5D8
:10139000D87000EB01100068C0085060206800F5AC
:1013A000D87000EB0110006800F00200D0602068E7
:1013B00000F5D87000EB0110406800F00F0008281D
:1013C00002D30820106108E0206800F5D87000EB17
:1013D0000110406800F00F001061206800F5D8701F
:1013E00000EB0110406800F47F40000A9061206823
:1013F00000F5D87000EB01104068000C50612068C7
:1014000000F5D87000EB011080681870206800F5B6
:10141000D87000EB0110806800F47F40000A58701B
:10142000206800F5D87000EB0110806800F47F00A0
:1014300000E03CE0000C9870206800F5D87000EBEC
:1014400001108068000ED870206800F5D87000EB9D
:101450000110C0681871206800F5D87000EB011009
:10146000C06800F47F40000A5871206800F5D87009
:1014700000EB0110C06800F47F00000C9871206838
:1014800000F5D87000EB0110C068000ED87131B9BA
:101490002068C06840F020002668F06005E0206801
:1014A000006940F020002668306100204EE7606A45
:1014B00040F480206062012048E72DE9F05F044697
:1014C0000025206846692068D0F804902068876865
:1014D0002068D0F80CA02068D0F810B02068D0F8B0
:1014E000188006F00100002855D007F00100C0B1B7
:1014F00001202168886007F0020018B1204600F042
:1015000026FD0EE007F0040010B145F4006508E088
:1015100007F0080010B145F4805502E0204600F0C5
:1015200015FD07F48070C8B14FF4807021688860A1
:1015300007F4007018B1204600F00BFD0EE007F430
:10154000806010B145F4005508E007F4006010B168
:1015500045F4804502E0204600F0FAFC07F48030B4
:10156000C8B14FF480302168886007F4003018B1AA
:10157000204600F0F0FC0EE007F4802010B145F4A6
:10158000004508E007F4002010B145F4803502E082
:10159000204600F0DFFC06F0080038B10AF0100029
:1015A00020B145F4007510202168C86006F00400E1
:1015B00040B10AF0080028B108202168C860204620
:1015C00000F01CFA06F0020038B12068C06800F094
:1015D000030010B1204600F013FA06F0400038B1C5
:1015E0000BF0100020B145F48065102021680861DF
:1015F00006F0200040B10BF0080028B10820216857
:101600000861204600F0CEFB06F0100038B12068DB
:10161000006900F0030010B1204600F0C5FB06F49D
:10162000003040B109F0100028B110202168486056
:10163000204600F05BFC06F4803040B109F0080061
:1016400028B1082021684860204600F085FC06F497
:10165000004088B309F0040078B306F4807020B12C
:1016600008F0010008B145F0010506F4007020B152
:1016700008F0020008B145F0020506F4806020B1D0
:1016800008F0040008B145F0040506F40060A0B1BC
:1016900008F0700088B108F07000402817D006DC10
:1016A00010280BD020280CD0302819D10CE050285D
:1016B00010D0602814D110E01DE019E045F00805B5
:1016C0000FE045F010050CE045F0200509E045F07D
:1016D000400506E045F0800503E045F4807500E034
:1016E00000BF00BF2068806920F070002168886119
:1016F0000420216848602DB1606A2843606220465A
:10170000FFF710FEBDE8F09F70B504460CB901204C
:1017100070BD94F8200010B9204600F0AFF82068A2
:10172000006840F001002168086000F0EDFE054609
:101730000DE000F0E9FE401B0A2808D9606A40F479
:1017400000306062052084F820000120E0E7206876
:10175000406800F001000028EBD02068006820F00D
:1017600002002168086000F0CFFE05460DE000F0A1
:10177000CBFE401B0A2808D9606A40F40030606242
:10178000052084F820000120C2E72068406800F0AE
:1017900002000028EBD1207E012806D120680068D5
:1017A00040F080002168086005E02068006820F0B3
:1017B000800021680860607E012806D120680068EA
:1017C00040F040002168086005E02068006820F0D3
:1017D000400021680860A07E012806D120680068CA
:1017E00040F020002168086005E02068006820F0D3
:1017F000200021680860E07E012806D1206800688A
:1018000020F010002168086005E02068006840F0C2
:10181000100021680860207F012806D12068006838
:1018200040F008002168086005E02068006820F0AA
:10183000080021680860607F012806D120680068E0
:1018400040F004002168086005E02068006820F08E
:10185000040021680860D4E90201084321690843B3
:10186000616908436168491E08432168C861002016
:101870006062012084F82000002049E710B586B09E
:101880000446142101A8FEF7E9FD57492068884263
:101890004AD156480068401C544908600846006810
:1018A00001280FD100BF002000905148006840F08F
:1018B00000704F4908600846006800F00070009012
:1018C00000BF00BF00BF00200090494810380068EA
:1018D00040F002004649103908600846006800F0F0
:1018E0000200009000BF00BF4FF440700190022042
:1018F000029000200390032004900920059001A984
:101900003C4800F001FD00221146142000F08AFE40
:10191000142000F073FE00221146152000F082FE14
:10192000152000F06BFE5DE033492068884259D1F4
:1019300000BF002000902E48006840F080602C49D5
:1019400008600846006800F08060009000BF00BF9B
:1019500026480068401C25490860084600680128A0
:101960000FD100BF002000902148006840F00070B7
:101970001F4908600846006800F00070009000BF32
:1019800000BF00BF0020009019481038006840F0E8
:1019900002001749103908600846006800F002008C
:1019A000009000BF00BF4FF4405001900220029011
:1019B00000200390032004900920059001A90D4800
:1019C00000F0A2FC00221146402000F02BFE402037
:1019D00000F014FE00221146412000F023FE4120B9
:1019E00000F00CFE06B010BD00640040CC040020E6
:1019F0004038024000040240006800407047000088
:101A000010B52DED048B0446CD4BCE4A0021204667
:101A1000FFF789FCCB48006813287DD008DC082834
:101A20000DD0092844D0102877D0122876D1D0E0E4
:101A3000142874D0172873D01828F7D167E1C0494B
:101A40000978BF4A527841EA022108B205F00BFD3D
:101A500041EC190B9FEDBC0B53EC102B05F07CFBFC
:101A600041EC180B05F092FAB9490860B44989783D
:101A7000B34AD27841EA022108B205F0F4FC41EC05
:101A8000190B9FEDB10B53EC102B05F065FB41ECEE
:101A9000180B05F07BFAAF490860AF484078401C4E
:101AA000AD494870AD48407D401CAC4948753FE1A8
:101AB000A3490978A24A527841EA022108B205F006
:101AC000D2FC41EC190B9FEDA00B53EC102B05F051
:101AD00043FB41EC180B05F059FAA14908609849FD
:101AE0008978974AD27841EA022108B205F0BBFC16
:101AF00041EC190B9FED940B53EC102B05F02CFBD4
:101B000041EC180B05F042FA96490860924880783B
:101B1000401C9149887004E084E008E007E12FE070
:101B2000A9E08E48807D401C8C49887500E184487E
:101B3000FEF79CFD8C4948808C48006805F024FF26
:101B400041EC180B8849488805F0A4FC41EC190BBE
:101B5000B0EE481AF0EE681AB0EE490AF0EE690AE3
:101B600002F06AFA824880ED000A7B48C078401C87
:101B70007949C8707948C07D401C7849C875D7E05C
:101B80006F48FEF773FD784988807A48006805F051
:101B9000FBFE41EC180B7449888805F07BFC41EC96
:101BA000190BB0EE481AF0EE681AB0EE490AF0EEE2
:101BB000690A02F041FA704880ED000A664800792F
:101BC000401C654908716548007E401C63490876E1
:101BD000AEE05B48FEF74AFD6349C880674800688D
:101BE00005F0D2FE41EC180B5F49C88805F052FCA5
:101BF00041EC190BB0EE481AF0EE681AB0EE490A43
:101C0000F0EE690A02F018FA5D4880ED000A5248C9
:101C10004079401C504948715048407E401C4F4913
:101C2000487685E04648FEF721FD4F490881554832
:101C3000006805F0A9FE41EC180B4B49088905F036
:101C400029FC41EC190BB0EE481AF0EE681AB0EE20
:101C5000490AF0EE690A02F0EFF94B4880ED000AFC
:101C60003D488079401C3C4988713C48807E401C3E
:101C70003A4988765CE03248FEF7F8FC00EE100A3C
:101C8000B8EE400A414880ED000A4148008805F05E
:101C900001FC41EC180B3D48006805F075FE41EC75
:101CA000190BB0EE481AF0EE681AB0EE490AF0EEE1
:101CB000690A02F0C1F9374880ED000A014691ED4A
:101CC000000ADFED350A30EE600ABDEEC00A10EE04
:101CD000100A002801DB014600E0414200EE101A24
:101CE000B8EEC00A2B4981ED000A084690ED000AC3
:101CF000BDEEC00A10EE100A02B20A21274803F016
:101D00002DFF1548C079401C1349C87110E00C48DC
:101D1000FEF7ACFC00EE100AB8EE400A204880ED59
:101D2000000A0D48007A401C0B49087200E000BF11
:101D300000BF002003490860BDEC048B10BD00000B
:101D40001B0000207406002000000000000030404E
:101D5000700000207400002000070020C40600204E
:101D6000780000207C000020F0070020B400002054
:101D7000A4000020B8000020A8000020BC00002023
:101D8000AC000020C0000020B00000201C0100209A
:101D9000400100202C01002000005442D009002006
:101DA000200100207047000010B50446444B454A0E
:101DB00001212046FFF7B7FA42480088C0F34710D8
:101DC000414908703F48007800F01F003F49087003
:101DD00008460078092820D008DC01280DD0032807
:101DE00035D004283FD0052866D148E0142853D0C8
:101DF000152821D017285FD159E035483249097894
:101E0000405C401C3249304A127888542C48007992
:101E100030492D4A127888544FE00120FEF700FC2B
:101E20002D482949097800EB810080ED000A2648F9
:101E30000078FEF7B9FB40E00120FEF7F1FB2648F1
:101E40002149097800EB810080ED000A35E001208E
:101E5000FEF7E6FBBCEEC00A10EE100A1F491A4A54
:101E60001278885429E00120FEF7DAFBBCEEC00AA4
:101E700010EE100A1A49144A127888541DE0002006
:101E8000FEF7CEFBBCEEC00A10EE100AC1B2144839
:101E90000D4A1278815410E00120FEF7C1FB114871
:101EA0000949097800EB810080ED000A05E00E4841
:101EB00003490968016000E000BF00BF10BD0000D9
:101EC0002B000020A80600204C0000204D00002020
:101ED000C40600200A07002028070020C8070020A9
:101EE000DC0700207807002050000020704770B504
:101EF000044694F82000012822D1022084F8200012
:101F00002068006820F001002168086000F0FCFAF9
:101F100005460DE000F0F8FA401B0A2808D9606A6F
:101F200040F400306062052084F82000012070BD7C
:101F30002068406800F001000028EBD16062F6E7FD
:101F4000606A40F4002060620120F0E7704770474B
:101F50007047704770477047704770B50446A56D6D
:101F600000F0D2FA064694F83500022808D0802006
:101F7000606500BF002084F8340000BF012070BD00
:101F80002068006820F01600216808602068406919
:101F900020F0800021684861206C08B9A06C28B14D
:101FA0002068006820F00800216808602068006848
:101FB00020F001002168086010E000F0A5FA801B05
:101FC00005280BD920206065032084F8350000BF68
:101FD000002084F8340000BF0320D0E720680068A8
:101FE00000F001000028E8D194F85C103F20884000
:101FF000A860012084F8350000BF002084F8340078
:1020000000BF00BFBBE7014691F83500022803D0AE
:102010008020486501207047052081F83500086858
:10202000006820F001000A6810600020F3E7014614
:1020300091F835007047000070B5044600F064FA6E
:1020400006462546681C10B104480078054400BFC8
:1020500000F05AFA801BA842FAD370BDD8040020C1
:10206000024692F8410020282DD100BF92F840008E
:10207000012801D102207047012082F8400000BFF2
:10208000242082F841001068006820F001001368E5
:1020900018601068006820F4805013681860106899
:1020A00000680843136818601068006840F0010079
:1020B00013681860202082F8410000BF002082F8D9
:1020C000400000BFD7E70220D5E7704770472DE9F1
:1020D000F04104462068856920680668C5F3002041
:1020E00050B1C6F3C01038B1606C40F001006064BC
:1020F0004FF480702168C861C5F3802050B1C6F3E9
:10210000C01038B1606C40F0080060644FF480602B
:102110002168C861C5F3402050B1C6F3C01038B182
:10212000606C40F0020060644FF400702168C86188
:10213000676C07F00B0018B139462046FEF7C0FC6B
:10214000BDE8F08170B5044620688569206806689E
:10215000606B20B1324629462046636B984770BDBC
:102160007047000010B504460CB9012010BD94F86A
:10217000410028B9002084F84000204600F060F8B3
:10218000242084F841002068006820F001002168C4
:102190000860606820F070602168086120688068CD
:1021A00020F4004021688860E068012805D1A0681B
:1021B00040F400402168886004E0A06840F40440D6
:1021C00021688860E068022806D12068406840F4F1
:1021D00000602168486005E02068406820F40060E5
:1021E00021684860206840681349084321684860B6
:1021F0002068C06820F400402168C860D4E9040168
:102200000843A16940EA01202168C860D4E90701B8
:102210000843216808602068006840F001002168D8
:10222000086000206064202084F8410000202063C2
:1022300084F8420000BF99E7008000027047000068
:1022400010B59EB00446142119A8FEF707F95C21C9
:1022500002A8FEF703F928492068884249D1802066
:1022600002900020159002A800F074FA08B1FEF761
:102270004FFB00BF002001902048006840F00400A0
:102280001E4908600846006800F00400019000BF85
:1022900000BFC020199012201A9001201B9003202B
:1022A0001C9004201D9019A9154800F02DF800BFBE
:1022B0000020019011481030006840F080700F49F4
:1022C000103108600846006800F08070019000BF7F
:1022D00000BF002211465F2000F0A4F95F2000F04B
:1022E0008DF900221146602000F09CF9602000F07A
:1022F00085F91EB010BD000000600040303802407B
:102300000008024070477047F8B502460B460025AA
:10231000002400200021D1E0012606FA01F51E6804
:1023200006EA0504AC4274D11E7906F00306012EBC
:1023300004D01E7906F00306022E13D190684F00D8
:102340000326BE40B0434F00DE68BE40304390607D
:10235000506801268E40B0431E79C6F300168E40A9
:10236000304350601E7906F00306032E09D0D06872
:102370004F000326BE40B0434F009E68BE4030432E
:10238000D0601E7906F00306022E13D1CF0802F1A9
:10239000200656F827004E07F70E0F26BE40B04322
:1023A0004F07FF0E1E69BE403043CF0802F12006E2
:1023B00046F8270010684F000326BE40B0431E7940
:1023C00006F003064F00BE40304310605E6806F41E
:1023D0004036002E71D000BF00260096394E366878
:1023E00046F48046374F3E603E46366806F48046E7
:1023F000009600BF00BF344E8F0856F827008E07A6
:10240000370F0F26BE40B043304EB24202D10026F5
:102410001FE052E02E4EB24201D1012619E02D4EAE
:10242000B24201D1022614E02B4EB24201D1032662
:102430000FE02A4EB24201D104260AE0284EB242F1
:1024400001D1052605E0274EB24201D1062600E063
:1024500007268F073F0FBE4030431B4E8F0846F8BC
:102460002700214E3068A0435E6806F4801606B14E
:1024700020431D4E3060361D3068A0435E6806F470
:10248000001606B12043184E361D3060164E361F1A
:102490003068A0435E6806F4003606B12043124E51
:1024A000361F3060361F3068A0435E6806F4803601
:1024B00006B120430C4E083E3060491C1029FFF441
:1024C0002BAFF8BD443802400838014000000240FC
:1024D0000004024000080240000C024000100240CC
:1024E0000014024000180240083C014002461369F3
:1024F0000B400BB1012000E0002070470AB1816160
:1025000001E00B04836170470148006870470000D8
:10251000D0040020034800680349097808440149B1
:1025200008607047D0040020D804002010B50D4882
:10253000006840F400700B4908600846006840F4E9
:10254000806008600846006840F4807008600320DE
:1025500000F0A6F80F2000F007F800F02BF800209C
:1025600010BD0000003C024070B504460E480078E3
:102570004FF47A71B1FBF0F00C490968B1FBF0F54A
:10258000284600F07BFF08B1012070BD102C07D257
:1025900000222146501E00F045F80548046001E085
:1025A0000120F2E70020F0E7D8040020DC0400203E
:1025B000D404002008B500BF002000900E48006839
:1025C00040F480400C4908600846006800F48040F0
:1025D000009000BF00BF00BF00200090081F0068EF
:1025E00040F08050091F08600846006800F08050E5
:1025F000009000BF00BF08BD4438024001460846B5
:1026000000280DDB00BF00BF00F01F0301229A402D
:1026100043099B0003F1E023C3F8002100BF00BF82
:1026200000BF70472DE9F05F80460D461646002733
:1026300003F018FC074639462A46334601F00700E6
:10264000C0F1070ABAF1040F02D94FF0040A01E001
:10265000C0F1070AD14600F1040ABAF1070F02D20D
:102660004FF0000A01E0A0F1030AD4464FF0010A3E
:102670000AFA09FAAAF1010A0AEA020A0AFA0CFAA3
:102680004FF0010B0BFA0CFBABF1010B0BEA030B48
:102690004AEA0B042146404603F0ECFBBDE8F09FFC
:1026A00000BF00F00702064B19684FF6FF03194000
:1026B000044B0B4343EA0221014B196000BF7047F2
:1026C0000CED00E00000FA0538B5002400BF002042
:1026D00000901D48006840F080501B490860084683
:1026E000006800F08050009000BF00BF0120174933
:1026F0000864FFF709FF044607E0FFF705FF001B2A
:10270000B0F57A7F01D9032038BD1148406800F444
:102710008030B0F5803FF0D101200C494864FFF7CC
:10272000F3FE044607E0FFF7EFFE001BB0F57A7FEB
:1027300001D90320E8E70648406800F40030B0F50E
:10274000003FF0D10020DFE74038024000000E4299
:10275000007000402DE9FE4F0446002500260027AA
:10276000A846A946AA46AB460020029001902078D0
:1027700000F0010058B1FE48006820F0C060A16B75
:102780000843FB490860A06B08B90120029020783B
:1027900000F0020002280BD1F548006820F0C0507C
:1027A000E16B0843F2490860E06B08B90120029030
:1027B000207800F00400042811D1ED48006820F4CE
:1027C0004010216B0843EA490860206BB0F5801F78
:1027D00001D101200290206B08B9012001902078DE
:1027E00000F00800082811D1E148006820F44000FA
:1027F000616B0843DE490860606BB0F5800F01D162
:1028000001200290606B08B901200190207800F04F
:10281000200020286FD100BF00200090D4484C3801
:10282000006840F08050D2494C3908600846006882
:1028300000F08050009000BF00BFCE48006840F418
:102840008070CC490860FFF75FFE054607E0FFF7A0
:102850005BFE401B022802D90320BDE8FE8FC5485D
:10286000006800F480700028F1D0C1481C3800686E
:1028700000F4407656B3B4F8400000F44070B04223
:1028800024D0BB481C38006820F440760120BA49A7
:10289000086000200860B6481C380660006800F038
:1028A000010098B1FFF730FE054608E0FFF72CFE67
:1028B000401B41F28831884201D90320CDE7AC4862
:1028C0001C380068C0F340000028EFD000BFB4F807
:1028D000400000F44070B0F5407F0DD1A44884382A
:1028E000006820F4F810A54A216C11400843A04963
:1028F0008439086008E013E09D488438006820F4BB
:10290000F8109B498439086099481C380068B4F86D
:102910004010C1F30B01084395491C39086000BF02
:10292000207800F01000102803D194F85800944942
:102930000860207800F08000802809D18C48083099
:10294000006820F44000E16C0843894908310860C0
:10295000207800F04000402809D185480830006800
:1029600020F08060A16C084381490831086020880C
:1029700000F48070B0F5807F0FD17D48083000688A
:1029800020F00060616D0843794908310860606D8E
:10299000B0F1006F01D101200190208800F4007097
:1029A000B0F5007F09D172480830006820F08050EF
:1029B000616C08436E4908310860208800F480602B
:1029C000B0F5806F0FD16A480830006820F00050E1
:1029D000216D0843664908310860206DB0F1005F41
:1029E00001D1012002900298012803D02068B0F59F
:1029F000006F7DD1002063498866FFF785FD05469D
:102A000006E0FFF781FD401B022801D9032024E7DF
:102A100057488C380068C0F3C0600028F1D1207896
:102A200000F0010008B1A06B30B1207800F0020086
:102A300002281ED1E06BE0B94D4808380068C0F3A9
:102A40000140401C47004A4808380068C0F303684A
:102A5000D4E9011041EA80100121C1EB570140EA9D
:102A6000014040EA0861207D41EA00704049083990
:102A70000860207800F00400042803D1206BB0F532
:102A8000801F08D0207800F00800082829D1606B4A
:102A9000B0F5800F25D1364808380068C0F30140F2
:102AA000401C4700324808380068C0F30279D4E976
:102AB000011041EA80100121C1EB570140EA0141B8
:102AC000207C41EA006040EA097029490839086021
:102AD0002748006820F01F00A16A491E08432449C6
:102AE0000860208800F48060B0F5806F23D100E09A
:102AF0005BE0206DB0F1005F1DD11D480838006813
:102B0000C0F30140401C4FEA4008194808380068EB
:102B1000C0F30279D4E9011041EA80110122E06892
:102B2000C2EB500041EA004040EA086040EA097008
:102B30000F4908390860208800F40060B0F5006F84
:102B400012D1D4E9011041EA80110122E068C2EB00
:102B5000500041EA0041207C41EA0061207D41EAC9
:102B600000700349083908600120064988660BE0B7
:102B70008C38024000700040400E4742FFFCFF0FBF
:102B8000E011474200004742FFF7BEFC054606E061
:102B9000FFF7BAFC401B022801D903205DE641483B
:102BA0000068C0F3C0600028F2D00198012877D1F6
:102BB00000203D490867FFF7A7FC054606E0FFF740
:102BC000A3FC401B022801D9032046E635480068D3
:102BD000C0F340700028F2D1207800F004000428EF
:102BE00001D1206B30B1207800F00800082824D1F2
:102BF000606B10BB2B4888300068C0F30140401C5C
:102C00004FEA400AD4E9061041EA80100121C1EBE5
:102C10005A0140EA01412420005D41EA0060214957
:102C200088310860081D006820F4F851E06A401EF1
:102C300041EA00201B498C310860208800F4807034
:102C4000B0F5807F17D1606DB0F1006F13D11548DA
:102C500088300068C0F3036BD4E9061041EA8011A4
:102C60000122206AC2EB500041EA004040EA0B60BA
:102C70000C498831086001200B490867FFF744FCC4
:102C8000054607E0FFF740FC401B022802D903205D
:102C9000E3E505E003480068C0F340700028F1D088
:102CA0000020DAE5003802400000474270B50446D3
:102CB0000D460CB9012070BD5848006800F00F00A7
:102CC000A84209D255490D700846006800F00F006F
:102CD000A84201D00120EEE7207800F0020002288F
:102CE0001DD1207800F00400042805D14C4800686C
:102CF00040F4E0504A490860207800F008000828B5
:102D000005D14748006840F46040454908604448A0
:102D1000006820F0F000A16808434149086020786D
:102D200000F00100A8B36068012807D13C480838CA
:102D30000068C0F34040B8B90120BCE760680228D1
:102D400002D06068032807D1354808380068C0F30E
:102D5000406048B90120AEE7314808380068C0F348
:102D6000400008B90120A6E72D48006820F00300C4
:102D7000616808432A490860FFF7C6FB064609E078
:102D8000FFF7C2FB801B41F28831884202D9032041
:102D900091E707E02248006800F00C006168B0EBA2
:102DA000810FEDD11D48006800F00F00A84209D93D
:102DB0001A490D700846006800F00F00A84201D0C3
:102DC000012078E7207800F00400042807D1144897
:102DD000006820F4E050E168084311490860207859
:102DE00000F00800082808D10D48006820F4604071
:102DF000216940EAC1000A49086000F03FF808492B
:102E00000968C1F30311074A515CC84006490860CC
:102E100006480068FFF7A8FB00204CE7003C024092
:102E2000083802407E7A0008DC040020D404002028
:102E30000148006870470000DC04002000B5FFF77F
:102E4000F7FF04490968C1F38221034A515CC84075
:102E500000BD0000083802408E7A000800B5FFF778
:102E6000E7FF04490968C1F34231034A515CC84095
:102E700000BD0000083802408E7A00082DE9F047B6
:102E8000002400250026A146A2463F48006800F025
:102E90000C0030B1042807D0082808D00C286BD1CA
:102EA00038E0DFF8E8A06AE0DFF8E4A067E0364841
:102EB000001F006800F03F043348001F006800F462
:102EC000800078B132483049091F0968C1F3881180
:102ED000A0FB01700146224600233846FDF702FAA6
:102EE00005460DE029482849091F0968C1F38811E2
:102EF000A0FB0171224600233846FDF7F3F9054691
:102F00002148001F0068C0F30140401C4600B5FB8B
:102F1000F6FA34E01C48001F006800F03F041A482D
:102F2000001F006800F4800078B119481649091F95
:102F30000968C1F38811A0FB0170014622460023F5
:102F40003846FDF7CFF905460EE010480E49091F37
:102F50000968C1F38811A0FB0170014622460023D5
:102F60003846FDF7BFF905460748001F0068C0F363
:102F70000279B5FBF9FA02E0DFF810A000BF00BF4C
:102F80005046BDE8F0870000083802400024F400F5
:102F900000127A00F8B504460CB90120F8BD20787B
:102FA00000F0010000286FD0FE48006800F00C001F
:102FB00004281BD0FB48006800F00C00082807D14B
:102FC000F848001F006800F48000B0F5800F0DD0B5
:102FD000F448006800F00C000C2813D1F148001FE1
:102FE000006800F48000B0F5800F0BD1ED48083880
:102FF0000068C0F34040002859D06068002856D1CE
:103000000120CBE700BF6068B0F5803F08D1E548FC
:103010000838006840F48030E249083908601EE052
:103020006068B0F5A02F0DD1DE480838006840F484
:103030008020DC49083908600846006840F4803088
:1030400008600CE0D7480838006820F48030D54983
:10305000083908600846006820F48020086000BF36
:10306000606890B1FFF750FA054606E0FFF74CFAAA
:10307000401B642801D9032090E7CA48083800683B
:10308000C0F340400028F1D011E0FFF73DFA0546BB
:1030900006E0FFF739FA401B642801D903207DE7D9
:1030A000C04808380068C0F340400028F1D12078BB
:1030B00000F0020002286BD1BA48006800F00C0052
:1030C000B8B1B848006800F00C00082805D1B54830
:1030D000001F006800F4800058B1B248006800F09A
:1030E0000C000C281CD1AF48001F006800F48000C1
:1030F000B0B9AC4808380068C0F3400020B1E068BF
:10310000012801D0012049E7A6480838006820F0CE
:10311000F800216940EAC100A2490839086037E097
:10312000E06800B30120A0490860FFF7EDF905460B
:1031300006E0FFF7E9F9401B022801D903202DE73B
:10314000984808380068C0F340000028F1D095483E
:103150000838006820F0F800216940EAC100914970
:103160000839086014E000208F490860FFF7CCF9A7
:10317000054606E0FFF7C8F9401B022801D90320E5
:103180000CE7884808380068C0F340000028F1D1F7
:10319000207800F0080008282CD16069A8B101202F
:1031A00082490860FFF7B0F9054606E0FFF7ACF981
:1031B000401B022801D90320F0E67A486C300068F1
:1031C000C0F340000028F1D014E0002077490860E7
:1031D000FFF79AF9054606E0FFF796F9401B02282B
:1031E00001D90320DAE66F486C300068C0F3400074
:1031F0000028F1D1207800F00400042870D10027C5
:1032000068483830006800F0805090B900BF002056
:10321000009064483830006840F08050614938318F
:1032200008600846006800F08050009000BF00BFB2
:1032300001275F48006800F48070B0B95C480068FE
:1032400040F480705A490860FFF75EF9054606E0D1
:10325000FFF75AF9401B022801D903209EE6544883
:10326000006800F480700028F2D000BFA068012838
:1032700008D14C486830006840F001004949683185
:1032800008601DE0A06805280DD146486830006838
:1032900040F004004349683108600846006840F087
:1032A000010008600CE03F486830006820F0010031
:1032B0003C49683108600846006820F00400086056
:1032C00000BFA068A8B1FFF71FF9054609E0FFF7A6
:1032D0001BF9401B41F28831884202D903205DE688
:1032E00026E0304868300068C0F340000028EED087
:1032F00013E0FFF709F9054608E0FFF705F9401B61
:1033000041F28831884201D9032047E625486830D8
:103310000068C0F340000028EFD1012F07D12148F9
:103320003830006820F080501E493831086000BFF6
:10333000A069002851D01B48006800F00C00082844
:1033400061D0A069022849D1002017490866FFF71B
:10335000DBF8054606E0FFF7D7F8401B022801D945
:1033600003201BE60F4808380068C0F340600028BF
:10337000F1D1D4E907010843616A40EA81110122D1
:10338000A06AC2EB500041EA00412C20005D41EAF6
:1033900000613020005D41EA00700249091F0860A9
:1033A000012007E00838024000004742800E4742F3
:1033B000007000402F490866FFF7A6F8054606E0B2
:1033C000FFF7A2F8401B022801D90320E6E52A48AE
:1033D0000068C0F340600028F2D048E00020254992
:1033E0000866FFF791F8054606E0FFF78DF8401BE9
:1033F000022801D90320D1E51F480068C0F34060CE
:103400000028F2D133E0A069012800D1C6E51A48AE
:10341000001D0668A069012827D006F48001E06934
:10342000814222D106F03F01206A81421DD147F638
:10343000C0703040616AB0EB811F16D106F4403194
:103440000122A06AC2EB5000B1EB004F0DD106F093
:1034500070612C20005DB1EB006F06D106F0E041F9
:103460003020005DB1EB007F01D0012096E5002007
:1034700094E50000000047420038024070B5044661
:103480002546681EB0F1807F01D301200FE0681E41
:103490004FF0E02148610F214FF0FF3002F0EAFCCD
:1034A00000204FF0E021886107200861002070BDF6
:1034B0007047704710B504460CB9012010BD94F850
:1034C0003D0028B9002084F83C00204600F026F892
:1034D000022084F83D00211D206802F087F80120B9
:1034E00084F8460000BF84F83E0001213F200155CA
:1034F000402001554120015500BF00BF012084F844
:10350000420043200155442001554520015500BF8C
:10351000012084F83D000020D0E7000038B50446C3
:103520000E492068884217D100BF002000900C4847
:10353000006840F480700A4908600846006800F49A
:103540008070009000BF00BF002211462D20FFF7C1
:1035500069F82D20FFF752F838BD00000020004028
:1035600040380240704770B504462068C56820683E
:10357000066906F00200022819D105F002000228AF
:1035800015D1401F216808610120207720688069DB
:1035900000F0030018B12046FFF7E4FF05E02046E5
:1035A00000F097F8204600F095F80020207706F00C
:1035B0000400042819D105F00400042815D1C043E3
:1035C00021680861022020772068806900F440703B
:1035D00018B12046FFF7C6FF05E0204600F079F855
:1035E000204600F077F80020207706F00800082831
:1035F00019D105F00800082815D1C04321680861D9
:10360000042020772068C06900F0030018B120462C
:10361000FFF7A8FF05E0204600F05BF8204600F029
:1036200059F80020207706F01000102819D105F075
:103630001000102815D1C0432168086108202077A8
:103640002068C06900F4407018B12046FFF78AFF77
:1036500005E0204600F03DF8204600F03BF8002051
:10366000207706F0010048B105F0010030B16FF09D
:10367000010021680861204600F02DF806F0800066
:10368000802809D105F08000802805D1C043216839
:1036900008612046FFF70CFF06F04000402809D1E2
:1036A00005F04000402805D1C0432168086120464C
:1036B00000F012F806F02000202809D105F02000C3
:1036C000202805D1C043216808612046FFF7F1FE9C
:1036D00070BD704770477047704770477047000073
:1036E0002DE9F84F0446206805682068C668206800
:1036F00047694FF00009CA4605F00F09B9F1000FFC
:103700000AD105F0200038B106F0200020B1204693
:1037100002F040F8BDE8F88FB9F1000F7CD007F057
:10372000010018B906F49070002875D005F001006A
:1037300030B106F4807018B1606C40F00100606434
:1037400005F0040030B107F0010018B1606C40F0E2
:103750000200606405F0020030B107F0010018B10A
:10376000606C40F00400606405F0080048B106F0A9
:10377000200010B907F0010018B1606C40F008009B
:103780006064606C002846D005F0200028B106F087
:10379000200010B1204601F0FDFF20684069C0F311
:1037A000801A606C00F0080010B9BAF1000F2DD03B
:1037B000204601F0A9FF2068406900F04000402841
:1037C00020D100BF00BF2168143151E8001F21F053
:1037D00040002168143141E80002002AF3D100BF03
:1037E000E06B50B17748E16B0865E06BFEF70BFCCE
:1037F00088B1E06B016D88470DE02046FFF76EFF52
:1038000009E009E02046FFF769FF04E02046FFF7E2
:1038100065FF002060647DE7206B012878D105F00A
:103820001000002874D006F010000028FAD000BF65
:103830000020009020680068009020684068009098
:1038400000BF00BF2068406900F04000402860D100
:10385000E06B006840681FFA80F8B8F1000F56D09E
:10386000A08D404553DDA4F82E80E06BC069B0F513
:10387000807F43D000BF00BF21680C3151E8001F9A
:1038800021F4807021680C3141E80002002AF3D154
:1038900000BF00BF00BF2168143151E8001F21F0B4
:1038A00001002168143141E80002002AF3D100BF71
:1038B00000BF00BF2168143151E8001F21F0400013
:1038C0002168143141E80002002AF3D100BF202012
:1038D00084F842000020206300BF00BF21680C3143
:1038E00051E8001F21F0100021680C3141E800026E
:1038F000002AF3D100BFE06BFEF72FFB02206063CC
:10390000A08DE28D801A81B22046FFF7E6FE01E726
:1039100042E0A08DE18D401A1FFA80F8E08DD0B30F
:10392000B8F1000F37D000BF00BF21680C3151E85B
:10393000001F21F4907021680C3141E80002002A38
:10394000F3D100BF00BF00BF2168143151E8001F50
:1039500021F001002168143141E80002002AF3D16E
:1039600000BF202084F842000020206300BF00BF79
:1039700021680C3151E8001F21F0100021680C3142
:1039800041E80002002AF3D100BF022060634146F3
:103990002046FFF7A2FEBDE605F0800030B106F03C
:1039A000800018B1204602F0A9F8B3E605F0400007
:1039B00030B106F0400018B1204601F0DBFEA9E668
:1039C00000BFA7E6F556000810B504460CB9012063
:1039D00010BDA06900B100E000BF94F8410028B913
:1039E000002084F84000204600F02AF8242084F8C3
:1039F00041002068C06820F400502168C86020465B
:103A000001F046FF2068006920F4904021680861B9
:103A10002068406920F02A00216848612068C06859
:103A200040F400502168C86000206064202084F8C1
:103A3000410084F842000020606300BFC8E7000036
:103A400010B586B00446142101A8FCF707FD4C49C7
:103A50002068884238D100BF0020009049480068A3
:103A600040F40020474908600846006800F4002040
:103A7000009000BF00BF00BF0020009041481038F8
:103A8000006840F001003F491039086008460068AE
:103A900000F00100009000BF00BF03200190022051
:103AA000029000200390032004900820059001A9B3
:103AB0003548FEF729FC002211463420FEF7B2FDFE
:103AC0003420FEF79BFD58E030492068884254D1ED
:103AD00000BF002000902B48006840F48010294966
:103AE00008600846006800F48010009000BF00BF26
:103AF00000BF0020009023481038006840F0040008
:103B00002049103908600846006800F00400009061
:103B100000BF00BF00BF002000900846006840F0D2
:103B2000080008600846006800F00800009000BF28
:103B300000BF88140190022002900020039003200F
:103B400004900820059001A91148FEF7DDFB042030
:103B5000019002200290002003900320049008208E
:103B6000059001A90B48FEF7CFFB00221146352036
:103B7000FEF758FD3520FEF741FD06B010BD0000F0
:103B8000004C00404038024000000240005000401D
:103B900000080240000C024070B504460D4616466F
:103BA00094F8420020280BD105B10EB9012070BD58
:103BB0000020206332462946204601F07FFFF6E7C9
:103BC0000220F4E710B50446082205490548FFF72E
:103BD000E3FF05480078401C0349087010BD000051
:103BE00000000020140600200800002010B5034645
:103BF00093F84100202813D101B10AB9012010BD6A
:103C000019629A84DA8400205864212083F84100E4
:103C10001868C06840F080001C68E0600020EEE793
:103C20000220ECE7704700BFFEE700002148007863
:103C3000AA283ED11F48C079FF283AD11D484078B4
:103C40001D4908701B48807810B11A48807801E03F
:103C50001A480078194908701648C0781849087041
:103C600014480079174908701248407916490870BD
:103C700010488079154908701148007810B9012062
:103C80000F4908700B48C07811490978884210D054
:103C9000104800780A490978884206D001200E4968
:103CA0000870074800780B4908700248C078084936
:103CB0000870704700000020980100209A01002041
:103CC0009C010020A00100209B0100209D010020FC
:103CD000A4010020A3010020F4000020F0EE400A1F
:103CE000DFED0E1AB0EE610ADFED0D1AB0EE611ACB
:103CF0009FED0C2AC1EE021A80EEA12ADFED091A0F
:103D000022EE212ADFED082AC2EE221A9FED072AB1
:103D100061EE821AB0EE610A7047000000000000F8
:103D2000AAE5A64400007A4400006145000016435D
:103D300000B58BB01748184908600C204860002176
:103D400015488160C1604FF4302101614FF480114A
:103D500041610021017641768176C1760177417714
:103D6000FDF7D2FC08B1FCF7D3FD0120099000203B
:103D70000690059001900290039004900790012016
:103D800008900E200A9001A90348FDF739FA0BB0FC
:103D900000BD000000640040E004002000B58BB0CE
:103DA0001848194908600C204860002116488160B5
:103DB000C1604FF4202101614FF4001141610021E5
:103DC000017641768176C17601774177FDF79CFCDB
:103DD00008B1FCF79DFD012009900E2006900120FE
:103DE000059000200190029003900490079001201C
:103DF00008900E200A9001A90348FDF701FA0BB0C4
:103E000000BD0000006800400805002010B50E4805
:103E10000E4908600E48486000210C48816001216D
:103E2000C1600021016141618161C1610162FEF7F0
:103E300099F908B1FCF76CFD00210448FEF710F970
:103E400008B1FCF765FD10BD0060004030050020A2
:103E5000120E00C000B587B0142102A8FCF7FEFACC
:103E600000BF002001904548006840F0040043492D
:103E700008600846006800F00400019000BF00BF21
:103E800000BF002001900846006840F080000860F4
:103E90000846006800F08000019000BF00BF00BF2E
:103EA000002001900846006840F0010008600846C4
:103EB000006800F00100019000BF00BF00BF0020BB
:103EC00001900846006840F002000860084600685B
:103ED00000F00200019000BF00BF00BF0020019071
:103EE0000846006840F0080008600846006800F0D6
:103EF0000800019000BF00BF00220C212048FEF7FF
:103F0000FDFA002206211F48FEF7F8FA042002906D
:103F100001200390002004900120059002A9184878
:103F2000FEF7F2F90820029001200390002004908F
:103F3000059002A91248FEF7E7F90420029000203C
:103F40000390049002A91048FEF7DEF906200290C3
:103F50000120039000200490059002A90948FEF773
:103F6000D3F94FF40060029000200390049002A95E
:103F70000348FEF7C9F907B000BD00003038024021
:103F800000080240000402400000024010B50A4848
:103F90000A49086042F227304860002107488160E2
:103FA00040F2E731C160002101618161FFF782FACF
:103FB00008B1FCF7ADFC10BD0020004084050020D6
:103FC00010B50B480B4908604FF4E1304860002100
:103FD00008488160C16001610C214161002181615B
:103FE000C161FFF7F1FC08B1FCF792FC10BD0000C5
:103FF000004C0040CC05002010B50B480B49086070
:104000004FF4E1304860002108488160C1600161DF
:104010000C21416100218161C161FFF7D5FC08B12C
:10402000FCF776FC10BD0000005000401406002094
:1040300000BFFEE700BFFEE710B52DED088BB0EE28
:10404000408AF0EE608AB0EE419AF0EE619A53EC4D
:10405000192B51EC180B03F0ADFB41EC1B0B9FED42
:10406000220B53EC102B03F063FB0ED253EC192BF5
:1040700051EC180B03F09EFB41EC1B0B9FED1C0B4E
:1040800053EC102B03F096FB05E053EC192B51EC8D
:10409000180B03F08FFB41EC1A0B9FED170B53EC41
:1040A000102B51EC1A0B03F009FA08D29FED100BFC
:1040B00053EC102B51EC1A0B02F09AFF01E051EC7B
:1040C0001A0B41EC1A0B9FED0E0B53EC102B51EC1D
:1040D0001A0B03F041F841EC1B0B02F057FF00EE06
:1040E000100ABDEC088B10BD000000000080764077
:1040F000000000000080864000000000007076C0D4
:1041000000000000000000407047704710B52DED22
:10411000028B0446B0EE408A092C02D1B1EE480A67
:1041200001E0B0EE480AB0EE408A02230422B0EE6D
:10413000480A00212046FCF7A1FA0220FDF77CFF87
:10414000BDEC028B10BD000010B52DED028BFE48BA
:104150000078002871D0FD4890ED000AF0EE000ACA
:10416000B4EEE00AF1EE10FA11D890ED000AF8EE84
:10417000000AB4EEE00AF1EE10FA08DB9FEDF40A53
:10418000F44880ED000A0120F349087020E0EF4870
:1041900090ED000AF0EE000AB4EEE00AF1EE10FA3B
:1041A00002DD6FF00E000CE0E84890ED000AF0EE42
:1041B000000AB4EEE00AF1EE10FA01D20F2000E09E
:1041C000002000EE100AB8EEC00AE24880ED000AB6
:1041D000E24890ED000AF0EE000AB4EEE00AF1EEDB
:1041E00010FA11D890ED000AF8EE000AB4EEE00AD9
:1041F000F1EE10FA08DB9FEDD60AD94880ED000AEF
:104200000120D849087021E0D44890ED000AF0EE72
:10421000000AB4EEE00AF1EE10FA02DD6FF00E00D3
:104220000DE0CE4890ED000AF0EE000AB4EEE00A90
:10423000F1EE10FA02D20F2001E0ABE0002000EE18
:10424000100AB8EEC00AC64880ED000AC64890EDD4
:10425000000AF0EE000AB4EEE00AF1EE10FA11D80E
:1042600090ED000AF8EE000AB4EEE00AF1EE10FA62
:1042700008DB9FEDB70ABD4880ED000A0120BC496C
:10428000087020E0B84890ED000AF0EE000AB4EEA5
:10429000E00AF1EE10FA01DD0F200DE0B24890EDDA
:1042A000000AF0EE000AB4EEE00AF1EE10FA02D2D3
:1042B0006FF00E0000E0002000EE100AB8EEC00A19
:1042C000AA4880ED000AAB4890ED000AF0EE000A23
:1042D000B4EEE00AF1EE10FA11D890ED000AF8EE13
:1042E000000AB4EEE00AF1EE10FA08DB9FED980A3E
:1042F000A14880ED000A0120A049087020E09D48F7
:1043000090ED000AF0EE000AB4EEE00AF1EE10FAC9
:1043100002DD6FF00E000CE0964890ED000AF0EE22
:10432000000AB4EEE00AF1EE10FA01D20F2000E02C
:10433000002000EE100AB8EEC00A8F4880ED000A97
:10434000B7EE000A8E4880ED000A8E4880ED000A24
:104350008D4880ED000A8D4880ED000A7E48007887
:10436000002816D07F4800780028FAD080480078CE
:104370000028F6D0814800780028F2D000207F493C
:1043800008707B49087077490870734908706E4956
:104390000870FBE36C4800780028FAD17C4800786C
:1043A000062876D2DFE800F003F9F8F7F6CF674881
:1043B00090ED000AF0EE000AB4EEE00AF1EE10FA19
:1043C00011D890ED000AF8EE000AB4EEE00AF1EE22
:1043D00010FA08DB9FED5E0A5E4880ED000A0120BE
:1043E0005D49087020E0594890ED000AF0EE000A9F
:1043F000B4EEE00AF1EE10FA02DD6FF00E000CE010
:10440000524890ED000AF0EE000AB4EEE00AF1EE38
:1044100010FA01D20F2000E0002000EE100AB8EEE2
:10442000C00A4C4880ED000A4C4890ED000AF0EEBE
:10443000000AB4EEE00AF1EE10FA11D890ED000A8D
:10444000F8EE000AB4EEE00AF1EE10FA08DB9FED98
:10445000400A434880ED000A01204249087021E0EB
:104460003E4890ED000AF0EE000AB4EEE00AF1EEEC
:1044700010FA02DD6FF00E000DE0384890ED000AF2
:10448000F0EE000AB4EEE00AF1EE10FA02D20F20CC
:1044900001E0F5E3002000EE100AB8EEC00A304853
:1044A00080ED000A304890ED000AF0EE000AB4EE0C
:1044B000E00AF1EE10FA11D890ED000AF8EE000AC9
:1044C000B4EEE00AF1EE10FA08DB9FED210A27486E
:1044D00080ED000A01202649087020E0224890ED76
:1044E000000AF0EE000AB4EEE00AF1EE10FA01DD87
:1044F0000F200DE01C4890ED000AF0EE000AB4EE2B
:10450000E00AF1EE10FA02D26FF00E0000E0002097
:1045100000EE100AB8EEC00A144880ED000A1548F3
:1045200090ED000AF0EE000AB4EEE00AF1EE10FAA7
:104530003DD890ED000AF8EE000AB4EEE00AF1EE84
:1045400010FA34DB2AE0F4E3F4000020A400002099
:1045500000000000C4000020F5000020A80000209A
:10456000C8000020F6000020AC000020CC00002095
:10457000F7000020B0000020D0000020F80000204C
:10458000F0000020EC000020E8000020E400002003
:104590009C010020FDE366E1ADE22AE01FED140A74
:1045A000FE4880ED000A0120FD49087020E0FD482A
:1045B00090ED000AF0EE000AB4EEE00AF1EE10FA17
:1045C00002DD6FF00E000CE0F64890ED000AF0EE10
:1045D000000AB4EEE00AF1EE10FA01D20F2000E07A
:1045E000002000EE100AB8EEC00AEC4880ED000A88
:1045F00080E2ED49087800EBD07149102D3900EECA
:10460000101AB8EEC00AE94981ED000A084690ED9B
:10461000000AFFEE000AB4EEE00AF1EE10FA7CD8D0
:1046200090ED000AB1EE400AE148D0ED000A30EE0C
:10463000600AE04880ED000A90ED000AF1EE040AFD
:1046400020EE200ADC4880ED000A084690ED000AC2
:10465000DA48D0ED000A30EE600AD94880ED000A51
:1046600090ED000AF1EE040A20EE200AD54880ED14
:10467000000A084690ED000AB1EE400A10EE100A5A
:1046800003F082F941EC180BB0EE480AF0EE680A2C
:10469000FCF7BAF8CC4880ED000A90ED000AB1EEC4
:1046A000400ACA48D0ED000AF1EE600A30EE600A16
:1046B000C74880ED000A90ED000AF1EE040A20EEF2
:1046C000200AC44880ED000AB84890ED000AB1EE17
:1046D000400A10EE100A03F057F941EC180BB0EE47
:1046E000480AF0EE680AFCF78FF8BB4880ED000A34
:1046F000B54890ED000AB1EE400AAA48D0ED000A94
:1047000030EE600AB54880ED000A90ED000AF1EE47
:10471000040A20EE200AA14800E008E080ED000A2B
:10472000A24890ED000AAE4880ED000A91E09F4853
:1047300090ED000AF7EE000AB4EEE00AF1EE10FA8E
:1047400076DB90ED000AA148D0ED000AF1EE600A98
:1047500030EE600A9E4880ED000A90ED000AF1EE0E
:10476000040A20EE200A9B4880ED000A8F4890ED55
:10477000000A8C48D0ED000A30EE600A974880EDC0
:10478000000A90ED000AF1EE040A20EE200A8348A8
:1047900080ED000A8548006803F0F6F841EC180B3C
:1047A000B0EE480AF0EE680AFCF72EF8864880ED75
:1047B000000A90ED000AB1EE400A7D48D0ED000AF3
:1047C00030EE600A7B4880ED000A90ED000AF1EEC1
:1047D000040A20EE200A784880ED000A7348006839
:1047E00003F0D2F841EC180BB0EE480AF0EE680A7C
:1047F000FCF70AF8784880ED000A90ED000A6F484F
:10480000D0ED000A30EE600A6D4880ED000A90EDB0
:10481000000AF1EE040A20EE200A6A4880ED000A40
:10482000624890ED000A6E4880ED000A11E0FFE753
:1048300001206C490870B7EE000A684880ED000A54
:10484000634880ED000A5E4880ED000A594880ED1B
:10485000000A564890ED000ABDEEC00A10EE100A9C
:1048600001F09CF946E1504800785A3800EE100AF1
:10487000B8EEC00A5C4880ED000A90ED000AF0EE48
:10488000000A30EE600A4A48D0ED000AB4EEE00AB1
:10489000F1EE10FA10D2544890ED000AF0EE000A42
:1048A00030EE200A4248D0ED000AB4EEE00AF1EE04
:1048B00010FA01DD00201BE03D4890ED000A4A4857
:1048C000D0ED000AB4EEE00AF1EE10FA01D20F20AA
:1048D0000EE0374890ED000A4348D0ED000AB4EEF0
:1048E000E00AF1EE10FA02DD6FF00E0000E00020A9
:1048F00000EE100AB8EEC00A2F4880ED000A3A48D0
:1049000090ED000AF0EE000A30EE600A2B48D0ED80
:10491000000AB4EEE00AF1EE10FA10D2324890ED3F
:10492000000AF0EE000A30EE200A2448D0ED000A1A
:10493000B4EEE00AF1EE10FA01DD00201BE01F48A2
:1049400090ED000A2848D0ED000AB4EEE00AF1EE3E
:1049500010FA01D20F200EE0184890ED000A22480C
:10496000D0ED000AB4EEE00AF1EE10FA02DD6FF0CD
:104970000E0000E0002000EE100AB8EEC00A114858
:1049800080ED000A184890ED000AF0EE000A30EEC3
:10499000600A0E48D0ED000A28E00000D000002098
:1049A000F8000020B0000020A0010020FC00002042
:1049B000A4000020E4000020C4000020A800002083
:1049C000E8000020C800002000010020AC0000200A
:1049D000EC000020CC0000200C010020F0000020A2
:1049E00004010020F400002008010020B4EEE00AD9
:1049F000F1EE10FA10D2F74890ED000AF0EE000A3E
:104A000030EE200AF448D0ED000AB4EEE00AF1EEF0
:104A100010FA01DD002023E0EE4890ED000AF0EEF0
:104A2000000A30EE600AEC48D0ED000AB4EEE00A6D
:104A3000F1EE10FA02DD6FF00E0011E0E54890EDA6
:104A4000000AF0EE000A30EE200AE348D0ED000A3A
:104A5000B4EEE00AF1EE10FA01D20F2000E00020DF
:104A600000EE100AB8EEC00ADC4880ED000AD94812
:104A700090ED000AF0EE000A30EE600AD848D0ED62
:104A8000000AB4EEE00AF1EE10FA10D2D14890ED2F
:104A9000000AF0EE000A30EE200AD148D0ED000AFC
:104AA000B4EEE00AF1EE10FA01DD00201BE0CC4884
:104AB00090ED000AC748D0ED000AB4EEE00AF1EE2E
:104AC00010FA01D20F200EE0C54890ED000AC1484F
:104AD000D0ED000AB4EEE00AF1EE10FA02DD6FF05C
:104AE0000E0000E0002000EE100AB8EEC00ABD483B
:104AF00080ED000AFBE2BC48008800EE100AB8EE28
:104B0000400AB44880ED000A90ED000AB1EE400A78
:104B1000F0EE000A30EE600AB448D0ED000AB4EEC0
:104B2000E00AF1EE10FA12D2AA4890ED000AB1EEB6
:104B3000400AF0EE000A30EE200AAC48D0ED000A40
:104B4000B4EEE00AF1EE10FA01DD002020E0A74803
:104B500090ED000A9F48D0ED000AF1EE600AB4EE35
:104B6000E00AF1EE10FA01D20F2011E09F4890ED1B
:104B7000000A9848D0ED000AF1EE600AB4EEE00AAF
:104B8000F1EE10FA03DD6FF00E0001E0B0E200205C
:104B900000EE100AB8EEC00A954880ED000A8D4874
:104BA00090ED000AF0EE000A30EE600A9148D0ED78
:104BB000000AB4EEE00AF1EE10FA10D2854890ED4A
:104BC000000AF0EE000A30EE200A8A48D0ED000A12
:104BD000B4EEE00AF1EE10FA01DD00201BE085489A
:104BE00090ED000A7B48D0ED000AB4EEE00AF1EE49
:104BF00010FA01D20F200EE07E4890ED000A7548B1
:104C0000D0ED000AB4EEE00AF1EE10FA02DD6FF02A
:104C10000E0000E0002000EE100AB8EEC00A764850
:104C200080ED000A6B4890ED000AF0EE000A30EECD
:104C3000600A6948D0ED000AB4EEE00AF1EE10FA1D
:104C400010D2644890ED000AF0EE000A30EE200A1F
:104C50006148D0ED000AB4EEE00AF1EE10FA01DD91
:104C600000201CE05C4890ED000A5A48D0ED000A94
:104C7000B4EEE00AF1EE10FA03D26FF00E000EE08F
:104C800034E2554890ED000A5248D0ED000AB4EEE7
:104C9000E00AF1EE10FA01DD0F2000E0002000EE46
:104CA000100AB8EEC00A4D4880ED000A494890ED60
:104CB000000AB1EE400AF0EE000A30EE600A484801
:104CC000D0ED000AB4EEE00AF1EE10FA12D241483B
:104CD00090ED000AB1EE400AF0EE000A30EE200A34
:104CE0003F48D0ED000AB4EEE00AF1EE10FA01DD23
:104CF000002020E03A4890ED000A3648D0ED000A46
:104D0000F1EE600AB4EEE00AF1EE10FA01D20F20E3
:104D100011E0334890ED000A2E48D0ED000AF1EE84
:104D2000600AB4EEE00AF1EE10FA03DD6FF00E0057
:104D300001E008E0002000EE100AB8EEC00A2948A1
:104D400080ED000AD3E1B0EE080A2C4880ED000A9D
:104D5000B8EE080A2A4880ED000A284890ED000ABB
:104D6000F0EE000A30EE600A2048D0ED000AB4EE02
:104D7000E00AF1EE10FA12D2204890ED000AF0EEAF
:104D8000000A30EE200A1948D0ED000AB4EEE00A1D
:104D900000E0EFE0F1EE10FA01DD002033E013480F
:104DA00090ED000A1548D0ED000AB4EEE00AF1EEED
:104DB00010FA01D20F2026E00C4890ED000A0F48AF
:104DC000D0ED000AB4EEE00AF1EE10FA1ADD6FF051
:104DD0000E0018E008010020AC000020CC000020EC
:104DE000B0000020D00000209E000020A400002081
:104DF000C4000020A8000020C800002010010020EE
:104E000014010020002000EE100AB8EEC00AFD4890
:104E100080ED000AFC4890ED000AF0EE000A30EE4A
:104E2000600AFA48D0ED000AB4EEE00AF1EE10FA9A
:104E300010D2F54890ED000AF0EE000A30EE200A9C
:104E4000F248D0ED000AB4EEE00AF1EE10FA01DD0E
:104E500000201BE0ED4890ED000AEB48D0ED000A81
:104E6000B4EEE00AF1EE10FA01D20F200EE0E748AE
:104E700090ED000AE448D0ED000AB4EEE00AF1EE4D
:104E800010FA02DD6FF00E0000E0002000EE100AC4
:104E9000B8EEC00ADE4880ED000A9FEDDE0ADE486B
:104EA00080ED000ADD4880ED000AD74890ED000A49
:104EB000F0EE000A30EE600AD948D0ED000AB4EEF8
:104EC000E00AF1EE10FA2ED2CF4890ED000AF0EE93
:104ED000000A30EE200AD248D0ED000AB4EEE00A13
:104EE000F1EE10FA1FDDCF4890ED000AF0EE000A57
:104EF00030EE600ACC48D0ED000AB4EEE00AF1EEE4
:104F000010FA10D2C74890ED000AF0EE000A30EE19
:104F1000200AC548D0ED000AB4EEE00AF1EE10FA1E
:104F200001DD012000E00020C0490870B64890ED86
:104F3000000AF0EE000A30EE600AB948D0ED000A2F
:104F4000B4EEE00AF1EE10FA10D2AF4890ED000A8C
:104F5000F0EE000A30EE200AB148D0ED000AB4EEBF
:104F6000E00AF1EE10FA01DD012000E00020AF4977
:104F70000870BCE0B9EE040AA34880ED000AB1EE67
:104F8000040AA84880ED000A9F4890ED000AF0EE60
:104F9000000A30EE600AA248D0ED000AB4EEE00A42
:104FA000F1EE10FA10D2984890ED000AF0EE000AE7
:104FB00030EE200A9A48D0ED000AB4EEE00AF1EE95
:104FC00010FA01DD00201BE0954890ED000A8E48A4
:104FD000D0ED000AB4EEE00AF1EE10FA01D20F2093
:104FE0000EE08F4890ED000A8748D0ED000AB4EE3D
:104FF000E00AF1EE10FA02DD6FF00E0000E0002092
:1050000000EE100AB8EEC00A7E4880ED000A7E4825
:1050100090ED000AF0EE000A30EE600A7B48D0ED19
:10502000000AB4EEE00AF1EE10FA10D2764890EDE4
:10503000000AF0EE000A30EE200A7448D0ED000AB3
:10504000B4EEE00AF1EE10FA01DD00201BE06F483B
:1050500090ED000A6C48D0ED000AB4EEE00AF1EEE3
:1050600010FA01D20F200EE0684890ED000A664861
:10507000D0ED000AB4EEE00AF1EE10FA02DD6FF0B6
:105080000E0000E0002000EE100AB8EEC00A6048F2
:1050900080ED000A9FED5F0A5F4880ED000A5F48DF
:1050A00080ED000A584890ED000AF0EE000A30EE5C
:1050B000600A5B48D0ED000AB4EEE00AF1EE10FAA7
:1050C00010D2514890ED000AF0EE000A30EE200AAE
:1050D0005348D0ED000AB4EEE00AF1EE10FA01DD1B
:1050E000012000E000205149087000E000BF00BF2F
:1050F000444890ED000AB5EEC00AF1EE10FA0CDD5E
:10510000474890ED000ADFED4A0AB4EEE00AF1EEFE
:1051100010FA02DB9FED3F0A17E03A4890ED000AD3
:10512000B5EEC00AF1EE10FA0CD23D4890ED000A3F
:10513000DFED400AB4EEE00AF1EE10FA02D89FED7E
:10514000350A02E02F4890ED000A2E4880ED000A53
:105150002F4890ED000AB5EEC00AF1EE10FA0CDD12
:105160002A4890ED000ADFED320AB4EEE00AF1EED3
:1051700010FA02DB9FED270A17E0254890ED000AA0
:10518000B5EEC00AF1EE10FA0CD2204890ED000AFC
:10519000DFED280AB4EEE00AF1EE10FA02D89FED36
:1051A0001D0A02E01A4890ED000A194880ED000A35
:1051B0001A4890ED000AB5EEC00AF1EE10FA0CD2D2
:1051C000194890ED000ADFED1A0AB4EEE00AF1EE9C
:1051D00010FA02DB9FED0F0A31E0104890ED000A53
:1051E000B5EEC00AF1EE10FA26DD0F4890ED000A88
:1051F000DFED100AB4EEE00AF1EE10FA1CD89FEDD4
:10520000050A1CE0C400002010010020A8000020B6
:10521000C800002000000000D0000020CC000020CA
:10522000A400002014010020AC0000201801002080
:105230000000B4420000B4C28C4890ED000A8B48D4
:1052400080ED000A8A4890ED000AB5EEC00AF1EE42
:1052500010FA0CDD874890ED000A5FED0B0AB4EE02
:10526000E00AF1EE10FA02DB1FED160A17E08048A3
:1052700090ED000AB5EEC00AF1EE10FA0CD27D48AE
:1052800090ED000A5FED150AB4EEE00AF1EE10FAB7
:1052900002D81FED200A02E0754890ED000A74481C
:1052A00080ED000A744890ED000A7448D0ED000AC1
:1052B000B4EE600AF1EE10FA2CD090ED000ADFEDAA
:1052C000700AB4EEE00AF1EE10FA02DD9FED6C0A0E
:1052D0000FE06A4890ED000ADFED6A0AB4EEE00ADA
:1052E000F1EE10FA02D29FED670A02E0634890EDFA
:1052F000000A624880ED000A90ED000AB1EE400A13
:1053000061480078FEF702FF5C4890ED000A5A48B9
:1053100080ED000A5D4890ED000A5D48D0ED000A7E
:10532000B4EE600AF1EE10FA2CD090ED000ADFED39
:10533000540AB4EEE00AF1EE10FA02DD9FED500AD5
:105340000FE0534890ED000ADFED4E0AB4EEE00A9C
:10535000F1EE10FA02D29FED4B0A02E04C4890EDBC
:10536000000A4B4880ED000A90ED000AB1EE400AB9
:1053700048480078FEF7CAFE454890ED000A4348C9
:1053800080ED000A444890ED000A3848D0ED000A4C
:10539000B4EE600AF1EE10FA2CD090ED000ADFEDC9
:1053A000380AB4EEE00AF1EE10FA02DD9FED340A9D
:1053B0000FE02E4890ED000ADFED320AB4EEE00A6D
:1053C000F1EE10FA02D29FED2F0A02E0274890ED8D
:1053D000000A264880ED000A90ED000AB1EE400A6E
:1053E0002E480078FEF792FE204890ED000A2A48E9
:1053F00080ED000A2A4890ED000A1D48D0ED000A11
:10540000B4EE600AF1EE10FA2CD090ED000ADFED58
:105410001C0AB4EEE00AF1EE10FA02DD9FED180A64
:105420000FE0134890ED000ADFED160AB4EEE00A33
:10543000F1EE10FA02D29FED130A02E00C4890ED53
:10544000000A0B4880ED000A90ED000AB1EE400A18
:1054500014480078FEF75AFE054890ED000A1048FF
:1054600080ED000ABDEC028B10BD0000CC000020D6
:10547000D0000020B0000020D4000020C400002094
:1054800000004842000048C261000020D80000200F
:10549000C800002062000020DC0000206300002023
:1054A000E00000206400002010B5FDF733F810BDC7
:1054B00000B593B0342106A8FAF7D0FF142101A853
:1054C000FAF7CCFF00BF002000902648006840F0AB
:1054D0008050244908600846006800F08050009021
:1054E00000BF00BF00BF002000901F48006840F4CC
:1054F00040401D4908600846006800F440400090A4
:1055000000BF00BF012006900004079002200C900D
:1055100041050D9104210E91B4210F9102211091AA
:105520001191129106A8FDF735FD08B1FBF7F0F9CE
:10553000FDF7CAF808B1FBF7EBF90F200190032043
:105540000290002003904FF4A05004904FF480503C
:105550000590052101A8FDF7A9FB08B1FBF7D8F9D3
:1055600013B000BD4038024000700040034800689E
:1055700040F47000014908607047000088ED00E0C9
:1055800010B51448FDF7EFFF134890ED000ADFED6A
:10559000130AB4EEE00AF1EE10FA01DB012000E09C
:1055A00000200F4908700F480088401C0D490880F2
:1055B00008460088052190FBF1F201FB120040B97A
:1055C00007484078401C0649487002220648FEF70A
:1055D0000DFB10BD840500205000002000002C426F
:1055E000EC030020C60400201406002010B5026859
:1055F0002D4B98420ED0B0F1804F0BD02B4B9842E0
:1056000008D02B4B984205D02A4B984202D02A4B07
:10561000984203D122F070024B681A43224B984201
:1056200020D0B0F1804F1DD0204B98421AD0204B93
:10563000984217D01F4B984214D01F4B984211D05C
:105640001E4B98420ED01E4B98420BD01D4B9842D9
:1056500008D01D4B984205D01C4B984202D01C4BE1
:10566000984203D122F44072CB681A4322F080039F
:105670004C6943EA040202608B68C3620B68836270
:10568000094B984202D00C4B984201D10B6903633D
:1056900001234361036903F001031BB1036923F094
:1056A0000103036110BD0000000001400004004040
:1056B00000080040000C0040000401400040014090
:1056C000004401400048014000180040001C004018
:1056D0000020004010B50248FEF702F810BD00009F
:1056E000CC05002010B50248FDF7FAFF10BD000000
:1056F0001406002070B50546AC6B0020E085E08400
:105700002046FDF7EBFF70BD00BF00BF02680C3202
:1057100052E8002F22F4907102680C3242E8001324
:10572000002BF3D100BF00BF00BF0268143252E863
:10573000002F22F001010268143242E80013002B0E
:10574000F3D100BF016B01290ED100BF00BF026879
:105750000C3252E8002F22F0100102680C3242E8AD
:105760000013002BF3D100BF202180F8421000214C
:105770000163704710B504462068C06820F04000FF
:105780002168C860202084F841002046FEF74AFACC
:10579000002010BDF8B5044694F84200222875D1C7
:1057A000A068B0F5805F0CD1206950B90025A66AC9
:1057B00020684068C0F308003080A06A801CA062A6
:1057C00015E0A56A0026A068B0F5805F03D0A06848
:1057D00028B9206918B920684068287004E020685A
:1057E000406800F07F002870A06A401CA062E08D35
:1057F000401E80B2E085002846D12068C06820F0B5
:1058000020002168C8602068C06820F4807021688A
:10581000C8602068406920F00100216848612020AC
:1058200084F8420000206063206B012826D100200C
:10583000206300BF00BF21680C3151E8001F21F038
:10584000100021680C3141E80002002AF3D100BFAA
:105850002068006800F0100010280AD100BF002066
:10586000009020680068009020684068009000BFA9
:1058700000BFA18D2046FDF730FF02E02046FEF775
:10588000A1F90020F8BD01E00020FBE70220F9E7C4
:105890002DE9F84F04462068006920F44050E16883
:1058A0000843216808612169A068084361690843C9
:1058B000E169084300902068C06849F20C618843A0
:1058C000009908432168C8602068406920F440704E
:1058D000A16908432168486176492068884203D05D
:1058E00075492068884203D1FDF7B8FA814602E085
:1058F000FDF7A4FA8146E069B0F5004F6CD10220B3
:105900006168A0FB015003461920A9FB0070014605
:105910002A463846FAF7E6FC6421B0FBF1F04FEA7C
:10592000001A02206168A0FB01510B461920A9FB57
:1059300000712A463846FAF7D5FC83460220616892
:10594000A0FB015003461920A9FB00712A463846E6
:10595000FAF7C8FC6421B0FBF1F000EBC00101EBE9
:105960000010ABEB8000322101EBC0006421B0FBE2
:10597000F1F000F0F8000AEB400A02206168A0FB99
:10598000015003461920A9FB007001462A463846FB
:10599000FAF7A8FC834602206168A0FB0150034689
:1059A0001920A9FB00712A463846FAF79BFC6421AE
:1059B000B0FBF1F000EBC00101EB0010ABEB80009D
:1059C000322101EBC0006421B0FBF1F000F00700D0
:1059D0005044216888606AE004206168A0FB01509F
:1059E00003461920A9FB007001462A463846FAF7FB
:1059F00079FC824604206168A0FB0150034619200F
:105A0000A9FB007001462A463846FAF76BFC642170
:105A1000B0FBF1F000EBC00101EB0010AAEB80003D
:105A2000322101EB00106421B0FBF1F000F0F00A2C
:105A300004206168A0FB017003461920A9FB0051F6
:105A40003A462846FAF74EFC6421B0FBF1F00AEB27
:105A5000001A04206168A0FB01510B461920A9FB24
:105A600000712A463846FAF73DFC834604206168F7
:105A7000A0FB015003461920A9FB007001462A46ED
:105A80003846FAF72FFC6421B0FBF1F000EBC001BF
:105A900001EB0010ABEB8000322101EB0010642120
:105AA000B0FBF1F000F00F00504421688860BDE8C1
:105AB000F88F0000001001400014014010B50346AB
:105AC00099629A85DA8500205864222083F8420082
:105AD000186928B11868C06840F480701C68E060DC
